:020000040800F2
:10000000B00E00205102000881200008E11B00080A
:100010007D200008CF040008312200080000000005
:100020000000000000000000000000008720000821
:10003000D304000800000000852000088920000883
:100040006B0200086B0200086B0200086B020008DC
:100050006B0200086B0200086B0200086B020008CC
:100060006B0200086B0200086B0200086B020008BC
:100070006B0200086B0200086B0200086B020008AC
:100080006B0200086B0200086B0200086B0200089C
:100090006B0200086B0200086B0200086B0200088C
:1000A0006B0200086B0200086B0200086B0200087C
:1000B0006B0200086B0200086B0200086B0200086C
:1000C0006B0200086B0200086B0200086B0200085C
:1000D0006B0200086B0200086B0200086B0200084C
:1000E0006B0200086B0200086B0200086B0200083C
:1000F0006B0200086B0200086B0200086B0200082C
:100100006B0200086B0200086B0200086B0200081B
:100110006B0200086B0200086B0200086B0200080B
:100120006B0200086B0200086B0200086B020008FB
:100130006B0200086B0200086B0200086B020008EB
:100140006B0200086B0200086B0200086B020008DB
:100150006B0200086B0200086B0200086B020008CB
:100160006B0200086B0200086B0200086B020008BB
:100170006B0200086B0200086B0200080000000020
:100180006B0200086B0200086B0200086B0200089B
:100190006B0200086B0200086B0200086B0200088B
:1001A00000000000000000006B02000800F002F8F0
:1001B00000F03EF80AA090E8000C82448344AAF1C3
:1001C0000107DA4501D100F033F8AFF2090EBAE8C1
:1001D0000F0013F0010F18BFFB1A43F0010318477B
:1001E00088360000A8360000103A24BF78C878C1CD
:1001F000FAD8520724BF30C830C144BF04680C602D
:10020000704700000023002400250026103A28BF74
:1002100078C1FBD8520728BF30C148BF0B60704778
:100220001FB503F009FB00F007F91FBD10B510BDA5
:1002300000F014F91146FFF7F3FF03F02BFA00F07A
:1002400032F903B4FFF7F2FF03BC00F039F9000004
:100250000948804709480047FEE7FEE7FEE7FEE75A
:10026000FEE7FEE7FEE7FEE7FEE7FEE70448054996
:10027000054A064B7047000091200008AD010008B8
:10028000B0080020B00E0020B00A0020B00A002004
:1002900053EA020C00F069802DE9F04B4FF00006A4
:1002A000002B1FBFB3FA83F503FA05F424FA05F611
:1002B0005E4012BF1643B2FA82F502FA05F4C5F1A8
:1002C00020051EBF22FA05FC44EA0C04203556EA3C
:1002D000044C4FEA144418BF641C4FF000084FF060
:1002E0000009904271EB030C39D3002919BFB1FA10
:1002F00081F701FA07F6B0FA80F700FA07F6C7F1BE
:1003000020071EBF20FA07FC46EA0C062037B6FB82
:10031000F4FCA7EB0507103F07F01F0BCBF12006FD
:100320000CFA0BFB2CFA06F644BFB3460026202F2E
:10033000A4BF5E464FF0000B5BEA060C08BF4FF00F
:10034000010B19EB0B09ABFB027C48EB0608C01B49
:1003500006FB02CC0BFB03CC71EB0C01C1E70B4697
:10036000024641464846BDE8F08B13B54FF0000009
:100370004FF00001AFF30080BDE81C40704710B59E
:10038000203AC0F00B80B1E81850203AA0E818508D
:10039000B1E81850A0E81850BFF4F5AF5FEA027C4E
:1003A00024BFB1E81850A0E8185044BF18C918C0BD
:1003B000BDE810405FEA827C24BF51F8043B40F85E
:1003C000043B08BF7047D20728BF31F8023B48BF43
:1003D00011F8012B28BF20F8023B48BF00F8012B81
:1003E00070474FF0000200B51346944696462039F8
:1003F00022BFA0E80C50A0E80C50B1F12001BFF4DE
:10040000F7AF090728BFA0E80C5048BF0CC05DF843
:1004100004EB890028BF40F8042B08BF704748BF91
:1004200020F8022B11F0804F18BF00F8012B704705
:10043000704770477047000070B5064C7C44064D0D
:100440007D4403E0206820448047241DAC42F9D15C
:1004500070BD00004834000048340000754600F0CC
:100460002BF8AE4605006946534620F00700854646
:1004700018B020B5FFF7FAFEBDE820404FF00006A7
:100480004FF000074FF000084FF0000B21F007017C
:10049000AC46ACE8C009ACE8C009ACE8C009ACE8BF
:1004A000C0098D46704710B50446AFF30080204662
:1004B000BDE81040FFF7C5BE004870475008002057
:1004C00001491820ABBEFEE726000200704700BFBE
:1004D000FEE7704772B600BFFEE7000038B502467F
:1004E0000020009000BF92F83C00012801D10220BA
:1004F00038BD012082F83C0000BF0868092816D9E1
:100500001068C0680C780A3C04EB44050724AC4032
:10051000A0431468E0600C780A3C04EB440488684B
:10052000A0401468E46820431468E06013E0106899
:1005300000690C7804EB44050724AC40A043146820
:1005400020610C7804EB44048868A0401468246996
:100550002043146820614868072817D21068406B50
:100560000C79641E04EB84051F24AC40A04314687E
:100570006063088880B20C79641E04EB8404A04098
:100580001468646B20431468606331E048680D2888
:1005900017D21068006B0C79E41F04EB84051F244C
:1005A000AC40A04314682063088880B20C79E41F33
:1005B00004EB8404A0401468246B20431468206377
:1005C00016E01068C06A0C790D3C04EB84051F240A
:1005D000AC40A0431468E062088880B20C790D3CFE
:1005E00004EB8404A0401468E46A20431468E062C9
:1005F0001E4B1F4C1068A0420AD10868122807D170
:10060000586820F400005860586840F48000586032
:10061000174C1068A04222D1164C0868A04202D0A4
:10062000086811281BD1586820F480005860586869
:1006300040F4000058600F4C0868A0420FD10E48EB
:1006400000680E4CB0FBF4F000EB8000400000901E
:1006500002E00098401E009000980028F9D100BFE9
:10066000002082F83C0000BF00BF41E700230140AA
:1006700000200140120000106000002040420F00E6
:10068000704770477047000070B5044600250CB9EC
:10069000012070BD1549A06A884200D000BF206CBF
:1006A00030B9204600F024F80020606484F83C0053
:1006B000206C00F0100088B9206C20F4885040F0C5
:1006C00002002064204602F0ABFC00206064206C35
:1006D00020F0020040F00100206400E0012500BF8E
:1006E000002084F83C0000BF2846D2E70100000F3C
:1006F00010B586B00446142101A8FFF772FE19490F
:10070000206888422BD100BF002000901648006866
:1007100040F48070144908600846006800F4807056
:10072000009000BF00BF00BF002000900E481438AA
:10073000006840F001000C49143908600846006860
:1007400000F00100009000BF00BF0F2001900320C7
:1007500002900020039001A9044800F041F906B07E
:1007600010BD00000020014044380240000002405B
:10077000F8B504460D4616460020009000BF94F8D8
:100780003C00012801D10220F8BD012084F83C0082
:1007900000BF2068806800F00100A0B92068806870
:1007A00040F0010021688860554800685549B0FB59
:1007B000F1F000EB4000009002E00098401E009035
:1007C00000980028F9D12068806800F48070B0F5A6
:1007D000807F05D12068806820F48070216888605F
:1007E0002068806800F0010000287ED0206C40F274
:1007F0000161884340F4807020642068406800F400
:10080000806028B1206C20F4005040F480502064B7
:10081000206C00F48050B0F5805F04D1606C20F053
:100820000600606401E00020606400BF002084F8DE
:100830003C0000BF344F3548A16BC8633448A16BFE
:1008400008643448A16BC8646FF022002168086016
:100850002068406840F080602168486020688068B7
:1008600040F4807021688860226802F14C013346B0
:100870002A46A06B00F056F8786800F01F0018BBFD
:1008800025492068884213D024492068884204D131
:10089000381D006800F01F0050B1214920688842CF
:1008A0002BD11948001D006800F01F00102824D229
:1008B0002068806800F04050F8B92068806840F0F7
:1008C00080402168886018E013492068884214D16C
:1008D0002068806800F0405078B92068806840F057
:1008E00080402168886008E0FFE7206C40F010003D
:1008F0002064606C40F001006064002044E7000068
:100900006000002040420F0000230140932F0008A8
:1009100011300008792F000800200140002101401B
:10092000002201402DE9F04704460D4616461F46B9
:100930004FF00008D4F8589000BF94F83400012814
:1009400002D10220BDE8F087012084F8340000BF06
:1009500094F83500012825D1022084F835000020C4
:1009600060653B4632462946204602F009FC94F871
:100970005C103F208840C9F808002068006840F0FB
:10098000160021680860206C28B12068006840F0DB
:100990000800216808602068006840F001002168B4
:1009A000086006E000BF002084F8340000BF4FF06C
:1009B00002084046C6E7000070B5044600F01EF984
:1009C00006462546681C10B104480078054400BF5F
:1009D00000F014F9801BA842FAD370BD5C0000201F
:1009E000F8B502460B460025002400200021E0E077
:1009F000012606FA01F51E6806EA0504AC4274D128
:100A00001E7906F00306012E04D01E7906F00306B7
:100A1000022E13D190684F000326BE40B0434F0012
:100A2000DE68BE4030439060506801268E40B0437F
:100A30001E79C6F300168E40304350601E7906F0D2
:100A40000306032E09D0D0684F000326BE40B043F2
:100A50004F009E68BE403043D0601E7906F003060A
:100A6000022E13D1CF0802F1200656F827004E07B8
:100A7000F70E0F26BE40B0434F07FF0E1E69BE4063
:100A80003043CF0802F1200646F8270010684F00D7
:100A90000326BE40B0431E7906F003064F00BE4059
:100AA000304310605E6806F44036002E1DD000BF53
:100AB00000260096414E366846F480463F4F3E6021
:100AC0003E46366806F48046009600BF00BF3C4EA6
:100AD0008F0856F827008E07370F0F26BE40B04309
:100AE000384EB24202D100262EE061E0364EB242CC
:100AF00001D1012628E0354EB24201D1022623E081
:100B0000334EB24201D103261EE0324EB24201D131
:100B1000042619E0304EB24201D1052614E02F4ED2
:100B2000B24201D106260FE02D4EB24201D1072676
:100B30000AE02C4EB24201D1082605E02A4EB2420C
:100B400001D1092600E00A268F073F0FBE4030433F
:100B50001B4E8F0846F82700244E3068A0435E687D
:100B600006F4801606B12043204E3060361D3068F2
:100B7000A0435E6806F4001606B120431B4E361DE6
:100B800030601A4E361F3068A0435E6806F40036A7
:100B900006B12043154E361F3060361F3068A04323
:100BA0005E6806F4803606B12043104E083E306081
:100BB000491C1029FFF41CAFF8BD00004438024066
:100BC00008380140000002400004024000080240D2
:100BD000000C0240001002400014024000180240C5
:100BE000001C02400020024000240240083C01405A
:100BF0000AB1816101E00B0483617047014800681C
:100C00007047000054000020034800680349097839
:100C10000844014908607047540000205C0000202F
:100C200010B50D48006840F400700B490860084694
:100C3000006840F4806008600846006840F48070F6
:100C40000860032000F092F80F2000F007F800F091
:100C50002BF8002010BD0000003C024070B5044697
:100C60000E4800784FF47A71B1FBF0F00C49096836
:100C7000B1FBF0F5284600F0F5FB08B1012070BD8E
:100C8000102C07D200222146501E00F031F80548F2
:100C9000046001E00120F2E70020F0E75C000020A2
:100CA000600000205800002008B500BF0020009020
:100CB0000E48006840F480400C490860084600680F
:100CC00000F48040009000BF00BF00BF00200090F3
:100CD000081F006840F08050091F0860084600683F
:100CE00000F08050009000BF00BF08BD44380240B3
:100CF0002DE9F05F80460D461646002702F038FBCE
:100D0000074639462A46334601F00700C0F1070A74
:100D1000BAF1040F02D94FF0040A01E0C0F1070A4A
:100D2000D14600F1040ABAF1070F02D24FF0000ACF
:100D300001E0A0F1030AD4464FF0010A0AFA09FAC9
:100D4000AAF1010A0AEA020A0AFA0CFA4FF0010BA8
:100D50000BFA0CFBABF1010B0BEA030B4AEA0B0499
:100D60002146404602F0F0FABDE8F09F00BF00F0D7
:100D70000702064B19684FF6FF031940044B0B435B
:100D800043EA0221014B196000BF70470CED00E0FF
:100D90000000FA0570B504460D460CB9012070BD7F
:100DA0005848006800F00F00A84209D255490D705C
:100DB0000846006800F00F00A84201D00120EEE7CD
:100DC000207800F0020002281DD1207800F00400F5
:100DD000042805D14C48006840F4E0504A490860B6
:100DE000207800F00800082805D14748006840F442
:100DF0006040454908604448006820F0F000A16860
:100E0000084341490860207800F00100A8B36068F9
:100E1000012807D13C4808380068C0F34040B8B901
:100E20000120BCE76068022802D06068032807D16F
:100E3000354808380068C0F3406048B90120AEE783
:100E4000314808380068C0F3400008B90120A6E71F
:100E50002D48006820F00300616808432A490860B3
:100E6000FFF7CCFE064609E0FFF7C8FE801B41F203
:100E70008831884202D9032091E707E022480068C0
:100E800000F00C006168B0EB810FEDD11D480068E7
:100E900000F00F00A84209D91A490D7008460068F1
:100EA00000F00F00A84201D0012078E7207800F080
:100EB0000400042807D11448006820F4E050E168D9
:100EC000084311490860207800F00800082808D17C
:100ED0000D48006820F46040216940EAC1000A49D9
:100EE000086000F019F808490968C1F30311074ABE
:100EF000515CC8400649086006480068FFF7AEFE2E
:100F000000204CE7003C02400838024050380008FE
:100F100060000020580000202DE9F0470024002543
:100F20000026A1462548006800F00C0020B10428E6
:100F300005D008283AD105E0DFF8849039E0DFF8E1
:100F4000849036E01D48001F006800F03F041B48F5
:100F5000001F006800F4800078B11A481749091F83
:100F60000968C1F38811A0FB0170014622460023E5
:100F70003846FFF78DF905460EE011480F49091F65
:100F80000968C1F38811A0FB0170014622460023C5
:100F90003846FFF77DF905460848001F0068C0F392
:100FA0000140401C4600B5FBF6F902E0DFF8109066
:100FB00000BF00BF4846BDE8F08700000838024087
:100FC0000024F40040787D01F8B504460CB90120F6
:100FD000F8BD207800F00100002874D0F9480068BE
:100FE00000F00C0004280DD0F648006800F00C005A
:100FF000082813D1F348001F006800F48000B0F502
:10100000800F0BD1EF4808380068C0F3404000283B
:1010100059D06068002856D10120D9E700BF606828
:10102000B0F5803F08D1E7480838006840F48030C8
:10103000E449083908601EE06068B0F5A02F0DD1C2
:10104000E0480838006840F48020DE49083908602C
:101050000846006840F4803008600CE0D948083841
:10106000006820F48030D7490839086008460068D5
:1010700020F48020086000BF606890B1FFF7BEFDDB
:10108000054606E0FFF7BAFD401B642801D903209E
:101090009EE7CC4808380068C0F340400028F1D0F3
:1010A00011E0FFF7ABFD054606E0FFF7A7FD401B8B
:1010B000642801D903208BE7C24808380068C0F3D0
:1010C00040400028F1D1207800F0020002285FD1D2
:1010D000BC48006800F00C0058B1BA48006800F045
:1010E0000C0008281CD1B748001F006800F48000DD
:1010F000B0B9B44808380068C0F3400020B1E068D7
:10110000012801D0012063E7AE480838006820F0CC
:10111000F800216940EAC100AA490839086037E0AF
:10112000E06800B30120A8490860FFF767FD0546A5
:1011300006E0FFF763FD401B022801D9032047E7C3
:10114000A04808380068C0F340000028F1D09D484E
:101150000838006820F0F800216940EAC100994988
:101160000839086014E0002097490860FFF746FD41
:10117000054606E0FFF742FD401B022801D9032087
:1011800026E7904808380068C0F340000028F1D1F5
:10119000207800F0080008282CD16069A8B101204F
:1011A0008A490860FFF72AFD054606E0FFF726FD9D
:1011B000401B022801D903200AE782486C300068EE
:1011C000C0F340000028F1D014E000207F490860FF
:1011D000FFF714FD054606E0FFF710FD401B02284F
:1011E00001D90320F4E677486C300068C0F3400072
:1011F0000028F1D1207800F00400042870D10027E5
:1012000070483830006800F0805090B900BF00206E
:1012100000906C483830006840F08050694938319F
:1012200008600846006800F08050009000BF00BFD2
:1012300001276748006800F48070B0B9644800680E
:1012400040F4807062490860FFF7D8FC054606E06C
:10125000FFF7D4FC401B022801D90320B8E65C4804
:10126000006800F480700028F2D000BFA068012858
:1012700008D154486830006840F001005149683195
:1012800008601DE0A06805280DD14E486830006850
:1012900040F004004B49683108600846006840F09F
:1012A000010008600CE047486830006820F0010049
:1012B0004449683108600846006820F0040008606E
:1012C00000BFA068A8B1FFF799FC054609E0FFF749
:1012D00095FC401B41F28831884202D9032077E611
:1012E00026E0384868300068C0F340000028EED09F
:1012F00013E0FFF783FC054608E0FFF77FFC401B87
:1013000041F28831884201D9032061E62D486830D6
:101310000068C0F340000028EFD1012F07D1294811
:101320003830006820F0805026493831086000BF0E
:10133000A069002845D02348006800F00C00082868
:101340005DD0A069022845D100201F490866FFF73B
:1013500055FC054606E0FFF751FC401B022801D969
:10136000032035E6174808380068C0F340600028BD
:10137000F1D1D4E907010843616A40EA81110122F1
:10138000A06AC2EB500041EA00412C20005D41EA16
:1013900000600C49091F086001200B490866FFF72F
:1013A0002DFC054606E0FFF729FC401B022801D969
:1013B00003200DE6034808380068C0F340600028A9
:1013C000F1D049E00838024000004742800E474211
:1013D00000700040002021490866FFF70FFC054619
:1013E00006E0FFF70BFC401B022801D90320EFE5C4
:1013F0001B480068C0F340600028F2D12CE0A069CF
:10140000012800D1E4E51648001D0668A0690128FE
:1014100020D006F48001E06981421BD106F03F0133
:10142000206A814216D147F6C0703040616AB0EB45
:10143000811F0FD106F440310122A06AC2EB500097
:10144000B1EB004F06D106F070612C20005DB1EBCE
:10145000006F01D00120BBE50020B9E50000474244
:101460000038024070B504462546681EB0F1807F02
:1014700001D301200FE0681E4FF0E02148610F21E9
:101480004FF0FF3001F060FF00204FF0E021886155
:1014900007200861002070BD10B50346002200BF80
:1014A00093F83C00012801D1022010BD012083F8EF
:1014B0003C0000BF22F0FF00CC6840EA040222F4A6
:1014C00040708C6840EA040222F480604C6840EA74
:1014D000040222F400600C6840EA040222F4805006
:1014E0000C6940EA040222F400504C6940EA04020C
:1014F00022F48040CC6940EA04021868426400BFCC
:10150000002083F83C0000BF00BFCEE730B50246A4
:101510000B4600BF92F83C00012801D1022030BDEB
:10152000012082F83C0000BF022082F83D001068D4
:1015300044681068816824F07004186804431068D7
:101540004460184D1068A8421BD01068B0F1804F5D
:1015500017D0154D1068A84213D0144D1068A8423A
:101560000FD0134D1068A8420BD0124D1068A8423E
:1015700007D0114D1068A84203D0104D1068A84242
:1015800005D121F080015868014310688160012075
:1015900082F83D0000BF002082F83C0000BF00BF81
:1015A000BDE70000000001400004004000080040CA
:1015B000000C0040000401400040014000180040C1
:1015C00010B504460CB9012010BD94F83D0028B9AF
:1015D000002084F83C00204600F026F8022084F821
:1015E0003D00211D206800F05DFD012084F84600CB
:1015F00000BF84F83E0001213F20015540200155E5
:101600004120015500BF00BF012084F84200432063
:101610000155442001554520015500BF012084F8A3
:101620003D000020D0E7000008B51F4A0168914244
:101630000FD100BF002100911C49096841F004014D
:101640001A4A11601146096801F00401009100BFB7
:1016500029E0174A016891420FD100BF0021009193
:101660001249096841F00801104A116011460968E1
:1016700001F00801009100BF15E00E4A0168914297
:1016800011D100BF002100910849091D096841F0EE
:101690000201064A121D11601146096801F002019B
:1016A000009100BF00BF08BD000800404038024064
:1016B000000C004000040140014691F83D00012863
:1016C00001D001207047022081F83D000868C06801
:1016D00040F001000B68D8601A4B086898421BD094
:1016E0000868B0F1804F17D0174B0868984213D0A4
:1016F000164B086898420FD0154B086898420BD0DB
:10170000144B0868984207D0134B0868984203D0DE
:10171000124B086898420CD10868806800F00702F4
:10172000062A0CD00868006840F001000B681860B9
:1017300005E00868006840F001000B6818600020B0
:10174000C0E7000000000140000400400008004025
:10175000000C00400004014000400140001800401F
:101760002DE9F04104460D46002700BF94F83C00E7
:10177000012802D10220BDE8F081012084F83C005C
:1017800000BF022084F83D002068866826F07706B6
:1017900026F47F46206886602868502833D00CDC09
:1017A000202850D004DC00284BD0102851D149E02B
:1017B000302849D040284CD139E060282DD07028FD
:1017C00007D0B0F5805F03D0B0F5005F41D10DE0E8
:1017D00041E0D5E902136A68206800F0E0FC206867
:1017E000866846F077062068866034E0D5E9021303
:1017F0006A68206800F0D3FC2068806840F480406C
:101800002168886027E0EA686968206801F075FD52
:101810005021206801F068FD1DE0EA6869682068D1
:1018200001F07EFD6021206801F05EFD13E0EA68B2
:101830006968206801F061FD4021206801F054FDD5
:1018400009E000BF00BF00BF2968206801F04CFD1F
:1018500001E0012700BF00BF012084F83D0000BF68
:10186000002084F83C0000BF384684E710B586B0FD
:101870000446142101A8FEF7B4FD344920688842CB
:101880001ED100BF002000903148006840F00800E1
:101890002F4908600846006800F00800009000BF6B
:1018A00000BF4FF47040019002200290002003908E
:1018B00004900220059001A92648FFF791F843E023
:1018C0002549206888421ED100BF00200090204892
:1018D000006840F080001E4908600846006800F07B
:1018E0008000009000BF00BF4FF4406001900220D4
:1018F00002900020039004900220059001A917484F
:10190000FFF76EF820E01649206888421CD100BF1E
:10191000002000900E48006840F480700C49086078
:101920000846006800F48070009000BF00BFE4200B
:101930000190022002900020039004900320059063
:1019400001A90848FFF74CF806B010BD0008004098
:1019500030380240000C0240000C0040001C0240E5
:1019600000040140002002402DE9F04104460D46EC
:101970001646002700BF94F83C00012802D102203F
:10198000BDE8F081012084F83C0000BF36B1042E90
:101990001BD0082E31D00C2E5ED145E029462068A0
:1019A00001F004FC2068806940F00800216888612B
:1019B0002068806920F004002168886120688069BF
:1019C000296908432168886148E02946206800F0B9
:1019D000F1FB2068806940F400602168886120681C
:1019E000806920F4806021688861206880692969A5
:1019F00040EA01202168886130E02946206801F032
:101A00000DFC2068C06940F008002168C8612068AA
:101A1000C06920F004002168C8612068C069296994
:101A200008432168C86119E02946206801F032FCAA
:101A30002068C06940F400602168C8612068C069FE
:101A400020F480602168C8612068C069296940EA83
:101A500001202168C86101E0012700BF00BF00BF6D
:101A6000002084F83C0000BF384689E710B50446E2
:101A70000CB9012010BD94F83D0028B9002084F86D
:101A80003C00204600F025F8022084F83D00211D8E
:101A9000206800F007FB012084F8460000BF84F8AE
:101AA0003E0001213F2001554020015541200155B4
:101AB00000BF00BF012084F84200432001554420AC
:101AC00001554520015500BF012084F83D0000204C
:101AD000D0E7704770B504460D4615B994F83E003E
:101AE0000BE0042D02D13F20005D06E0082D02D15D
:101AF0004020005D01E04120005D012801D001206F
:101B000070BD1DB9022084F83E000EE0042D03D103
:101B100002213F20015508E0082D03D10221402079
:101B2000015502E002214120015501222946206889
:101B300000F024FB23492068884203D02249206812
:101B4000884201D1012000E0002028B12068406CCB
:101B500040F40040216848641A49206888421BD03C
:101B60002068B0F1804F17D018492068884213D000
:101B70001749206888420FD01649206888420BD048
:101B800011492068884207D013492068884203D051
:101B90001249206888420CD12068806800F007064E
:101BA000062E0CD02068006840F001002168086013
:101BB00005E02068006840F001002168086000200E
:101BC0009EE70000000001400004014000040040C6
:101BD00000080040000C0040004001400018004098
:101BE00000BFFEE71FB50020009001900290039017
:101BF0001548164908604FF48030486000211348AA
:101C000081600161017680F82010C1621049816213
:101C10000021C1600121C161002180F83010012143
:101C20004161FEF731FD08B1FEF754FC0020009041
:101C3000012001900020029069460448FEF74EFC06
:101C400008B1FEF747FC1FBD00200140240700201B
:101C50000100000F00B587B0142102A8FEF7C1FBF8
:101C600000BF002001905C48006840F001005A4924
:101C700008600846006800F00100019000BF00BF46
:101C800000BF002001900846006840F01000086086
:101C90000846006800F01000019000BF00BF00BFC0
:101CA000002001900846006840F4807008600846F3
:101CB000006800F48070019000BF00BF00BF0020EA
:101CC00001900846006840F020000860084600685F
:101CD00000F02000019000BF00BF00BF0020019075
:101CE0000846006840F0800008600846006800F080
:101CF0008000019000BF00BF00BF00200190084697
:101D0000006840F0080008600846006800F008001D
:101D1000019000BF00BF00BF00200190084600688E
:101D200040F0040008600846006800F004000190DC
:101D300000BF00BF00BF002001900846006840F0CF
:101D4000020008600846006800F00200019000BF31
:101D500000BF002241F270012048FEF749FF002237
:101D600003211F48FEF744FF002204211D48FEF70F
:101D70003FFF002201211C48FEF73AFF41F27000AC
:101D800002900120039000200490059002A91348BE
:101D9000FEF726FE0320029001200390002004900D
:101DA000059002A90E48FEF71BFE042002900120B8
:101DB000039000200490059002A90A48FEF710FE47
:101DC00001200290039000200490059002A906488B
:101DD000FEF706FE07B000BD30380240001002409A
:101DE00000140240000802400004024000B58DB01B
:101DF000002009900A900B900C90079008901C21ED
:101E00006846FEF7EEFA2C482C490860D12048605D
:101E100000212A48816040F2E731C1600021016160
:101E20008161FFF7CDFB08B1FEF754FB4FF4805002
:101E3000099009A92148FFF793FC08B1FEF74AFB76
:101E40001E48FFF713FE08B1FEF744FB0020079081
:101E5000089007A91948FFF759FB08B1FEF73AFBAC
:101E600060200090002001900290049000226946BA
:101E70001248FFF779FD08B1FEF72CFB04226946F2
:101E80000E48FFF771FD08B1FEF724FB08226946F2
:101E90000A48FFF769FD08B1FEF71CFB0C226946F2
:101EA0000648FFF761FD08B1FEF714FB0348FFF792
:101EB000DDFC0DB000BD0000000800406C070020F4
:101EC00000B58DB0002009900A900B900C900790FF
:101ED00008901C216846FEF784FA244824490860CB
:101EE00040F24730486000212148816040F2CF71C4
:101EF000C160002101618161FFF762FB08B1FEF75B
:101F0000E9FA4FF48050099009A91948FFF728FC15
:101F100008B1FEF7DFFA1648FFF7A8FD08B1FEF793
:101F2000D9FA00200790089007A91148FFF7EEFAA8
:101F300008B1FEF7CFFA60200090002001900290D7
:101F40000490002269460A48FFF70EFD08B1FEF72B
:101F5000C1FA042269460648FFF706FD08B1FEF7FC
:101F6000B9FA0348FFF782FC0DB000BD000C004039
:101F7000B407002000B595B0002011901290139086
:101F800014900F9010901C2108A8FEF72AFA202127
:101F90006846FEF726FA37483749086040F247306E
:101FA000486000213448816040F2CF71C160002157
:101FB000016141618161FFF703FB08B1FEF78AFA15
:101FC0004FF48050119011A92B48FFF7C9FB08B1BD
:101FD000FEF780FA2848FFF749FD08B1FEF77AFAC4
:101FE00000200F9010900FA92348FFF78FFA08B137
:101FF000FEF770FA60200890002009900A900B907C
:102000000C900D900E90002208A91B48FFF7ACFC25
:1020100008B1FEF75FFA042208A91748FFF7A4FCED
:1020200008B1FEF757FA082208A91348FFF79CFCED
:1020300008B1FEF74FFA0C2208A90F48FFF794FCED
:1020400008B1FEF747FA002000900190029003903B
:1020500004904FF400500590002007906946064810
:10206000FFF71AFA08B1FEF735FA0348FFF7FEFB4F
:1020700015B000BD00040140FC07002000BFFEE7D2
:1020800000BFFEE77047704710B5FEF7BDFD10BDFD
:102090000348006840F47000014908607047000080
:1020A00088ED00E010B50268294B98420ED0B0F1DF
:1020B000804F0BD0274B984208D0274B984205D031
:1020C000264B984202D0264B984203D122F0700250
:1020D0004B681A431E4B984220D0B0F1804F1DD060
:1020E0001C4B98421AD01C4B984217D01B4B98425D
:1020F00014D01B4B984211D01A4B98420ED01A4B59
:1021000098420BD0194B984208D0194B984205D0F1
:10211000184B984202D0184B984203D122F44072D7
:10212000CB681A4322F080034C6943EA0402026040
:102130008B68C3620B688362054B984202D0084BE0
:10214000984201D10B6903630123436110BD000074
:10215000000001400004004000080040000C004066
:10216000000401400040014000440140004801409B
:1021700000180040001C00400020004030B501F075
:102180001F05012404FA05F3046A9C430462046AEF
:1021900001F01F0502FA05F52C43046230BD30B58D
:1021A0000C46816821F47F4142EA032525432943F7
:1021B000816030BD30B5056A25F010050562026A00
:1021C0004368846924F4E04424F440740D6844EACC
:1021D000052422F020028D6842EA0512124DA84221
:1021E00000D103E0114DA84207D100BF22F08002C8
:1021F000CD6842EA051222F040020B4DA84202D0FF
:102200000A4DA84209D123F4806323F400634D6989
:1022100043EA85038D6943EA8503436084614D6821
:102220008563026230BD00000000014000040140EF
:1022300000BFFEE70288B2F5C87F02DA00220A700A
:1022400005E00288B2F5167F01DD01220A7042889E
:10225000B2F5C87F02DA00224A7005E04288B2F582
:10226000167F01DD01224A708288B2F5C87F02DA4A
:1022700000228A7005E08288B2F5167F01DD012216
:102280008A70C288B2F5C87F02DA0022CA7005E0FF
:10229000C288B2F5167F01DD0122CA7070470000C6
:1022A00010B50446207898B96078012810D1A0783C
:1022B00001280DD15F4890ED021AD0ED010A90ED92
:1022C000000A5D4800F078F95B4800F095F9B0E04D
:1022D0002078012826D16078012823D1A078012810
:1022E00020D1E078F0B9554890ED021AD0ED010AFE
:1022F00090ED000A504800F05FF94F4800F07CF97B
:1023000042F21070FEF758FB4D4890ED021AD0EDE6
:10231000010A90ED000A484800F04EF9464800F0E6
:102320006BF986E0207838BB6078012824D1A0784A
:10233000012821D1E07801281ED1424890ED021AEF
:10234000D0ED010A90ED000A3B4800F035F93A481B
:1023500000F052F942F21070FEF72EFB3A4890ED71
:10236000021AD0ED010A90ED000A334800F024F97A
:10237000314800F041F95CE0207808BB6078F8B99A
:10238000A07801281CD1E078D0B917E0207840B9B6
:102390006078012805D1A078012802D1E07800B941
:1023A0000DE0284890ED021AD0ED010A90ED000AE8
:1023B000214800F001F9204800F01EF9E6E738E076
:1023C000207808BB607801281ED1A078E0B9E078B9
:1023D000D0B917E0207840B96078012805D1A078FD
:1023E000012802D1E07800B90DE0144890ED021AFE
:1023F000D0ED010A90ED000A0F4800F0DDF80E481C
:1024000000F0FAF8E6E714E0207890B9607880B937
:10241000A07870B9E07860B90C4890ED021AD0ED60
:10242000010A90ED000A044800F0C6F8024800F0E6
:10243000E3F810BD0C000020640000203C000020E8
:102440003000002048000020240000204408002024
:1024500000B593B0302107A8FDF7C3FF142102A8EF
:10246000FDF7BFFF00BF002001902448006840F046
:102470008050224908600846006800F080500190B2
:1024800000BF00BF00BF002001901D48006840F45D
:1024900040401B4908600846006800F44040019035
:1024A00000BF00BF012007900004089002200D909B
:1024B00041050E9119210F914FF4A871109102213D
:1024C00011910421129107A8FEF77EFD08B1FEF7D5
:1024D00001F80F20029002200390002004904FF496
:1024E000A05005904FF480500690052102A8FEF7F9
:1024F00051FC08B1FDF7EEFF13B000BD40380240BB
:1025000000700040014691F85800704780F858105C
:10251000704710B50446606E60B9B4F84A100022E6
:10252000E06CFEF765FBB4F850100022606DFEF71A
:102530005FFB1EE0606E00280CDDB4F84A1001223B
:10254000E06CFEF755FBB4F850100022606DFEF70A
:102550004FFB0EE0606E00280BDAB4F84A10002240
:10256000E06CFEF745FBB4F850100122606DFEF7F9
:102570003FFB94F8480028B9606E01F056F92168D5
:10258000486318E094F84800042805D1606E01F013
:102590004CF9216888630EE094F84800082805D1BA
:1025A000606E01F042F92168C86304E0606E01F0DA
:1025B0003CF92168086410BD11B52DED040B00F540
:1025C000D0619DE81C0034311CC105B010BD70B550
:1025D00004460E4684F8B066002509E005EB0511B7
:1025E00001EB451104EBC100314600F064FB6D1CAA
:1025F000042DF3DB70BD000070B52DED028B044699
:10260000F7EE000ABFEE000A04F2B46001F0E2F84F
:10261000F7EE000ABFEE000A04F5D76001F0DAF821
:10262000F0EE000AB8EE000A04F2BC6001F0D2F845
:1026300004F5806090EDAD0A04F2B460D0ED020ABA
:102640009FED541A01EE200AD0ED010A30EE600A27
:10265000DFED510AC0EE208A2046FFF753FF08B98C
:10266000012001E04FF0FF3000EE100AB8EEC00A82
:1026700028EE808AB0EE480A204600F019FB04F5E7
:10268000806090EDAD0A04F2B460D0ED020A9FEDD7
:10269000411A11EE200AD0ED010A30EE600ADFED9A
:1026A0003E0AC0EE208A04F5C470FFF72BFF08B97C
:1026B000012001E04FF0FF3000EE100AB8EEC00A32
:1026C00028EE808AB0EE480A04F5C47000F0F0FAF3
:1026D00004F5806090EDAD0A04F2B460D0ED020A1A
:1026E0009FED2E1A01EE200AD0ED010A30EE600AAD
:1026F000DFED290AC0EE208A04F54470FFF702FFDF
:1027000008B9012001E04FF0FF3000EE100AB8EEEA
:10271000C00A28EE808AB0EE480A04F5447000F042
:10272000C7FA04F5806090EDAD0A04F2B460D0ED14
:10273000020A9FED1A1A11EE200AD0ED010A30EEBE
:10274000600ADFED150AC0EE208A04F59360FFF7FA
:10275000D9FE08B9012001E04FF0FF3000EE100A69
:10276000B8EEC00A28EE808AB0EE480A04F59360FD
:1027700000F09EFA002508E005EB051101EB45117C
:1027800004EBC10000F09AFA6D1C042DF4DBBDECE3
:10279000028B70BDCBA1C5BE4A0C823DCBA1C53E0C
:1027A0000FB430B5CFB004463D2253A904F5C46040
:1027B000FDF7E5FD9DF8891184F85D169DF88A11F5
:1027C00084F85E169DF88B1184F85F169DF88C11C5
:1027D00084F860169DF88D1184F861169DF88E11AD
:1027E00084F862169DF88F1184F863169DF8901195
:1027F00084F864169DF8911184F865169DF892117D
:1028000084F866163D2265A904F5CD60FDF7B7FD95
:102810009DF8D11184F8A5169DF8D21184F8A6165A
:102820009DF8D31184F8A7169DF8D41184F8A81642
:102830009DF8D51184F8A9169DF8D61184F8AA162A
:102840009DF8D71184F8AB169DF8D81184F8AC1612
:102850009DF8D91184F8AD169DF8DA1184F8AE16FA
:102860003D2265A93DA8FDF78AFD9DF8D1018DF8AF
:1028700031019DF8D2018DF832019DF8D3118DF808
:1028800033119DF8D4118DF834119DF8D5118DF8C0
:1028900035119DF8D6018DF836019DF8D7118DF8C8
:1028A00037119DF8D8118DF838119DF8D9118DF890
:1028B00039119DF8DA018DF83A013D2253A92BA870
:1028C000FDF75DFD9DF889018DF8E9009DF88A010D
:1028D0008DF8EA009DF88B118DF8EB109DF88C11A6
:1028E0008DF8EC109DF88D118DF8ED109DF88E018E
:1028F0008DF8EE009DF88F118DF8EF109DF8901176
:102900008DF8F0109DF891118DF8F1109DF892015D
:102910008DF8F200DE48C1148023CDE9263048222C
:10292000CDE928103DA914A8FDF729FDD8480121BB
:102930000223CDE91030CDE9121000203C222EA94F
:102940000F906846FDF71BFD20462BA90EC900F02D
:1029500055FA00212046FFF7D9FD3D2265A93DA883
:10296000FDF70DFD9DF8D1018DF831019DF8D201E3
:102970008DF832019DF8D3118DF833119DF8D411E3
:102980008DF834119DF8D5118DF835119DF8D601CB
:102990008DF836019DF8D7118DF837119DF8D811B3
:1029A0008DF838119DF8D9118DF839119DF8DA019B
:1029B0008DF83A013D2253A92BA8FDF7E0FC9DF8C4
:1029C00089018DF8E9009DF88A018DF8EA009DF8EB
:1029D0008B118DF8EB109DF88C118DF8EC109DF893
:1029E0008D118DF8ED109DF88E018DF8EE009DF89B
:1029F0008F118DF8EF109DF890118DF8F0109DF863
:102A000091118DF8F1109DF892018DF8F200A04817
:102A100081154023CDE926304822CDE928103DA973
:102A200014A8FDF7ACFC9B4810212023CDE9103001
:102A3000CDE9121004203C222EA90F906846FDF724
:102A40009EFC04F5C4702BA90EC900F0D7F9012132
:102A500004F5C470FFF75AFD3D2265A93DA8FDF7B6
:102A60008EFC9DF8D1018DF831019DF8D2018DF8D1
:102A700032019DF8D3118DF833119DF8D4118DF8E2
:102A800034119DF8D5118DF835119DF8D6018DF8CA
:102A900036019DF8D7118DF837119DF8D8118DF8B2
:102AA00038119DF8D9118DF839119DF8DA018DF89A
:102AB0003A013D2253A92BA8FDF761FC9DF889013D
:102AC0008DF8E9009DF88A018DF8EA009DF88B11D8
:102AD0008DF8EB109DF88C118DF8EC109DF88D1190
:102AE0008DF8ED109DF88E018DF8EE009DF88F1198
:102AF0008DF8EF109DF890118DF8F0109DF8911160
:102B00008DF8F1109DF892018DF8F2006248811560
:102B10000315CDE926304822CDE928103DA914A897
:102B2000FDF72DFC5B4881144023CDE91030CDE941
:102B3000121008203C222EA90F906846FDF71FFCBA
:102B400004F544702BA90EC900F058F9012104F5D1
:102B50004470FFF7DBFC3D2265A93DA8FDF70FFCA3
:102B60009DF8D1018DF831019DF8D2018DF8320127
:102B70009DF8D3118DF833119DF8D4118DF83411CF
:102B80009DF8D5118DF835119DF8D6018DF83601D7
:102B90009DF8D7118DF837119DF8D8118DF838119F
:102BA0009DF8D9118DF839119DF8DA018DF83A01A7
:102BB0003D2253A92BA8FDF7E2FB9DF889018DF872
:102BC000E9009DF88A018DF8EA009DF88B118DF8D7
:102BD000EB109DF88C118DF8EC109DF88D118DF88F
:102BE000ED109DF88E018DF8EE009DF88F118DF897
:102BF000EF109DF890118DF8F0109DF891118DF85F
:102C0000F1109DF892018DF8F200224880210B020C
:102C1000CDE926304822CDE928103DA914A8FDF7BA
:102C2000AEFB1E4801211E4A0423CDE91032CDE936
:102C300012100C203C222EA90F906846FDF79FFB36
:102C400004F593602BA90EC900F0D8F8002104F513
:102C50009360FFF75BFC002514E005EB051101EB29
:102C6000451104EBC10101F168009FED0E2ADFED73
:102C70000D1AB3EE091ADFED0C0A9FED0C0A00F0F5
:102C800093FC6D1C042DE8DB4FB030BC5DF814FBE9
:102C90000014024000100240000C024000040240F8
:102CA000000802400000804F00803B450000FA44CD
:102CB00080ED5F0A704780F86811704710B52DED00
:102CC000028B044604F5B474D4E90101401A08EEFD
:102CD000100A94ED030AF8EEC80A80EE801A94ED0B
:102CE000060A31EE000A84ED060A94ED030AB8EEF6
:102CF000C81AC1EE000A9FED400A80EE801A84EDEA
:102D0000041A6068A0602078A4F5B47480B9D4ED8A
:102D10005F0A94ED180AB8EEC00A20EE800AD4EDDE
:102D2000170A80EE201ABDEEC10A84ED190A56E09A
:102D300094F8680101281CD1D4ED5E0AB0EE600A57
:102D400004F1680000F03EFCD4ED5F0AB0EE600ACA
:102D500004F1680000F014FB04F1680000F014FBBB
:102D600004F1680000F02BFCBDEEC00A84ED190AE6
:102D700035E094F86801022831D1D4ED610AB0EE53
:102D8000600A04F1BC0000F0FBFAD4ED600AB0EE7A
:102D9000600A04F1BC0000F015FC04F1BC0000F076
:102DA000F3FA04F1BC0000F00AFCF0EE408A04F1F2
:102DB000680000F0E5FAD4ED5E0AB0EE600A04F1B6
:102DC000680000F0FFFB04F1680000F0DDFA04F198
:102DD000680000F0F4FBBDEEC00A84ED190A40F271
:102DE000E732514204F1640000F008FD2046FFF78D
:102DF00090FBBDEC028B10BDCDCC4C3D0FB42DE94A
:102E0000F05F0446DDE934AB1DAD95E8E0033D22FB
:102E10000BA92046FDF7B3FA9DF8690084F83D0040
:102E20009DF86A0084F83E009DF86B103F20015524
:102E30009DF86C10402001559DF86D104120015502
:102E40009DF86E0084F842009DF86F1043200155F4
:102E50009DF87010442001559DF8711045200155D2
:102E60009DF8720084F8460084F84850A4F84A603F
:102E7000E764A4F85080C4F854903D2222A904F5D8
:102E80008870FDF77CFA9DF8C51084F84D119DF807
:102E9000C61084F84E119DF8C71084F84F119DF8A4
:102EA000C81084F850119DF8C91084F851119DF88C
:102EB000CA1084F852119DF8CB1084F853119DF874
:102EC000CC1084F854119DF8CD1084F855119DF85C
:102ED000CE1084F85611A4F858A1C4F85CB1369805
:102EE000A4F860013798C4F8640129460BA8FEF7DE
:102EF000F1FDBDE8F01F5DF814FB000010B50446BD
:102F0000002184F858109FED190A84ED170A40F249
:102F1000E7312166002104F16800616600F056FB8C
:102F2000A0F16804543000F051FBA0F1BC04012072
:102F300084F868010020C4F86C019FED0D0AC4F804
:102F4000700184ED5D0A9FED0B0A84ED5E0A9FED32
:102F5000090A84ED5F0A9FED070A84ED600A9FED80
:102F6000050A84ED610A204610BD0000B522084222
:102F700027745F420000000070B50546AC6B40202E
:102F80002064606C40F0040060642046FDF77AFB2A
:102F900070BD70B50546AC6B206C00F0500050BBA6
:102FA000206C40F4007020642068806800F040507D
:102FB000E8B9207ED8B92068C06A00F4700020B15A
:102FC0002068806800F4806088B92068406820F03C
:102FD000200021684860206C20F480702064206C00
:102FE00000F4805018B9206C40F0010020642046A5
:102FF000FDF746FB0BE0206C00F0100018B12046F6
:10300000FDF740FB03E0A06BC16C2846884770BD0C
:1030100070B50446A56B2846FDF733FB70BD000074
:1030200055494A6822F440324A604A6843681A4364
:103030004A600268526822F4807203685A6002682B
:103040005368026943EA022203685A6002685268C0
:1030500022F0407203685A600268526883681A431B
:1030600003685A600268926822F4006203689A60FA
:1030700002689268C3681A4303689A603F4B826A89
:103080009A4218D00268926822F0706203689A60CF
:1030900002689268836A1A4303689A6002689268B9
:1030A00022F0405203689A6002689268C36A1A4329
:1030B00003689A600BE00268926822F0706203680D
:1030C0009A600268926822F0405203689A6002682F
:1030D000926822F0020203689A6002689368027E96
:1030E00043EA420203689A602022125CA2B102689D
:1030F000526842F4006203685A600268526822F41F
:10310000604203685A6002685368426A521E43EA8A
:10311000423203685A6005E00268526822F4006295
:1031200003685A600268D26A22F470020368DA62A5
:103130000268D36A828B521E43EA02520368DA6243
:103140000268926822F4007203689A6002689368C9
:1031500090F8302043EA422203689A60026892683D
:1031600022F4806203689A6002689368426943EAC5
:10317000822203689A607047002301400100000F1B
:1031800030B50468246824F4802405682C60046841
:1031900063608468402C04D10468A2600468E16024
:1031A00003E00468A1600468E26030BD30B5056AE0
:1031B00025F001050562026A4368846924F0700401
:1031C00024F003040D682C4322F002028D682A4388
:1031D000104DA84200D103E00F4DA84206D100BF18
:1031E00022F00802CD682A4322F00402094DA842C9
:1031F00002D0094DA84207D123F4807323F4007351
:103200004D692B438D692B43436084614D68456351
:10321000026230BD000001400004014030B5056A83
:1032200025F480750562026A4368C46924F070045D
:1032300024F003040D682C4322F400728D6842EAE6
:103240000522124DA84200D103E0114DA84207D13A
:1032500000BF22F40062CD6842EA052222F48062B7
:103260000A4DA84202D00A4DA84209D123F4805346
:1032700023F400534D6943EA05138D6943EA0513AE
:103280004360C4614D68C563026230BD0000014007
:103290000004014030B5056A25F480550562036AD3
:1032A0004468C26922F4E04222F440720D6842EAA6
:1032B000052223F400538D6843EA0533084DA842E4
:1032C00002D0084DA84204D124F480444D6944EA58
:1032D00085144460C2614D680564036230BD00001E
:1032E00000000140000401400A46816821F070019D
:1032F00042F0070319438160704730B50B4614460E
:10330000026A056A25F001050562816921F0F00174
:1033100041EA041122F00A021A438161026230BDBF
:1033200030B50B461446056A25F010050562816923
:10333000026A21F4704141EA043122F0A00242EA1B
:1033400003128161026230BD10B5002804DB0A0758
:10335000130E054A135406E00A07140E034A00F040
:103360000F031B1FD45410BD00E400E018ED00E073
:1033700002480068C0F30220704700000CED00E036
:1033800080ED060A7047000010B52DED048B044651
:1033900094ED060AD4ED070A30EE600A84ED080ABF
:1033A000D4ED080AB0EE600A00F032FAB0EE408ABE
:1033B00094ED100AB4EEC80AF1EE10FA06DD9FEDA6
:1033C000790A84ED090ABDEC048B10BD94ED010A65
:1033D000D4ED080A20EE200A84ED0D0A94ED110ABE
:1033E000B5EEC00AF1EE10FA09D194ED110AB5EE6E
:1033F000C00AF1EE10FA02D1F7EE008A39E094ED3E
:10340000120AB4EEC80AF1EE10FA02DDF7EE008AF5
:1034100024E094ED110AD4ED120A70EE200A94ED26
:10342000120AB4EEC80AF1EE10FA01D8012000E049
:10343000002000EE100AB8EEC00AF4EEC00AF1EE69
:1034400010FA0BDD94ED110AD4ED120A30EE200AC9
:1034500030EE480AD4ED110AC0EE208A94ED120A2B
:10346000B4EEC80AF1EE10FA03D89FED4E0AF0EE62
:10347000408A94ED0B0AD4ED000A60EEA80A94EDA0
:10348000081A00EE810A84ED0B0A94ED040AB5EEE9
:10349000C00AF1EE10FA19D094ED040AD4ED020A34
:1034A00080EE201AB0EE419A94ED040AB1EE400A83
:1034B000D4ED020A80EE201AF0EE419AF0EE490AAD
:1034C000B0EE690A04F12C0000F084F994ED130ABF
:1034D000B5EEC00AF1EE10FA08D194ED020AD4ED6F
:1034E0000B0A20EE200A84ED0E0A13E094ED130A75
:1034F000B4EEC80AF1EE10FA08DD94ED020AD4ED3C
:103500000B0A20EE200A84ED0E0A03E09FED250A47
:1035100084ED0E0A94F8500001280CD194ED070AAE
:10352000D4ED0A0A30EE600AD4ED030A20EE200A38
:1035300084ED0F0A0BE094ED080AD4ED0C0A30EE8E
:10354000600AD4ED030A20EE200A84ED0F0A94ED00
:10355000080A84ED0C0A94ED070A84ED0A0A94ED3A
:103560000D0AD4ED0E0A30EE200AD4ED0F0A30EE2B
:10357000200A84ED090A94ED050AB5EEC00AF1EEC1
:1035800010FA0DD094ED051AF0EE410A94ED051AEB
:10359000B1EE411AB0EE410A04F1240000F01AF92C
:1035A00000BF10E70000000080ED010AC0ED020A34
:1035B00080ED031AC0ED041A80ED052A704790EDE6
:1035C000090A704780ED070A704700009FED190A4D
:1035D00080ED000A9FED180A80ED060A9FED160A9D
:1035E00080ED070A9FED140A80ED080A9FED120A8C
:1035F00080ED090A9FED100A80ED0D0A9FED0E0A7D
:1036000080ED0E0A9FED0C0A80ED0F0A9FED0A0A6D
:1036100080ED100A9FED080A80ED110A9FED060A61
:1036200080ED120A9FED040A80ED130A002180F854
:1036300050107047CDCCCC3D000000002DE9F0418A
:103640001C4617460E00804607D0054602E0284675
:10365000B0473D442046641EF9D24046BDE8F081A3
:1036600010B5094C04234FF4C47208492046FFF7F3
:10367000E5FF0446012084F8B00604F5D060044B51
:103680000ECB34300EC010BD64000020FD2E0008AB
:1036900044380008C6B0FDF7C3FAFEF7D9FEFEF7BE
:1036A000D9FAFEF7A3FBFEF79DFAFEF709FCFEF739
:1036B00061FC3D22424934A8FCF761FE404890F885
:1036C0003D008DF80D013E4890F83E008DF80E014A
:1036D0003B4890F83F108DF80F1190F840108DF88E
:1036E000101190F841108DF8111190F842008DF8EA
:1036F0001201334890F843108DF8131190F84410DC
:103700008DF8141190F845108DF8151190F84600B9
:103710008DF816013D222A4922A8FCF730FE2848E0
:1037200090F83D008DF8C500254890F83E008DF8D2
:10373000C600234890F83F108DF8C71090F840104D
:103740008DF8C81090F841108DF8C91090F842001B
:103750008DF8CA001A4890F843108DF8CB1090F8F5
:1037600044108DF8CC1090F845108DF8CD1090F8DD
:1037700046008DF8CE00482234A90FA8FCF7FFFDC3
:103780003C2225A96846FCF7FAFD0E4822A90EC97D
:10379000FFF706F800210B48FEF719FF0848FDF770
:1037A0008BFF042208490948FCF7E2FF06E00849BC
:1037B0000548FEF73FFD0648FEF772FDF7E70000FB
:1037C0006C07002064000020000000202407002077
:1037D0000800002090ED001AB4EEC01AF1EE10FAC5
:1037E00002D280ED000A08E090ED001AB4EEE01A73
:1037F000F1EE10FA01DDC0ED000A704703688B425C
:1038000001DA016003E00368934200DD0260704763
:10381000F0EE400AF5EEC00AF1EE10FA02DDB0EE6D
:10382000600A7047B1EE600AFBE70146002901DD3E
:10383000084670474842FCE74FF04070E1EE100A3E
:1038400070470000000000000000000000000000C1
:103850000000000000000000010203040607080940
:1038600000000000010203048C3800080000002062
:1038700064000000E8010008F0380008640000203F
:103880004C0E000004020008D9FDFFFF00000000FC
:103890000000000000000000000000009A99993E1E
:1038A00000000000000000009A9999BE000000008E
:1038B0009A99993E00000000000000009A9999BE74
:1038C00000000000000000000000000000000000F8
:1038D0009A99193F00000000000000009A9919BF52
:1038E0000000000010000000010000000024F400AF
:04000005080001AD41
:00000001FF
