:020000040800F2
:10000000901C002051020008E52F00084F2800082E
:10001000E12F0008CF040008313200080000000082
:10002000000000000000000000000000EB2F0008AE
:10003000E504000800000000E92F0008ED2F00088B
:100040006B0200086B0200086B0200086B020008DC
:100050006B0200086B0200086B0200086B020008CC
:100060006B0200086B0200086B0200086B020008BC
:10007000D50400086B0200086B0200086B02000840
:100080006B0200086B0200086B0200086B0200089C
:100090006B0200086B0200086B0200086B0200088C
:1000A0006B020008093000086B0200086B020008B0
:1000B0006B0200086B0200086B0200086B0200086C
:1000C0006B0200086B0200086B0200086B0200085C
:1000D0006B0200086B0200080132000811320008B0
:1000E0006B0200086B0200086B0200086B0200083C
:1000F0006B0200086B0200086B0200086B0200082C
:100100006B0200086B0200086B0200086B0200081B
:100110006B0200086B0200086B0200086B0200080B
:100120006B0200086B0200086B0200086B020008FB
:100130006B0200086B0200086B0200086B020008EB
:100140006B0200086B0200086B0200086B020008DB
:100150006B0200086B0200086B02000821320008E5
:100160006B0200086B0200086B0200086B020008BB
:100170006B0200086B0200086B0200080000000020
:100180006B0200086B020008A53100086B02000832
:100190006B0200086B0200086B0200086B0200088B
:1001A00000000000000000006B02000800F002F8F0
:1001B00000F03EF80AA090E8000C82448344AAF1C3
:1001C0000107DA4501D100F033F8AFF2090EBAE8C1
:1001D0000F0013F0010F18BFFB1A43F0010318477B
:1001E000004C0000204C0000103A24BF78C878C1B1
:1001F000FAD8520724BF30C830C144BF04680C602D
:10020000704700000023002400250026103A28BF74
:1002100078C1FBD8520728BF30C148BF0B60704778
:100220001FB504F0C1FD00F007F91FBD10B510BDEA
:1002300000F014F91146FFF7F3FF04F08BFA00F019
:1002400032F903B4FFF7F2FF03BC00F039F9000004
:100250000948804709480047FEE7FEE7FEE7FEE75A
:10026000FEE7FEE7FEE7FEE7FEE7FEE70448054996
:10027000054A064B70470000F52F0008AD01000845
:1002800090160020901C002090180020901800204C
:1002900053EA020C00F069802DE9F04B4FF00006A4
:1002A000002B1FBFB3FA83F503FA05F424FA05F611
:1002B0005E4012BF1643B2FA82F502FA05F4C5F1A8
:1002C00020051EBF22FA05FC44EA0C04203556EA3C
:1002D000044C4FEA144418BF641C4FF000084FF060
:1002E0000009904271EB030C39D3002919BFB1FA10
:1002F00081F701FA07F6B0FA80F700FA07F6C7F1BE
:1003000020071EBF20FA07FC46EA0C062037B6FB82
:10031000F4FCA7EB0507103F07F01F0BCBF12006FD
:100320000CFA0BFB2CFA06F644BFB3460026202F2E
:10033000A4BF5E464FF0000B5BEA060C08BF4FF00F
:10034000010B19EB0B09ABFB027C48EB0608C01B49
:1003500006FB02CC0BFB03CC71EB0C01C1E70B4697
:10036000024641464846BDE8F08B13B54FF0000009
:100370004FF00001AFF30080BDE81C40704710B59E
:10038000203AC0F00B80B1E81850203AA0E818508D
:10039000B1E81850A0E81850BFF4F5AF5FEA027C4E
:1003A00024BFB1E81850A0E8185044BF18C918C0BD
:1003B000BDE810405FEA827C24BF51F8043B40F85E
:1003C000043B08BF7047D20728BF31F8023B48BF43
:1003D00011F8012B28BF20F8023B48BF00F8012B81
:1003E00070474FF0000200B51346944696462039F8
:1003F00022BFA0E80C50A0E80C50B1F12001BFF4DE
:10040000F7AF090728BFA0E80C5048BF0CC05DF843
:1004100004EB890028BF40F8042B08BF704748BF91
:1004200020F8022B11F0804F18BF00F8012B704705
:10043000704770477047000070B5064C7C44064D0D
:100440007D4403E0206820448047241DAC42F9D15C
:1004500070BD0000C0490000C0490000754600F0B2
:100460002BF8AE4605006946534620F00700854646
:1004700018B020B5FFF7FAFEBDE820404FF00006A7
:100480004FF000074FF000084FF0000B21F007017C
:10049000AC46ACE8C009ACE8C009ACE8C009ACE8BF
:1004A000C0098D46704710B50446AFF30080204662
:1004B000BDE81040FFF7C5BE004870473016002069
:1004C00001491820ABBEFEE726000200704700BFBE
:1004D000FEE7000010B5024800F072F810BD000001
:1004E000D0150020704772B600BFFEE770B5044615
:1004F000A56D00F009FB064694F83500022808D0E7
:100500008020606500BF002084F8340000BF012017
:1005100070BD2068006820F016002168086020681F
:10052000406920F0800021684861206C08B9A06C07
:1005300028B12068006820F0080021680860206861
:10054000006820F001002168086010E000F0DCFA8B
:10055000801B05280BD920206065032084F8350016
:1005600000BF002084F8340000BF0320D0E72068DB
:10057000006800F001000028E8D194F85C103F20EA
:100580008840A860012084F8350000BF002084F86E
:10059000340000BF00BFBBE7014691F835000228D8
:1005A00003D08020486501207047052081F8350080
:1005B0000868006820F001000A6810600020F3E776
:1005C000F8B50446002000908C4800684FF416519E
:1005D000B0FBF1F7A56D2E6894F85C1008208840F8
:1005E000304098B12068006800F0040070B12068C5
:1005F000006820F004002168086094F85C1008206E
:100600008840A860606D40F00100606594F85C105F
:1006100001208840304068B12068406900F08000C7
:1006200040B194F85C1001208840A860606D40F0F3
:100630000200606594F85C1004208840304068B186
:100640002068006800F0020040B194F85C100420BB
:100650008840A860606D40F00400606594F85C100C
:1006600010208840304078B32068006800F008000F
:1006700050B394F85C1010208840A860206800688F
:1006800000F4802080B12068006800F4002028B9C0
:10069000206CC8B12046216C884715E0A06C98B149
:1006A0002046A16C88470FE02068006800F4807045
:1006B00028B92068006820F0080021680860206CD4
:1006C00010B12046216C884794F85C1020208840A7
:1006D0003040002865D02068006800F01000002835
:1006E0005FD094F85C1020208840A86094F8350012
:1006F000052828D12068006820F0160021680860CD
:100700002068406920F0800021684861206C08B9A9
:10071000A06C28B12068006820F0080021680860FB
:1007200094F85C103F208840A860012084F83500D0
:1007300000BF002084F8340000BF206D10B12046B7
:10074000216D8847F8BD2068006800F4802080B1E2
:100750002068006800F4002028B9606C10B12046C1
:10076000616C88471DE0E06BD8B12046E16B88479B
:1007700017E02068006800F4807068B9206800689D
:1007800020F0100021680860012084F8350000BFC7
:10079000002084F8340000BFE06B10B12046E16B0C
:1007A0008847606D38B3606D00F00100F0B105203E
:1007B00084F835002068006820F001002168086096
:1007C00000BF0098401C0090B84200D905E02068A6
:1007D000006800F001000028F3D100BF012084F878
:1007E000350000BF002084F8340000BFE06C10B179
:1007F0002046E16C884700BFA4E70000D00000203D
:100800002DE9F0410446002500F07EF9074614B9B1
:100810000120BDE8F081606A00B100BF022084F8C9
:10082000350000BF002084F8340000BF2068006855
:1008300020F00100216808600AE000F065F9C01BA3
:10084000052805D920206065032084F83500E0E7FD
:100850002068006800F001000028EED120680568DB
:1008600021480540D4E901010843E16808432169B2
:10087000084361690843A1690843E1690843216AA3
:1008800008430543606A042803D1D4E90B010843F7
:100890000543206805602068456925F00705606A02
:1008A0000543606A04280DD1A06A0543E06A48B197
:1008B000204603F0EFFA28B140206065012084F85B
:1008C0003500A6E720684561204603F039FB06465F
:1008D00094F85C103F208840B060002060650120E3
:1008E00084F83500002094E73F8010F0F8B5024608
:1008F0000B460025002400200021E0E0012606FA36
:1009000001F51E6806EA0504AC4274D11E7906F0B2
:100910000306012E04D01E7906F00306022E13D121
:1009200090684F000326BE40B0434F00DE68BE40D3
:1009300030439060506801268E40B0431E79C6F364
:1009400000168E40304350601E7906F00306032ED9
:1009500009D0D0684F000326BE40B0434F009E68C8
:10096000BE403043D0601E7906F00306022E13D13C
:10097000CF0802F1200656F827004E07F70E0F2683
:10098000BE40B0434F07FF0E1E69BE403043CF0844
:1009900002F1200646F8270010684F000326BE40EB
:1009A000B0431E7906F003064F00BE40304310608E
:1009B0005E6806F44036002E1DD000BF002600966B
:1009C000414E366846F480463F4F3E603E463668AC
:1009D00006F48046009600BF00BF3C4E8F0856F8D4
:1009E00027008E07370F0F26BE40B043384EB24265
:1009F00002D100262EE061E0364EB24201D101263E
:100A000028E0354EB24201D1022623E0334EB242F5
:100A100001D103261EE0324EB24201D1042619E074
:100A2000304EB24201D1052614E02F4EB24201D120
:100A300006260FE02D4EB24201D107260AE02C4EC9
:100A4000B24201D1082605E02A4EB24201D1092660
:100A500000E00A268F073F0FBE4030431B4E8F0831
:100A600046F82700244E3068A0435E6806F48016DE
:100A700006B12043204E3060361D3068A0435E68CA
:100A800006F4001606B120431B4E361D30601A4E88
:100A9000361F3068A0435E6806F4003606B1204376
:100AA000154E361F3060361F3068A0435E6806F46E
:100AB000803606B12043104E083E3060491C102994
:100AC000FFF41CAFF8BD0000443802400838014074
:100AD000000002400004024000080240000C0240F6
:100AE000001002400014024000180240001C0240A6
:100AF0000020024000240240083C01400AB181610C
:100B000001E00B04836170470148006870470000F2
:100B1000C4000020034800680349097808440149DB
:100B200008607047C4000020CC00002010B50D48BC
:100B3000006840F400700B4908600846006840F403
:100B4000806008600846006840F4807008600320F8
:100B500000F0A2F80F2000F007F800F02BF80020BA
:100B600010BD0000003C024070B504460E480078FD
:100B70004FF47A71B1FBF0F00C490968B1FBF0F564
:100B8000284600F02BFC08B1012070BD102C07D2C4
:100B900000222146501E00F041F80548046001E0A3
:100BA0000120F2E70020F0E7CC000020D000002078
:100BB000C800002008B500BF002000900E48006863
:100BC00040F480400C4908600846006800F480400A
:100BD000009000BF00BF00BF00200090081F006809
:100BE00040F08050091F08600846006800F08050FF
:100BF000009000BF00BF08BD4438024001460846CF
:100C0000002809DB00F01F0301229A4043099B00E2
:100C100003F1E023C3F8002100BF70472DE9F05F26
:100C200080460D461646002703F098FC07463946D5
:100C30002A46334601F00700C0F1070ABAF1040F53
:100C400002D94FF0040A01E0C0F1070AD14600F1D1
:100C5000040ABAF1070F02D24FF0000A01E0A0F136
:100C6000030AD4464FF0010A0AFA09FAAAF1010A66
:100C70000AEA020A0AFA0CFA4FF0010B0BFA0CFB13
:100C8000ABF1010B0BEA030B4AEA0B042146404689
:100C900003F050FCBDE8F09F00BF00F00702064BD8
:100CA00019684FF6FF031940044B0B4343EA022136
:100CB000014B196000BF70470CED00E00000FA0521
:100CC00070B504460D460CB9012070BD5848006847
:100CD00000F00F00A84209D255490D70084600687F
:100CE00000F00F00A84201D00120EEE7207800F0CC
:100CF000020002281DD1207800F00400042805D14C
:100D00004C48006840F4E0504A490860207800F000
:100D10000800082805D14748006840F4604045496C
:100D200008604448006820F0F000A1680843414989
:100D30000860207800F00100A8B36068012807D19E
:100D40003C4808380068C0F34040B8B90120BCE70F
:100D50006068022802D06068032807D13548083847
:100D60000068C0F3406048B90120AEE73148083858
:100D70000068C0F3400008B90120A6E72D480068CC
:100D800020F00300616808432A490860FFF7BCFEB1
:100D9000064609E0FFF7B8FE801B41F28831884221
:100DA00002D9032091E707E02248006800F00C0018
:100DB0006168B0EB810FEDD11D48006800F00F00B5
:100DC000A84209D91A490D700846006800F00F00C2
:100DD000A84201D0012078E7207800F00400042820
:100DE00007D11448006820F4E050E1680843114935
:100DF0000860207800F00800082808D10D48006835
:100E000020F46040216940EAC1000A49086000F00E
:100E10003FF808490968C1F30311074A515CC8400B
:100E20000649086006480068FFF79EFE00204CE770
:100E3000003C024008380240C84D0008D0000020A5
:100E4000C80000200148006870470000D000002062
:100E500000B5FFF7F7FF04490968C1F38221034A8F
:100E6000515CC84000BD000008380240D84D000861
:100E700000B5FFF7E7FF04490968C1F34231034AAF
:100E8000515CC84000BD000008380240D84D000841
:100E90002DE9F047002400250026A14625480068DA
:100EA00000F00C0020B1042805D008283AD105E054
:100EB000DFF8849039E0DFF8849036E01D48001FA9
:100EC000006800F03F041B48001F006800F4800029
:100ED00078B11A481749091F0968C1F38811A0FBA6
:100EE00001700146224600233846FFF7D1F9054636
:100EF0000EE011480F49091F0968C1F38811A0FBD2
:100F000001700146224600233846FFF7C1F9054625
:100F10000848001F0068C0F30140401C4600B5FBB4
:100F2000F6F902E0DFF8109000BF00BF4846BDE8C8
:100F3000F0870000083802400024F400001BB700CE
:100F4000F8B504460CB90120F8BD207800F0010086
:100F5000002874D0F948006800F00C0004280DD077
:100F6000F648006800F00C00082813D1F348001F71
:100F7000006800F48000B0F5800F0BD1EF4808380E
:100F80000068C0F34040002859D06068002856D15E
:100F90000120D9E700BF6068B0F5803F08D1E7487D
:100FA0000838006840F48030E449083908601EE0E1
:100FB0006068B0F5A02F0DD1E0480838006840F413
:100FC0008020DE49083908600846006840F4803017
:100FD00008600CE0D9480838006820F48030D74910
:100FE000083908600846006820F48020086000BFC7
:100FF000606890B1FFF788FD054606E0FFF784FDC5
:10100000401B642801D903209EE7CC4808380068BB
:10101000C0F340400028F1D011E0FFF775FD054610
:1010200006E0FFF771FD401B642801D903208BE720
:10103000C24808380068C0F340400028F1D1207849
:1010400000F0020002285FD1BC48006800F00C00EC
:1010500058B1BA48006800F00C0008281CD1B74805
:10106000001F006800F48000B0B9B4480838006878
:10107000C0F3400020B1E068012801D0012063E7FF
:10108000AE480838006820F0F800216940EAC10045
:10109000AA490839086037E0E06800B30120A84990
:1010A0000860FFF731FD054606E0FFF72DFD401B08
:1010B000022801D9032047E7A04808380068C0F398
:1010C00040000028F1D09D480838006820F0F80062
:1010D000216940EAC10099490839086014E00020FC
:1010E00097490860FFF710FD054606E0FFF70CFD85
:1010F000401B022801D9032026E7904808380068E1
:10110000C0F340000028F1D1207800F00800082842
:101110002CD16069A8B101208A490860FFF7F4FC6E
:10112000054606E0FFF7F0FC401B022801D903202A
:101130000AE782486C300068C0F340000028F1D014
:1011400014E000207F490860FFF7DEFC054606E05A
:10115000FFF7DAFC401B022801D90320F4E67748A8
:101160006C300068C0F340000028F1D1207800F016
:101170000400042870D1002770483830006800F05F
:10118000805090B900BF002000906C483830006853
:1011900040F080506949383108600846006800F026
:1011A0008050009000BF00BF01276748006800F42E
:1011B0008070B0B96448006840F48070624908608B
:1011C000FFF7A2FC054606E0FFF79EFC401B022845
:1011D00001D90320B8E65C48006800F4807000285C
:1011E000F2D000BFA068012808D1544868300068D8
:1011F00040F001005149683108601DE0A0680528F1
:101200000DD14E486830006840F004004B49683109
:1012100008600846006840F0010008600CE047489C
:101220006830006820F001004449683108600846D1
:10123000006820F00400086000BFA068A8B1FFF7B4
:1012400063FC054609E0FFF75FFC401B41F2883173
:10125000884202D9032077E626E0384868300068E3
:10126000C0F340000028EED013E0FFF74DFC054628
:1012700008E0FFF749FC401B41F28831884201D960
:10128000032061E62D4868300068C0F34000002864
:10129000EFD1012F07D129483830006820F0805065
:1012A00026493831086000BFA069002845D023488E
:1012B000006800F00C0008285DD0A069022845D124
:1012C00000201F490866FFF71FFC054606E0FFF7F0
:1012D0001BFC401B022801D9032035E617480838BB
:1012E0000068C0F340600028F1D1D4E90701084349
:1012F000616A40EA81110122A06AC2EB500041EA12
:1013000000412C20005D41EA00600C49091F086083
:1013100001200B490866FFF7F7FB054606E0FFF7DB
:10132000F3FB401B022801D903200DE603480838CF
:101330000068C0F340600028F1D049E0083802405E
:1013400000004742800E47420070004000202149C3
:101350000866FFF7D9FB054606E0FFF7D5FB401B03
:10136000022801D90320EFE51B480068C0F3406064
:101370000028F2D12CE0A069012800D1E4E516484C
:10138000001D0668A069012820D006F48001E069EC
:1013900081421BD106F03F01206A814216D147F6F7
:1013A000C0703040616AB0EB811F0FD106F440314C
:1013B0000122A06AC2EB5000B1EB004F06D106F04B
:1013C00070612C20005DB1EB006F01D00120BBE506
:1013D0000020B9E5000047420038024070B50446DD
:1013E0002546681EB0F1807F01D301200FE0681E02
:1013F0004FF0E02148610F214FF0FF3003F09AF8E1
:1014000000204FF0E021886107200861002070BDB6
:101410007047704710B50346002200BF93F83C00A8
:10142000012801D1022010BD012083F83C0000BF3B
:1014300022F0FF00CC6840EA040222F440708C687D
:1014400040EA040222F480604C6840EA040222F47C
:1014500000600C6840EA040222F480500C6940EA03
:10146000040222F400504C6940EA040222F4804055
:10147000CC6940EA04021868426400BF002083F887
:101480003C0000BF00BFCEE730B502460B4600BFB0
:1014900092F83C00012801D1022030BD012082F8E1
:1014A0003C0000BF022082F83D00106844681068CC
:1014B000816824F070041868044310684460184D73
:1014C0001068A8421BD01068B0F1804F17D0154D9E
:1014D0001068A84213D0144D1068A8420FD0134DC5
:1014E0001068A8420BD0124D1068A84207D0114DC9
:1014F0001068A84203D0104D1068A84205D121F011
:1015000080015868014310688160012082F83D0025
:1015100000BF002082F83C0000BF00BFBDE7000014
:10152000000001400004004000080040000C0040A2
:1015300000040140004001400018004010B504467E
:101540000CB9012010BD94F83D0028B9002084F8A2
:101550003C00204600F026F8022084F83D00211DC2
:10156000206801F059FD012084F8460000BF84F88E
:101570003E0001213F2001554020015541200155E9
:1015800000BF00BF012084F84200432001554420E1
:1015900001554520015500BF012084F83D00002081
:1015A000D0E7000038B504462068B0F1804F0FD175
:1015B00000BF002000904048006840F001003E4914
:1015C00008600846006800F00100009000BF71E06C
:1015D0003A49206888420FD100BF00200090364869
:1015E000006840F00400344908600846006800F0D4
:1015F0000400009000BF5DE03149206888420FD1AF
:1016000000BF002000902C48006840F008002A49E4
:1016100008600846006800F00800009000BF49E03C
:1016200028492068884211D100BF0020009022483C
:10163000001D006840F002001F49091D08600846AF
:10164000006800F00200009000BF33E01E492068EF
:10165000884211D100BF002000901748001D00688B
:1016600040F480301449091D08600846006800F401
:101670008030009000BF1DE014492068884219D1D5
:1016800000BF002000900C48001D006840F40030AE
:101690000949091D08600846006800F40030009000
:1016A00000BF00BF002211461920FFF7B7FA19202A
:1016B000FFF7A4FA38BD000040380240000800409F
:1016C000000C004000040140004001400044014083
:1016D000014691F83D00012801D001207047022009
:1016E00081F83D001A4B086898421BD00868B0F199
:1016F000804F17D0174B0868984213D0164B0868D4
:1017000098420FD0154B086898420BD0144B0868CC
:10171000984207D0134B0868984203D0124B0868D0
:1017200098420CD10868806800F00702062A0CD0A5
:101730000868006840F001000B68186005E0086860
:10174000006840F001000B6818600020C6E7000048
:10175000000001400004004000080040000C004070
:10176000000401400040014000180040014691F88B
:101770003D00012801D001207047022081F83D0082
:101780000868C06840F001000B68D8601A4B086810
:1017900098421BD00868B0F1804F17D0174B0868EB
:1017A000984213D0164B086898420FD0154B086822
:1017B00098420BD0144B0868984207D0134B086826
:1017C000984203D0124B086898420CD10868806890
:1017D00000F00702062A0CD00868006840F00100FB
:1017E0000B68186005E00868006840F001000B68AD
:1017F00018600020C0E70000000001400004004025
:1018000000080040000C004000040140004001407E
:10181000001800402DE9F04104460D46002700BFA6
:1018200094F83C00012802D10220BDE8F08101209B
:1018300084F83C0000BF022084F83D0020688668E0
:1018400026F0770626F47F462068866028685028B0
:1018500033D00CDC202850D004DC00284BD01028DA
:1018600051D149E0302849D040284CD139E0602896
:101870002DD0702807D0B0F5805F03D0B0F5005FA1
:1018800041D10DE041E0D5E902136A68206801F01A
:1018900040FC2068866846F077062068866034E061
:1018A000D5E902136A68206801F033FC206880687B
:1018B00040F480402168886027E0EA686968206811
:1018C00002F0FFFB5021206802F0F2FB1DE0EA6805
:1018D0006968206802F008FC6021206802F0E8FBDB
:1018E00013E0EA686968206802F0EBFB4021206899
:1018F00002F0DEFB09E000BF00BF00BF29682068DE
:1019000002F0D6FB01E0012700BF00BF012084F8F0
:101910003D0000BF002084F83C0000BF384684E74B
:10192000704710B5044620680069C0F34000D8B184
:101930002068C068C0F34000B0B16FF002002168B9
:101940000861012020772068806900F0030018B149
:101950002046FFF7E5FF05E0204600F0ABF9204602
:1019600000F050FB0020207720680069C0F3800061
:10197000D8B12068C068C0F38000B0B16FF0040037
:1019800021680861022020772068806900F4407097
:1019900018B12046FFF7C4FF05E0204600F08AF9A1
:1019A000204600F02FFB0020207720680069C0F35C
:1019B000C000D8B12068C068C0F3C000B0B16FF0FB
:1019C000080021680861042020772068C06900F0C1
:1019D000030018B12046FFF7A3FF05E0204600F002
:1019E00069F9204600F00EFB00202077206800698E
:1019F000C0F30010D8B12068C068C0F30010B0B1C7
:101A00006FF0100021680861082020772068C06905
:101A100000F4407018B12046FFF782FF05E0204631
:101A200000F048F9204600F0EDFA00202077206809
:101A3000006900F0010058B12068C06800F00100A2
:101A400030B16FF0010021680861204600F062FBB0
:101A500020680069C0F3C01058B12068C068C0F3A6
:101A6000C01030B16FF08000216808612046FFF798
:101A7000CFFC20680069C0F3801058B12068C068AE
:101A8000C0F3801030B16FF040002168086120463B
:101A900000F060FB20680069C0F3401058B1206876
:101AA000C068C0F3401030B16FF0200021680861B9
:101AB0002046FFF7AEFC10BD10B586B004461421D9
:101AC00001A8FEF78EFC2068B0F1804F1DD100BF49
:101AD000002000905248006840F001005049086022
:101AE0000846006800F00100009000BF00BF03201E
:101AF00001900220029000200390049001200590A4
:101B000001A94848FEF7F2FE88E04749206888426C
:101B10001ED100BF002000904148006840F008003E
:101B20003F4908600846006800F00800009000BFC8
:101B300000BF4FF4704001900220029000200390FB
:101B400004900220059001A93848FEF7CFFE65E019
:101B50003749206888421ED100BF002000903048DD
:101B6000006840F080002E4908600846006800F0D8
:101B70008000009000BF00BF4FF440600190022041
:101B800002900020039004900220059001A92948AA
:101B9000FEF7ACFE42E02849206888421DD100BF14
:101BA000002000901E48006840F480701C490860C6
:101BB0000846006800F48070009000BF00BFE42079
:101BC00001900220029000200390049003200590D1
:101BD00001A91A48FEF78AFE20E0194920688842C8
:101BE0001CD100BF002000900D48006840F00100AB
:101BF0000B4908600846006800F00100009000BF33
:101C000000BF0C200190022002900020039004905D
:101C10000320059001A90348FEF768FE06B010BD39
:101C2000303802400000024000080040000C024032
:101C3000000C0040001C0240000401400020024053
:101C4000004001402DE9F04104460E4615460027AC
:101C500000BF94F83C00012802D10220BDE8F081C9
:101C6000012084F83C0000BF35B1042D09D0082DB7
:101C70000CD00C2D14D10EE03146206802F07AF918
:101C800010E03146206801F04FFA0BE03146206841
:101C900002F0A8F906E03146206802F0DFF901E021
:101CA000012700BF00BF00BF002084F83C0000BF38
:101CB0003846D3E710B50446044802F029FDA04297
:101CC00002D1024802F096FC10BD00009C120020D8
:101CD00010B504460CB9012010BD94F83D0028B998
:101CE000002084F83C00204600F025F8022084F80B
:101CF0003D00211D206801F08FF9012084F8460085
:101D000000BF84F83E0001213F20015540200155CD
:101D10004120015500BF00BF012084F8420043204C
:101D20000155442001554520015500BF012084F88C
:101D30003D000020D0E77047F0B504460D46002670
:101D400015B994F83E000BE0042D02D13F20005D50
:101D500006E0082D02D14020005D01E04120005D39
:101D6000012801D00120F0BD1DB9022084F83E00F9
:101D70000EE0042D03D102213F20015508E0082D7B
:101D800003D102214020015502E0022141200155EA
:101D900035B1042D0BD0082D10D00C2D1CD114E022
:101DA0002068C06840F002002168C86016E0206822
:101DB000C06840F004002168C8600FE02068C06877
:101DC00040F008002168C86008E02068C06840F062
:101DD00010002168C86001E0012600BF00BFEEBB13
:101DE00001222946206801F083F9244920688842AD
:101DF00003D023492068884201D1012000E000205F
:101E000028B12068406C40F40040216848641B49B8
:101E1000206888421BD02068B0F1804F17D0194944
:101E20002068884213D01849206888420FD017498B
:101E3000206888420BD012492068884207D0144994
:101E40002068884203D01349206888420ED1206858
:101E5000806800F00707062F0ED000E00CE0206835
:101E6000006840F001002168086005E02068006813
:101E700040F0010021680860304674E7000001402E
:101E8000000401400004004000080040000C004035
:101E900000400140001800402DE9F04104460D4685
:101EA0001646002700BF94F83C00012802D102200A
:101EB000BDE8F081012084F83C0000BF36B1042E5B
:101EC0001BD0082E31D00C2E5ED145E0294620686B
:101ED00002F050F82068806940F0080021688861AD
:101EE0002068806920F0040021688861206880698A
:101EF000296908432168886148E02946206801F083
:101F000013F92068806940F40060216888612068C6
:101F1000806920F48060216888612068806929696F
:101F200040EA01202168886130E02946206802F0FB
:101F300059F82068C06940F008002168C86120682D
:101F4000C06920F004002168C8612068C06929695F
:101F500008432168C86119E02946206802F07EF82C
:101F60002068C06940F400602168C8612068C069C9
:101F700020F480602168C8612068C069296940EA4E
:101F800001202168C86101E0012700BF00BF00BF38
:101F9000002084F83C0000BF384689E710B50446AD
:101FA0000CB9012010BD94F83D0028B9002084F838
:101FB0003C00204600F025F8022084F83D00211D59
:101FC000206801F029F8012084F8460000BF84F859
:101FD0003E0001213F20015540200155412001557F
:101FE00000BF00BF012084F8420043200155442077
:101FF00001554520015500BF012084F83D00002017
:10200000D0E770477047000070B504460D4615B91B
:1020100094F83E000BE0042D02D13F20005D06E065
:10202000082D02D14020005D01E04120005D012823
:1020300001D0012070BD1DB9022084F83E000EE0E1
:10204000042D03D102213F20015508E0082D03D1C2
:1020500002214020015502E00221412001550122C8
:102060002946206801F044F823492068884203D0BB
:1020700022492068884201D1012000E0002028B1D7
:102080002068406C40F40040216848641A49206888
:1020900088421BD02068B0F1804F17D018492068C3
:1020A000884213D01749206888420FD0164920680B
:1020B00088420BD011492068884207D01349206814
:1020C000884203D01249206888420CD12068806879
:1020D00000F00706062E0CD02068006840F00100D2
:1020E0002168086005E02068006840F00100216870
:1020F000086000209EE7000000000140000401404D
:102100000004004000080040000C00400040014076
:102110000018004010B50446094884420ED101223F
:102120000849094800F066FB01220649074800F00B
:1021300061FB01220349064800F05CFB10BD000072
:1021400034140020480000208C1500204815002081
:102150007C14002070477047704700002DE9F84F4D
:102160000446206805682068C668206847694FF003
:102170000009CA4605F00F09B9F1000F0AD105F0B0
:10218000200038B106F0200020B1204602F0D6F839
:10219000BDE8F88FB9F1000F7CD007F0010018B945
:1021A00006F49070002875D005F0010030B106F4F7
:1021B000807018B1206C40F00100206405F004002C
:1021C00030B107F0010018B1206C40F0020020642B
:1021D00005F0020030B107F0010018B1206C40F0AA
:1021E0000400206405F0080048B106F0200010B992
:1021F00007F0010018B1206C40F008002064206C4A
:10220000002846D005F0200028B106F0200010B1CB
:10221000204602F093F820684069C0F3801A206CD1
:1022200000F0080010B9BAF1000F2DD0204602F0DE
:1022300031F92068406900F04000402820D100BFFB
:1022400000BF2168143151E8001F21F040002168CF
:10225000143141E80002002AF3D100BFA06B50B155
:102260007548A16B0865A06BFEF796F988B1A06B65
:10227000016D88470DE02046FFF76EFF09E009E099
:102280002046FFF769FF04E02046FFF765FF0020C6
:1022900020647DE7206B012876D105F0100000282E
:1022A00072D006F010000028FAD000BF0020009085
:1022B00020680068009020684068009000BF00BF60
:1022C0002068406900F0400040285ED1A06B0068A3
:1022D00040681FFA80F8B8F1000F54D0A08D404537
:1022E00051DDA4F82E80A06BC069B0F5807F43D08B
:1022F00000BF00BF21680C3151E8001F21F480703D
:1023000021680C3141E80002002AF3D100BF00BF70
:1023100000BF2168143151E8001F21F0010021683D
:10232000143141E80002002AF3D100BF00BF00BF12
:102330002168143151E8001F21F040002168143158
:1023400041E80002002AF3D100BF202084F83E00BB
:102350000020206300BF00BF21680C3151E8001F3E
:1023600021F0100021680C3141E80002002AF3D16D
:1023700000BFA06BFEF7BAF8A08DE28D801A81B283
:102380002046FFF7E8FE03E740E0A08DE18D401A0C
:102390001FFA80F8E08DC0B3B8F1000F35D000BF50
:1023A00000BF21680C3151E8001F21F490702168B2
:1023B0000C3141E80002002AF3D100BF00BF00BF8A
:1023C0002168143151E8001F21F001002168143107
:1023D00041E80002002AF3D100BF202084F83E002B
:1023E0000020206300BF00BF21680C3151E8001FAE
:1023F00021F0100021680C3141E80002002AF3D1DD
:1024000000BF41462046FFF7A6FEC1E605F080006A
:1024100030B106F0800018B1204602F00BF8B7E6A4
:1024200005F0400030B106F0400018B1204602F03F
:1024300067F8ADE600BFABE62145000810B50446DD
:102440000CB9012010BDA06900B100E000BF94F8F4
:102450003D0028B9002084F83C00204600F028F810
:10246000242084F83D002068C06820F400502168D2
:10247000C860204601F04CFE2068006920F49040BE
:10248000216808612068406920F02A0021684861BD
:102490002068C06840F400502168C86000202064B3
:1024A000202084F83D0084F83E000020CAE70000A8
:1024B00010B586B00446142101A8FDF792FFA64985
:1024C0002068884256D100BF00200090A3480068D1
:1024D00040F08040A14908600846006800F0804054
:1024E000009000BF00BF00BF002000909B48103844
:1024F000006840F0100099491039086008460068EB
:1025000000F01000009000BF00BF4FF4C0700190B9
:1025100002200290002003900320049008200590E0
:1025200001A98F48FEF7E2F98E488F4908608005BF
:10253000486040218C4881600021C1604FF4806177
:102540000161002141618161C16101624162FEF767
:1025500057F908B1FDF7C7FF00BF83486063846384
:1025600000BF002211465220FEF758FB5220FEF712
:1025700045FBEEE07D492068884230D100BF002055
:1025800000907648006840F00040744908600846B2
:10259000006800F00040009000BF00BF00BF0020B6
:1025A00000906E481038006840F010006B491039F8
:1025B00008600846006800F01000009000BF00BFEF
:1025C0000320019002200290002003900320049039
:1025D0000820059001A96248FEF788F9B9E064492E
:1025E0002068884238D100BF002000905B48006816
:1025F00040F40030594908600846006800F4003093
:10260000009000BF00BF00BF00200090534810386A
:10261000006840F008005149103908600846006819
:1026200000F00800009000BF00BF60200190022071
:10263000029000200390032004900720059001A938
:102640004C48FEF753F9002211462620FEF7E6FA21
:102650002620FEF7D3FA7CE047492068884239D12A
:1026600000BF002000903D48006840F480203B49B6
:1026700008600846006800F48020009000BF00BF9A
:1026800000BF0020009035481038006840F0080076
:102690003249103908600846006800F008000090D0
:1026A00000BF00BF4FF44070019002200290002054
:1026B0000390032004900720059001A92D48FEF700
:1026C00015F9002211462720FEF7A8FA2720FEF769
:1026D00095FA3EE02949206888423AD100BF00209F
:1026E00000901E48001D006840F020001B49091D95
:1026F00008600846006800F02000009000BF00BF9E
:1027000000BF0020009015481038006840F04000DD
:102710001249103908600846006800F04000009037
:1027200000BF00BF4FF484400190022002900020BF
:102730000390032004900820059001A91048FEF79B
:10274000D5F8002211464720FEF768FA4720FEF729
:1027500055FA06B010BD0000007800404038024035
:102760000010024028600240D0150020007C00408C
:1027700000440040000C02400048004000140140AA
:102780000018024070B504460D46164694F83E0007
:10279000202816D105B10EB9012070BD00BF94F8F4
:1027A0003C00012801D10220F7E7012084F83C0019
:1027B00000BF0020206332462946204600F0FAFC84
:1027C000EBE70220E9E7000010B504460648844222
:1027D00005D00648844202D00548844202D12046F2
:1027E00000F028FD10BD00008C15002048150020C9
:1027F0007C14002010B5034693F83D00202823D117
:1028000001B10AB9012010BD00BF93F83C000128B6
:1028100001D10220F7E7012083F83C0000BF1962D4
:102820009A84DA8400201864212083F83D0000BFD8
:10283000002083F83C0000BF1868C06840F08000AA
:102840001C68E0600020DEE70220DCE7704700BF84
:10285000FEE7000008B500BF002000900A480068AD
:1028600040F40010084908600846006800F40010B1
:10287000009000BF00BF002211460C20FEF7CEF9E9
:102880000C20FEF7BBF908BD3038024000B587B018
:10289000142102A8FDF7A5FD00BF002001907F488C
:1028A000006840F010007D4908600846006800F0AC
:1028B0001000019000BF00BF00BF0020019008463B
:1028C000006840F0400008600846006800F04000E2
:1028D000019000BF00BF00BF0020019008460068C3
:1028E00040F0010008600846006800F00100019017
:1028F00000BF00BF00BF002001900846006840F004
:10290000080008600846006800F00800019000BF59
:1029100000BF00BF002001900846006840F48070AE
:1029200008600846006800F48070019000BF00BF96
:1029300000BF002001900846006840F020000860B9
:102940000846006800F02000019000BF00BF00BFF3
:10295000002001900846006840F0800008600846AA
:10296000006800F08000019000BF00BF00BF0020A1
:1029700001900846006840F00400086008460068BE
:1029800000F00400019000BF00BF00BF00200190D4
:102990000846006840F0020008600846006800F041
:1029A0000200019000BF00BF002241F270013C48CC
:1029B000FEF7A4F800224FF400713A48FEF79EF8A3
:1029C000002240F203413848FEF798F800223621F1
:1029D0003648FEF793F8002230213548FEF78EF88E
:1029E000002201213348FEF789F841F2700002907D
:1029F0000120039000200490059002A92848FDF7CB
:102A000075FF4FF4007002900120039000200490A5
:102A1000059002A92348FDF769FF40F203400290A8
:102A20000120039000200490059002A91E48FDF7A4
:102A30005DFF0920029000200390049002A91B482A
:102A4000FDF754FF362002900120039000200490EF
:102A5000059002A91548FDF749FF3020029001209A
:102A6000039000200490059002A91148FDF73EFF55
:102A70000220029000200390049002A90D48FDF767
:102A800035FF01200290039000200490059002A9D8
:102A90000848FDF72BFF07B000BD000030380240AA
:102AA00000100240002002400014024000080240D2
:102AB000000002400004024010B50A480A490860BC
:102AC00040F2E730486000210748816040F2E7317A
:102AD000C160002101618161FEF730FD08B1FDF7A1
:102AE00002FD10BD004401403414002000B58DB03B
:102AF000002009900A900B900C90079008901C21E0
:102B00006846FDF76EFC4FF0804023490860D120F5
:102B1000486000212048816040F2E731C160002117
:102B200001618161FEF70AFD08B1FDF7DCFC4FF49D
:102B30008050099009A91848FEF76CFE08B1FDF70E
:102B4000D2FC1548FFF72AFA08B1FDF7CCFC0020AB
:102B50000790089007A91048FEF796FC08B1FDF70A
:102B6000C2FC60200090002001900290049000229E
:102B700069460948FFF790F908B1FDF7B4FC042253
:102B800069460548FFF788F908B1FDF7ACFC024833
:102B9000FEF792FF0DB000BDCC12002000B58DB045
:102BA000002009900A900B900C90079008901C212F
:102BB0006846FDF716FC2C482C490860D120486077
:102BC00000212A48816040F2E731C16000210161A3
:102BD0008161FEF7B3FC08B1FDF785FC4FF480502E
:102BE000099009A92148FEF715FE08B1FDF77BFC05
:102BF0001E48FFF7D3F908B1FDF775FC00200790D8
:102C0000089007A91948FEF73FFC08B1FDF76BFCD7
:102C100060200090002001900290049000226946FC
:102C20001248FFF739F908B1FDF75DFC0422694647
:102C30000E48FFF731F908B1FDF755FC0822694647
:102C40000A48FFF729F908B1FDF74DFC0C22694647
:102C50000648FFF721F908B1FDF745FC0348FEF7E8
:102C60002BFF0DB000BD0000000800401413002031
:102C700000B58DB0002009900A900B900C90079041
:102C800008901C216846FDF7ACFB244824490860E5
:102C90005320486000212248816040F6B731C1606E
:102CA000002101618161FEF749FC08B1FDF71BFCC1
:102CB0004FF48050099009A91948FEF7ABFD08B1FF
:102CC000FDF711FC1648FFF769F908B1FDF70BFC99
:102CD00000200790089007A91148FEF7D5FB08B11E
:102CE000FDF701FC6020009000200190029004900C
:102CF000002269460A48FFF7CFF808B1FDF7F3FB59
:102D0000042269460648FFF7C7F808B1FDF7EBFB58
:102D10000348FEF7D1FE0DB000BD0000000C0040DE
:102D20005C13002000B595B0002011901290139014
:102D300014900F9010901C2108A8FDF752FB202141
:102D40006846FDF74EFB374837490860A7204860C2
:102D500000213548816040F6B731C1600021016132
:102D600041618161FEF7EAFB08B1FDF7BCFB4FF45E
:102D70008050119011A92C48FEF74CFD08B1FDF7C9
:102D8000B2FB2948FFF70AF908B1FDF7ACFB0020B8
:102D90000F9010900FA92448FEF776FB08B1FDF7BD
:102DA000A2FB60200890002009900A900B900C90E4
:102DB0000D900E90002208A91B48FFF76DF808B18E
:102DC000FDF791FB042208A91748FFF765F808B141
:102DD000FDF789FB082208A91348FFF75DF808B141
:102DE000FDF781FB0C2208A90F48FFF755F808B141
:102DF000FDF779FB00200090019002900390049071
:102E00004FF4005005900020079069460648FEF7F1
:102E100001FB08B1FDF767FB0348FEF74DFE15B057
:102E200000BD000000040140A413002000B58BB0D9
:102E300000200790089009900A901C216846FDF731
:102E4000D0FA1F481F4908605320486000211D48E0
:102E50008160A721C160002101618161FEF76EFBE5
:102E600008B1FDF740FB4FF48050079007A91548C3
:102E7000FEF7D0FC08B1FDF736FB1248FEF728FF3D
:102E800008B1FDF730FB30200090002001900220B7
:102E9000029000200490002269460A48FEF7D2FE04
:102EA00008B1FDF720FB042269460648FEF7CAFE7A
:102EB00008B1FDF718FB0348FEF7FEFD0BB000BD9F
:102EC00000400140EC13002010B50B480B4908608E
:102ED0004FF416504860002108488160C1600161CC
:102EE0000C21416100218161C161FFF7A7FA08B19E
:102EF000FDF7F9FA10BD0000007800407C140020B6
:102F000010B50B480B4908604FF4E13048600021D0
:102F100008488160C16001610C214161002181612B
:102F2000C161FFF78BFA08B1FDF7DDFA10BD0000B3
:102F3000007C0040C014002010B50B480B4908600D
:102F40004FF4E1304860002108488160C1600161B0
:102F50000C21416100218161C161FFF76FFA08B165
:102F6000FDF7C1FA10BD0000004400400415002028
:102F700010B50B480B4908604FF41650486000210B
:102F800008488160C16001610C21416100218161BB
:102F9000C161FFF753FA08B1FDF7A5FA10BD0000B3
:102FA000004800404815002010B50B480B49086048
:102FB0004FF416504860002108488160C1600161EB
:102FC0000C21416100218161C161FFF737FA08B12D
:102FD000FDF789FA10BD0000001401408C15002097
:102FE00000BFFEE700BFFEE77047704710B5FDF772
:102FF00091FD10BD0348006840F47000014908606D
:103000007047000088ED00E010B50248FEF789FC2B
:1030100010BD00003414002010B50268294B9842FE
:103020000ED0B0F1804F0BD0274B984208D0274BE1
:10303000984205D0264B984202D0264B984203D1A5
:1030400022F070024B681A431E4B984220D0B0F118
:10305000804F1DD01C4B98421AD01C4B984217D061
:103060001B4B984214D01B4B984211D01A4B9842DC
:103070000ED01A4B98420BD0194B984208D0194BDE
:10308000984205D0184B984202D0184B984203D171
:1030900022F44072CB681A4322F080034C6943EA61
:1030A000040202608B68C3620B688362054B98421E
:1030B00002D0084B984201D10B690363012343619D
:1030C00010BD000000000140000400400008004066
:1030D000000C004000040140004001400044014059
:1030E0000048014000180040001C00400020004043
:1030F00030B501F01F05012404FA05F3046A9C436E
:103100000462046A01F01F0502FA05F52C4304620B
:1031100030BD30B50C46816821F47F4142EA032579
:1031200025432943816030BD30B5056A25F010057F
:103130000562026A4368846924F4E04424F440741C
:103140000D6844EA052422F020028D6842EA051247
:10315000124DA84200D103E0114DA84207D100BF93
:1031600022F08002CD6842EA051222F040020B4DA7
:10317000A84202D00A4DA84209D123F4806323F467
:1031800000634D6943EA85038D6943EA8503436023
:1031900084614D688563026230BD0000000001401B
:1031A0000004014010B50248FEF7D8FF10BD000032
:1031B0007C14002010B5034699629A85DA850020B8
:1031C0001864222083F83E0000BF002083F83C00F2
:1031D00000BF186928B11868C06840F480701C6886
:1031E000E0601868406940F001001C686061186880
:1031F000C06840F020001C68E060002010BD0000A6
:1032000010B50248FEF7AAFF10BD0000041500200B
:1032100010B50248FEF7A2FF10BD000048150020BF
:1032200010B50248FEF79AFF10BD00008C15002073
:1032300000BFFEE710B504460D48844205D10122C7
:103240000C492046FFF79EFA10E00B48844205D156
:1032500001220A492046FFF795FA07E00848844210
:1032600004D1012207492046FFF78CFA10BD000067
:103270008C150020040000204815002005000020C7
:103280007C1400200600002000B593B0302107A870
:10329000FDF7A7F8142102A8FDF7A3F800BF00204E
:1032A00001902448006840F0805022490860084698
:1032B000006800F08050019000BF00BF00BF0020F8
:1032C00001901D48006840F440401B4908600846D2
:1032D000006800F44040019000BF00BF012007904B
:1032E0000004089002200D9041050E9106210F91D7
:1032F000A8211091022111910421129107A8FDF734
:103300001FFE08B1FDF7EFF80F2002900220039096
:10331000002004904FF4A05005904FF48050069088
:10332000052102A8FDF7CCFC08B1FDF7DCF813B0CD
:1033300000BD000040380240007000400FB42DED89
:10334000040B70B52DED048BF0EE409AB0EE608A60
:10335000F0EE418AB0EE619A05460C46DFED250A93
:10336000B0EE690A04F1F00000F000F904F1F00099
:1033700000F0D6F8DFED200AB0EE480A04F1500064
:1033800000F0F4F804F1500000F0CAF8DFED190A7B
:10339000B0EE680A04F1A00000F0E8F804F1A00023
:1033A00000F0BEF8DFED130AB0EE490A204600F047
:1033B000DDF8204600F0B4F855B9DFED0E0AB2EEA4
:1033C000040A0EA800F0D2F80EA800F0A9F80BE04D
:1033D000012D09D1DFED070ABBEE0E0A0EA800F0A1
:1033E000C5F80EA800F09CF8BDEC048B70BC5DF82D
:1033F00024FB0000000087430000344380F858108D
:1034000070470FB42DE9F04704461BAD95E8E00383
:103410003D2209A92046FCF7B2FF9DF8610084F81F
:103420003D009DF8620084F83E009DF863103F2047
:1034300001559DF86410402001559DF8651041200C
:1034400001559DF8660084F842009DF867104320FE
:1034500001559DF86810442001559DF869104520DC
:1034600001559DF86A0084F8460084F84850A4F895
:103470004A60E764A4F85080C4F85490294609A82B
:10348000FEF7C2FDBDE8F0075DF814FB002180F8EF
:1034900058109FED050A80ED170A40F2E7310166EA
:1034A0000021416681667047B52208420FB470B5AD
:1034B0000446179D3D2205A92046FCF760FF9DF8B4
:1034C000510084F83D009DF8520084F83E009DF8BC
:1034D00053103F2001559DF85410402001559DF890
:1034E0005510412001559DF8560084F842009DF882
:1034F0005710432001559DF85810442001559DF860
:103500005910452001559DF85A0084F8460084F86A
:103510004850294605A8FEF777FD70BC5DF814FBFE
:1035200010B5044640F6C31240F2F31104F14C000A
:1035300001F030FC94F8480018B92168E06C486349
:1035400012E094F84800042803D12168E06C8863F5
:103550000AE094F84800082803D12168E06CC863A9
:1035600002E02168E06C086410BD0000B0EE002AA3
:10357000C0EE821A80EE212ADFED0A2ADFED0A1A58
:1035800042EE221AB0EE611A9FED082AC1EE021A2D
:103590009FED072A61EE821AFDEEE11AC0ED131AC3
:1035A000704700006F12833AA69BC43AA69B443B27
:1035B00000703B4570B504460E4684F8E067002570
:1035C00009E005EB451101EB410104EB81003146B7
:1035D00000F0ACFB6D1C042DF3DB70BD0FB430B5F7
:1035E000CFB004463D2253A904F5E160FCF7C7FEC5
:1035F0009DF8891184F845179DF88A1184F84617BB
:103600009DF88B1184F847179DF88C1184F84817A2
:103610009DF88D1184F849179DF88E1184F84A178A
:103620009DF88F1184F84B179DF8901184F84C1772
:103630009DF8911184F84D179DF8921184F84E175A
:103640003D2265A904F5F360FCF799FE9DF8D111C0
:1036500084F8D5179DF8D21184F8D6179DF8D311A8
:1036600084F8D7179DF8D41184F8D8179DF8D51190
:1036700084F8D9179DF8D61184F8DA179DF8D71178
:1036800084F8DB179DF8D81184F8DC179DF8D91160
:1036900084F8DD179DF8DA1184F8DE173D2265A95C
:1036A0003DA8FCF76CFE9DF8D1018DF831019DF825
:1036B000D2018DF832019DF8D3118DF833119DF8A8
:1036C000D4118DF834119DF8D5118DF835119DF870
:1036D000D6018DF836019DF8D7118DF837119DF878
:1036E000D8118DF838119DF8D9118DF839119DF840
:1036F000DA018DF83A013D2253A92BA8FCF73FFED1
:103700009DF889018DF8E9009DF88A018DF8EA009D
:103710009DF88B118DF8EB109DF88C118DF8EC1045
:103720009DF88D118DF8ED109DF88E018DF8EE004D
:103730009DF88F118DF8EF109DF890118DF8F01015
:103740009DF891118DF8F1109DF892018DF8F2001D
:10375000DE48C1148023CDE926304822CDE9281067
:103760003DA914A8FCF70BFED84801210223CDE99E
:103770001030CDE9121000203C222EA90F9068468F
:10378000FCF7FDFD20462BA90EC900F0D2FA00215E
:103790002046FFF733FE3D2265A93DA8FCF7EFFD6B
:1037A0009DF8D1018DF831019DF8D2018DF83201DB
:1037B0009DF8D3118DF833119DF8D4118DF8341183
:1037C0009DF8D5118DF835119DF8D6018DF836018B
:1037D0009DF8D7118DF837119DF8D8118DF8381153
:1037E0009DF8D9118DF839119DF8DA018DF83A015B
:1037F0003D2253A92BA8FCF7C2FD9DF889018DF845
:10380000E9009DF88A018DF8EA009DF88B118DF88A
:10381000EB109DF88C118DF8EC109DF88D118DF842
:10382000ED109DF88E018DF8EE009DF88F118DF84A
:10383000EF109DF890118DF8F0109DF891118DF812
:10384000F1109DF892018DF8F200A04881154023F7
:10385000CDE926304822CDE928103DA914A8FCF76F
:103860008EFD9B4810212023CDE91030CDE91210A8
:1038700004203C222EA90F906846FCF780FD04F539
:10388000C6702BA90EC900F054FA002104F5C670C9
:10389000FFF7B4FD3D2265A93DA8FCF770FD9DF83A
:1038A000D1018DF831019DF8D2018DF832019DF8DA
:1038B000D3118DF833119DF8D4118DF834119DF882
:1038C000D5118DF835119DF8D6018DF836019DF88A
:1038D000D7118DF837119DF8D8118DF838119DF852
:1038E000D9118DF839119DF8DA018DF83A013D2290
:1038F00053A92BA8FCF743FD9DF889018DF8E90039
:103900009DF88A018DF8EA009DF88B118DF8EB1077
:103910009DF88C118DF8EC109DF88D118DF8ED103F
:103920009DF88E018DF8EE009DF88F118DF8EF1047
:103930009DF890118DF8F0109DF891118DF8F1100F
:103940009DF892018DF8F200624881150315CDE9CA
:1039500026304822CDE928103DA914A8FCF70FFD18
:103960005B4881144023CDE91030CDE912100820C6
:103970003C222EA90F906846FCF701FD04F5467025
:103980002BA90EC900F0D5F9002104F54670FFF708
:1039900035FD3D2265A93DA8FCF7F1FC9DF8D1015C
:1039A0008DF831019DF8D2018DF832019DF8D311C7
:1039B0008DF833119DF8D4118DF834119DF8D5117F
:1039C0008DF835119DF8D6018DF836019DF8D71187
:1039D0008DF837119DF8D8118DF838119DF8D9114F
:1039E0008DF839119DF8DA018DF83A013D2253A97D
:1039F0002BA8FCF7C4FC9DF889018DF8E9009DF81F
:103A00008A018DF8EA009DF88B118DF8EB109DF876
:103A10008C118DF8EC109DF88D118DF8ED109DF83E
:103A20008E018DF8EE009DF88F118DF8EF109DF846
:103A300090118DF8F0109DF891118DF8F1109DF80E
:103A400092018DF8F200224880210B02CDE9263048
:103A50004822CDE928103DA914A8FCF790FC1E4887
:103A600001211E4A0423CDE91032CDE912100C20A9
:103A70003C222EA90F906846FCF781FC04F2A4407A
:103A80002BA90EC900F055F9002104F2A440FFF75C
:103A9000B5FC002514E005EB451101EB410104EBF9
:103AA000810101F16C009FED0E2ADFED0D1AB3EEDE
:103AB000091ADFED0C0A9FED0C0A00F057FD6D1C92
:103AC000042DE8DB4FB030BC5DF814FB001402405D
:103AD00000100240000C02400004024000080240B6
:103AE0000000804F00803B450000FA440FB410B541
:103AF000A6B004463D2229A904F5EA60FCF73FFC84
:103B00009DF8E11084F88D179DF8E21084F88E1767
:103B10009DF8E31084F88F179DF8E41084F890174F
:103B20009DF8E51084F891179DF8E61084F8921737
:103B30009DF8E71084F893179DF8E81084F894171F
:103B40009DF8E91084F895179DF8EA1084F8961707
:103B50003D223BA904F5F360FCF711FC9DF8291107
:103B600084F8D5179DF82A1184F8D6179DF82B11E3
:103B700084F8D7179DF82C1184F8D8179DF82D11CB
:103B800084F8D9179DF82E1184F8DA179DF82F11B3
:103B900084F8DB179DF8301184F8DC179DF831119B
:103BA00084F8DD179DF8321184F8DE173D2229A92B
:103BB00014A8FCF7E4FB9DF8E1008DF88D009DF85A
:103BC000E2008DF88E009DF8E3108DF88F109DF8BF
:103BD000E4108DF890109DF8E5108DF891109DF887
:103BE000E6008DF892009DF8E7108DF893109DF88F
:103BF000E8108DF894109DF8E9108DF895109DF857
:103C0000EA008DF89600314802212023CDE91030DA
:103C1000CDE9121000203C2217A90F906846FCF74E
:103C2000AEFB04F5C66014A90EC9FFF7EAFB00213C
:103C300004F5C660FFF7E2FB3D2229A914A8FCF7B2
:103C40009EFB9DF8E1008DF88D009DF8E2008DF857
:103C50008E009DF8E3108DF88F109DF8E4108DF81C
:103C600090109DF8E5108DF891109DF8E6008DF804
:103C700092009DF8E7108DF893109DF8E8108DF8EC
:103C800094109DF8E9108DF895109DF8EA008DF8D4
:103C900096000F4810212023CDE91030CDE91210F5
:103CA00004203C2217A90F906846FCF768FB04F239
:103CB0009C6014A90EC9FFF7A4FB012104F29C60CB
:103CC000FFF79CFB26B010BC5DF814FB0008024017
:103CD0000000024010B5044604234FF4C6720F4999
:103CE000204600F018FD044602236C220C4900F522
:103CF000C66000F010FDA0F5C664012084F8E0075E
:103D000004F5F060074B0ECB9FED070A64300EC040
:103D100004F5806080EDFC0A204610BD313E0008AD
:103D20008D340008B44D00080000000080F86C11CC
:103D300070470FB42DE9F05F0446DDE934AB1DADEB
:103D400095E8E0033D220BA92046FCF718FB9DF8FF
:103D5000690084F83D009DF86A0084F83E009DF8F3
:103D60006B103F2001559DF86C10402001559DF8C7
:103D70006D10412001559DF86E0084F842009DF8B9
:103D80006F10432001559DF87010442001559DF897
:103D90007110452001559DF8720084F8460084F8A2
:103DA0004850A4F84A60E764A4F85080C4F85490DE
:103DB0003D2222A904F58A70FCF7E1FA9DF8C510AE
:103DC00084F851119DF8C61084F852119DF8C7105F
:103DD00084F853119DF8C81084F854119DF8C91047
:103DE00084F855119DF8CA1084F856119DF8CB102F
:103DF00084F857119DF8CC1084F858119DF8CD1017
:103E000084F859119DF8CE1084F85A11A4F85CA1D9
:103E1000C4F860B13698A4F864013798C4F8680112
:103E200029460BA8FEF7F0F8BDE8F01F5DF814FB7B
:103E300010B504462046FFF729FB04466C3000F01D
:103E4000A1FBA0F16C04543000F09CFBA0F1C00475
:103E5000012084F86C010020C4F870019FED0B0A6A
:103E6000C4F8740184ED5E0A9FED090A84ED5F0ACF
:103E70009FED070A84ED600A9FED050A84ED610A53
:103E80009FED030A84ED620A204610BD27745F424D
:103E900000000000014600208A6A8B69CBB932B16C
:103EA000012A0DD0022A03D0032A10D10EE000BF50
:103EB000CB6A03F08073B3F1807F00D1012007E06B
:103EC000CB6AB3F1C07F00D1012001E000E000BF68
:103ED00034E08B69B3F5005F1AD132B1012A07D003
:103EE000022A03D0032A11D10AE000BF01200EE00C
:103EF000CB6A03F08073B3F1807F00D1012006E02C
:103F0000CB6AB3F1C07F00D1012000E000BF15E013
:103F100032B1012A05D0022A04D0032A0CD103E0D1
:103F200000BF00BF012008E0CB6A03F08073B3F14B
:103F3000807F00D1012000E000BF00BF704700007B
:103F40000146087810381823B0FBF3F20848805C6B
:103F5000C865032A05D908686FF30900001D886544
:103F600003E008686FF309008865886D70470000FA
:103F7000C04D000830B5056A25F001050562026AEA
:103F80004368846924F0700424F003040D682C4312
:103F900022F002028D682A43104DA84200D103E0AE
:103FA0000F4DA84206D100BF22F00802CD682A4377
:103FB00022F00402094DA84202D0094DA84207D1BF
:103FC00023F4807323F400734D692B438D692B43D5
:103FD000436084614D684563026230BD000001406A
:103FE0000004014030B5056A25F480750562026A57
:103FF0004368C46924F0700424F003040D682C4362
:1040000022F400728D6842EA0522124DA84200D1C6
:1040100003E0114DA84207D100BF22F40062CD6831
:1040200042EA052222F480620A4DA84202D00A4DDB
:10403000A84209D123F4805323F400534D6943EA85
:1040400005138D6943EA05134360C4614D68C56378
:10405000026230BD000001400004014030B5056A35
:1040600025F480550562036A4468C26922F4E0427F
:1040700022F440720D6842EA052223F400538D6851
:1040800043EA0533084DA84202D0084DA84204D1A6
:1040900024F480444D6944EA85144460C2614D684B
:1040A0000564036230BD00000000014000040140CF
:1040B0000A46816821F0700142F0070319438160CC
:1040C000704730B50B461446026A056A25F00105B3
:1040D0000562816921F0F00141EA041122F00A022F
:1040E0001A438161026230BD30B50B461446056A41
:1040F00025F0100505628169026A21F4704141EAE8
:10410000043122F0A00242EA03128161026230BD52
:104110002DE9F84F04462068006920F44050E1681A
:104120000843216808612169A06808436169084360
:10413000E169084300902068C06849F20C61884337
:10414000009908432168C8602068406920F44070E5
:10415000A16908432168486176492068884203D0F4
:1041600075492068884203D1FCF782FE814602E04F
:10417000FCF76EFE8146E069B0F5004F6CD102207D
:104180006168A0FB015003461920A9FB007001469D
:104190002A463846FCF77CF86421B0FBF1F04FEA80
:1041A000001A02206168A0FB01510B461920A9FBEF
:1041B00000712A463846FCF76BF883460220616896
:1041C000A0FB015003461920A9FB00712A4638467E
:1041D000FCF75EF86421B0FBF1F000EBC00101EBED
:1041E0000010ABEB8000322101EBC0006421B0FB7A
:1041F000F1F000F0F8000AEB400A02206168A0FB31
:10420000015003461920A9FB007001462A46384692
:10421000FCF73EF8834602206168A0FB015003468C
:104220001920A9FB00712A463846FCF731F86421B1
:10423000B0FBF1F000EBC00101EB0010ABEB800034
:10424000322101EBC0006421B0FBF1F000F0070067
:104250005044216888606AE004206168A0FB015036
:1042600003461920A9FB007001462A463846FCF790
:104270000FF8824604206168A0FB01500346192014
:10428000A9FB007001462A463846FCF701F8642174
:10429000B0FBF1F000EBC00101EB0010AAEB8000D5
:1042A000322101EB00106421B0FBF1F000F0F00AC4
:1042B00004206168A0FB017003461920A9FB00518E
:1042C0003A462846FBF7E4FF6421B0FBF1F00AEB25
:1042D000001A04206168A0FB01510B461920A9FBBC
:1042E00000712A463846FBF7D3FF834604206168F5
:1042F000A0FB015003461920A9FB007001462A4685
:104300003846FBF7C5FF6421B0FBF1F000EBC001BC
:1043100001EB0010ABEB8000322101EB00106421B7
:10432000B0FBF1F000F00F00504421688860BDE858
:10433000F88F00000010014000140140F8B5044659
:1043400094F83E00222873D1A068B0F5805F0CD1AC
:10435000206950B90025A66A20684068C0F30800AB
:104360003080A06A801CA06215E0A56A0026A068C3
:10437000B0F5805F03D0A06828B9206918B920681B
:104380004068287004E02068406800F07F002870D2
:10439000A06A401CA062E08D401E80B2E08500282B
:1043A00044D12068C06820F020002168C8602068DF
:1043B000C06820F480702168C8602068406920F0DF
:1043C000010021684861202084F83E00206B01280C
:1043D00026D10020206300BF00BF21680C3151E8C6
:1043E000001F21F0100021680C3141E80002002A72
:1043F000F3D100BF2068006800F0100010280AD137
:1044000000BF00200090206800680090206840688D
:10441000009000BF00BFA18D2046FDF79CFE02E08A
:104420002046FEF7D1F90020F8BD01E00020FBE7AF
:104430000220F9E7014691F83D00212828D188683B
:10444000B0F5805F0BD1086948B90A6A1088C0F3DB
:1044500008000B685860086A801C086205E00B6A57
:10446000581C086218780B685860C88C401E80B2CF
:10447000C88458B90868C06820F080000B68D8600C
:104480000868C06840F040000B68D86000207047A2
:104490000220FCE700BF00BF02680C3252E8002F88
:1044A00022F4907102680C3242E80013002BF3D121
:1044B00000BF00BF00BF0268143252E8002F22F094
:1044C00001010268143242E80013002BF3D100BF4F
:1044D000016B01290ED100BF00BF02680C3252E807
:1044E000002F22F0100102680C3242E80013002B6A
:1044F000F3D100BF202180F83E10002101637047F6
:1045000010B504462068C06820F040002168C860EB
:10451000202084F83D002046FEF798F9002010BDC9
:1045200070B50546AC6B0020E085E0842046FDF7C1
:1045300013FE70BD10B5002804DB0A07130E054AF0
:10454000135406E00A07140E034A00F00F031B1F62
:10455000D45410BD00E400E018ED00E0024800680B
:10456000C0F30220704700000CED00E080ED010A6E
:10457000C0ED020A80ED031AC0ED041A80ED052A91
:10458000704700009FED190A80ED000A9FED180AA0
:1045900080ED060A9FED160A80ED070A9FED140ACA
:1045A00080ED080A9FED120A80ED090A9FED100ABE
:1045B00080ED0D0A9FED0E0A80ED0E0A9FED0C0AAC
:1045C00080ED0F0A9FED0A0A80ED100A9FED080AA0
:1045D00080ED110A9FED060A80ED120A9FED040A94
:1045E00080ED130A002180F850107047CDCCCC3DEF
:1045F0000000000070B50446A06820B9218B01229C
:104600006069FCF77BFA20680068456A606828B931
:10461000E068284421680968486316E06068042857
:1046200005D1E06828442168096888630DE0606866
:10463000082805D1E068284421680968C86304E0B7
:10464000E0682844216809680864A068401EA060EA
:1046500070BD10B5530083604C000369B3FBF4F3E5
:10466000C36010BD70B504460D4616462EB1218CB0
:104670000022E069FCF742FA04E0218C0122E069A3
:10468000FCF73CFA2DB1218B00226069FCF736FA69
:1046900004E0218B01226069FCF730FA70BD2DE93E
:1046A000F05F04460D4616461F46DDE90CABDDE91A
:1046B0000A89256066602761606820B964202168E6
:1046C0000968486313E06068042804D16420216805
:1046D000096888630BE06068082804D164202168B9
:1046E0000968C86303E064202168096808642068D9
:1046F000FCF7EEFFD4E90001FDF71EFBC4F81480BF
:10470000C4F81CA0A4F81890A4F820B0BDE8F09F4D
:104710000146086870472DE9F0411C4617460E0017
:10472000804607D0054602E02846B0473D44204673
:10473000641EF9D24046BDE8F081000010B5034880
:10474000FFF7C8FA0248FFF7C5FA10BDD4000020F1
:10475000C8080020C6B0FCF7E9F9FEF795FDFEF7A2
:1047600095F8FEF777F8FEF719FAFEF781FAFEF7EB
:10477000D9FAFEF7BBF9FEF759FBFEF715FCFEF779
:10478000A3FBFEF7BDFBFEF7F3FBFEF795F9FEF783
:10479000D3FBFE48FCF7EAFF3D22FD4934A8FBF7B6
:1047A000EEFDFB4890F83D008DF80D01F84890F8BB
:1047B0003E008DF80E01F64890F83F108DF80F116D
:1047C00090F840108DF8101190F841108DF81111EB
:1047D00090F842008DF81201ED4890F843108DF8E2
:1047E000131190F844108DF8141190F845108DF8BD
:1047F000151190F846008DF816013D22E44922A8D3
:10480000FBF7BDFDE24890F83D008DF8C500E0489B
:1048100090F83E008DF8C600DD4890F83F108DF806
:10482000C71090F840108DF8C81090F841108DF81E
:10483000C91090F842008DF8CA00D54890F843108E
:104840008DF8CB1090F844108DF8CC1090F84510EE
:104850008DF8CD1090F846008DF8CE00482234A98E
:104860000FA8FBF78CFD3C2225A96846FBF787FDC6
:10487000C84822A90EC9FEF7B1FE0021C548FEF7BF
:1048800099FE3D22C24934A8FBF779FDC04890F853
:104890003D008DF80D01BE4890F83E008DF80E01E8
:1048A000BB4890F83F108DF80F1190F840108DF82C
:1048B000101190F841108DF8111190F842008DF808
:1048C0001201B34890F843108DF8131190F844107A
:1048D0008DF8141190F845108DF8151190F84600D8
:1048E0008DF816013D22AC4922A8FBF748FDAA48E5
:1048F00090F83D008DF8C500A74890F83E008DF86F
:10490000C600A54890F83F108DF8C71090F84010E9
:104910008DF8C81090F841108DF8C91090F8420039
:104920008DF8CA009C4890F843108DF8CB1090F891
:1049300044108DF8CC1090F845108DF8CD1090F8FB
:1049400046008DF8CE00482234A90FA8FBF717FDCA
:104950003C2225A96846FBF712FD904822A90EC902
:10496000FFF7C4F83D228E4934A8FBF708FD8C48B8
:1049700090F83D008DF80D01894890F83E008DF8C3
:104980000E01874890F83F108DF80F1190F84010F5
:104990008DF8101190F841108DF8111190F8420027
:1049A0008DF812017E4890F843108DF8131190F89D
:1049B00044108DF8141190F845108DF8151190F8E9
:1049C00046008DF8160100203C2237A90F9068465A
:1049D000FBF7D5FC734834A90EC9FEF767FD3D22ED
:1049E000714934A8FBF7CBFC6F4890F83D008DF877
:1049F0000D016D4890F83E008DF80E016A4890F860
:104A00003F108DF80F1190F840108DF8101190F8AC
:104A100041108DF8111190F842008DF81201624892
:104A200090F843108DF8131190F844108DF814117C
:104A300090F845108DF8151190F846008DF8160184
:104A40000C203C2237A90F906846FBF798FC55488C
:104A5000503034A90EC9FEF729FD3D22524934A831
:104A6000FBF78DFC504890F83D008DF80D014E4845
:104A700090F83E008DF80E014B4890F83F108DF8ED
:104A80000F1190F840108DF8101190F841108DF82A
:104A9000111190F842008DF81201434890F843102C
:104AA0008DF8131190F844108DF8141190F84510FA
:104AB0008DF8151190F846008DF8160108203C225B
:104AC00037A90F906846FBF75AFC3648A03034A946
:104AD0000EC9FEF7EBFC3D22334934A8FBF74FFC2F
:104AE000314890F83D008DF80D012F4890F83E00B8
:104AF0008DF80E012C4890F83F108DF80F1190F8AA
:104B000040108DF8101190F841108DF8111190F8A7
:104B100042008DF81201244890F843108DF81311CB
:104B200090F844108DF8141190F845108DF8151177
:104B300090F846008DF8160104203C2237A90F900A
:104B40006846FBF71CFC1748F03034A90EC9FEF785
:104B5000ADFC3D22144934A8FBF711FC124890F833
:104B60003D008DF80D01104890F83E008DF80E01C3
:104B70000D4890F83F108DF80F1190F840108DF807
:104B8000101190F841108DF811110FE0341400202D
:104B900014130020D4000020CC120020C8080020EC
:104BA0005C130020BC100020A413002090F84200E9
:104BB0008DF81201664890F843108DF8131190F8A3
:104BC00044108DF8141190F845108DF8151190F8D7
:104BD00046008DF8160100203C2237A90F90684648
:104BE000FBF7CDFB5B4834A90EC9FEF75FFC3D2205
:104BF000594934A8FBF7C3FB574890F83D008DF89E
:104C00000D01554890F83E008DF80E01524890F87D
:104C10003F108DF80F1190F840108DF8101190F89A
:104C200041108DF8111190F842008DF812014A4898
:104C300090F843108DF8131190F844108DF814116A
:104C400090F845108DF8151190F846008DF8160172
:104C500004203C2237A90F906846FBF790FB3F48A1
:104C600034A90EC9FEF722FC4FF400703C49420003
:104C70003C4BCDE90032CDE902103B4B00223B49D1
:104C80003B48FFF70CFD4FF4C85211463848FFF778
:104C9000E0FC3648FDF70EF8002211463448FFF7D5
:104CA000E1FC3448FCF762FD3348FEF7C3FA3348B1
:104CB000FEF7C0FA3248FEF7BDFA48E03D2225492A
:104CC00032A8FBF75CFB234890F83D008DF8050106
:104CD000204890F83E008DF806011E4890F83F10DD
:104CE0008DF8071190F840108DF8081190F84110D8
:104CF0008DF8091190F842008DF80A01154890F8D6
:104D000043108DF80B1190F844108DF80C1190F8A9
:104D100045108DF80D1190F846008DF80E010D49E3
:104D2000886CC96C48224591449034A96846FBF7C9
:104D300026FB14490020DFED141A9FED141ADFED55
:104D4000140ABBEE040ADDE93223FEF7F7FAB5E7F1
:104D5000A4130020FC1100205C1300204C12002042
:104D6000002002400014024040420F00EC130020DB
:104D70009C120020141300208C15002048150020E0
:104D80007C140020BC1000200000B4420000B4C21B
:104D90000000964203688B4201DA016003E0036879
:104DA000934200DD026070474FF04070E1EE100A60
:104DB000704700000000000000000000000000003C
:104DC000000610160006101600000000000000008B
:104DD00001020304060708090000000001020304A1
:104DE000044E000800000020D4000000E801000884
:104DF000D84E0008D4000020BC1B000004020008AC
:104E00003DF9FFFF0000000000000000000000006E
:104E1000CDCCCC3E00000000000000009A99193F64
:104E20000000000000000000CDCC4C3F000000005E
:104E30009A99193F0000000000000000CDCC4CBE44
:104E4000CDCCCC3D000080BF000000005702030025
:104E500000000000CDCCCC3E0000000000000000AF
:104E6000CDCCCCBE000000009A9919BF0000000014
:104E7000000000009A99193F0000000000000000A7
:104E800000000000000000000000803F0000000063
:104E900000000000000080BF9A99193F0000000048
:104EA0009A9999BE9A99193F000000009A99993EE3
:104EB0009A99193FCDCC4C3E000000009A99193FB9
:104EC000CDCC4CBE0000000000000000100000002F
:084ED000010000000024F400C1
:04000005080001AD41
:00000001FF
