:020000040800F2
:10000000881C0020510200081D30000887280008C5
:1000100019300008CF040008693200080000000011
:100020000000000000000000000000002330000875
:10003000E504000800000000213000082530000819
:100040006B0200086B0200086B0200086B020008DC
:100050006B0200086B0200086B0200086B020008CC
:100060006B0200086B0200086B0200086B020008BC
:10007000D50400086B0200086B0200086B02000840
:100080006B0200086B0200086B0200086B0200089C
:100090006B0200086B0200086B0200086B0200088C
:1000A0006B020008413000086B0200086B02000878
:1000B0006B0200086B0200086B0200086B0200086C
:1000C0006B0200086B0200086B0200086B0200085C
:1000D0006B0200086B020008393200084932000840
:1000E0006B0200086B0200086B0200086B0200083C
:1000F0006B0200086B0200086B0200086B0200082C
:100100006B0200086B0200086B0200086B0200081B
:100110006B0200086B0200086B0200086B0200080B
:100120006B0200086B0200086B0200086B020008FB
:100130006B0200086B0200086B0200086B020008EB
:100140006B0200086B0200086B0200086B020008DB
:100150006B0200086B0200086B02000859320008AD
:100160006B0200086B0200086B0200086B020008BB
:100170006B0200086B0200086B0200080000000020
:100180006B0200086B020008DD3100086B020008FA
:100190006B0200086B0200086B0200086B0200088B
:1001A00000000000000000006B02000800F002F8F0
:1001B00000F03EF80AA090E8000C82448344AAF1C3
:1001C0000107DA4501D100F033F8AFF2090EBAE8C1
:1001D0000F0013F0010F18BFFB1A43F0010318477B
:1001E00080620000A0620000103A24BF78C878C185
:1001F000FAD8520724BF30C830C144BF04680C602D
:10020000704700000023002400250026103A28BF74
:1002100078C1FBD8520728BF30C148BF0B60704778
:100220001FB506F001F900F007F91FBD10B510BDAC
:1002300000F014F91146FFF7F3FF05F0C3FE00F0DC
:1002400032F903B4FFF7F2FF03BC00F039F9000004
:100250000948804709480047FEE7FEE7FEE7FEE75A
:10026000FEE7FEE7FEE7FEE7FEE7FEE70448054996
:10027000054A064B704700002D300008AD0100080C
:1002800088160020881C002088180020881800206C
:1002900053EA020C00F069802DE9F04B4FF00006A4
:1002A000002B1FBFB3FA83F503FA05F424FA05F611
:1002B0005E4012BF1643B2FA82F502FA05F4C5F1A8
:1002C00020051EBF22FA05FC44EA0C04203556EA3C
:1002D000044C4FEA144418BF641C4FF000084FF060
:1002E0000009904271EB030C39D3002919BFB1FA10
:1002F00081F701FA07F6B0FA80F700FA07F6C7F1BE
:1003000020071EBF20FA07FC46EA0C062037B6FB82
:10031000F4FCA7EB0507103F07F01F0BCBF12006FD
:100320000CFA0BFB2CFA06F644BFB3460026202F2E
:10033000A4BF5E464FF0000B5BEA060C08BF4FF00F
:10034000010B19EB0B09ABFB027C48EB0608C01B49
:1003500006FB02CC0BFB03CC71EB0C01C1E70B4697
:10036000024641464846BDE8F08B13B54FF0000009
:100370004FF00001AFF30080BDE81C40704710B59E
:10038000203AC0F00B80B1E81850203AA0E818508D
:10039000B1E81850A0E81850BFF4F5AF5FEA027C4E
:1003A00024BFB1E81850A0E8185044BF18C918C0BD
:1003B000BDE810405FEA827C24BF51F8043B40F85E
:1003C000043B08BF7047D20728BF31F8023B48BF43
:1003D00011F8012B28BF20F8023B48BF00F8012B81
:1003E00070474FF0000200B51346944696462039F8
:1003F00022BFA0E80C50A0E80C50B1F12001BFF4DE
:10040000F7AF090728BFA0E80C5048BF0CC05DF843
:1004100004EB890028BF40F8042B08BF704748BF91
:1004200020F8022B11F0804F18BF00F8012B704705
:10043000704770477047000070B5064C7C44064D0D
:100440007D4403E0206820448047241DAC42F9D15C
:1004500070BD00004060000040600000754600F084
:100460002BF8AE4605006946534620F00700854646
:1004700018B020B5FFF7FAFEBDE820404FF00006A7
:100480004FF000074FF000084FF0000B21F007017C
:10049000AC46ACE8C009ACE8C009ACE8C009ACE8BF
:1004A000C0098D46704710B50446AFF30080204662
:1004B000BDE81040FFF7C5BE004870472416002075
:1004C00001491820ABBEFEE726000200704700BFBE
:1004D000FEE7000010B5024800F072F810BD000001
:1004E000C4150020704772B600BFFEE770B5044621
:1004F000A56D00F025FB064694F83500022808D0CB
:100500008020606500BF002084F8340000BF012017
:1005100070BD2068006820F016002168086020681F
:10052000406920F0800021684861206C08B9A06C07
:1005300028B12068006820F0080021680860206861
:10054000006820F001002168086010E000F0F8FA6F
:10055000801B05280BD920206065032084F8350016
:1005600000BF002084F8340000BF0320D0E72068DB
:10057000006800F001000028E8D194F85C103F20EA
:100580008840A860012084F8350000BF002084F86E
:10059000340000BF00BFBBE7014691F835000228D8
:1005A00003D08020486501207047052081F8350080
:1005B0000868006820F001000A6810600020F3E776
:1005C000F8B50446002000908C4800684FF416519E
:1005D000B0FBF1F7A56D2E6894F85C1008208840F8
:1005E000304098B12068006800F0040070B12068C5
:1005F000006820F004002168086094F85C1008206E
:100600008840A860606D40F00100606594F85C105F
:1006100001208840304068B12068406900F08000C7
:1006200040B194F85C1001208840A860606D40F0F3
:100630000200606594F85C1004208840304068B186
:100640002068006800F0020040B194F85C100420BB
:100650008840A860606D40F00400606594F85C100C
:1006600010208840304078B32068006800F008000F
:1006700050B394F85C1010208840A860206800688F
:1006800000F4802080B12068006800F4002028B9C0
:10069000206CC8B12046216C884715E0A06C98B149
:1006A0002046A16C88470FE02068006800F4807045
:1006B00028B92068006820F0080021680860206CD4
:1006C00010B12046216C884794F85C1020208840A7
:1006D0003040002865D02068006800F01000002835
:1006E0005FD094F85C1020208840A86094F8350012
:1006F000052828D12068006820F0160021680860CD
:100700002068406920F0800021684861206C08B9A9
:10071000A06C28B12068006820F0080021680860FB
:1007200094F85C103F208840A860012084F83500D0
:1007300000BF002084F8340000BF206D10B12046B7
:10074000216D8847F8BD2068006800F4802080B1E2
:100750002068006800F4002028B9606C10B12046C1
:10076000616C88471DE0E06BD8B12046E16B88479B
:1007700017E02068006800F4807068B9206800689D
:1007800020F0100021680860012084F8350000BFC7
:10079000002084F8340000BFE06B10B12046E16B0C
:1007A0008847606D38B3606D00F00100F0B105203E
:1007B00084F835002068006820F001002168086096
:1007C00000BF0098401C0090B84200D905E02068A6
:1007D000006800F001000028F3D100BF012084F878
:1007E000350000BF002084F8340000BFE06C10B179
:1007F0002046E16C884700BFA4E7000018000020F5
:100800002DE9F0410446002500F09AF9074614B995
:100810000120BDE8F081606A00B100BF022084F8C9
:10082000350000BF002084F8340000BF2068006855
:1008300020F00100216808600AE000F081F9C01B87
:10084000052805D920206065032084F83500E0E7FD
:100850002068006800F001000028EED120680568DB
:1008600021480540D4E901010843E16808432169B2
:10087000084361690843A1690843E1690843216AA3
:1008800008430543606A042803D1D4E90B010843F7
:100890000543206805602068456925F00705606A02
:1008A0000543606A04280DD1A06A0543E06A48B197
:1008B000204604F075FA28B140206065012084F8D4
:1008C0003500A6E720684561204604F0BFFA0646D9
:1008D00094F85C103F208840B060002060650120E3
:1008E00084F83500002094E73F8010F070B504468E
:1008F00000F026F906462546681C10B10448007829
:10090000054400BF00F01CF9801BA842FAD370BD5B
:1009100014000020F8B502460B46002500240020F4
:100920000021E0E0012606FA01F51E6806EA05044A
:10093000AC4274D11E7906F00306012E04D01E7954
:1009400006F00306022E13D190684F000326BE4026
:10095000B0434F00DE68BE403043906050680126CF
:100960008E40B0431E79C6F300168E40304350606F
:100970001E7906F00306032E09D0D0684F00032627
:10098000BE40B0434F009E68BE403043D0601E79E9
:1009900006F00306022E13D1CF0802F1200656F806
:1009A00027004E07F70E0F26BE40B0434F07FF0E3D
:1009B0001E69BE403043CF0802F1200646F82700EA
:1009C00010684F000326BE40B0431E7906F00306B0
:1009D0004F00BE40304310605E6806F44036002E83
:1009E0001DD000BF00260096414E366846F4804672
:1009F0003F4F3E603E46366806F48046009600BF94
:100A000000BF3C4E8F0856F827008E07370F0F2681
:100A1000BE40B043384EB24202D100262EE061E023
:100A2000364EB24201D1012628E0354EB24201D104
:100A3000022623E0334EB24201D103261EE0324E9D
:100A4000B24201D1042619E0304EB24201D105264E
:100A500014E02F4EB24201D106260FE02D4EB242D5
:100A600001D107260AE02C4EB24201D1082605E04A
:100A70002A4EB24201D1092600E00A268F073F0F15
:100A8000BE4030431B4E8F0846F82700244E306886
:100A9000A0435E6806F4801606B12043204E306005
:100AA000361D3068A0435E6806F4001606B1204388
:100AB0001B4E361D30601A4E361F3068A0435E68EC
:100AC00006F4003606B12043154E361F3060361F3F
:100AD0003068A0435E6806F4803606B12043104EAD
:100AE000083E3060491C1029FFF41CAFF8BD00001F
:100AF000443802400838014000000240000402402F
:100B000000080240000C02400010024000140240A5
:100B100000180240001C0240002002400024024055
:100B2000083C0140024613690B400BB1012000E074
:100B3000002070470AB1816101E00B0483617047B6
:100B400001480068704700000C000020034800685E
:100B50000349097808440149086070470C000020E7
:100B60001400002010B50D48006840F400700B49D7
:100B700008600846006840F4806008600846006825
:100B800040F480700860032000F0A2F80F2000F00D
:100B900007F800F02BF8002010BD0000003C0240D8
:100BA00070B504460E4800784FF47A71B1FBF0F04E
:100BB0000C490968B1FBF0F5284600F02BFC08B1A0
:100BC000012070BD102C07D200222146501E00F0DB
:100BD00041F80548046001E00120F2E70020F0E759
:100BE00014000020180000201000002008B500BFED
:100BF000002000900E48006840F480400C490860D6
:100C00000846006800F48040009000BF00BF00BFAD
:100C100000200090081F006840F08050091F086005
:100C20000846006800F08050009000BF00BF08BD7B
:100C30004438024001460846002809DB00F01F0343
:100C400001229A4043099B0003F1E023C3F80021ED
:100C500000BF70472DE9F05F80460D46164600271D
:100C600004F002FC074639462A46334601F00700E5
:100C7000C0F1070ABAF1040F02D94FF0040A01E0EB
:100C8000C0F1070AD14600F1040ABAF1070F02D2F7
:100C90004FF0000A01E0A0F1030AD4464FF0010A28
:100CA0000AFA09FAAAF1010A0AEA020A0AFA0CFA8D
:100CB0004FF0010B0BFA0CFBABF1010B0BEA030B32
:100CC0004AEA0B042146404604F0BAFBBDE8F09F17
:100CD00000BF00F00702064B19684FF6FF031940EA
:100CE000044B0B4343EA0221014B196000BF7047DC
:100CF0000CED00E00000FA0570B504460D460CB995
:100D0000012070BD5848006800F00F00A84209D2C9
:100D100055490D700846006800F00F00A84201D048
:100D20000120EEE7207800F0020002281DD1207893
:100D300000F00400042805D14C48006840F4E0505D
:100D40004A490860207800F00800082805D1474883
:100D5000006840F46040454908604448006820F05D
:100D6000F000A168084341490860207800F00100C4
:100D7000A8B36068012807D13C4808380068C0F370
:100D80004040B8B90120BCE76068022802D0606822
:100D9000032807D1354808380068C0F3406048B9D7
:100DA0000120AEE7314808380068C0F3400008B9B8
:100DB0000120A6E72D48006820F003006168084381
:100DC0002A490860FFF7BCFE064609E0FFF7B8FEB7
:100DD000801B41F28831884202D9032091E707E065
:100DE0002248006800F00C006168B0EB810FEDD183
:100DF0001D48006800F00F00A84209D91A490D707B
:100E00000846006800F00F00A84201D0012078E7F2
:100E1000207800F00400042807D11448006820F46A
:100E2000E050E168084311490860207800F00800AC
:100E3000082808D10D48006820F46040216940EA84
:100E4000C1000A49086000F03FF808490968C1F389
:100E50000311074A515CC84006490860064800680B
:100E6000FFF79EFE00204CE7003C0240083802409D
:100E700048640008180000201000002001480068A5
:100E8000704700001800002000B5FFF7F7FF044985
:100E90000968C1F38221034A515CC84000BD0000CB
:100EA000083802405864000800B5FFF7E7FF04491E
:100EB0000968C1F34231034A515CC84000BD0000DB
:100EC00008380240586400082DE9F0470024002546
:100ED0000026A1462548006800F00C0020B1042837
:100EE00005D008283AD105E0DFF8849039E0DFF832
:100EF000849036E01D48001F006800F03F041B4846
:100F0000001F006800F4800078B11A481749091FD3
:100F10000968C1F38811A0FB017001462246002335
:100F20003846FFF7B5F905460EE011480F49091F8D
:100F30000968C1F38811A0FB017001462246002315
:100F40003846FFF7A5F905460848001F0068C0F3BA
:100F50000140401C4600B5FBF6F902E0DFF81090B6
:100F600000BF00BF4846BDE8F087000008380240D7
:100F70000024F400001BB700F8B504460CB90120AA
:100F8000F8BD207800F00100002874D0F94800680E
:100F900000F00C0004280DD0F648006800F00C00AA
:100FA000082813D1F348001F006800F48000B0F552
:100FB000800F0BD1EF4808380068C0F3404000288C
:100FC00059D06068002856D10120D9E700BF606879
:100FD000B0F5803F08D1E7480838006840F4803019
:100FE000E449083908601EE06068B0F5A02F0DD113
:100FF000E0480838006840F48020DE49083908607D
:101000000846006840F4803008600CE0D948083891
:10101000006820F48030D749083908600846006825
:1010200020F48020086000BF606890B1FFF788FD61
:10103000054606E0FFF784FD401B642801D9032024
:101040009EE7CC4808380068C0F340400028F1D043
:1010500011E0FFF775FD054606E0FFF771FD401B47
:10106000642801D903208BE7C24808380068C0F320
:1010700040400028F1D1207800F0020002285FD122
:10108000BC48006800F00C0058B1BA48006800F095
:101090000C0008281CD1B748001F006800F480002D
:1010A000B0B9B44808380068C0F3400020B1E06827
:1010B000012801D0012063E7AE480838006820F01D
:1010C000F800216940EAC100AA490839086037E000
:1010D000E06800B30120A8490860FFF731FD05462C
:1010E00006E0FFF72DFD401B022801D9032047E74A
:1010F000A04808380068C0F340000028F1D09D489F
:101100000838006820F0F800216940EAC1009949D8
:101110000839086014E0002097490860FFF710FDC7
:10112000054606E0FFF70CFD401B022801D903200D
:1011300026E7904808380068C0F340000028F1D145
:10114000207800F0080008282CD16069A8B101209F
:101150008A490860FFF7F4FC054606E0FFF7F0FC5B
:10116000401B022801D903200AE782486C3000683E
:10117000C0F340000028F1D014E000207F4908604F
:10118000FFF7DEFC054606E0FFF7DAFC401B02280D
:1011900001D90320F4E677486C300068C0F34000C2
:1011A0000028F1D1207800F00400042870D1002735
:1011B00070483830006800F0805090B900BF0020BF
:1011C00000906C483830006840F0805069493831F0
:1011D00008600846006800F08050009000BF00BF23
:1011E00001276748006800F48070B0B9644800685F
:1011F00040F4807062490860FFF7A2FC054606E0F3
:10120000FFF79EFC401B022801D90320B8E65C488A
:10121000006800F480700028F2D000BFA0680128A8
:1012200008D154486830006840F0010051496831E5
:1012300008601DE0A06805280DD14E4868300068A0
:1012400040F004004B49683108600846006840F0EF
:10125000010008600CE047486830006820F0010099
:101260004449683108600846006820F004000860BE
:1012700000BFA068A8B1FFF763FC054609E0FFF7CF
:101280005FFC401B41F28831884202D9032077E697
:1012900026E0384868300068C0F340000028EED0EF
:1012A00013E0FFF74DFC054608E0FFF749FC401B43
:1012B00041F28831884201D9032061E62D48683027
:1012C0000068C0F340000028EFD1012F07D1294862
:1012D0003830006820F0805026493831086000BF5F
:1012E000A069002845D02348006800F00C000828B9
:1012F0005DD0A069022845D100201F490866FFF78C
:101300001FFC054606E0FFF71BFC401B022801D925
:10131000032035E6174808380068C0F3406000280D
:10132000F1D1D4E907010843616A40EA8111012241
:10133000A06AC2EB500041EA00412C20005D41EA66
:1013400000600C49091F086001200B490866FFF77F
:10135000F7FB054606E0FFF7F3FB401B022801D927
:1013600003200DE6034808380068C0F340600028F9
:10137000F1D049E00838024000004742800E474261
:1013800000700040002021490866FFF7D9FB0546A0
:1013900006E0FFF7D5FB401B022801D90320EFE54B
:1013A0001B480068C0F340600028F2D12CE0A0691F
:1013B000012800D1E4E51648001D0668A06901284F
:1013C00020D006F48001E06981421BD106F03F0184
:1013D000206A814216D147F6C0703040616AB0EB96
:1013E000811F0FD106F440310122A06AC2EB5000E8
:1013F000B1EB004F06D106F070612C20005DB1EB1F
:10140000006F01D00120BBE50020B9E50000474294
:101410000038024070B504462546681EB0F1807F52
:1014200001D301200FE0681E4FF0E02148610F2139
:101430004FF0FF3004F004F800204FF0E021886105
:1014400007200861002070BD7047704710B5034643
:10145000002200BF93F83C00012801D1022010BDFA
:10146000012083F83C0000BF22F0FF00CC6840EA76
:10147000040222F440708C6840EA040222F4806086
:101480004C6840EA040222F400600C6840EA04025E
:1014900022F480500C6940EA040222F400504C69A6
:1014A00040EA040222F48040CC6940EA0402186851
:1014B000426400BF002083F83C0000BF00BFCEE7BD
:1014C00030B502460B4600BF92F83C00012801D11E
:1014D000022030BD012082F83C0000BF022082F8CB
:1014E0003D00106844681068816824F07004186832
:1014F000044310684460184D1068A8421BD010685F
:10150000B0F1804F17D0154D1068A84213D0144D7C
:101510001068A8420FD0134D1068A8420BD0124D8E
:101520001068A84207D0114D1068A84203D0104D92
:101530001068A84205D121F0800158680143106865
:101540008160012082F83D0000BF002082F83C004D
:1015500000BF00BFBDE700000000014000040040E4
:1015600000080040000C0040000401400040014021
:101570000018004010B504460CB9012010BD94F8C5
:101580003D0028B9002084F83C00204600F026F8F1
:10159000022084F83D00211D206801F059FD012042
:1015A00084F8460000BF84F83E0001213F20015529
:1015B000402001554120015500BF00BF012084F8A3
:1015C000420043200155442001554520015500BFEC
:1015D000012084F83D000020D0E7000038B5044623
:1015E0002068B0F1804F0FD100BF0020009040482C
:1015F000006840F001003E4908600846006800F0BD
:101600000100009000BF71E03A49206888420FD184
:1016100000BF002000903648006840F004003449C4
:1016200008600846006800F00400009000BF5DE01C
:101630003149206888420FD100BF002000902C481B
:10164000006840F008002A4908600846006800F079
:101650000800009000BF49E028492068884211D165
:1016600000BF002000902248001D006840F00200EA
:101670001F49091D08600846006800F0020000903C
:1016800000BF33E01E492068884211D100BF00200E
:1016900000901748001D006840F480301449091D6F
:1016A00008600846006800F48030009000BF1DE02C
:1016B00014492068884219D100BF002000900C48CE
:1016C000001D006840F400300949091D0860084603
:1016D000006800F40030009000BF00BF00221146F7
:1016E0001920FFF7B7FA1920FFF7A4FA38BD000058
:1016F0004038024000080040000C00400004014057
:101700000040014000440140014691F83D0001289D
:1017100001D001207047022081F83D001A4B086873
:1017200098421BD00868B0F1804F17D0174B08685B
:10173000984213D0164B086898420FD0154B086892
:1017400098420BD0144B0868984207D0134B086896
:10175000984203D0124B086898420CD10868806800
:1017600000F00702062A0CD00868006840F001006B
:101770000B68186005E00868006840F001000B681D
:1017800018600020C6E7000000000140000400408F
:1017900000080040000C00400004014000400140EF
:1017A00000180040014691F83D00012801D00120B9
:1017B0007047022081F83D000868C06840F00100D1
:1017C0000B68D8601A4B086898421BD00868B0F1C3
:1017D000804F17D0174B0868984213D0164B0868F3
:1017E00098420FD0154B086898420BD0144B0868EC
:1017F000984207D0134B0868984203D0124B0868F0
:1018000098420CD10868806800F00702062A0CD0C4
:101810000868006840F001000B68186005E008687F
:10182000006840F001000B6818600020C0E700006D
:10183000000001400004004000080040000C00408F
:101840000004014000400140001800402DE9F04133
:1018500004460D46002700BF94F83C00012802D141
:101860000220BDE8F081012084F83C0000BF022086
:1018700084F83D002068866826F0770626F47F46C7
:10188000206886602868502833D00CDC202850D08F
:1018900004DC00284BD0102851D149E0302849D031
:1018A00040284CD139E060282DD0702807D0B0F501
:1018B000805F03D0B0F5005F41D10DE041E0D5E994
:1018C00002136A68206801F040FC2068866846F0D0
:1018D00077062068866034E0D5E902136A682068DC
:1018E00001F033FC2068806840F480402168886003
:1018F00027E0EA686968206803F069FB50212068E6
:1019000003F05CFB1DE0EA686968206803F072FB85
:101910006021206803F052FB13E0EA6869682068E0
:1019200003F055FB4021206803F048FB09E000BFAD
:1019300000BF00BF2968206803F040FB01E00127D9
:1019400000BF00BF012084F83D0000BF002084F8E4
:101950003C0000BF384684E7704710B50446206855
:101960000069C0F34000D8B12068C068C0F34000EF
:10197000B0B16FF002002168086101202077206873
:10198000806900F0030018B12046FFF7E5FF05E08D
:10199000204600F0ABF9204600F050FB00202077F5
:1019A00020680069C0F38000D8B12068C068C0F327
:1019B0008000B0B16FF00400216808610220207738
:1019C0002068806900F4407018B12046FFF7C4FF1A
:1019D00005E0204600F08AF9204600F02FFB0020A9
:1019E000207720680069C0F3C000D8B12068C068C3
:1019F000C0F3C000B0B16FF0080021680861042096
:101A000020772068C06900F0030018B12046FFF776
:101A1000A3FF05E0204600F069F9204600F00EFB28
:101A20000020207720680069C0F30010D8B120683A
:101A3000C068C0F30010B0B16FF0100021680861F9
:101A4000082020772068C06900F4407018B1204653
:101A5000FFF782FF05E0204600F048F9204600F03D
:101A6000EDFA002020772068006900F0010058B1ED
:101A70002068C06800F0010030B16FF001002168FB
:101A80000861204600F062FB20680069C0F3C010C6
:101A900058B12068C068C0F3C01030B16FF080004A
:101AA000216808612046FFF7CFFC20680069C0F379
:101AB000801058B12068C068C0F3801030B16FF05A
:101AC000400021680861204600F060FB2068006942
:101AD000C0F3401058B12068C068C0F3401030B166
:101AE0006FF02000216808612046FFF7AEFC10BDB2
:101AF00010B586B00446142101A8FEF772FC2068D8
:101B0000B0F1804F1DD100BF002000905248006806
:101B100040F00100504908600846006800F00100EC
:101B2000009000BF00BF032001900220029000201F
:101B3000039004900120059001A94848FEF7EAFEB1
:101B400088E04749206888421ED100BF00200090ED
:101B50004148006840F008003F49086008460068B6
:101B600000F00800009000BF00BF4FF470400190EB
:101B7000022002900020039004900220059001A909
:101B80003848FEF7C7FE65E03749206888421ED115
:101B900000BF002000903048006840F080002E49CF
:101BA00008600846006800F08000009000BF00BF99
:101BB0004FF44060019002200290002003900490B6
:101BC0000220059001A92948FEF7A4FE42E0284919
:101BD000206888421DD100BF002000901E48006888
:101BE00040F480701C4908600846006800F480706A
:101BF000009000BF00BFE42001900220029000206E
:101C0000039004900320059001A91A48FEF782FE74
:101C100020E01949206888421CD100BF00200090B4
:101C20000D48006840F001000B4908600846006854
:101C300000F00100009000BF00BF0C2001900220C6
:101C400002900020039004900320059001A903480E
:101C5000FEF760FE06B010BD3038024000000240C2
:101C600000080040000C0240000C0040001C024034
:101C70000004014000200240004001402DE9F041F5
:101C800004460E461546002700BF94F83C00012884
:101C900002D10220BDE8F081012084F83C0000BFA1
:101CA00035B1042D09D0082D0CD00C2D14D10EE027
:101CB0003146206803F0E4F810E03146206801F076
:101CC0004FFA0BE03146206803F012F906E0314686
:101CD000206803F049F901E0012700BF00BF00BF01
:101CE000002084F83C0000BF3846D3E710B5044616
:101CF000044804F045F9A04202D1024804F0B2F8C9
:101D000010BD00008812002010B504460CB9012057
:101D100010BD94F83D0028B9002084F83C0020460E
:101D200000F025F8022084F83D00211D206801F014
:101D30008FF9012084F8460000BF84F83E0001219D
:101D40003F200155402001554120015500BF00BFF3
:101D5000012084F8420043200155442001554520CC
:101D6000015500BF012084F83D000020D0E77047F6
:101D7000F0B504460D46002615B994F83E000BE078
:101D8000042D02D13F20005D06E0082D02D1402045
:101D9000005D01E04120005D012801D00120F0BD7F
:101DA0001DB9022084F83E000EE0042D03D102216B
:101DB0003F20015508E0082D03D1022140200155A4
:101DC00002E002214120015535B1042D0BD0082D30
:101DD00010D00C2D1CD114E02068C06840F0020027
:101DE0002168C86016E02068C06840F004002168DF
:101DF000C8600FE02068C06840F008002168C86033
:101E000008E02068C06840F010002168C86001E068
:101E1000012600BF00BFEEBB01222946206801F069
:101E200083F924492068884203D0234920688842E6
:101E300001D1012000E0002028B12068406C40F46E
:101E40000040216848641B49206888421BD02068F4
:101E5000B0F1804F17D019492068884213D0184933
:101E6000206888420FD01749206888420BD0124959
:101E70002068884207D014492068884203D013495B
:101E8000206888420ED12068806800F00707062F7E
:101E90000ED000E00CE02068006840F001002168EE
:101EA000086005E02068006840F0010021680860D3
:101EB000304674E700000140000401400004004087
:101EC00000080040000C00400040014000180040A5
:101ED0002DE9F04104460D461646002700BF94F850
:101EE0003C00012802D10220BDE8F081012084F8E5
:101EF0003C0000BF36B1042E1BD0082E31D00C2E72
:101F00005ED145E02946206802F0BAFF206880696A
:101F100040F00800216888612068806920F0040092
:101F2000216888612068806929690843216888617F
:101F300048E02946206801F013F92068806940F4E0
:101F40000060216888612068806920F480602168D1
:101F5000886120688069296940EA012021688861D8
:101F600030E02946206802F0C3FF2068C06940F0D5
:101F700008002168C8612068C06920F00400216859
:101F8000C8612068C069296908432168C86119E0EF
:101F90002946206802F0E8FF2068C06940F400602C
:101FA0002168C8612068C06920F480602168C86128
:101FB0002068C069296940EA01202168C86101E000
:101FC000012700BF00BF00BF002084F83C0000BF15
:101FD000384689E710B504460CB9012010BD94F8C5
:101FE0003D0028B9002084F83C00204600F025F888
:101FF000022084F83D00211D206801F029F801200D
:1020000084F8460000BF84F83E0001213F200155BE
:10201000402001554120015500BF00BF012084F838
:10202000420043200155442001554520015500BF81
:10203000012084F83D000020D0E770477047000081
:1020400070B504460D4615B994F83E000BE0042D1A
:1020500002D13F20005D06E0082D02D14020005D46
:1020600001E04120005D012801D0012070BD1DB9B3
:10207000022084F83E000EE0042D03D102213F200F
:10208000015508E0082D03D102214020015502E04E
:1020900002214120015501222946206801F044F81F
:1020A00023492068884203D022492068884201D110
:1020B000012000E0002028B12068406C40F400407E
:1020C000216848641A49206888421BD02068B0F112
:1020D000804F17D018492068884213D017492068CC
:1020E00088420FD01649206888420BD011492068D9
:1020F000884207D013492068884203D012492068DB
:1021000088420CD12068806800F00706062E0CD0AB
:102110002068006840F001002168086005E0206840
:10212000006840F001002168086000209EE7000080
:10213000000001400004014000040040000800408D
:10214000000C0040004001400018004010B504465B
:10215000094884420ED101220849094800F066FB73
:1021600001220649074800F061FB012203490648A5
:1021700000F05CFB10BD00002814002009000020C6
:10218000801500203C150020701400207047704717
:10219000704700002DE9F84F044620680568206864
:1021A000C668206847694FF00009CA4605F00F0964
:1021B000B9F1000F0AD105F0200038B106F0200077
:1021C00020B1204603F040F8BDE8F88FB9F1000FC8
:1021D0007CD007F0010018B906F49070002875D083
:1021E00005F0010030B106F4807018B1206C40F0A9
:1021F0000100206405F0040030B107F0010018B1BF
:10220000206C40F00200206405F0020030B107F0BD
:10221000010018B1206C40F00400206405F00800B3
:1022200048B106F0200010B907F0010018B1206C89
:1022300040F008002064206C002846D005F0200003
:1022400028B106F0200010B1204602F0FDFF206802
:102250004069C0F3801A206C00F0080010B9BAF190
:10226000000F2DD0204603F09BF82068406900F055
:102270004000402820D100BF00BF2168143151E840
:10228000001F21F040002168143141E80002002ABB
:10229000F3D100BFA06B50B17548A16B0865A06B6E
:1022A000FEF77AF988B1A06B016D88470DE02046F2
:1022B000FFF76EFF09E009E02046FFF769FF04E041
:1022C0002046FFF765FF002020647DE7206B012892
:1022D00076D105F01000002872D006F0100000281A
:1022E000FAD000BF002000902068006800902068AD
:1022F0004068009000BF00BF2068406900F04000C7
:1023000040285ED1A06B006840681FFA80F8B8F1E1
:10231000000F54D0A08D404551DDA4F82E80A06B55
:10232000C069B0F5807F43D000BF00BF21680C3189
:1023300051E8001F21F4807021680C3141E800024F
:10234000002AF3D100BF00BF00BF2168143151E85B
:10235000001F21F001002168143141E80002002A29
:10236000F3D100BF00BF00BF2168143151E8001F46
:1023700021F040002168143141E80002002AF3D125
:1023800000BF202084F83E000020206300BF00BF73
:1023900021680C3151E8001F21F0100021680C3138
:1023A00041E80002002AF3D100BFA06BFEF79EF8BF
:1023B000A08DE28D801A81B22046FFF7E8FE03E788
:1023C00040E0A08DE18D401A1FFA80F8E08DC0B387
:1023D000B8F1000F35D000BF00BF21680C3151E8C3
:1023E000001F21F4907021680C3141E80002002A9E
:1023F000F3D100BF00BF00BF2168143151E8001FB6
:1024000021F001002168143141E80002002AF3D1D3
:1024100000BF202084F83E000020206300BF00BFE2
:1024200021680C3151E8001F21F0100021680C31A7
:1024300041E80002002AF3D100BF41462046FFF7E1
:10244000A6FEC1E605F0800030B106F0800018B1AC
:10245000204602F075FFB7E605F0400030B106F007
:10246000400018B1204602F0D1FFADE600BFABE658
:102470002D54000810B504460CB9012010BDA06908
:1024800000B100E000BF94F83D0028B9002084F8B6
:102490003C00204600F028F8242084F83D00206805
:1024A000C06820F400502168C860204602F0B6FDE4
:1024B0002068006920F49040216808612068406924
:1024C00020F02A00216848612068C06840F400506C
:1024D0002168C86000202064202084F83D0084F832
:1024E0003E000020CAE7000010B586B00446142163
:1024F00001A8FDF776FFA6492068884256D100BFA3
:1025000000200090A348006840F08040A149086086
:102510000846006800F08040009000BF00BF00BF88
:10252000002000909B481038006840F01000994946
:10253000103908600846006800F01000009000BFE5
:1025400000BF4FF4C0700190022002900020039061
:10255000032004900820059001A98F48FEF7DAF9BE
:102560008E488F4908608005486040218C48816012
:102570000021C1604FF480610161002141618161EE
:10258000C16101624162FEF73BF908B1FDF7ABFFA3
:1025900000BF83486063846300BF0022114652205D
:1025A000FEF758FB5220FEF745FBEEE07D49206820
:1025B000884230D100BF002000907648006840F08B
:1025C0000040744908600846006800F00040009030
:1025D00000BF00BF00BF002000906E4810380068A8
:1025E00040F010006B49103908600846006800F0A0
:1025F0001000009000BF00BF032001900220029055
:1026000000200390032004900820059001A962484F
:10261000FEF780F9B9E064492068884238D100BFEC
:10262000002000905B48006840F400305949086081
:102630000846006800F40030009000BF00BF00BFF3
:102640000020009053481038006840F008005149BD
:10265000103908600846006800F00800009000BFCC
:1026600000BF602001900220029000200390032010
:1026700004900720059001A94C48FEF74BF9002271
:1026800011462620FEF7E6FA2620FEF7D3FA7CE074
:1026900047492068884239D100BF002000903D485A
:1026A000006840F480203B4908600846006800F458
:1026B0008020009000BF00BF00BF00200090354880
:1026C0001038006840F008003249103908600846A8
:1026D000006800F00800009000BF00BF4FF4407099
:1026E0000190022002900020039003200490072014
:1026F000059001A92D48FEF70DF90022114627206B
:10270000FEF7A8FA2720FEF795FA3EE0294920684F
:1027100088423AD100BF002000901E48001D00688A
:1027200040F020001B49091D08600846006800F0C1
:102730002000009000BF00BF00BF0020009015489F
:102740001038006840F0400012491039086008460F
:10275000006800F04000009000BF00BF4FF48440CC
:102760000190022002900020039003200490082092
:10277000059001A91048FEF7CDF800221146472028
:10278000FEF768FA4720FEF755FA06B010BD0000C4
:1027900000780040403802400010024028600240AB
:1027A000C4150020007C004000440040000C0240A2
:1027B00000480040001401400018024070B5044673
:1027C0000D46164694F83E00202816D105B10EB9E4
:1027D000012070BD00BF94F83C00012801D1022007
:1027E000F7E7012084F83C0000BF00202063324658
:1027F0002946204600F0FAFCEBE70220E9E700005A
:1028000010B504460648844205D00648844202D0EA
:102810000548844202D1204601F000F810BD0000B6
:10282000801500203C1500207014002010B50346D0
:1028300093F83D00202823D101B10AB9012010BD31
:1028400000BF93F83C00012801D10220F7E70120E6
:1028500083F83C0000BF19629A84DA84002018646F
:10286000212083F83D0000BF002083F83C0000BF1A
:102870001868C06840F080001C68E0600020DEE757
:102880000220DCE7704700BFFEE7000008B500BF8C
:10289000002000900A48006840F4001008490860D1
:1028A0000846006800F40010009000BF00BF00223E
:1028B00011460C20FEF7CEF90C20FEF7BBF908BD3F
:1028C0003038024000B587B0142102A8FDF789FD19
:1028D00000BF002001907F48006840F010007D4953
:1028E00008600846006800F01000019000BF00BFBB
:1028F00000BF002001900846006840F040000860DA
:102900000846006800F04000019000BF00BF00BF13
:10291000002001900846006840F001000860084669
:10292000006800F00100019000BF00BF00BF002060
:1029300001900846006840F00800086008460068FA
:1029400000F00800019000BF00BF00BF0020019010
:102950000846006840F4807008600846006800F48B
:102960008070019000BF00BF00BF002001900846AA
:10297000006840F0200008600846006800F0200071
:10298000019000BF00BF00BF002001900846006812
:1029900040F0800008600846006800F08000019068
:1029A00000BF00BF00BF002001900846006840F053
:1029B000040008600846006800F00400019000BFB1
:1029C00000BF00BF002001900846006840F00200F0
:1029D00008600846006800F00200019000BF00BFD8
:1029E000002241F270013C48FEF7A4F800224FF4A7
:1029F00000713A48FEF79EF8002240F20341384841
:102A0000FEF798F8002236213648FEF793F80022A8
:102A100030213548FEF78EF8002201213348FEF7B9
:102A200089F841F270000290012003900020049088
:102A3000059002A92848FDF76DFF4FF40070029041
:102A40000120039000200490059002A92348FDF77F
:102A500061FF40F2034002900120039000200490A7
:102A6000059002A91E48FDF755FF0920029000209D
:102A70000390049002A91B48FDF74CFF36200290FA
:102A80000120039000200490059002A91548FDF74D
:102A900041FF302002900120039000200490059017
:102AA00002A91148FDF736FF022002900020039092
:102AB000049002A90D48FDF72DFF0120029003901C
:102AC00000200490059002A90848FDF723FF07B0F5
:102AD00000BD0000303802400010024000200240DB
:102AE00000140240000802400000024000040240BE
:102AF00010B50A480A49086040F2E73048600021F2
:102B00000748816040F2E731C160002101618161C5
:102B1000FEF730FD08B1FDF7E6FC10BD00440140B2
:102B20002814002000B58DB0002009900A900B9069
:102B30000C90079008901C216846FDF752FC4FF05E
:102B4000804023490860D1204860002120488160EE
:102B500040F2E731C160002101618161FEF70AFDA9
:102B600008B1FDF7C0FC4FF48050099009A918483E
:102B7000FEF76CFE08B1FDF7B6FC1548FFF72AFA20
:102B800008B1FDF7B0FC00200790089007A9104895
:102B9000FEF796FC08B1FDF7A6FC6020009000202F
:102BA000019002900490002269460948FFF790F9CD
:102BB00008B1FDF798FC042269460548FFF788F93B
:102BC00008B1FDF790FC0248FEF792FF0DB000BD82
:102BD000C012002000B58DB0002009900A900B9023
:102BE0000C90079008901C216846FDF7FAFB2C48D2
:102BF0002C490860D120486000212A48816040F2B9
:102C0000E731C160002101618161FEF7B3FC08B1C9
:102C1000FDF769FC4FF48050099009A92148FEF79F
:102C200015FE08B1FDF75FFC1E48FFF7D3F908B1A8
:102C3000FDF759FC00200790089007A91948FEF7F6
:102C40003FFC08B1FDF74FFC602000900020019090
:102C500002900490002269461248FFF739F908B142
:102C6000FDF741FC042269460E48FFF731F908B12F
:102C7000FDF739FC082269460A48FFF729F908B12F
:102C8000FDF731FC0C2269460648FFF721F908B12F
:102C9000FDF729FC0348FEF72BFF0DB000BD000037
:102CA000000800400813002000B58DB000200990F6
:102CB0000A900B900C90079008901C216846FDF735
:102CC00090FB244824490860532048600021224892
:102CD000816040F6B731C160002101618161FEF77A
:102CE00049FC08B1FDF7FFFB4FF48050099009A99A
:102CF0001948FEF7ABFD08B1FDF7F5FB1648FFF7E5
:102D000069F908B1FDF7EFFB00200790089007A9CB
:102D10001148FEF7D5FB08B1FDF7E5FB60200090F8
:102D20000020019002900490002269460A48FFF7B3
:102D3000CFF808B1FDF7D7FB042269460648FFF734
:102D4000C7F808B1FDF7CFFB0348FEF7D1FE0DB081
:102D500000BD0000000C00405013002000B595B0ED
:102D6000002011901290139014900F9010901C213D
:102D700008A8FDF736FB20216846FDF732FB3748EF
:102D800037490860A720486000213548816040F637
:102D9000B731C1600021016141618161FEF7EAFB49
:102DA00008B1FDF7A0FB4FF48050119011A92C48F9
:102DB000FEF74CFD08B1FDF796FB2948FFF70AF92D
:102DC00008B1FDF790FB00200F9010900FA9244848
:102DD000FEF776FB08B1FDF786FB60200890002027
:102DE00009900A900B900C900D900E90002208A96B
:102DF0001B48FFF76DF808B1FDF775FB042208A921
:102E00001748FFF765F808B1FDF76DFB082208A920
:102E10001348FFF75DF808B1FDF765FB0C2208A920
:102E20000F48FFF755F808B1FDF75DFB0020009053
:102E300001900290039004904FF400500590002000
:102E4000079069460648FEF701FB08B1FDF74BFB0A
:102E50000348FEF74DFE15B000BD00000004014020
:102E60009813002000B58BB00020079008900990BF
:102E70000A901C216846FDF7B4FA1F481F490860F4
:102E80005320486000211D488160A721C1600021B6
:102E900001618161FEF76EFB08B1FDF724FB4FF481
:102EA0008050079007A91548FEF7D0FC08B1FDF740
:102EB0001AFB1248FEF728FF08B1FDF714FB30207B
:102EC0000090002001900220029000200490002237
:102ED00069460A48FEF7D2FE08B1FDF704FB04225A
:102EE00069460648FEF7CAFE08B1FDF7FCFA03483A
:102EF000FEF7FEFD0BB000BD00400140E0130020D6
:102F000010B50B480B4908604FF41650486000217B
:102F100008488160C16001610C214161002181612B
:102F2000C161FFF7A7FA08B1FDF7DDFA10BD000097
:102F3000007800407014002010B50B480B49086061
:102F40004FF4E1304860002108488160C1600161B0
:102F50000C21416100218161C161FFF78BFA08B149
:102F6000FDF7C1FA10BD0000007C0040B414002041
:102F700010B50B480B4908604FF4E1304860002160
:102F800008488160C16001610C21416100218161BB
:102F9000C161FFF76FFA08B1FDF7A5FA10BD000097
:102FA00000440040F814002010B50B480B4908609D
:102FB0004FF416504860002108488160C1600161EB
:102FC0000C21416100218161C161FFF753FA08B111
:102FD000FDF789FA10BD0000004800403C150020B4
:102FE00010B50B480B4908604FF41650486000219B
:102FF00008488160C16001610C214161002181614B
:10300000C161FFF737FA08B1FDF76DFA10BD000096
:10301000001401408015002000BFFEE700BFFEE75E
:103020007047704710B5FDF791FD10BD034800686B
:1030300040F47000014908607047000088ED00E02E
:1030400010B50248FEF789FC10BD000028140020CE
:1030500010B50268294B98420ED0B0F1804F0BD0CA
:10306000274B984208D0274B984205D0264B9842D0
:1030700002D0264B984203D122F070024B681A43CB
:103080001E4B984220D0B0F1804F1DD01C4B98426F
:103090001AD01C4B984217D01B4B984214D01B4B94
:1030A000984211D01A4B98420ED01A4B98420BD02E
:1030B000194B984208D0194B984205D0184B9842AA
:1030C00002D0184B984203D122F44072CB681A43C5
:1030D00022F080034C6943EA040202608B68C362F9
:1030E0000B688362054B984202D0084B984201D18D
:1030F0000B6903630123436110BD00000000014020
:103100000004004000080040000C004000040140A2
:1031100000400140004401400048014000180040C8
:10312000001C00400020004030B501F01F050124C4
:1031300004FA05F3046A9C430462046A01F01F0563
:1031400002FA05F52C43046230BD30B50C468168A7
:1031500021F47F4142EA032525432943816030BDA4
:1031600030B5056A25F010050562026A4368846976
:1031700024F4E04424F440740D6844EA052422F069
:1031800020028D6842EA0512124DA84200D103E0E8
:10319000114DA84207D100BF22F08002CD6842EA5B
:1031A000051222F040020B4DA84202D00A4DA8425F
:1031B00009D123F4806323F400634D6943EA850356
:1031C0008D6943EA8503436084614D6885630262CB
:1031D00030BD0000000001400004014010B502486D
:1031E000FEF7D8FF10BD00007014002010B5034694
:1031F00099629A85DA8500201864222083F83E00BF
:1032000000BF002083F83C0000BF186928B118688F
:10321000C06840F480701C68E0601868406940F045
:1032200001001C6860611868C06840F020001C68DC
:10323000E060002010BD000010B50248FEF7AAFFB4
:1032400010BD0000F814002010B50248FEF7A2FFE0
:1032500010BD00003C15002010B50248FEF79AFF93
:1032600010BD00008015002000BFFEE770B50446C9
:10327000FDF704FE0949B0FBF1F52846FEF7CAF850
:10328000601EFDF733FBFDF7F9FD4FF47A71B0FBDB
:10329000F1F52846FEF7BEF870BD000040420F0071
:1032A00010B5AC4800F028FFAA480068B0F5167FBA
:1032B0007ED29FEDA91AF5EE000AB6EE000AA748E5
:1032C00000F05CFF4FF4FA70FDF710FB00BFA4485C
:1032D000007800F0DB00182805D0A248007800F044
:1032E000DB001828F3D100F0ABFB9FED9B1ADFED5C
:1032F0009A0A9FED990A994800F040FF4FF4FA604E
:10330000FDF7F4FA934800F0F7FE9248006840F2A7
:10331000DC5188424DD29FED901ADFED930A9FED6C
:103320008E0A8E4800F02AFF05E00A20FDF7DEFA3B
:10333000884800F0E1FE87480068B0F5C87FF4D8FF
:103340009FED851ADFED890A9FED890A834800F019
:1033500015FF05E00A20FDF7C9FA7E4800F0CCFE13
:103360007C480068B0F5487FF4D34FF4AF60FDF7B8
:10337000BDFA9FED791ADFED7C0A9FED770A774859
:1033800000F0FCFE00BF7648007800F0DB00182853
:1033900005D07448007800F0DB001828F3D100F065
:1033A0004FFB012000F0EEF8012072490870D0E0D8
:1033B0002FE09FED691ADFED700A9FED670A6748FD
:1033C00000F0DCFE4FF4FA70FDF790FA00BF64489D
:1033D000007800F0DB00182805D06248007800F083
:1033E000DB001828F3D19FED5C1ADFED5B0AB6EE27
:1033F000000A5A4800F0C2FE4FF47A70FDF776FAE0
:1034000000F01EFB002000F0BDF8002059490870B4
:103410009FE09FED511ADFED590ABEEE000A4F48BA
:1034200000F0ACFE4FF46170FDF760FA9FED4A1AB0
:10343000DFED510A9FED480A484800F09FFEC82082
:10344000FDF754FA00BF4648007800F0DB0018286A
:1034500005D04448007800F0DB001828F3D100F0D4
:10346000EFFA3C4800F048FE3A48006840F2DC5170
:1034700088424CD29FED381ADFED3B0A9FED360AA9
:10348000364800F07BFE05E00A20FDF72FFA3148B0
:1034900000F032FE2F480068B0F5E17FF4D89FEDD0
:1034A0002E1ADFED2D0A9FED360A2C4800F066FE3D
:1034B00005E00A20FDF71AFA264800F01DFE25480F
:1034C0000068B0F5487FF4D34FF47A70FDF70EFA38
:1034D0009FED211ADFED240A9FED1F0A1F4800F01F
:1034E0004DFE00BF1E48007800F0DB00182805D014
:1034F0001C48007800F0DB001828F3D100F0A0FA97
:10350000002000F03FF802201A49087021E09FEDEA
:10351000121ADFED190A9FED100A104800F02EFE76
:103520004FF4FA70FDF7E2F900BF0D48007800F0A3
:10353000DB00182805D00B48007800F0DB001828C5
:10354000F3D100F07DFA012000F01CF803200949B6
:10355000087010BDAC120020000000001C0000200C
:1035600004000020050000209A99993ECDCC4C3EE5
:10357000333333BF080000209A99193FCDCCCC3E9D
:103580003333333F70B504469FED5B1ADFED5B0AC2
:103590009FED590A5A4800F0F1FD4FF4FA70FDF71B
:1035A000A5F900BF5748007800F07F003828F9D10E
:1035B0009FED511ADFED500A9FED4F0A504800F081
:1035C000DDFD4FF4FA70FDF791F900F0ABF96CB93D
:1035D0009FED491ADFED480A9FED4B0A484800F07D
:1035E000CDFD4FF4FA70FDF781F974E0012C72D132
:1035F000002561E04348007860280CDA9FED3E1A10
:10360000DFED420A9FED420A3D4800F0B7FD32204F
:10361000FDF76CF948E03B48007870280CDD9FED21
:10362000361ADFED3C0A9FED3A0A354800F0A6FD58
:103630003220FDF75BF937E03248007836490978E7
:10364000884202DC2F48007860B99FED2C1ADFED2C
:103650002A0A9FED2F0A2A4800F090FD3220FDF73C
:1036600045F921E0274800782B490978884202DB98
:103670002948007860B99FED291ADFED1F0A9FEDF8
:10368000240A1F4800F07AFD3220FDF72FF90BE0E5
:103690009FED191ADFED180A9FED1D0A184800F07A
:1036A0006DFD3220FDF722F96D1C1B48007800F0FB
:1036B0000600062800D164256E2D9BD39FED0E1ABF
:1036C000DFED0D0A9FED0C0A0D4800F057FD4FF499
:1036D000FA60FDF70BF900F025F99FED071ADFED11
:1036E000060A9FED050A064800F048FD4FF4FA600F
:1036F000FDF7FCF870BD0000000000009A99993EAB
:103700001C00002004000020CDCCCC3ECDCC4C3E93
:103710009A99193FCDCC4CBE050000209A9999BECC
:1037200010B52DED048B57E09FED359A9FED350ACE
:10373000B0EE408A9FED330AF0EE408A32480078BE
:1037400060280CDA9FED310A38EE000AB0EE408AAC
:103750009FED2F0A38EEC00AF0EE408A0FE02A48AB
:10376000007870280BDD9FED290A38EE400AB0EE94
:10377000408A9FED270A38EE800AF0EE408A2548FD
:10378000007860280CDA9FED210A38EE000AB0EECE
:10379000408A9FED1F0A38EE800AF0EE408A0FE063
:1037A0001C48007870280BDD9FED180A38EE400A9F
:1037B000B0EE408A9FED160A38EEC00AF0EE408A5D
:1037C000B0EE681AF0EE480AB0EE490A124800F06E
:1037D000D5FC3220FDF78AF80B4800780028A3D1E9
:1037E0009FED081ADFED070A9FED060A0A4800F070
:1037F000C5FC4FF47A70FDF779F8BDEC048B10BD71
:103800009A99193F0000000004000020CDCCCC3D67
:103810009A99193E050000201C00002010B50446AE
:103820000D48844205D101220C492046FEF7C6FF0F
:1038300010E00B48844205D101220A492046FEF7D8
:10384000BDFF07E00848844204D101220749204611
:10385000FEF7B4FF10BD000080150020040000201A
:103860003C150020050000207014002006000020F8
:1038700000B593B0302107A8FCF7B3FD142102A8CE
:10388000FCF7AFFD00BF002001902448006840F025
:103890008050224908600846006800F0805001907E
:1038A00000BF00BF00BF002001901D48006840F429
:1038B00040401B4908600846006800F44040019001
:1038C00000BF00BF012007900004089002200D9067
:1038D00041050E9106210F91A8211091022111910D
:1038E0000421129107A8FDF747FB08B1FCF7FBFD87
:1038F0000F20029002200390002004904FF4A0506B
:1039000005904FF480500690052102A8FDF7F4F9C8
:1039100008B1FCF7E8FD13B000BD000040380240DC
:103920000070004010B52DED048B002461E09FED88
:103930003E9A9FED3D0AB0EE408A9FED3B0AF0EEC5
:10394000408A3A48007800F07A0038280CDA9FED77
:10395000380A38EE000AB0EE408A9FED360A38EE9B
:10396000C00AF0EE408A11E03048007800F07A009A
:1039700038280BDD9FED2E0A38EE400AB0EE408A63
:103980009FED2C0A38EE800AF0EE408A2A48007833
:1039900000F07A0038280CDA9FED250A38EE000A8C
:1039A000B0EE408A9FED230A38EE800AF0EE408A9E
:1039B00011E02148007800F07A0038280BDD9FEDF7
:1039C0001C0A38EE400AB0EE408A9FED1A0A38EE23
:1039D000C00AF0EE408AB0EE681AF0EE480AB0EE87
:1039E000490A164800F0CAFB1920FCF77FFF601C4B
:1039F00084B20E48007800F07A00382805D10E48CD
:103A0000007800F07A00382801D0282C8FDB9FED59
:103A1000061ADFED050A9FED040A084800F0AEFB28
:103A2000BDEC048B10BD000000000000040000206D
:103A3000CDCC4C3ECDCCCC3E050000201C0000205F
:103A400010B52DED048B002489E09FED529A9FED77
:103A5000510AB0EE408A9FED4F0AF0EE408A4E4880
:103A6000007880B99FED4B1ADFED4A0AB6EE000AE6
:103A70004A4800F083FB00BF474800780028FBD08D
:103A80003220FCF733FF4648007880B99FED411A99
:103A9000DFED400ABEEE000A404800F06FFB00BFB9
:103AA0003F4800780028FBD03220FCF71FFF3C483D
:103AB000007800F0DB0018280CDA9FED3A0A38EEA7
:103AC000000AB0EE408A9FED380A38EEC00AF0EEE8
:103AD000408A11E03248007800F0DB0018280BDD46
:103AE0009FED300A38EE400AB0EE408A9FED2E0A74
:103AF00038EE800AF0EE408A2748007800F0DB00BC
:103B000018280CDA9FED270A38EE000AB0EE408A3A
:103B10009FED250A38EE800AF0EE408A11E01E483B
:103B2000007800F0DB0018280BDD9FED1E0A38EE50
:103B3000400AB0EE408A9FED1C0A38EEC00AF0EE53
:103B4000408AB0EE681AF0EE480AB0EE490A13480F
:103B500000F014FB3220FCF7C9FE601C84B2104850
:103B6000007800F0DB00182805D10B48007800F041
:103B7000DB00182802D0282CFFF667AF9FED051A4E
:103B8000DFED040A9FED030A044800F0F7FABDECEC
:103B9000048B10BD00000000050000201C00002068
:103BA00004000020CDCC4C3E9A99993E10B50021DE
:103BB000DFED631A9FED631ADFED630A9FED630A81
:103BC000634801F09FFCBFEE001ADFED620A9FED33
:103BD000620A624800F0D2FA4FF4FA60FCF786FEFF
:103BE0009FED5C1ADFED5E0AB6EE000A5B4800F05E
:103BF000C5FA4FF47A70FCF779FE0021DFED501A18
:103C00009FED501ADFED500A9FED500A504801F029
:103C100079FCBFEE001ADFED530A9FED530A4F48BF
:103C200000F0ACFA00BF5148007851490978884249
:103C3000F9D19FED481ADFED470A9FED460A474844
:103C400000F09CFA4FF4FA70FCF750FE9FED411A19
:103C5000DFED400A9FED470A404800F08FFA00BFB1
:103C60004248007800F03C003C28F9D100BF3F48B2
:103C7000007800F03C003C28F9D06420FCF736FEC8
:103C80009FED341ADFED330A9FED320A334800F01E
:103C900075FA4FF4FA70FCF729FE9FED2E1ADFED4E
:103CA000350A9FED2C0A2D4800F068FA00BF2F4816
:103CB000007800F07F003828F9D19FED261ADFED5B
:103CC000250A9FED240A254800F058FA204801F003
:103CD00061FE4FF47A70FCF709FE1D4801F0CCFB41
:103CE0009FED250A1A4801F0F5FB4FF47A70FCF7B6
:103CF000FDFD9FED181ADFED1F0A9FED160A17480C
:103D000000F03CFAC820FCF7F1FD00BF174800782E
:103D100000F07F003828F9D19FED0E1ADFED0D0A73
:103D20009FED0C0A0D4800F029FA094801F032FE17
:103D30004FF47A70FCF7DAFD054801F09DFB10BDE9
:103D40000000B4420000C8420000484200000CC21B
:103D500004100020000000009A9999BE1C00002069
:103D60009A99993ECDCCCCBDCDCC4CBE0400002060
:103D700005000020CDCCCC3E000034C310B59FED33
:103D80003A1ADFED390A9FED380A384800F0F6F9A3
:103D90000021DFED371A9FED371ADFED370A9FED6F
:103DA000370A374801F0AEFB4FF4FA60FCF79EFD8E
:103DB0004FF4FA70FCF79AFD314801F0EBFD4FF437
:103DC0007A70FCF793FD2E4801F056FB9FED2D0A0B
:103DD0002B4801F07FFB9FED241ADFED2B0A9FEDAE
:103DE000220A224800F0CAF9C820FCF77FFD00BF74
:103DF0002648007800F07F003828F9D1C820FCF769
:103E000075FD00BF2148007800F07F003828F9D107
:103E10009FED151ADFED1C0A9FED130A134800F001
:103E2000ADF9C820FCF762FD00BF1848007800F02B
:103E30007F003828F9D1C820FCF758FD00BF13488F
:103E4000007800F07F003828F9D19FED071ADFEDE8
:103E5000060A9FED050A054800F090F94FF47A70C4
:103E6000FCF744FD10BD0000000000001C00002015
:103E70000000B4420000C8420000484200000CC2EA
:103E8000041000200000B4C2CDCCCC3E04000020C1
:103E9000014691F85800704780F8581070470FB4E9
:103EA0002DE9F04704461BAD95E8E0033D2209A942
:103EB0002046FCF764FA9DF8610084F83D009DF807
:103EC000620084F83E009DF863103F2001559DF884
:103ED0006410402001559DF86510412001559DF862
:103EE000660084F842009DF86710432001559DF854
:103EF0006810442001559DF86910452001559DF832
:103F00006A0084F8460084F84850A4F84A60E764E0
:103F1000A4F85080C4F85490294609A8FEF790F8F8
:103F2000BDE8F0075DF814FB10B50446606E60B99B
:103F3000B4F84A100022E06CFCF7FCFDB4F8501015
:103F40000022606DFCF7F6FD1EE0606E00280CDDBF
:103F5000B4F84A100122E06CFCF7ECFDB4F8501004
:103F60000022606DFCF7E6FD0EE0606E00280BDAC3
:103F7000B4F84A100022E06CFCF7DCFDB4F85010F5
:103F80000122606DFCF7D6FD94F8480028B9606EF8
:103F900002F043FA2168486318E094F848000428C6
:103FA00005D1606E02F039FA216888630EE094F85A
:103FB0004800082805D1606E02F02FFA2168C86316
:103FC00004E0606E02F029FA2168086410BD000068
:103FD000002180F858109FED050A80ED170A40F285
:103FE000E73101660021416681667047B5220842CB
:103FF0000FB470B50446179D3D2205A92046FCF775
:10400000BEF99DF8510084F83D009DF8520084F8F7
:104010003E009DF853103F2001559DF8541040205C
:1040200001559DF85510412001559DF8560084F822
:1040300042009DF85710432001559DF85810442028
:1040400001559DF85910452001559DF85A0084F8F6
:10405000460084F84850294605A8FDF7F1FF70BCDA
:104060005DF814FB10B5044640F6C31240F2F3119C
:1040700004F14C0002F0BAF994F8480018B921682C
:10408000E06C486312E094F84800042803D12168EA
:10409000E06C88630AE094F84800082803D121689E
:1040A000E06CC86302E02168E06C086410BD0000A9
:1040B000B0EE002AC0EE821A80EE212ADFED0A2A35
:1040C000DFED0A1A42EE221AB0EE611A9FED082ABD
:1040D000C1EE021A9FED072A61EE821AFDEEE11A87
:1040E000C0ED131A704700006F12833AA69BC43AC2
:1040F000A69B443B00703B4570B504460025012655
:10410000A1880122A068FCF715FD1420FFF7AEF886
:10411000A1880022A068FCF70DFD07E0761C0D4881
:10412000864203D942F20F70206005E0A189206920
:10413000FCF7F8FC0028F1D000BF00E06D1CA1895D
:104140002069FCF7EFFC0028F8D12320B5FBF0F044
:10415000206070BD00127A0010B5029C81808260E0
:104160008381046110BD11B52DED040B00F5F061E4
:104170009DE81C0064311CC105B010BD10B52DEDCB
:10418000048B84B00446B0EE408AF0EE608AB0EE54
:10419000419A8DED018ACDED028A8DED039A9DED58
:1041A000031ADDED020A9DED010A0548FFF7DBFF6A
:1041B000034800F01BF804B0BDEC048B10BD0000F8
:1041C0001C00002070B504460E4684F8E067002508
:1041D00009E005EB451101EB410104EB810031469B
:1041E00000F089FC6D1C042DF3DB70BD70B52DED66
:1041F000028B0446F7EE000ABFEE000A04F2E470F8
:1042000002F0E0F8F7EE000ABFEE000A04F5FD60E8
:1042100002F0D8F8F0EE000AB8EE000A04F2EC70F2
:1042200002F0D0F804F2E47090ED010AD0ED020A39
:104230009FED561A01EE200A04F58060D0EDF90AD0
:1042400030EE600ADFED520AC0EE208A2046FFF70A
:104250001FFE08B9012001E04FF0FF3000EE100A08
:10426000B8EEC00A28EE808AB0EE480A204600F078
:104270003FFC04F2E47090ED010AD0ED020A9FEDDC
:10428000451A01EE200A04F58060D0EDF90A30EEFF
:10429000200ADFED3F0AC0EE208A04F5C670FFF762
:1042A000F7FD08B9012001E04FF0FF3000EE100AE1
:1042B000B8EEC00A28EE808AB0EE480A04F5C6704F
:1042C00000F016FC04F2E47090ED010AD0ED020A51
:1042D0009FED311A01EE200A04F58060D0EDF90A55
:1042E000B7EE081A01EE200ADFED290AC0EE208A97
:1042F000E838FFF7CDFD08B9012001E04FF0FF30AD
:1043000000EE100AB8EEC00A28EE808AB0EE480A25
:1043100004F5467000F0ECFB04F2E47090ED010A45
:10432000D0ED020A9FED1D1A01EE200A04F580600F
:10433000D0EDF90AB7EE081A01EE600ADFED140AB3
:10434000C0EE208AA430FFF7A3FD08B9012001E0E8
:104350004FF0FF3000EE100AB8EEC00A28EE808A57
:10436000B0EE480A04F2A44000F0C2FB002508E0C9
:1043700005EB451101EB410104EB810000F0BEFBB0
:104380006D1C042DF4DBBDEC028B70BD091B9EBEC1
:104390004A0C823D091B9E3EA8570ABF091B1E3FBF
:1043A0000FB430B5CFB004463D2253A904F5E16007
:1043B000FBF7E5FF9DF8891184F845179DF88A11F0
:1043C00084F846179DF88B1184F847179DF88C11D7
:1043D00084F848179DF88D1184F849179DF88E11BF
:1043E00084F84A179DF88F1184F84B179DF89011A7
:1043F00084F84C179DF8911184F84D179DF892118F
:1044000084F84E173D2265A904F5F360FBF7B7FF6A
:104410009DF8D11184F8D5179DF8D21184F8D617DC
:104420009DF8D31184F8D7179DF8D41184F8D817C4
:104430009DF8D51184F8D9179DF8D61184F8DA17AC
:104440009DF8D71184F8DB179DF8D81184F8DC1794
:104450009DF8D91184F8DD179DF8DA1184F8DE177C
:104460003D2265A93DA8FBF78AFF9DF8D1018DF893
:1044700031019DF8D2018DF832019DF8D3118DF8EC
:1044800033119DF8D4118DF834119DF8D5118DF8A4
:1044900035119DF8D6018DF836019DF8D7118DF8AC
:1044A00037119DF8D8118DF838119DF8D9118DF874
:1044B00039119DF8DA018DF83A013D2253A92BA854
:1044C000FBF75DFF9DF889018DF8E9009DF88A01F1
:1044D0008DF8EA009DF88B118DF8EB109DF88C118A
:1044E0008DF8EC109DF88D118DF8ED109DF88E0172
:1044F0008DF8EE009DF88F118DF8EF109DF890115A
:104500008DF8F0109DF891118DF8F1109DF8920141
:104510008DF8F200DE48C1148023CDE92630482210
:10452000CDE928103DA914A8FBF729FFD84801219F
:104530000223CDE91030CDE9121000203C222EA933
:104540000F906846FBF71BFF20462BA90EC900F011
:1045500075FB00212046FFF79FFC3D2265A93DA881
:10456000FBF70DFF9DF8D1018DF831019DF8D201C7
:104570008DF832019DF8D3118DF833119DF8D411C7
:104580008DF834119DF8D5118DF835119DF8D601AF
:104590008DF836019DF8D7118DF837119DF8D81197
:1045A0008DF838119DF8D9118DF839119DF8DA017F
:1045B0008DF83A013D2253A92BA8FBF7E0FE9DF8A8
:1045C00089018DF8E9009DF88A018DF8EA009DF8CF
:1045D0008B118DF8EB109DF88C118DF8EC109DF877
:1045E0008D118DF8ED109DF88E018DF8EE009DF87F
:1045F0008F118DF8EF109DF890118DF8F0109DF847
:1046000091118DF8F1109DF892018DF8F200A048FB
:1046100081154023CDE926304822CDE928103DA957
:1046200014A8FBF7ACFE9B4810212023CDE91030E5
:10463000CDE9121004203C222EA90F906846FBF70A
:104640009EFE04F5C6702BA90EC900F0F7FA0021F2
:1046500004F5C670FFF720FC3D2265A93DA8FBF7D5
:104660008EFE9DF8D1018DF831019DF8D2018DF8B3
:1046700032019DF8D3118DF833119DF8D4118DF8C6
:1046800034119DF8D5118DF835119DF8D6018DF8AE
:1046900036019DF8D7118DF837119DF8D8118DF896
:1046A00038119DF8D9118DF839119DF8DA018DF87E
:1046B0003A013D2253A92BA8FBF761FE9DF8890121
:1046C0008DF8E9009DF88A018DF8EA009DF88B11BC
:1046D0008DF8EB109DF88C118DF8EC109DF88D1174
:1046E0008DF8ED109DF88E018DF8EE009DF88F117C
:1046F0008DF8EF109DF890118DF8F0109DF8911144
:104700008DF8F1109DF892018DF8F2006248811544
:104710000315CDE926304822CDE928103DA914A87B
:10472000FBF72DFE5B4881144023CDE91030CDE925
:10473000121008203C222EA90F906846FBF71FFE9E
:1047400004F546702BA90EC900F078FA002104F593
:104750004670FFF7A1FB3D2265A93DA8FBF70FFEC0
:104760009DF8D1018DF831019DF8D2018DF832010B
:104770009DF8D3118DF833119DF8D4118DF83411B3
:104780009DF8D5118DF835119DF8D6018DF83601BB
:104790009DF8D7118DF837119DF8D8118DF8381183
:1047A0009DF8D9118DF839119DF8DA018DF83A018B
:1047B0003D2253A92BA8FBF7E2FD9DF889018DF856
:1047C000E9009DF88A018DF8EA009DF88B118DF8BB
:1047D000EB109DF88C118DF8EC109DF88D118DF873
:1047E000ED109DF88E018DF8EE009DF88F118DF87B
:1047F000EF109DF890118DF8F0109DF891118DF843
:10480000F1109DF892018DF8F200224880210B02F0
:10481000CDE926304822CDE928103DA914A8FBF7A0
:10482000AEFD1E4801211E4A0423CDE91032CDE918
:1048300012100C203C222EA90F906846FBF79FFD1A
:1048400004F2A4402BA90EC900F0F8F9002104F2EB
:10485000A440FFF721FB002514E005EB451101EB17
:10486000410104EB810101F16C009FED0E2ADFEDA7
:104870000D1AB3EE091ADFED0C0A9FED0C0A01F0D8
:10488000A7FA6D1C042DE8DB4FB030BC5DF814FBBB
:104890000014024000100240000C024000040240DC
:1048A000000802400000804F00803B450000FA44B1
:1048B0000FB410B5A6B004463D2229A904F5EA605C
:1048C000FBF75DFD9DF8E11084F88D179DF8E2106F
:1048D00084F88E179DF8E31084F88F179DF8E41084
:1048E00084F890179DF8E51084F891179DF8E6106C
:1048F00084F892179DF8E71084F893179DF8E81054
:1049000084F894179DF8E91084F895179DF8EA103B
:1049100084F896173D223BA904F5F360FBF72FFDC1
:104920009DF8291184F8D5179DF82A1184F8D61717
:104930009DF82B1184F8D7179DF82C1184F8D817FF
:104940009DF82D1184F8D9179DF82E1184F8DA17E7
:104950009DF82F1184F8DB179DF8301184F8DC17CF
:104960009DF8311184F8DD179DF8321184F8DE17B7
:104970003D2229A914A8FBF702FD9DF8E1008DF85E
:104980008D009DF8E2008DF88E009DF8E3108DF803
:104990008F109DF8E4108DF890109DF8E5108DF8BB
:1049A00091109DF8E6008DF892009DF8E7108DF8C3
:1049B00093109DF8E8108DF894109DF8E9108DF88B
:1049C00095109DF8EA008DF89600314802212023C9
:1049D000CDE91030CDE9121000203C2217A90F902C
:1049E0006846FBF7CCFC04F5C66014A90EC9FFF7B6
:1049F00056FA002104F5C660FFF74EFA3D2229A9B8
:104A000014A8FBF7BCFC9DF8E1008DF88D009DF823
:104A1000E2008DF88E009DF8E3108DF88F109DF860
:104A2000E4108DF890109DF8E5108DF891109DF828
:104A3000E6008DF892009DF8E7108DF893109DF830
:104A4000E8108DF894109DF8E9108DF895109DF8F8
:104A5000EA008DF896000F4810212023CDE9103090
:104A6000CDE9121004203C2217A90F906846FBF7ED
:104A700086FC04F29C6014A90EC9FFF710FA01210C
:104A800004F29C60FFF708FA26B010BC5DF814FB36
:104A9000000802400000024010B5044604234FF411
:104AA000C6720F49204601F06EFA044602236C22BA
:104AB0000C4900F5C66001F066FAA0F5C664012055
:104AC00084F8E00704F5F060074B0ECB9FED070A72
:104AD00064300EC004F5806080EDFC0A204610BDF5
:104AE0003D4D0008D13F000834640008000000007C
:104AF00080ED600A704780F86C11704710B52DED9D
:104B0000028B044604F5B674D4E90101401A08EE9C
:104B1000100A94ED030AF8EEC80A80EE801A94EDAC
:104B2000060A31EE000A84ED060A94ED030AB8EE97
:104B3000C81AC1EE000A9FED400A80EE801A84ED8B
:104B4000041A6068A0602078A4F5B67480B9D4ED2A
:104B5000600A94ED180AB8EEC00A20EE800AD4ED7F
:104B6000170A80EE201ABDEEC10A84ED190A56E03C
:104B700094F86C0101281CD1D4ED5F0AB0EE600AF4
:104B800004F16C0001F032F9D4ED600AB0EE600A75
:104B900004F16C0001F008F804F16C0001F008F871
:104BA00004F16C0001F01FF9BDEEC00A84ED190A92
:104BB00035E094F86C01022831D1D4ED620AB0EEF0
:104BC000600A04F1C00000F0EFFFD4ED610AB0EE1E
:104BD000600A04F1C00001F009F904F1C00000F01E
:104BE000E7FF04F1C00001F0FEF8F0EE408A04F1A6
:104BF0006C0000F0D9FFD4ED5F0AB0EE600A04F15A
:104C00006C0001F0F3F804F16C0000F0D1FF04F146
:104C10006C0001F0E8F8BDEEC00A84ED190A40F21C
:104C2000E732514204F1640001F0E0FB2046FFF757
:104C30007BF9BDEC028B10BDCDCC4C3D0FB42DE902
:104C4000F05F0446DDE934AB1DAD95E8E0033D229D
:104C50000BA92046FBF793FB9DF8690084F83D0003
:104C60009DF86A0084F83E009DF86B103F200155C6
:104C70009DF86C10402001559DF86D1041200155A4
:104C80009DF86E0084F842009DF86F104320015596
:104C90009DF87010442001559DF871104520015574
:104CA0009DF8720084F8460084F84850A4F84A60E1
:104CB000E764A4F85080C4F854903D2222A904F57A
:104CC0008A70FBF75CFB9DF8C51084F851119DF8C4
:104CD000C61084F852119DF8C71084F853119DF83E
:104CE000C81084F854119DF8C91084F855119DF826
:104CF000CA1084F856119DF8CB1084F857119DF80E
:104D0000CC1084F858119DF8CD1084F859119DF8F5
:104D1000CE1084F85A11A4F85CA1C4F860B136989A
:104D2000A4F864013798C4F8680129460BA8FDF778
:104D300087F9BDE8F01F5DF814FB000010B50446CC
:104D40002046FFF745F904466C3001F053F8A0F116
:104D50006C04543001F04EF8A0F1C004012084F836
:104D60006C010020C4F870019FED0B0AC4F87401B7
:104D700084ED5E0A9FED090A84ED5F0A9FED070A44
:104D800084ED600A9FED050A84ED610A9FED030A38
:104D900084ED620A204610BD27745F4200000000C7
:104DA000014600208A6A8B69CBB932B1012A0DD045
:104DB000022A03D0032A10D10EE000BFCB6A03F011
:104DC0008073B3F1807F00D1012007E0CB6AB3F19B
:104DD000C07F00D1012001E000E000BF34E08B691A
:104DE000B3F5005F1AD132B1012A07D0022A03D0ED
:104DF000032A11D10AE000BF01200EE0CB6A03F0C4
:104E00008073B3F1807F00D1012006E0CB6AB3F15B
:104E1000C07F00D1012000E000BF15E032B1012ABF
:104E200005D0022A04D0032A0CD103E000BF00BF42
:104E3000012008E0CB6A03F08073B3F1807F00D1DA
:104E4000012000E000BF00BF704700000146087865
:104E500010381823B0FBF3F20848805CC865032AB9
:104E600005D908686FF30900001D886503E008682C
:104E70006FF309008865886D704700004064000882
:104E800030B5056A25F001050562026A4368846948
:104E900024F0700424F003040D682C4322F0020275
:104EA0008D682A43104DA84200D103E00F4DA8425F
:104EB00006D100BF22F00802CD682A4322F0040286
:104EC000094DA84202D0094DA84207D123F48073AE
:104ED00023F400734D692B438D692B434360846138
:104EE0004D684563026230BD00000140000401408E
:104EF00030B5056A25F480750562026A4368C469A5
:104F000024F0700424F003040D682C4322F4007292
:104F10008D6842EA0522124DA84200D103E0114DEE
:104F2000A84207D100BF22F40062CD6842EA052200
:104F300022F480620A4DA84202D00A4DA84209D14B
:104F400023F4805323F400534D6943EA05138D691C
:104F500043EA05134360C4614D68C563026230BD16
:104F6000000001400004014030B5056A25F4805579
:104F70000562036A4468C26922F4E04222F4407286
:104F80000D6842EA052223F400538D6843EA053395
:104F9000084DA84202D0084DA84204D124F4804410
:104FA0004D6944EA85144460C2614D68056403623A
:104FB00030BD000000000140000401400A46816845
:104FC00021F0700142F0070319438160704730B54A
:104FD0000B461446026A056A25F0010505628169DF
:104FE00021F0F00141EA041122F00A021A43816122
:104FF000026230BD30B50B461446056A25F0100537
:1050000005628169026A21F4704141EA043122F0AB
:10501000A00242EA03128161026230BD2DE9F84F1D
:1050200004462068006920F44050E1680843216884
:1050300008612169A068084361690843E169084380
:1050400000902068C06849F20C61884300990843C9
:105050002168C8602068406920F44070A169084355
:105060002168486176492068884203D075492068E4
:10507000884203D1FBF718FF814602E0FBF704FFEB
:105080008146E069B0F5004F6CD102206168A0FB59
:10509000015003461920A9FB007001462A463846F4
:1050A000FBF7F6F86421B0FBF1F04FEA001A02209A
:1050B0006168A0FB01510B461920A9FB00712A462B
:1050C0003846FBF7E5F8834602206168A0FB0150F3
:1050D00003461920A9FB00712A463846FBF7D8F889
:1050E0006421B0FBF1F000EBC00101EB0010ABEB71
:1050F0008000322101EBC0006421B0FBF1F000F030
:10510000F8000AEB400A02206168A0FB0150034648
:105110001920A9FB007001462A463846FBF7B8F86B
:10512000834602206168A0FB015003461920A9FBB9
:1051300000712A463846FBF7ABF86421B0FBF1F06A
:1051400000EBC00101EB0010ABEB8000322101EB62
:10515000C0006421B0FBF1F000F00700504421686A
:1051600088606AE004206168A0FB015003461920B2
:10517000A9FB007001462A463846FBF789F88246AB
:1051800004206168A0FB015003461920A9FB0070B0
:1051900001462A463846FBF77BF86421B0FBF1F064
:1051A00000EBC00101EB0010AAEB8000322101EB03
:1051B00000106421B0FBF1F000F0F00A04206168F7
:1051C000A0FB017003461920A9FB00513A4628466E
:1051D000FBF75EF86421B0FBF1F00AEB001A042043
:1051E0006168A0FB01510B461920A9FB00712A46FA
:1051F0003846FBF74DF8834604206168A0FB015058
:1052000003461920A9FB007001462A463846FBF7E1
:105210003FF86421B0FBF1F000EBC00101EB00109E
:10522000ABEB8000322101EB00106421B0FBF1F008
:1052300000F00F00504421688860BDE8F88F00003E
:105240000010014000140140F8B5044694F83E00F7
:10525000222873D1A068B0F5805F0CD1206950B9C5
:105260000025A66A20684068C0F308003080A06A64
:10527000801CA06215E0A56A0026A068B0F5805FDA
:1052800003D0A06828B9206918B920684068287040
:1052900004E02068406800F07F002870A06A401C8D
:1052A000A062E08D401E80B2E085002844D12068D5
:1052B000C06820F020002168C8602068C06820F421
:1052C00080702168C8602068406920F00100216872
:1052D0004861202084F83E00206B012826D1002060
:1052E000206300BF00BF21680C3151E8001F21F08E
:1052F000100021680C3141E80002002AF3D100BF00
:105300002068006800F0100010280AD100BF0020BB
:10531000009020680068009020684068009000BFFE
:1053200000BFA18D2046FCF732FF02E02046FDF7CA
:1053300067FA0020F8BD01E00020FBE70220F9E752
:10534000014691F83D00212828D18868B0F5805F9A
:105350000BD1086948B90A6A1088C0F308000B68C5
:105360005860086A801C086205E00B6A581C0862D5
:1053700018780B685860C88C401E80B2C88458B931
:105380000868C06820F080000B68D8600868C068B2
:1053900040F040000B68D860002070470220FCE716
:1053A00000BF00BF02680C3252E8002F22F4907157
:1053B00002680C3242E80013002BF3D100BF00BF9B
:1053C00000BF0268143252E8002F22F00101026887
:1053D000143242E80013002BF3D100BF016B012906
:1053E0000ED100BF00BF02680C3252E8002F22F03D
:1053F000100102680C3242E80013002BF3D100BF09
:10540000202180F83E1000210163704710B504464A
:105410002068C06820F040002168C860202084F81F
:105420003D002046FDF72EFA002010BD70B5054660
:10543000AC6B0020E085E0842046FCF7A9FE70BD3F
:1054400010B5002804DB0A07130E054A135406E0C2
:105450000A07140E034A00F00F031B1FD45410BD9B
:1054600000E400E018ED00E002480068C0F302200C
:10547000704700000CED00E010B504460021DFEDA0
:10548000101A9FED101ADFED100A9FED100A20464A
:1054900000F038F84FF47A70FBF728FA0021DFEDBE
:1054A000081A9FED081AF3EE0E0A9FED090A20462E
:1054B00000F028F84FF47A70FBF718FA10BD0000DE
:1054C0000000B44200000243000070C2000020C28D
:1054D000000034C210B52DED028B0446B0EE408AB8
:1054E000DFED070AB0EE480A04F15400FEF7E0FDD4
:1054F00004F15400FEF7B6FDBDEC028B10BD0000B8
:105500000000AF4370B52DED048B0446F0EE409AD9
:10551000B0EE608AF0EE418AB0EE619A0D462168E5
:1055200001F1F000DFED250AB0EE690AFEF7C0FDDB
:10553000216801F1F000FEF795FD216801F15000AE
:10554000DFED1F0AB0EE480AFEF7B2FD216801F157
:105550005000FEF787FD216801F1A000DFED170A7A
:10556000B0EE680AFEF7A4FD216801F1A000FEF785
:1055700079FDDFED120AB0EE490A2068FEF798FDCA
:105580002068FEF76FFD55B9DFED0C0AB2EE040A94
:10559000201DFEF78DFD201DFEF764FD0BE0012DA3
:1055A00009D1DFED060ABBEE040A201DFEF780FDDF
:1055B000201DFEF757FDBDEC048B70BD0000874336
:1055C000000034430FB430B5A3B004460D46256047
:1055D0003D2228A9201DFAF7D2FE9DF8DD1084F89F
:1055E00041109DF8DE1084F842109DF8DF1084F819
:1055F00043109DF8E01084F844109DF8E11084F801
:1056000045109DF8E21084F846109DF8E31084F8E8
:1056100047109DF8E41084F848109DF8E51084F8D0
:1056200049109DF8E61084F84A103A993B9AC4E96B
:1056300013123D223CA904F15400FAF7A0FE9DF894
:105640002D1184F891109DF82E1184F892109DF878
:105650002F1184F893109DF8301184F894109DF860
:10566000311184F895109DF8321184F896109DF848
:10567000331184F897109DF8341184F898109DF830
:10568000351184F899109DF8361184F89A1004F1B8
:1056900054004E994F9AC0E912123D22BB4911A8FD
:1056A000FAF76DFEB94890F83D008DF88100B748D3
:1056B00090F83E008DF88200B44890F83F108DF8C5
:1056C000831090F840108DF8841090F841108DF8F8
:1056D000851090F842008DF88600AC4890F8431091
:1056E0008DF8871090F844108DF8881090F84510C8
:1056F0008DF8891090F846008DF88A0000203C2231
:1057000014A90F906846FAF73AFE206811A90EC94D
:10571000FEF76EFC3D229E4911A8FAF730FE9C4828
:1057200090F83D008DF88100994890F83E008DF882
:105730008200974890F83F108DF8831090F8401041
:105740008DF8841090F841108DF8851090F8420083
:105750008DF886008E4890F843108DF8871090F8E9
:1057600044108DF8881090F845108DF8891090F845
:1057700046008DF88A000C203C2214A90F90684640
:10578000FAF7FDFD216801F1500011A90EC9FEF7DD
:105790002FFC3D227E4911A8FAF7F1FD7C4890F8D4
:1057A0003D008DF881007A4890F83E008DF8820027
:1057B000774890F83F108DF8831090F840108DF8DE
:1057C000841090F841108DF8851090F842008DF803
:1057D00086006F4890F843108DF8871090F84410B9
:1057E0008DF8881090F845108DF8891090F84600D3
:1057F0008DF88A0008203C2214A90F906846FAF719
:10580000BEFD216801F1A00011A90EC9FEF7F0FB51
:105810003D225F4911A8FAF7B2FD5D4890F83D00BE
:105820008DF881005A4890F83E008DF88200584863
:1058300090F83F108DF8831090F840108DF8841088
:1058400090F841108DF8851090F842008DF8860090
:105850004F4890F843108DF8871090F844108DF859
:10586000881090F845108DF8891090F846008DF852
:105870008A0004203C2214A90F906846FAF77FFDA5
:10588000216801F1F00011A90EC9FEF7B1FB3D221C
:105890003F4911A8FAF773FD3D4890F83D008DF897
:1058A00081003B4890F83E008DF88200384890F81F
:1058B0003F108DF8831090F840108DF8841090F808
:1058C00041108DF8851090F842008DF88600304820
:1058D00090F843108DF8871090F844108DF88810D8
:1058E00090F845108DF8891090F846008DF88A00E0
:1058F00000203C2214A90F906846FAF740FD201DB5
:1059000011A90EC9FEF774FB3D22204911A8FAF730
:1059100036FD1E4890F83D008DF881001B4890F838
:105920003E008DF88200194890F83F108DF88310E2
:1059300090F840108DF8841090F841108DF8851083
:1059400090F842008DF88600104890F843108DF8CA
:10595000871090F844108DF8881090F845108DF855
:10596000891090F846008DF88A0004203C2214A982
:105970000F906846FAF703FD04F1540011A90EC90F
:10598000FEF736FB23B030BC5DF814FB501300204B
:105990009813002070B505460021DFED7A1A9FEDBF
:1059A0007A1ADFED7A0A9FED7A0A2846FFF7AAFDF8
:1059B0004FF47A70FAF79AFF0021DFED721A9FED2B
:1059C000711ADFED720A9FED720A2846FFF79AFD01
:1059D0004FF47A70FAF78AFF0021DFED6A1A9FED23
:1059E0006D1ADFED6D0A9FED6D0A2846FFF78AFDFF
:1059F0004FF4FA70FAF77AFF0121DFED621A9FED9A
:105A0000651ADFED650A9FED650A2846FFF77AFD06
:105A10004FF4FA70FAF76AFF0121DFED5A1A9FED91
:105A2000591ADFED5F0A9FED5D0A2846FFF76AFD10
:105A30004FF4FA70FAF75AFF0121DFED521A9FED89
:105A4000521ADFED570ABBEE040A2846FFF75AFD4B
:105A50004FF4FA70FAF74AFF002422E001EE104AF0
:105A6000F8EE411A9FED4E1AB1EE0C2A02EE611AC1
:105A7000F0EE410A01EE104AB8EE411AFBEE041AAC
:105A800031EEC11AB0EE410A0121DFED3E1A9FED61
:105A90003E1A2846FFF736FD6420FAF727FF601C00
:105AA00084B20F2CDADB0121DFED361A9FED361AB6
:105AB000DFED3C0A9FED390A2846FFF723FD4FF43E
:105AC000FA70FAF713FF00241AE000EE104AF8EE1D
:105AD000400A9FED2D0AF2EE041A01EEE00AB0EE44
