:020000040800F2
:10000000A01A00205102000841220008191C000813
:100010003D220008CF040008F12300080000000082
:10002000000000000000000000000000472200085F
:10003000D3040008000000004522000849220008FF
:100040006B0200086B0200086B0200086B020008DC
:100050006B0200086B0200086B0200086B020008CC
:100060006B0200086B0200086B0200086B020008BC
:100070006B0200086B0200086B0200086B020008AC
:100080006B0200086B0200086B0200086B0200089C
:100090006B0200086B0200086B0200086B0200088C
:1000A0006B0200086B0200086B0200086B0200087C
:1000B0006B0200086B0200086B0200086B0200086C
:1000C0006B0200086B0200086B0200086B0200085C
:1000D0006B0200086B0200086B0200086B0200084C
:1000E0006B0200086B0200086B0200086B0200083C
:1000F0006B0200086B0200086B0200086B0200082C
:100100006B0200086B0200086B0200086B0200081B
:100110006B0200086B0200086B0200086B0200080B
:100120006B0200086B0200086B0200086B020008FB
:100130006B0200086B0200086B0200086B020008EB
:100140006B0200086B0200086B0200086B020008DB
:100150006B0200086B0200086B0200086B020008CB
:100160006B0200086B0200086B0200086B020008BB
:100170006B0200086B0200086B0200080000000020
:100180006B0200086B0200086B0200086B0200089B
:100190006B0200086B0200086B0200086B0200088B
:1001A00000000000000000006B02000800F002F8F0
:1001B00000F03EF80AA090E8000C82448344AAF1C3
:1001C0000107DA4501D100F033F8AFF2090EBAE8C1
:1001D0000F0013F0010F18BFFB1A43F0010318477B
:1001E000783F0000983F0000103A24BF78C878C1DB
:1001F000FAD8520724BF30C830C144BF04680C602D
:10020000704700000023002400250026103A28BF74
:1002100078C1FBD8520728BF30C148BF0B60704778
:100220001FB503F081FF00F007F91FBD10B510BD29
:1002300000F014F91146FFF7F3FF03F09BFC00F008
:1002400032F903B4FFF7F2FF03BC00F039F9000004
:100250000948804709480047FEE7FEE7FEE7FEE75A
:10026000FEE7FEE7FEE7FEE7FEE7FEE70448054996
:10027000054A064B7047000051220008AD010008F6
:10028000A0140020A01A0020A0160020A016002014
:1002900053EA020C00F069802DE9F04B4FF00006A4
:1002A000002B1FBFB3FA83F503FA05F424FA05F611
:1002B0005E4012BF1643B2FA82F502FA05F4C5F1A8
:1002C00020051EBF22FA05FC44EA0C04203556EA3C
:1002D000044C4FEA144418BF641C4FF000084FF060
:1002E0000009904271EB030C39D3002919BFB1FA10
:1002F00081F701FA07F6B0FA80F700FA07F6C7F1BE
:1003000020071EBF20FA07FC46EA0C062037B6FB82
:10031000F4FCA7EB0507103F07F01F0BCBF12006FD
:100320000CFA0BFB2CFA06F644BFB3460026202F2E
:10033000A4BF5E464FF0000B5BEA060C08BF4FF00F
:10034000010B19EB0B09ABFB027C48EB0608C01B49
:1003500006FB02CC0BFB03CC71EB0C01C1E70B4697
:10036000024641464846BDE8F08B13B54FF0000009
:100370004FF00001AFF30080BDE81C40704710B59E
:10038000203AC0F00B80B1E81850203AA0E818508D
:10039000B1E81850A0E81850BFF4F5AF5FEA027C4E
:1003A00024BFB1E81850A0E8185044BF18C918C0BD
:1003B000BDE810405FEA827C24BF51F8043B40F85E
:1003C000043B08BF7047D20728BF31F8023B48BF43
:1003D00011F8012B28BF20F8023B48BF00F8012B81
:1003E00070474FF0000200B51346944696462039F8
:1003F00022BFA0E80C50A0E80C50B1F12001BFF4DE
:10040000F7AF090728BFA0E80C5048BF0CC05DF843
:1004100004EB890028BF40F8042B08BF704748BF91
:1004200020F8022B11F0804F18BF00F8012B704705
:10043000704770477047000070B5064C7C44064D0D
:100440007D4403E0206820448047241DAC42F9D15C
:1004500070BD0000383D0000383D0000754600F0DA
:100460002BF8AE4605006946534620F00700854646
:1004700018B020B5FFF7FAFEBDE820404FF00006A7
:100480004FF000074FF000084FF0000B21F007017C
:10049000AC46ACE8C009ACE8C009ACE8C009ACE8BF
:1004A000C0098D46704710B50446AFF30080204662
:1004B000BDE81040FFF7C5BE004870473C1400205F
:1004C00001491820ABBEFEE726000200704700BFBE
:1004D000FEE7704772B600BFFEE7000070B5044645
:1004E00000F026F906462546681C10B1044800783D
:1004F000054400BF00F01CF9801BA842FAD370BD70
:100500009C000020F8B502460B4600250024002080
:100510000021E0E0012606FA01F51E6806EA05045E
:10052000AC4274D11E7906F00306012E04D01E7968
:1005300006F00306022E13D190684F000326BE403A
:10054000B0434F00DE68BE403043906050680126E3
:100550008E40B0431E79C6F300168E403043506083
:100560001E7906F00306032E09D0D0684F0003263B
:10057000BE40B0434F009E68BE403043D0601E79FD
:1005800006F00306022E13D1CF0802F1200656F81A
:1005900027004E07F70E0F26BE40B0434F07FF0E51
:1005A0001E69BE403043CF0802F1200646F82700FE
:1005B00010684F000326BE40B0431E7906F00306C4
:1005C0004F00BE40304310605E6806F44036002E97
:1005D0001DD000BF00260096414E366846F4804686
:1005E0003F4F3E603E46366806F48046009600BFA8
:1005F00000BF3C4E8F0856F827008E07370F0F2696
:10060000BE40B043384EB24202D100262EE061E037
:10061000364EB24201D1012628E0354EB24201D118
:10062000022623E0334EB24201D103261EE0324EB1
:10063000B24201D1042619E0304EB24201D1052662
:1006400014E02F4EB24201D106260FE02D4EB242E9
:1006500001D107260AE02C4EB24201D1082605E05E
:100660002A4EB24201D1092600E00A268F073F0F29
:10067000BE4030431B4E8F0846F82700244E30689A
:10068000A0435E6806F4801606B12043204E306019
:10069000361D3068A0435E6806F4001606B120439C
:1006A0001B4E361D30601A4E361F3068A0435E6800
:1006B00006F4003606B12043154E361F3060361F53
:1006C0003068A0435E6806F4803606B12043104EC1
:1006D000083E3060491C1029FFF41CAFF8BD000033
:1006E0004438024008380140000002400004024043
:1006F00000080240000C02400010024000140240BA
:1007000000180240001C0240002002400024024069
:10071000083C0140024613690B400BB1012000E088
:10072000002070470AB1816101E00B0483617047CA
:1007300001480068704700009400002003480068EA
:100740000349097808440149086070479400002073
:100750009C00002010B50D48006840F400700B4963
:1007600008600846006840F4806008600846006839
:1007700040F480700860032000F092F80F2000F031
:1007800007F800F02BF8002010BD0000003C0240EC
:1007900070B504460E4800784FF47A71B1FBF0F062
:1007A0000C490968B1FBF0F5284600F01BFC08B1C4
:1007B000012070BD102C07D200222146501E00F0EF
:1007C00031F80548046001E00120F2E70020F0E77D
:1007D0009C000020A00000209800002008B500BF69
:1007E000002000900E48006840F480400C490860EA
:1007F0000846006800F48040009000BF00BF00BFC2
:1008000000200090081F006840F08050091F086019
:100810000846006800F08050009000BF00BF08BD8F
:10082000443802402DE9F05F80460D461646002709
:1008300002F0E2FF074639462A46334601F0070038
:10084000C0F1070ABAF1040F02D94FF0040A01E01F
:10085000C0F1070AD14600F1040ABAF1070F02D22B
:100860004FF0000A01E0A0F1030AD4464FF0010A5C
:100870000AFA09FAAAF1010A0AEA020A0AFA0CFAC1
:100880004FF0010B0BFA0CFBABF1010B0BEA030B66
:100890004AEA0B042146404602F09AFFBDE8F09F69
:1008A00000BF00F00702064B19684FF6FF0319401E
:1008B000044B0B4343EA0221014B196000BF704710
:1008C0000CED00E00000FA0570B504460D460CB9C9
:1008D000012070BD5848006800F00F00A84209D2FE
:1008E00055490D700846006800F00F00A84201D07D
:1008F0000120EEE7207800F0020002281DD12078C8
:1009000000F00400042805D14C48006840F4E05091
:100910004A490860207800F00800082805D14748B7
:10092000006840F46040454908604448006820F091
:10093000F000A168084341490860207800F00100F8
:10094000A8B36068012807D13C4808380068C0F3A4
:100950004040B8B90120BCE76068022802D0606856
:10096000032807D1354808380068C0F3406048B90B
:100970000120AEE7314808380068C0F3400008B9EC
:100980000120A6E72D48006820F0030061680843B5
:100990002A490860FFF7CCFE064609E0FFF7C8FECB
:1009A000801B41F28831884202D9032091E707E099
:1009B0002248006800F00C006168B0EB810FEDD1B7
:1009C0001D48006800F00F00A84209D91A490D70AF
:1009D0000846006800F00F00A84201D0012078E727
:1009E000207800F00400042807D11448006820F49F
:1009F000E050E168084311490860207800F00800E1
:100A0000082808D10D48006820F46040216940EAB8
:100A1000C1000A49086000F03FF808490968C1F3BD
:100A20000311074A515CC84006490860064800683F
:100A3000FFF7AEFE00204CE7003C024008380240C1
:100A400040410008A00000209800002001480068F4
:100A500070470000A000002000B5FFF7F7FF044931
:100A60000968C1F38221034A515CC84000BD0000FF
:100A7000083802405041000800B5FFF7E7FF04497D
:100A80000968C1F34231034A515CC84000BD00000F
:100A900008380240504100082DE9F04700240025A5
:100AA0000026A1462548006800F00C0020B104286B
:100AB00005D008283AD105E0DFF8849039E0DFF866
:100AC000849036E01D48001F006800F03F041B487A
:100AD000001F006800F4800078B11A481749091F08
:100AE0000968C1F38811A0FB01700146224600236A
:100AF0003846FFF7CDFB05460EE011480F49091FA8
:100B00000968C1F38811A0FB017001462246002349
:100B10003846FFF7BDFB05460848001F0068C0F3D4
:100B20000140401C4600B5FBF6F902E0DFF81090EA
:100B300000BF00BF4846BDE8F0870000083802400B
:100B40000024F400001BB700F8B504460CB90120DE
:100B5000F8BD207800F00100002874D0F948006842
:100B600000F00C0004280DD0F648006800F00C00DE
:100B7000082813D1F348001F006800F48000B0F586
:100B8000800F0BD1EF4808380068C0F340400028C0
:100B900059D06068002856D10120D9E700BF6068AD
:100BA000B0F5803F08D1E7480838006840F480304D
:100BB000E449083908601EE06068B0F5A02F0DD147
:100BC000E0480838006840F48020DE4908390860B1
:100BD0000846006840F4803008600CE0D9480838C6
:100BE000006820F48030D74908390860084600685A
:100BF00020F48020086000BF606890B1FFF798FD86
:100C0000054606E0FFF794FD401B642801D9032048
:100C10009EE7CC4808380068C0F340400028F1D077
:100C200011E0FFF785FD054606E0FFF781FD401B5B
:100C3000642801D903208BE7C24808380068C0F354
:100C400040400028F1D1207800F0020002285FD156
:100C5000BC48006800F00C0058B1BA48006800F0C9
:100C60000C0008281CD1B748001F006800F4800061
:100C7000B0B9B44808380068C0F3400020B1E0685B
:100C8000012801D0012063E7AE480838006820F051
:100C9000F800216940EAC100AA490839086037E034
:100CA000E06800B30120A8490860FFF741FD054650
:100CB00006E0FFF73DFD401B022801D9032047E76E
:100CC000A04808380068C0F340000028F1D09D48D3
:100CD0000838006820F0F800216940EAC10099490D
:100CE0000839086014E0002097490860FFF720FDEC
:100CF000054606E0FFF71CFD401B022801D9032032
:100D000026E7904808380068C0F340000028F1D179
:100D1000207800F0080008282CD16069A8B10120D3
:100D20008A490860FFF704FD054606E0FFF700FD6D
:100D3000401B022801D903200AE782486C30006872
:100D4000C0F340000028F1D014E000207F49086083
:100D5000FFF7EEFC054606E0FFF7EAFC401B022821
:100D600001D90320F4E677486C300068C0F34000F6
:100D70000028F1D1207800F00400042870D1002769
:100D800070483830006800F0805090B900BF0020F3
:100D900000906C483830006840F080506949383124
:100DA00008600846006800F08050009000BF00BF57
:100DB00001276748006800F48070B0B96448006893
:100DC00040F4807062490860FFF7B2FC054606E017
:100DD000FFF7AEFC401B022801D90320B8E65C48AF
:100DE000006800F480700028F2D000BFA0680128DD
:100DF00008D154486830006840F00100514968311A
:100E000008601DE0A06805280DD14E4868300068D4
:100E100040F004004B49683108600846006840F023
:100E2000010008600CE047486830006820F00100CD
:100E30004449683108600846006820F004000860F2
:100E400000BFA068A8B1FFF773FC054609E0FFF7F3
:100E50006FFC401B41F28831884202D9032077E6BB
:100E600026E0384868300068C0F340000028EED023
:100E700013E0FFF75DFC054608E0FFF759FC401B57
:100E800041F28831884201D9032061E62D4868305B
:100E90000068C0F340000028EFD1012F07D1294896
:100EA0003830006820F0805026493831086000BF93
:100EB000A069002845D02348006800F00C000828ED
:100EC0005DD0A069022845D100201F490866FFF7C0
:100ED0002FFC054606E0FFF72BFC401B022801D93A
:100EE000032035E6174808380068C0F34060002842
:100EF000F1D1D4E907010843616A40EA8111012276
:100F0000A06AC2EB500041EA00412C20005D41EA9A
:100F100000600C49091F086001200B490866FFF7B3
:100F200007FC054606E0FFF703FC401B022801D939
:100F300003200DE6034808380068C0F3406000282D
:100F4000F1D049E00838024000004742800E474295
:100F500000700040002021490866FFF7E9FB0546C4
:100F600006E0FFF7E5FB401B022801D90320EFE56F
:100F70001B480068C0F340600028F2D12CE0A06953
:100F8000012800D1E4E51648001D0668A069012883
:100F900020D006F48001E06981421BD106F03F01B8
:100FA000206A814216D147F6C0703040616AB0EBCA
:100FB000811F0FD106F440310122A06AC2EB50001C
:100FC000B1EB004F06D106F070612C20005DB1EB53
:100FD000006F01D00120BBE50020B9E500004742C9
:100FE0000038024070B504462546681EB0F1807F87
:100FF00001D301200FE0681E4FF0E02148610F216E
:101000004FF0FF3002F0E4FB00204FF0E021886158
:1010100007200861002070BD10B50346002200BF04
:1010200093F83C00012801D1022010BD012083F873
:101030003C0000BF22F0FF00CC6840EA040222F42A
:1010400040708C6840EA040222F480604C6840EAF8
:10105000040222F400600C6840EA040222F480508A
:101060000C6940EA040222F400504C6940EA040290
:1010700022F48040CC6940EA04021868426400BF50
:10108000002083F83C0000BF00BFCEE730B5024629
:101090000B4600BF92F83C00012801D1022030BD70
:1010A000012082F83C0000BF022082F83D00106859
:1010B00044681068816824F070041868044310685C
:1010C0004460184D1068A8421BD01068B0F1804FE2
:1010D00017D0154D1068A84213D0144D1068A842BF
:1010E0000FD0134D1068A8420BD0124D1068A842C3
:1010F00007D0114D1068A84203D0104D1068A842C7
:1011000005D121F0800158680143106881600120F9
:1011100082F83D0000BF002082F83C0000BF00BF05
:10112000BDE700000000014000040040000800404E
:10113000000C004000040140004001400018004045
:1011400010B504460CB9012010BD94F83D0028B933
:10115000002084F83C00204600F026F8022084F8A5
:101160003D00211D206801F07DF8012084F8460033
:1011700000BF84F83E0001213F2001554020015569
:101180004120015500BF00BF012084F842004320E8
:101190000155442001554520015500BF012084F828
:1011A0003D000020D0E7000008B50168B1F1804F94
:1011B0000FD100BF002100913049096841F00101C1
:1011C0002E4A11601146096801F00101009100BF2B
:1011D00053E02B4A016891420FD100BF00210091DA
:1011E0002649096841F00401244A11601146096842
:1011F00001F00401009100BF3FE0224A01689142E2
:101200000FD100BF002100911C49096841F008017D
:101210001A4A11601146096801F00801009100BFE7
:101220002BE0194A0168914211D100BF00210091C1
:101230001249091D096841F00201104A121D11608E
:101240001146096801F00201009100BF15E00F4A44
:101250000168914211D100BF002100910749091D89
:10126000096841F48031054A121D11601146096870
:1012700001F48031009100BF00BF08BD403802403A
:1012800000080040000C0040000401400040014004
:10129000014691F83D00012801D00120704702204D
:1012A00081F83D001A4B086898421BD00868B0F1DD
:1012B000804F17D0174B0868984213D0164B086818
:1012C00098420FD0154B086898420BD0144B086811
:1012D000984207D0134B0868984203D0124B086815
:1012E00098420CD10868806800F00702062A0CD0EA
:1012F0000868006840F001000B68186005E00868A5
:10130000006840F001000B6818600020C6E700008C
:10131000000001400004004000080040000C0040B4
:10132000000401400040014000180040014691F8CF
:101330003D00012801D001207047022081F83D00C6
:101340000868C06840F001000B68D8601A4B086854
:1013500098421BD00868B0F1804F17D0174B08682F
:10136000984213D0164B086898420FD0154B086866
:1013700098420BD0144B0868984207D0134B08686A
:10138000984203D0124B086898420CD108688068D4
:1013900000F00702062A0CD00868006840F001003F
:1013A0000B68186005E00868006840F001000B68F1
:1013B00018600020C0E70000000001400004004069
:1013C00000080040000C00400004014000400140C3
:1013D000001800402DE9F04104460D46002700BFEB
:1013E00094F83C00012802D10220BDE8F0810120E0
:1013F00084F83C0000BF022084F83D002068866825
:1014000026F0770626F47F462068866028685028F4
:1014100033D00CDC202850D004DC00284BD010281E
:1014200051D149E0302849D040284CD139E06028DA
:101430002DD0702807D0B0F5805F03D0B0F5005FE5
:1014400041D10DE041E0D5E902136A68206800F05F
:1014500086FF2068866846F077062068866034E05C
:10146000D5E902136A68206800F079FF2068806877
:1014700040F480402168886027E0EA686968206855
:1014800002F069F85021206802F05CF81DE0EA687B
:101490006968206802F072F86021206802F052F852
:1014A00013E0EA686968206802F055F84021206876
:1014B00002F048F809E000BF00BF00BF29682068BB
:1014C00002F040F801E0012700BF00BF012084F8CE
:1014D0003D0000BF002084F83C0000BF384684E790
:1014E00010B586B00446142101A8FEF77AFF2068E3
:1014F000B0F1804F1DD100BF00200090524800681D
:1015000040F00100504908600846006800F0010002
:10151000009000BF00BF0320019002200290002035
:10152000039004900120059001A94848FEF7EAFFC6
:1015300088E04749206888421ED100BF0020009003
:101540004148006840F008003F49086008460068CC
:1015500000F00800009000BF00BF4FF47040019001
:10156000022002900020039004900220059001A91F
:101570003848FEF7C7FF65E03749206888421ED12A
:1015800000BF002000903048006840F080002E49E5
:1015900008600846006800F08000009000BF00BFAF
:1015A0004FF44060019002200290002003900490CC
:1015B0000220059001A92948FEF7A4FF42E028492E
:1015C000206888421DD100BF002000901E4800689E
:1015D00040F480701C4908600846006800F4807080
:1015E000009000BF00BFE420019002200290002084
:1015F000039004900320059001A91A48FEF782FF8A
:1016000020E01949206888421CD100BF00200090CA
:101610000D48006840F001000B490860084600686A
:1016200000F00100009000BF00BF0C2001900220DC
:1016300002900020039004900320059001A9034824
:10164000FEF760FF06B010BD3038024000000240D7
:1016500000080040000C0240000C0040001C02404A
:101660000004014000200240004001402DE9F0410B
:1016700004460E461546002700BF94F83C0001289A
:1016800002D10220BDE8F081012084F83C0000BFB7
:1016900035B1042D09D0082D0CD00C2D14D10EE03D
:1016A0003146206801F0B0FE10E03146206800F0BD
:1016B00061FE0BE03146206801F0DEFE06E03146B7
:1016C000206801F015FF01E0012700BF00BF00BF47
:1016D000002084F83C0000BF3846D3E710B504462C
:1016E0000CB9012010BD94F83D0028B9002084F801
:1016F0003C00204600F025F8022084F83D00211D22
:10170000206800F0AFFD012084F8460000BF84F897
:101710003E0001213F200155402001554120015547
:1017200000BF00BF012084F842004320015544203F
:1017300001554520015500BF012084F83D000020DF
:10174000D0E77047F0B504460D46002615B994F869
:101750003E000BE0042D02D13F20005D06E0082D85
:1017600002D14020005D01E04120005D012801D050
:101770000120F0BD1DB9022084F83E000EE0042DCA
:1017800003D102213F20015508E0082D03D1022199
:101790004020015502E002214120015535B1042DC0
:1017A0000BD0082D10D00C2D1CD114E02068C0687F
:1017B00040F002002168C86016E02068C06840F070
:1017C00004002168C8600FE02068C06840F008008D
:1017D0002168C86008E02068C06840F010002168F7
:1017E000C86001E0012600BF00BFEEBB0122294610
:1017F000206800F0A3FD24492068884203D02349D3
:101800002068884201D1012000E0002028B1206832
:10181000406C40F40040216848641B4920688842BD
:101820001BD02068B0F1804F17D01949206888423A
:1018300013D01849206888420FD017492068884281
:101840000BD012492068884207D01449206888428A
:1018500003D01349206888420ED12068806800F0C8
:101860000707062F0ED000E00CE02068006840F06B
:1018700001002168086005E02068006840F0010070
:1018800021680860304674E7000001400004014010
:101890000004004000080040000C004000400140EF
:1018A000001800402DE9F04104460D461646002779
:1018B00000BF94F83C00012802D10220BDE8F0816D
:1018C000012084F83C0000BF36B1042E1BD0082E46
:1018D00031D00C2E5ED145E02946206801F094FD00
:1018E0002068806940F0080021688861206880696C
:1018F00020F0040021688861206880692969084314
:101900002168886148E02946206800F033FD20689E
:10191000806940F40060216888612068806920F453
:1019200080602168886120688069296940EA012017
:101930002168886130E02946206801F09DFD20681B
:10194000C06940F008002168C8612068C06920F0C3
:1019500004002168C8612068C069296908432168BA
:10196000C86119E02946206801F0C2FD2068C069FD
:1019700040F400602168C8612068C06920F480607C
:101980002168C8612068C069296940EA012021688E
:10199000C86101E0012700BF00BF00BF002084F83C
:1019A0003C0000BF384689E710B504460CB9012059
:1019B00010BD94F83D0028B9002084F83C00204672
:1019C00000F025F8022084F83D00211D206800F079
:1019D00049FC012084F8460000BF84F83E00012144
:1019E0003F200155402001554120015500BF00BF57
:1019F000012084F842004320015544200155452030
:101A0000015500BF012084F83D000020D0E7704759
:101A100070B504460D4615B994F83E000BE0042D50
:101A200002D13F20005D06E0082D02D14020005D7C
:101A300001E04120005D012801D0012070BD1DB9E9
:101A4000022084F83E000EE0042D03D102213F2045
:101A5000015508E0082D03D102214020015502E084
:101A600002214120015501222946206800F066FC30
:101A700023492068884203D022492068884201D146
:101A8000012000E0002028B12068406C40F40040B4
:101A9000216848641A49206888421BD02068B0F148
:101AA000804F17D018492068884213D01749206802
:101AB00088420FD01649206888420BD0114920680F
:101AC000884207D013492068884203D01249206811
:101AD00088420CD12068806800F00706062E0CD0E2
:101AE0002068006840F001002168086005E0206877
:101AF000006840F001002168086000209EE70000B7
:101B000000000140000401400004004000080040C3
:101B1000000C0040004001400018004010B5044691
:101B20000CB9012010BDA06900B100E000BF94F81D
:101B30003D0028B9002084F83C00204600F028F839
:101B4000242084F83D002068C06820F400502168FB
:101B5000C860204601F026FD2068006920F490400E
:101B6000216808612068406920F02A0021684861E6
:101B70002068C06840F400502168C86000202064DC
:101B8000202084F83D0084F83E000020CAE70000D1
:101B900010B586B00446142101A8FEF722FC1B49AB
:101BA000206888422FD100BF0020009018480068AC
:101BB00040F40030164908600846006800F4003020
:101BC000009000BF00BF00BF0020009010481038F8
:101BD000006840F008000E491039086008460068A7
:101BE00000F00800009000BF00BF602001900220BC
:101BF000029000200390032004900720059001A983
:101C00000448FEF77FFC06B010BD00000044004011
:101C100040380240000C024000BFFEE700B587B02C
:101C2000142102A8FEF7DDFB00BF002001907748D9
:101C3000006840F00100754908600846006800F03F
:101C40000100019000BF00BF00BF002001900846C6
:101C5000006840F0100008600846006800F01000BE
:101C6000019000BF00BF00BF00200190084600683F
:101C700040F0080008600846006800F00800019085
:101C800000BF00BF00BF002001900846006840F47C
:101C9000807008600846006800F48070019000BF02
:101CA00000BF00BF002001900846006840F02000FF
:101CB00008600846006800F02000019000BF00BFE7
:101CC00000BF002001900846006840F080000860D6
:101CD0000846006800F08000019000BF00BF00BF10
:101CE000002001900846006840F0040008600846A3
:101CF000006800F00400019000BF00BF00BF00209A
:101D000001900846006840F002000860084600683C
:101D100000F00200019000BF00BF002241F27001FC
:101D20003B48FEF7FFFC00224FF400713948FEF7F4
:101D3000F9FC002240F203413748FEF7F3FC002291
:101D400026213648FEF7EEFC002230213448FEF70B
:101D5000E9FC002201213348FEF7E4FC41F2700067
:101D600002900120039000200490059002A92848C9
:101D7000FEF7C8FB4FF40070029001200390002092
:101D80000490059002A92348FEF7BCFB40F20340F3
:101D900002900120039000200490059002A91E48A3
:101DA000FEF7B0FB1920029000200390049002A9D6
:101DB0001A48FEF7A7FB262002900120039000207E
:101DC0000490059002A91548FEF79CFB3020029074
:101DD0000120039000200490059002A91048FEF70E
:101DE00091FB0220029000200390049002A90D486C
:101DF000FEF788FB012002900390002004900590DC
:101E000002A90848FEF77EFB07B000BD303802404B
:101E1000001002400020024000140240000802406E
:101E2000000002400004024000B58DB0002009907F
:101E30000A900B900C90079008901C216846FEF7C2
:101E4000D0FA4FF0804023490860D120486000213B
:101E50002048816040F2E731C16000210161816169
:101E6000FFF76EF908B1FEF735FB4FF4805009908B
:101E700009A91848FFF7AEFA08B1FEF72BFB154881
:101E8000FFF792FD08B1FEF725FB002007900890B0
:101E900007A91048FFF7FAF808B1FEF71BFB60200E
:101EA00000900020019002900490002269460948A9
:101EB000FFF7F8FC08B1FEF70DFB04226946054860
:101EC000FFF7F0FC08B1FEF705FB0248FFF708FB3F
:101ED0000DB000BD6C12002000B58DB0002009903F
:101EE0000A900B900C90079008901C216846FEF712
:101EF00078FA2C482C490860D120486000212A48F3
:101F0000816040F2E731C160002101618161FFF72A
:101F100017F908B1FEF7DEFA4FF48050099009A9CD
:101F20002148FFF757FA08B1FEF7D4FA1E48FFF729
:101F30003BFD08B1FEF7CEFA00200790089007A9F4
:101F40001948FFF7A3F808B1FEF7C4FA6020009023
:101F50000020019002900490002269461248FFF789
:101F6000A1FC08B1FEF7B6FA042269460E48FFF755
:101F700099FC08B1FEF7AEFA082269460A48FFF755
:101F800091FC08B1FEF7A6FA0C2269460648FFF755
:101F900089FC08B1FEF79EFA0348FFF7A1FA0DB0DD
:101FA00000BD000000080040B412002000B58DB054
:101FB000002009900A900B900C90079008901C212B
:101FC0006846FEF70EFA244824490860532048600A
:101FD00000212248816040F6B731C16000210161D3
:101FE0008161FFF7ADF808B1FEF774FA4FF4805045
:101FF000099009A91948FFF7EDF908B1FEF76AFA47
:102000001648FFF7D1FC08B1FEF764FA00200790EC
:10201000089007A91148FFF739F808B1FEF75AFAF6
:1020200060200090002001900290049000226946F8
:102030000A48FFF737FC08B1FEF74CFA042269465C
:102040000648FFF72FFC08B1FEF744FA0348FFF7F4
:1020500047FA0DB000BD0000000C0040FC1200204B
:1020600000B595B0002011901290139014900F902D
:1020700010901C2108A8FEF7B4F920216846FEF74D
:10208000B0F9374837490860A72048600021354833
:10209000816040F6B731C160002101614161816119
:1020A000FFF74EF808B1FEF715FA4FF48050119083
:1020B00011A92C48FFF78EF908B1FEF70BFA294851
:1020C000FFF772FC08B1FEF705FA00200F901090A0
:1020D0000FA92448FEF7DAFF08B1FEF7FBF96020EC
:1020E0000890002009900A900B900C900D900E9093
:1020F000002208A91B48FFF7D5FB08B1FEF7EAF953
:10210000042208A91748FFF7CDFB08B1FEF7E2F952
:10211000082208A91348FFF7C5FB08B1FEF7DAF952
:102120000C2208A90F48FFF7BDFB08B1FEF7D2F952
:102130000020009001900290039004904FF4005012
:1021400005900020079069460648FEF765FF08B134
:10215000FEF7C0F90348FFF7C3F915B000BD000052
:10216000000401404413002000B58BB0002007900C
:10217000089009900A901C216846FEF732F91F4822
:102180001F4908605320486000211D488160A72135
:10219000C160002101618161FEF7D2FF08B1FEF745
:1021A00099F94FF48050079007A91548FFF712F9E5
:1021B00008B1FEF78FF91248FFF790FA08B1FEF761
:1021C00089F9302000900020019002200290002028
:1021D0000490002269460A48FFF748FA08B1FEF762
:1021E00079F9042269460648FFF740FA08B1FEF77C
:1021F00071F90348FFF774F90BB000BD00400140CE
:102200008C13002010B50B480B4908604FF4165092
:102210004860002108488160C16001610C21416172
:1022200000218161C161FFF779FC08B1FEF752F925
:1022300010BD000000440040D413002000BFFEE7A2
:1022400000BFFEE77047704710B5FEF777FA10BD84
:102250000348006840F470000149086070470000BE
:1022600088ED00E010B50268294B98420ED0B0F11D
:10227000804F0BD0274B984208D0274B984205D06F
:10228000264B984202D0264B984203D122F070028E
:102290004B681A431E4B984220D0B0F1804F1DD09E
:1022A0001C4B98421AD01C4B984217D01B4B98429B
:1022B00014D01B4B984211D01A4B98420ED01A4B97
:1022C00098420BD0194B984208D0194B984205D030
:1022D000184B984202D0184B984203D122F4407216
:1022E000CB681A4322F080034C6943EA040202607F
:1022F0008B68C3620B688362054B984202D0084B1F
:10230000984201D10B6903630123436110BD0000B2
:10231000000001400004004000080040000C0040A4
:1023200000040140004001400044014000480140D9
:1023300000180040001C00400020004030B501F0B3
:102340001F05012404FA05F3046A9C430462046A2D
:1023500001F01F0502FA05F52C43046230BD30B5CB
:102360000C46816821F47F4142EA03252543294335
:10237000816030BD30B5056A25F010050562026A3E
:102380004368846924F4E04424F440740D6844EA0A
:10239000052422F020028D6842EA0512124DA8425F
:1023A00000D103E0114DA84207D100BF22F0800206
:1023B000CD6842EA051222F040020B4DA84202D03D
:1023C0000A4DA84209D123F4806323F400634D69C8
:1023D00043EA85038D6943EA8503436084614D6860
:1023E0008563026230BD000000000140000401402E
:1023F00000BFFEE710B5044608210A48FEF78AF937
:10240000207002210848FEF785F960701021054808
:10241000FEF780F9A07001210248FEF77BF9E07019
:1024200010BD0000000802400004024010B5044640
:102430002078A8B96078012812D1A07801280FD19E
:10244000E07868B94B4890ED021AD0ED010A90EDA2
:10245000000A494800F0DEF9474800F0FBF988E03F
:10246000207858BB6078012828D1A078012825D190
:10247000E078012822D1414890ED021AD0ED010AFE
:1024800090ED000A3C4800F0C5F93B4800F0E2F945
:102490004FF47A60FEF722F8394890ED021AD0ED39
:1024A000010A90ED000A344800F0B4F9324800F017
:1024B000D1F940F2DC50FEF711F85AE020780128FB
:1024C0002AD16078012827D1A078012824D1E0788A
:1024D00010BB2C4890ED021AD0ED010A90ED000AD5
:1024E000254800F097F9244800F0B4F94FF47A60D9
:1024F000FDF7F4FF244890ED021AD0ED010A90EDAB
:10250000000A1D4800F086F91B4800F0A3F940F2CC
:10251000DC50FDF7E3FF2CE02078A0B9607890B99B
:10252000A07801280FD1E07868B9144890ED021A1C
:10253000D0ED010A90ED000A0F4800F06BF90E484B
:1025400000F088F915E0207898B96078012810D15A
:10255000A07870B9E07860B90A4890ED021AD0ED21
:10256000010A90ED000A044800F054F9024800F016
:1025700071F910BD4C000020A4000020880000204C
:10258000640000207C0000207000002000B593B0A3
:10259000302107A8FDF725FF142102A8FDF721FF30
:1025A00000BF002001902448006840F0805022497C
:1025B00008600846006800F08050019000BF00BF2E
:1025C00000BF002001901D48006840F440401B49B6
:1025D00008600846006800F44040019000BF00BF5A
:1025E000012007900004089002200D9041050E91F3
:1025F00006210F91A821109102211191042112911D
:1026000007A8FEF7A1FA08B1FDF764FF0F200290BA
:1026100002200390002004904FF4A05005904FF446
:1026200080500690052102A8FEF74EF908B1FDF78B
:1026300051FF13B000BD0000403802400070004060
:10264000014691F85800704780F8581070470FB451
:102650002DE9F04704461BAD95E8E0033D2209A9AA
:102660002046FDF78CFE9DF8610084F83D009DF842
:10267000620084F83E009DF863103F2001559DF8EC
:102680006410402001559DF86510412001559DF8CA
:10269000660084F842009DF86710432001559DF8BC
:1026A0006810442001559DF86910452001559DF89A
:1026B0006A0084F8460084F84850A4F84A60E76449
:1026C000A4F85080C4F85490294609A8FFF7A0F94F
:1026D000BDE8F0075DF814FB10B50446606E60B904
:1026E000B4F84A100022E06CFEF71CF8B4F8501061
:1026F0000022606DFEF716F81EE0606E00280CDD0B
:10270000B4F84A100122E06CFEF70CF8B4F850104F
:102710000022606DFEF706F80EE0606E00280BDA0E
:10272000B4F84A100022E06CFDF7FCFFB4F850103A
:102730000122606DFDF7F6FF94F8480028B9606E3D
:1027400001F0EBFC2168486318E094F84800042885
:1027500005D1606E01F0E1FC216888630EE094F819
:102760004800082805D1606E01F0D7FC2168C863D5
:1027700004E0606E01F0D1FC2168086410BD000027
:10278000002180F858109FED050A80ED170A40F2ED
:10279000E73101660021416681667047B522084233
:1027A0000FB470B50446179D3D2205A92046FDF7DC
:1027B000E6FD9DF8510084F83D009DF8520084F834
:1027C0003E009DF853103F2001559DF854104020C5
:1027D00001559DF85510412001559DF8560084F88B
:1027E00042009DF85710432001559DF85810442091
:1027F00001559DF85910452001559DF85A0084F85F
:10280000460084F84850294605A8FFF701F970BC36
:102810005DF814FB11B52DED040B00F5F0619DE89A
:102820001C0064311CC105B010BD70B504460E46D5
:1028300084F8E067002509E005EB451101EB410153
:1028400004EB8100314600F08AFC6D1C042DF3DBA3
:1028500070BD000070B52DED028B0446F7EE000A46
:10286000BFEE000A04F2E47001F02CFCF7EE000A5F
:10287000BFEE000A04F5FD6001F024FCF0EE000A52
:10288000B8EE000A04F2EC7001F01CFC04F2E470F3
:1028900090ED010AD0ED020A9FED561A01EE200AD2
:1028A00004F58060D0EDF90A30EE600ADFED520ADF
:1028B000C0EE208A2046FFF7C3FE08B9012001E0E0
:1028C0004FF0FF3000EE100AB8EEC00A28EE808A02
:1028D000B0EE480A204600F03FFC04F2E47090EDB0
:1028E000010AD0ED020A9FED451A01EE200A04F517
:1028F0008060D0EDF90A30EE200ADFED3F0AC0EE2D
:10290000208A04F5C670FFF79BFE08B9012001E09C
:102910004FF0FF3000EE100AB8EEC00A28EE808AB1
:10292000B0EE480A04F5C67000F016FC04F2E4703C
:1029300090ED010AD0ED020A9FED311A01EE200A56
:1029400004F58060D0EDF90AB7EE081A01EE200A0E
:10295000DFED290AC0EE208AE838FFF771FE08B9DA
:10296000012001E04FF0FF3000EE100AB8EEC00A7F
:1029700028EE808AB0EE480A04F5467000F0ECFBC1
:1029800004F2E47090ED010AD0ED020A9FED1D1AE9
:1029900001EE200A04F58060D0EDF90AB7EE081ABE
:1029A00001EE600ADFED140AC0EE208AA430FFF7C2
:1029B00047FE08B9012001E04FF0FF3000EE100A99
:1029C000B8EEC00A28EE808AB0EE480A04F2A440AD
:1029D00000F0C2FB002508E005EB451101EB4101C9
:1029E00004EB810000F0BEFB6D1C042DF4DBBDEC9C
:1029F000028B70BD091B9EBE4A0C823D091B9E3E88
:102A0000A8570ABF091B1E3F0FB430B5CFB004460C
:102A10003D2253A904F5E160FDF7B1FC9DF8891151
:102A200084F845179DF88A1184F846179DF88B1194
:102A300084F847179DF88C1184F848179DF88D117C
:102A400084F849179DF88E1184F84A179DF88F1164
:102A500084F84B179DF8901184F84C179DF891114C
:102A600084F84D179DF8921184F84E173D2265A900
:102A700004F5F360FDF783FC9DF8D11184F8D517B8
:102A80009DF8D21184F8D6179DF8D31184F8D71782
:102A90009DF8D41184F8D8179DF8D51184F8D9176A
:102AA0009DF8D61184F8DA179DF8D71184F8DB1752
:102AB0009DF8D81184F8DC179DF8D91184F8DD173A
:102AC0009DF8DA1184F8DE173D2265A93DA8FDF7CF
:102AD00056FC9DF8D1018DF831019DF8D2018DF899
:102AE00032019DF8D3118DF833119DF8D4118DF872
:102AF00034119DF8D5118DF835119DF8D6018DF85A
:102B000036019DF8D7118DF837119DF8D8118DF841
:102B100038119DF8D9118DF839119DF8DA018DF829
:102B20003A013D2253A92BA8FDF729FC9DF8890104
:102B30008DF8E9009DF88A018DF8EA009DF88B1167
:102B40008DF8EB109DF88C118DF8EC109DF88D111F
:102B50008DF8ED109DF88E018DF8EE009DF88F1127
:102B60008DF8EF109DF890118DF8F0109DF89111EF
:102B70008DF8F1109DF892018DF8F200DE48C11435
:102B80008023CDE926304822CDE928103DA914A89C
:102B9000FDF7F5FBD84801210223CDE91030CDE93E
:102BA000121000203C222EA90F906846FDF7E7FB8B
:102BB00020462BA90EC900F075FB00212046FFF727
:102BC00043FD3D2265A93DA8FDF7D9FB9DF8D10144
:102BD0008DF831019DF8D2018DF832019DF8D311A5
:102BE0008DF833119DF8D4118DF834119DF8D5115D
:102BF0008DF835119DF8D6018DF836019DF8D71165
:102C00008DF837119DF8D8118DF838119DF8D9112C
:102C10008DF839119DF8DA018DF83A013D2253A95A
:102C20002BA8FDF7ACFB9DF889018DF8E9009DF814
:102C30008A018DF8EA009DF88B118DF8EB109DF854
:102C40008C118DF8EC109DF88D118DF8ED109DF81C
:102C50008E018DF8EE009DF88F118DF8EF109DF824
:102C600090118DF8F0109DF891118DF8F1109DF8EC
:102C700092018DF8F200A04881154023CDE926305D
:102C80004822CDE928103DA914A8FDF778FB9B4800
:102C900010212023CDE91030CDE9121004203C2270
:102CA0002EA90F906846FDF76AFB04F5C6702BA9A4
:102CB0000EC900F0F7FA002104F5C670FFF7C4FC56
:102CC0003D2265A93DA8FDF75AFB9DF8D1018DF87D
:102CD00031019DF8D2018DF832019DF8D3118DF8A4
:102CE00033119DF8D4118DF834119DF8D5118DF85C
:102CF00035119DF8D6018DF836019DF8D7118DF864
:102D000037119DF8D8118DF838119DF8D9118DF82B
:102D100039119DF8DA018DF83A013D2253A92BA80B
:102D2000FDF72DFB9DF889018DF8E9009DF88A01DA
:102D30008DF8EA009DF88B118DF8EB109DF88C1141
:102D40008DF8EC109DF88D118DF8ED109DF88E0129
:102D50008DF8EE009DF88F118DF8EF109DF8901111
:102D60008DF8F0109DF891118DF8F1109DF89201F9
:102D70008DF8F200624881150315CDE9263048220E
:102D8000CDE928103DA914A8FDF7F9FA5B48811494
:102D90004023CDE91030CDE9121008203C222EA9A5
:102DA0000F906846FDF7EBFA04F546702BA90EC9A3
:102DB00000F078FA002104F54670FFF745FC3D224B
:102DC00065A93DA8FDF7DBFA9DF8D1018DF8310129
:102DD0009DF8D2018DF832019DF8D3118DF8331191
:102DE0009DF8D4118DF834119DF8D5118DF8351159
:102DF0009DF8D6018DF836019DF8D7118DF8371161
:102E00009DF8D8118DF838119DF8D9118DF8391128
:102E10009DF8DA018DF83A013D2253A92BA8FDF760
:102E2000AEFA9DF889018DF8E9009DF88A018DF8C8
:102E3000EA009DF88B118DF8EB109DF88C118DF840
:102E4000EC109DF88D118DF8ED109DF88E018DF828
:102E5000EE009DF88F118DF8EF109DF890118DF810
:102E6000F0109DF891118DF8F1109DF892018DF8F8
:102E7000F200224880210B02CDE926304822CDE91C
:102E800028103DA914A8FDF77AFA1E4801211E4A10
:102E90000423CDE91032CDE912100C203C222EA9DA
:102EA0000F906846FDF76BFA04F2A4402BA90EC9F7
:102EB00000F0F8F9002104F2A440FFF7C5FB00255B
:102EC00014E005EB451101EB410104EB810101F137
:102ED0006C009FED0E2ADFED0D1AB3EE091ADFED3F
:102EE0000C0A9FED0C0A00F0A3FD6D1C042DE8DB1D
:102EF0004FB030BC5DF814FB0014024000100240DB
:102F0000000C024000040240000802400000804F14
:102F100000803B450000FA440FB410B5A6B004464B
:102F20003D2229A904F5EA60FDF729FA9DF8E11090
:102F300084F88D179DF8E21084F88E179DF8E31041
:102F400084F88F179DF8E41084F890179DF8E51029
:102F500084F891179DF8E61084F892179DF8E71011
:102F600084F893179DF8E81084F894179DF8E910F9
:102F700084F895179DF8EA1084F896173D223BA92E
:102F800004F5F360FDF7FBF99DF8291184F8D517D6
:102F90009DF82A1184F8D6179DF82B1184F8D717BD
:102FA0009DF82C1184F8D8179DF82D1184F8D917A5
:102FB0009DF82E1184F8DA179DF82F1184F8DB178D
:102FC0009DF8301184F8DC179DF8311184F8DD1775
:102FD0009DF8321184F8DE173D2229A914A8FDF7C7
:102FE000CEF99DF8E1008DF88D009DF8E2008DF896
:102FF0008E009DF8E3108DF88F109DF8E4108DF889
:1030000090109DF8E5108DF891109DF8E6008DF870
:1030100092009DF8E7108DF893109DF8E8108DF858
:1030200094109DF8E9108DF895109DF8EA008DF840
:103030009600314802212023CDE91030CDE912104D
:1030400000203C2217A90F906846FDF798F904F577
:10305000C66014A90EC9FFF7FAFA002104F5C6608C
:10306000FFF7F2FA3D2229A914A8FDF788F99DF887
:10307000E1008DF88D009DF8E2008DF88E009DF83E
:10308000E3108DF88F109DF8E4108DF890109DF8E6
:10309000E5108DF891109DF8E6008DF892009DF8EE
:1030A000E7108DF893109DF8E8108DF894109DF8B6
:1030B000E9108DF895109DF8EA008DF896000F48FC
:1030C00010212023CDE91030CDE9121004203C223C
:1030D00017A90F906846FDF752F904F29C6014A9F5
:1030E0000EC9FFF7B4FA012104F29C60FFF7ACFAB5
:1030F00026B010BC5DF814FB00080240000002403E
:1031000010B5044604234FF4C6720F49204600F060
:1031100012FD044602236C220C4900F5C66000F043
:103120000AFDA0F5C664012084F8E00704F5F0600C
:10313000074B0ECB9FED070A64300EC004F580608C
:1031400080EDFC0A204610BDA53300088127000849
:10315000344100080000000080ED600A704780F8EC
:103160006C11704710B52DED028B044604F5B67452
:10317000D4E90101401A08EE100A94ED030AF8EEB2
:10318000C80A80EE801A94ED060A31EE000A84ED3A
:10319000060A94ED030AB8EEC81AC1EE000A9FEDC4
:1031A000400A80EE801A84ED041A6068A0602078DE
:1031B000A4F5B67480B9D4ED600A94ED180AB8EE9F
:1031C000C00A20EE800AD4ED170A80EE201ABDEE68
:1031D000C10A84ED190A56E094F86C0101281CD14B
:1031E000D4ED5F0AB0EE600A04F16C0000F02EFC32
:1031F000D4ED600AB0EE600A04F16C0000F004FB4C
:1032000004F16C0000F004FB04F16C0000F01BFC06
:10321000BDEEC00A84ED190A35E094F86C0102286D
:1032200031D1D4ED620AB0EE600A04F1C00000F0C2
:10323000EBFAD4ED610AB0EE600A04F1C00000F0D0
:1032400005FC04F1C00000F0E3FA04F1C00000F056
:10325000FAFBF0EE408A04F16C0000F0D5FAD4EDF0
:103260005F0AB0EE600A04F16C0000F0EFFB04F1BD
:103270006C0000F0CDFA04F16C0000F0E4FBBDEE50
:10328000C00A84ED190A40F2E732514204F16400A9
:1032900000F02CFF2046FFF71FFABDEC028B10BD9B
:1032A000CDCC4C3D0FB42DE9F05F0446DDE934ABE5
:1032B0001DAD95E8E0033D220BA92046FDF75FF820
:1032C0009DF8690084F83D009DF86A0084F83E008E
:1032D0009DF86B103F2001559DF86C104020015562
:1032E0009DF86D10412001559DF86E0084F8420054
:1032F0009DF86F10432001559DF870104420015532
:103300009DF87110452001559DF8720084F8460023
:1033100084F84850A4F84A60E764A4F85080C4F8E0
:1033200054903D2222A904F58A70FDF728F89DF8F3
:10333000C51084F851119DF8C61084F852119DF8FB
:10334000C71084F853119DF8C81084F854119DF8E3
:10335000C91084F855119DF8CA1084F856119DF8CB
:10336000CB1084F857119DF8CC1084F858119DF8B3
:10337000CD1084F859119DF8CE1084F85A11A4F894
:103380005CA1C4F860B13698A4F864013798C4F819
:10339000680129460BA8FEF73BFBBDE8F01F5DF86E
:1033A00014FB000010B504462046FFF7E9F9044677
:1033B0006C3000F04FFBA0F16C04543000F04AFB7D
:1033C000A0F1C004012084F86C010020C4F8700151
:1033D0009FED0B0AC4F8740184ED5E0A9FED090AA3
:1033E00084ED5F0A9FED070A84ED600A9FED050AF0
:1033F00084ED610A9FED030A84ED620A204610BD48
:1034000027745F420000000030B5056A25F0010511
:103410000562026A4368846924F0700424F003049E
:103420000D682C4322F002028D682A43104DA842F9
:1034300000D103E00F4DA84206D100BF22F00802E0
:10344000CD682A4322F00402094DA84202D0094D5A
:10345000A84207D123F4807323F400734D692B43F2
:103460008D692B43436084614D684563026230BDC2
:10347000000001400004014030B5056A25F4807564
:103480000562026A4368C46924F0700424F00304EE
:103490000D682C4322F400728D6842EA0522124D19
:1034A000A84200D103E0114DA84207D100BF22F489
:1034B0000062CD6842EA052222F480620A4DA842E9
:1034C00002D00A4DA84209D123F4805323F40053BB
:1034D0004D6943EA05138D6943EA05134360C461EE
:1034E0004D68C563026230BD000001400004014028
:1034F00030B5056A25F480550562036A4468C269DF
:1035000022F4E04222F440720D6842EA052223F4DC
:1035100000538D6843EA0533084DA84202D0084D98
:10352000A84204D124F480444D6944EA85144460DF
:10353000C2614D680564036230BD000000000140B7
:10354000000401400A46816821F0700142F007033F
:1035500019438160704730B50B461446026A056A0C
:1035600025F001050562816921F0F00141EA0411AD
:1035700022F00A021A438161026230BD30B50B4667
:103580001446056A25F0100505628169026A21F476
:10359000704141EA043122F0A00242EA0312816143
:1035A000026230BD2DE9F84F04462068006920F41E
:1035B0004050E1680843216808612169A068084318
:1035C00061690843E169084300902068C06849F2D6
:1035D0000C618843009908432168C86020684069ED
:1035E00020F44070A1690843216848617649206849
:1035F000884203D075492068884203D1FDF73CFA20
:10360000814602E0FDF728FA8146E069B0F5004FF7
:103610006CD102206168A0FB015003461920A9FB70
:10362000007001462A463846FCF732FE6421B0FBA2
:10363000F1F04FEA001A02206168A0FB01510B462D
:103640001920A9FB00712A463846FCF721FE834663
:1036500002206168A0FB015003461920A9FB0071FC
:103660002A463846FCF714FE6421B0FBF1F000EB6B
:10367000C00101EB0010ABEB8000322101EBC00078
:103680006421B0FBF1F000F0F8000AEB400A0220E0
:103690006168A0FB015003461920A9FB0070014698
:1036A0002A463846FCF7F4FD834602206168A0FBF9
:1036B000015003461920A9FB00712A463846FCF741
:1036C000E7FD6421B0FBF1F000EBC00101EB00105D
:1036D000ABEB8000322101EBC0006421B0FBF1F0C4
:1036E00000F007005044216888606AE004206168A7
:1036F000A0FB015003461920A9FB007001462A4691
:103700003846FCF7C5FD824604206168A0FB0150E5
:1037100003461920A9FB007001462A463846FCF7EB
:10372000B7FD6421B0FBF1F000EBC00101EB00102C
:10373000AAEB8000322101EB00106421B0FBF1F014
:1037400000F0F00A04206168A0FB01700346192014
:10375000A9FB00513A462846FCF79AFD6421B0FBCC
:10376000F1F00AEB001A04206168A0FB01510B463E
:103770001920A9FB00712A463846FCF789FD8346CB
:1037800004206168A0FB015003461920A9FB0070CA
:1037900001462A463846FCF77BFD6421B0FBF1F078
:1037A00000EBC00101EB0010ABEB8000322101EB1C
:1037B00000106421B0FBF1F000F00F0050442168CC
:1037C0008860BDE8F88F000000100140001401403F
:1037D00010B5002804DB0A07130E054A135406E04F
:1037E0000A07140E034A00F00F031B1FD45410BD28
:1037F00000E400E018ED00E002480068C0F3022099
:10380000704700000CED00E080ED060A70470000F4
:1038100010B52DED048B044694ED060AD4ED070A8D
:1038200030EE600A84ED080AD4ED080AB0EE600AB2
:1038300000F066FCB0EE408A94ED100AB4EEC80ABF
:10384000F1EE10FA06DD9FED790A84ED090ABDEC70
:10385000048B10BD94ED010AD4ED080A20EE200A75
:1038600084ED0D0A94ED110AB5EEC00AF1EE10FADE
:1038700009D194ED110AB5EEC00AF1EE10FA02D1A9
:10388000F7EE008A39E094ED120AB4EEC80AF1EEC0
:1038900010FA02DDF7EE008A24E094ED110AD4ED6F
:1038A000120A70EE200A94ED120AB4EEC80AF1EE84
:1038B00010FA01D8012000E0002000EE100AB8EE56
:1038C000C00AF4EEC00AF1EE10FA0BDD94ED110A15
:1038D000D4ED120A30EE200A30EE480AD4ED110A77
:1038E000C0EE208A94ED120AB4EEC80AF1EE10FA86
:1038F00003D89FED4E0AF0EE408A94ED0B0AD4ED0A
:10390000000A60EEA80A94ED081A00EE810A84ED20
:103910000B0A94ED040AB5EEC00AF1EE10FA19D0C4
:1039200094ED040AD4ED020A80EE201AB0EE419A1A
:1039300094ED040AB1EE400AD4ED020A80EE201A9A
:10394000F0EE419AF0EE490AB0EE690A04F12C005B
:1039500000F0B8FB94ED130AB5EEC00AF1EE10FAD0
:1039600008D194ED020AD4ED0B0A20EE200A84ED72
:103970000E0A13E094ED130AB4EEC80AF1EE10FA41
:1039800008DD94ED020AD4ED0B0A20EE200A84ED46
:103990000E0A03E09FED250A84ED0E0A94F850000C
:1039A00001280CD194ED070AD4ED0A0A30EE600A22
:1039B000D4ED030A20EE200A84ED0F0A0BE094ED0B
:1039C000080AD4ED0C0A30EE600AD4ED030A20EEAA
:1039D000200A84ED0F0A94ED080A84ED0C0A94ED98
:1039E000070A84ED0A0A94ED0D0AD4ED0E0A30EEB2
:1039F000200AD4ED0F0A30EE200A84ED090A94ED76
:103A0000050AB5EEC00AF1EE10FA0DD094ED051AD4
:103A1000F0EE410A94ED051AB1EE411AB0EE410AFA
:103A200004F1240000F04EFB00BF10E7000000008E
:103A300080ED010AC0ED020A80ED031AC0ED041A00
:103A400080ED052A704790ED090A704780ED070A5E
:103A5000704700009FED190A80ED000A9FED180ADB
:103A600080ED060A9FED160A80ED070A9FED140A05
:103A700080ED080A9FED120A80ED090A9FED100AF9
:103A800080ED0D0A9FED0E0A80ED0E0A9FED0C0AE7
:103A900080ED0F0A9FED0A0A80ED100A9FED080ADB
:103AA00080ED110A9FED060A80ED120A9FED040ACF
:103AB00080ED130A002180F850107047CDCCCC3D2A
:103AC000000000002DE9F05F04460D4616461F4633
:103AD000DDE90CABDDE90A89256066602761606875
:103AE00020B9642021680968486313E060680428ED
:103AF00004D164202168096888630BE060680828A5
:103B000004D1642021680968C86303E06420216847
:103B1000096808642068FDF7BBFBD4E90001FDF7E4
:103B200011FEC4F81480C4F81CA0A4F81890A4F8DE
:103B300020B0BDE8F09F2DE9F0411C4617460E006D
:103B4000804607D0054602E02846B0473D4420465F
:103B5000641EF9D24046BDE8F081000010B503486C
:103B6000FFF7CEFA0248FFF7CBFA10BDA400002001
:103B700098080020C6B0FCF7EDFDFEF707FDFEF744
:103B80004DF8FEF7A9F9FEF711FAFEF769FAFEF70C
:103B90004BF9FEF737FBFEF7E7FA3D22FE4934A862
:103BA000FCF7EDFBFC4890F83D008DF80D01FA485C
:103BB00090F83E008DF80E01F74890F83F108DF810
:103BC0000F1190F840108DF8101190F841108DF8F9
:103BD000111190F842008DF81201EF4890F843104F
:103BE0008DF8131190F844108DF8141190F84510C9
:103BF0008DF8151190F846008DF816013D22E64922
:103C000022A8FCF7BCFBE44890F83D008DF8C50005
:103C1000E14890F83E008DF8C600DF4890F83F106C
:103C20008DF8C71090F840108DF8C81090F841102A
:103C30008DF8C91090F842008DF8CA00D64890F867
:103C400043108DF8CB1090F844108DF8CC1090F8FC
:103C500045108DF8CD1090F846008DF8CE00482222
:103C600034A90FA8FCF78BFB3C2225A96846FCF77A
:103C700086FBCA4822A90EC9FEF7C6FE0021C74826
:103C8000FEF7D3FD3D22C44934A8FCF778FBC248B7
:103C900090F83D008DF80D01BF4890F83E008DF87A
:103CA0000E01BD4890F83F108DF80F1190F84010AC
:103CB0008DF8101190F841108DF8111190F8420014
:103CC0008DF81201B44890F843108DF8131190F854
:103CD00044108DF8141190F845108DF8151190F8D6
:103CE00046008DF816013D22AD4922A8FCF747FB9E
:103CF000AB4890F83D008DF8C500A94890F83E000B
:103D00008DF8C600A64890F83F108DF8C71090F8BF
:103D100040108DF8C81090F841108DF8C91090F837
:103D200042008DF8CA009E4890F843108DF8CB10E1
:103D300090F844108DF8CC1090F845108DF8CD1007
:103D400090F846008DF8CE00482234A90FA8FCF761
:103D500016FB3C2225A96846FCF711FB914822A9D5
:103D60000EC9FFF7D9F83D228F4934A8FCF707FBAD
:103D70008D4890F83D008DF80D018B4890F83E007D
:103D80008DF80E01884890F83F108DF80F1190F8CB
:103D900040108DF8101190F841108DF8111190F825
:103DA00042008DF81201804890F843108DF81311ED
:103DB00090F844108DF8141190F845108DF81511F5
:103DC00090F846008DF8160100203C2237A90F908C
:103DD0006846FCF7D4FA754834A90EC9FEF7E0FC32
:103DE0003D22734934A8FCF7CAFA714890F83D00A7
:103DF0008DF80D016E4890F83E008DF80E016C486C
:103E000090F83F108DF80F1190F840108DF81011B8
:103E100090F841108DF8111190F842008DF81201C0
:103E2000634890F843108DF8131190F844108DF802
:103E3000141190F845108DF8151190F846008DF882
:103E400016010C203C2237A90F906846FCF797FA20
:103E50005648503034A90EC9FEF7A2FC3D22544901
:103E600034A8FCF78CFA524890F83D008DF80D010B
:103E70004F4890F83E008DF80E014D4890F83F10E5
:103E80008DF80F1190F840108DF8101190F8411036
:103E90008DF8111190F842008DF81201444890F805
:103EA00043108DF8131190F844108DF8141190F808
:103EB00045108DF8151190F846008DF81601082070
:103EC0003C2237A90F906846FCF759FA3748A030D2
:103ED00034A90EC9FEF764FC3D22354934A8FCF72D
:103EE0004EFA334890F83D008DF80D01304890F8B7
:103EF0003E008DF80E012E4890F83F108DF80F11FE
:103F000090F840108DF8101190F841108DF81111B3
:103F100090F842008DF81201254890F843108DF872
:103F2000131190F844108DF8141190F845108DF885
:103F3000151190F846008DF8160104203C2237A98F
:103F40000F906846FCF71BFA1848F03034A90EC9E8
:103F5000FEF726FC3D22164934A8FCF710FA144857
:103F600090F83D008DF80D01114890F83E008DF855
:103F70000E010F4890F83F108DF80F1190F8401087
:103F80008DF8101190F841108DF8111190F8420041
:103F90008DF8120106480DE0B4120020A4000020A4
:103FA0006C12002098080020FC1200208C100020C9
:103FB0004413002090F843108DF8131190F844102A
:103FC0008DF8141190F845108DF8151190F84600F1
:103FD0008DF8160100203C2237A90F906846FCF7A7
:103FE000CEF92E4834A90EC9FEF7DAFB3D222C4942
:103FF00034A8FCF7C4F92A4890F83D008DF80D016B
:10400000274890F83E008DF80E01254890F83F10A3
:104010008DF80F1190F840108DF8101190F84110A4
:104020008DF8111190F842008DF812011C4890F89B
:1040300043108DF8131190F844108DF8141190F876
:1040400045108DF8151190F846008DF816010420E2
:104050003C2237A90F906846FCF791F9114834A922
:104060000EC9FEF79DFB4FF400700F4942000F4B45
:10407000CDE90032CDE902100D4B00220D490E486A
:10408000FFF720FD0D48FDF751F905E00C48FEF75C
:10409000B1F90B48FEF7CAF9F8E70000CC1100208F
:1040A000FC1200201C1200200020024000140240DC
:1040B00040420F008C13002018140020B41200207E
:1040C0000000002090ED001AB4EEC01AF1EE10FAD4
:1040D00002D280ED000A08E090ED001AB4EEE01A7A
:1040E000F1EE10FA01DDC0ED000A704703688B4263
:1040F00001DA016003E00368934200DD026070476B
:10410000F0EE400AF5EEC00AF1EE10FA02DDB0EE74
:10411000600A7047B1EE600AFBE70146002901DD45
:10412000084670474842FCE74FF04070E1EE100A45
:1041300070470000000000000000000000000000C8
:104140000000000000000000010203040607080947
:1041500000000000010203047C4100080000002070
:10416000A4000000E801000820420008A40000208C
:10417000FC19000004020008E5F9FFFF0000000040
:10418000000000009A99193F0000000000000000A4
:10419000000000000000803F000000000000000060
:1041A000000080BF9A99193F000000000000000045
:1041B0009A9919BF000000000000000000000000F4
:1041C0009A9919BF00000000000000009A99193F59
:1041D00000000000000000009A9919BF00000000D4
:1041E0009A9919BF00000000000000009A99193F39
:1041F00000000000000000000000000000000000BF
:10420000000080BF00000000000000000000803FB0
:104210000000000010000000010000000024F40075
:04000005080001AD41
:00000001FF
