:020000040800F2
:10000000501C002051020008552F0008F727000857
:10001000512F0008CF0400089131000800000000B3
:100020000000000000000000000000005B2F00083E
:10003000E504000800000000592F00085D2F0008AB
:100040006B0200086B0200086B0200086B020008DC
:100050006B0200086B0200086B0200086B020008CC
:100060006B0200086B0200086B0200086B020008BC
:10007000D50400086B0200086B0200086B02000840
:100080006B0200086B0200086B0200086B0200089C
:100090006B0200086B0200086B0200086B0200088C
:1000A0006B020008792F00086B0200086B02000841
:1000B0006B0200086B0200086B0200086B0200086C
:1000C0006B0200086B0200086B0200086B0200085C
:1000D0006B0200086B0200086B0200087131000817
:1000E0006B0200086B0200086B0200086B0200083C
:1000F0006B0200086B0200086B0200086B0200082C
:100100006B0200086B0200086B0200086B0200081B
:100110006B0200086B0200086B0200086B0200080B
:100120006B0200086B0200086B0200086B020008FB
:100130006B0200086B0200086B0200086B020008EB
:100140006B0200086B0200086B0200086B020008DB
:100150006B0200086B0200086B0200088131000886
:100160006B0200086B0200086B0200086B020008BB
:100170006B0200086B0200086B0200080000000020
:100180006B0200086B020008153100086B020008C2
:100190006B0200086B0200086B0200086B0200088B
:1001A00000000000000000006B02000800F002F8F0
:1001B00000F03EF80AA090E8000C82448344AAF1C3
:1001C0000107DA4501D100F033F8AFF2090EBAE8C1
:1001D0000F0013F0010F18BFFB1A43F0010318477B
:1001E0006C4900008C490000103A24BF78C878C1DF
:1001F000FAD8520724BF30C830C144BF04680C602D
:10020000704700000023002400250026103A28BF74
:1002100078C1FBD8520728BF30C148BF0B60704778
:100220001FB504F077FC00F007F91FBD10B510BD35
:1002300000F014F91146FFF7F3FF04F091F900F014
:1002400032F903B4FFF7F2FF03BC00F039F9000004
:100250000948804709480047FEE7FEE7FEE7FEE75A
:10026000FEE7FEE7FEE7FEE7FEE7FEE70448054996
:10027000054A064B70470000652F0008AD010008D5
:1002800050160020501C002050180020501800204C
:1002900053EA020C00F069802DE9F04B4FF00006A4
:1002A000002B1FBFB3FA83F503FA05F424FA05F611
:1002B0005E4012BF1643B2FA82F502FA05F4C5F1A8
:1002C00020051EBF22FA05FC44EA0C04203556EA3C
:1002D000044C4FEA144418BF641C4FF000084FF060
:1002E0000009904271EB030C39D3002919BFB1FA10
:1002F00081F701FA07F6B0FA80F700FA07F6C7F1BE
:1003000020071EBF20FA07FC46EA0C062037B6FB82
:10031000F4FCA7EB0507103F07F01F0BCBF12006FD
:100320000CFA0BFB2CFA06F644BFB3460026202F2E
:10033000A4BF5E464FF0000B5BEA060C08BF4FF00F
:10034000010B19EB0B09ABFB027C48EB0608C01B49
:1003500006FB02CC0BFB03CC71EB0C01C1E70B4697
:10036000024641464846BDE8F08B13B54FF0000009
:100370004FF00001AFF30080BDE81C40704710B59E
:10038000203AC0F00B80B1E81850203AA0E818508D
:10039000B1E81850A0E81850BFF4F5AF5FEA027C4E
:1003A00024BFB1E81850A0E8185044BF18C918C0BD
:1003B000BDE810405FEA827C24BF51F8043B40F85E
:1003C000043B08BF7047D20728BF31F8023B48BF43
:1003D00011F8012B28BF20F8023B48BF00F8012B81
:1003E00070474FF0000200B51346944696462039F8
:1003F00022BFA0E80C50A0E80C50B1F12001BFF4DE
:10040000F7AF090728BFA0E80C5048BF0CC05DF843
:1004100004EB890028BF40F8042B08BF704748BF91
:1004200020F8022B11F0804F18BF00F8012B704705
:10043000704770477047000070B5064C7C44064D0D
:100440007D4403E0206820448047241DAC42F9D15C
:1004500070BD00002C4700002C470000754600F0DE
:100460002BF8AE4605006946534620F00700854646
:1004700018B020B5FFF7FAFEBDE820404FF00006A7
:100480004FF000074FF000084FF0000B21F007017C
:10049000AC46ACE8C009ACE8C009ACE8C009ACE8BF
:1004A000C0098D46704710B50446AFF30080204662
:1004B000BDE81040FFF7C5BE00487047F0150020AA
:1004C00001491820ABBEFEE726000200704700BFBE
:1004D000FEE7000010B5024800F072F810BD000001
:1004E00090150020704772B600BFFEE770B5044655
:1004F000A56D00F01DFB064694F83500022808D0D3
:100500008020606500BF002084F8340000BF012017
:1005100070BD2068006820F016002168086020681F
:10052000406920F0800021684861206C08B9A06C07
:1005300028B12068006820F0080021680860206861
:10054000006820F001002168086010E000F0F0FA77
:10055000801B05280BD920206065032084F8350016
:1005600000BF002084F8340000BF0320D0E72068DB
:10057000006800F001000028E8D194F85C103F20EA
:100580008840A860012084F8350000BF002084F86E
:10059000340000BF00BFBBE7014691F835000228D8
:1005A00003D08020486501207047052081F8350080
:1005B0000868006820F001000A6810600020F3E776
:1005C000F8B50446002000908C4800684FF416519E
:1005D000B0FBF1F7A56D2E6894F85C1008208840F8
:1005E000304098B12068006800F0040070B12068C5
:1005F000006820F004002168086094F85C1008206E
:100600008840A860606D40F00100606594F85C105F
:1006100001208840304068B12068406900F08000C7
:1006200040B194F85C1001208840A860606D40F0F3
:100630000200606594F85C1004208840304068B186
:100640002068006800F0020040B194F85C100420BB
:100650008840A860606D40F00400606594F85C100C
:1006600010208840304078B32068006800F008000F
:1006700050B394F85C1010208840A860206800688F
:1006800000F4802080B12068006800F4002028B9C0
:10069000206CC8B12046216C884715E0A06C98B149
:1006A0002046A16C88470FE02068006800F4807045
:1006B00028B92068006820F0080021680860206CD4
:1006C00010B12046216C884794F85C1020208840A7
:1006D0003040002865D02068006800F01000002835
:1006E0005FD094F85C1020208840A86094F8350012
:1006F000052828D12068006820F0160021680860CD
:100700002068406920F0800021684861206C08B9A9
:10071000A06C28B12068006820F0080021680860FB
:1007200094F85C103F208840A860012084F83500D0
:1007300000BF002084F8340000BF206D10B12046B7
:10074000216D8847F8BD2068006800F4802080B1E2
:100750002068006800F4002028B9606C10B12046C1
:10076000616C88471DE0E06BD8B12046E16B88479B
:1007700017E02068006800F4807068B9206800689D
:1007800020F0100021680860012084F8350000BFC7
:10079000002084F8340000BFE06B10B12046E16B0C
:1007A0008847606D38B3606D00F00100F0B105203E
:1007B00084F835002068006820F001002168086096
:1007C00000BF0098401C0090B84200D905E02068A6
:1007D000006800F001000028F3D100BF012084F878
:1007E000350000BF002084F8340000BFE06C10B179
:1007F0002046E16C884700BFA4E70000D400002039
:100800002DE9F0410446002500F092F9074614B99D
:100810000120BDE8F081606A00B100BF022084F8C9
:10082000350000BF002084F8340000BF2068006855
:1008300020F00100216808600AE000F079F9C01B8F
:10084000052805D920206065032084F83500E0E7FD
:100850002068006800F001000028EED120680568DB
:1008600021480540D4E901010843E16808432169B2
:10087000084361690843A1690843E1690843216AA3
:1008800008430543606A042803D1D4E90B010843F7
:100890000543206805602068456925F00705606A02
:1008A0000543606A04280DD1A06A0543E06A48B197
:1008B000204603F0F5F928B140206065012084F856
:1008C0003500A6E720684561204603F03FFA06465A
:1008D00094F85C103F208840B060002060650120E3
:1008E00084F83500002094E73F8010F070B504468E
:1008F00000F01EF906462546681C10B10448007831
:10090000054400BF00F014F9801BA842FAD370BD63
:10091000D0000020F8B502460B4600250024002038
:100920000021E0E0012606FA01F51E6806EA05044A
:10093000AC4274D11E7906F00306012E04D01E7954
:1009400006F00306022E13D190684F000326BE4026
:10095000B0434F00DE68BE403043906050680126CF
:100960008E40B0431E79C6F300168E40304350606F
:100970001E7906F00306032E09D0D0684F00032627
:10098000BE40B0434F009E68BE403043D0601E79E9
:1009900006F00306022E13D1CF0802F1200656F806
:1009A00027004E07F70E0F26BE40B0434F07FF0E3D
:1009B0001E69BE403043CF0802F1200646F82700EA
:1009C00010684F000326BE40B0431E7906F00306B0
:1009D0004F00BE40304310605E6806F44036002E83
:1009E0001DD000BF00260096414E366846F4804672
:1009F0003F4F3E603E46366806F48046009600BF94
:100A000000BF3C4E8F0856F827008E07370F0F2681
:100A1000BE40B043384EB24202D100262EE061E023
:100A2000364EB24201D1012628E0354EB24201D104
:100A3000022623E0334EB24201D103261EE0324E9D
:100A4000B24201D1042619E0304EB24201D105264E
:100A500014E02F4EB24201D106260FE02D4EB242D5
:100A600001D107260AE02C4EB24201D1082605E04A
:100A70002A4EB24201D1092600E00A268F073F0F15
:100A8000BE4030431B4E8F0846F82700244E306886
:100A9000A0435E6806F4801606B12043204E306005
:100AA000361D3068A0435E6806F4001606B1204388
:100AB0001B4E361D30601A4E361F3068A0435E68EC
:100AC00006F4003606B12043154E361F3060361F3F
:100AD0003068A0435E6806F4803606B12043104EAD
:100AE000083E3060491C1029FFF41CAFF8BD00001F
:100AF000443802400838014000000240000402402F
:100B000000080240000C02400010024000140240A5
:100B100000180240001C0240002002400024024055
:100B2000083C01400AB1816101E00B048361704718
:100B30000148006870470000C800002003480068B2
:100B4000034909780844014908607047C80000203B
:100B5000D000002010B50D48006840F400700B492B
:100B600008600846006840F4806008600846006835
:100B700040F480700860032000F0A2F80F2000F01D
:100B800007F800F02BF8002010BD0000003C0240E8
:100B900070B504460E4800784FF47A71B1FBF0F05E
:100BA0000C490968B1FBF0F5284600F02BFC08B1B0
:100BB000012070BD102C07D200222146501E00F0EB
:100BC00041F80548046001E00120F2E70020F0E769
:100BD000D0000020D4000020CC00002008B500BFC9
:100BE000002000900E48006840F480400C490860E6
:100BF0000846006800F48040009000BF00BF00BFBE
:100C000000200090081F006840F08050091F086015
:100C10000846006800F08050009000BF00BF08BD8B
:100C20004438024001460846002809DB00F01F0353
:100C300001229A4043099B0003F1E023C3F80021FD
:100C400000BF70472DE9F05F80460D46164600272D
:100C500003F08AFB074639462A46334601F007006F
:100C6000C0F1070ABAF1040F02D94FF0040A01E0FB
:100C7000C0F1070AD14600F1040ABAF1070F02D207
:100C80004FF0000A01E0A0F1030AD4464FF0010A38
:100C90000AFA09FAAAF1010A0AEA020A0AFA0CFA9D
:100CA0004FF0010B0BFA0CFBABF1010B0BEA030B42
:100CB0004AEA0B042146404603F042FBBDE8F09FA0
:100CC00000BF00F00702064B19684FF6FF031940FA
:100CD000044B0B4343EA0221014B196000BF7047EC
:100CE0000CED00E00000FA0570B504460D460CB9A5
:100CF000012070BD5848006800F00F00A84209D2DA
:100D000055490D700846006800F00F00A84201D058
:100D10000120EEE7207800F0020002281DD12078A3
:100D200000F00400042805D14C48006840F4E0506D
:100D30004A490860207800F00800082805D1474893
:100D4000006840F46040454908604448006820F06D
:100D5000F000A168084341490860207800F00100D4
:100D6000A8B36068012807D13C4808380068C0F380
:100D70004040B8B90120BCE76068022802D0606832
:100D8000032807D1354808380068C0F3406048B9E7
:100D90000120AEE7314808380068C0F3400008B9C8
:100DA0000120A6E72D48006820F003006168084391
:100DB0002A490860FFF7BCFE064609E0FFF7B8FEC7
:100DC000801B41F28831884202D9032091E707E075
:100DD0002248006800F00C006168B0EB810FEDD193
:100DE0001D48006800F00F00A84209D91A490D708B
:100DF0000846006800F00F00A84201D0012078E703
:100E0000207800F00400042807D11448006820F47A
:100E1000E050E168084311490860207800F00800BC
:100E2000082808D10D48006820F46040216940EA94
:100E3000C1000A49086000F03FF808490968C1F399
:100E40000311074A515CC84006490860064800681B
:100E5000FFF79EFE00204CE7003C024008380240AD
:100E6000344B0008D4000020CC000020014800686A
:100E700070470000D400002000B5FFF7F7FF0449D9
:100E80000968C1F38221034A515CC84000BD0000DB
:100E900008380240444B000800B5FFF7E7FF04495B
:100EA0000968C1F34231034A515CC84000BD0000EB
:100EB00008380240444B00082DE9F0470024002583
:100EC0000026A1462548006800F00C0020B1042847
:100ED00005D008283AD105E0DFF8849039E0DFF842
:100EE000849036E01D48001F006800F03F041B4856
:100EF000001F006800F4800078B11A481749091FE4
:100F00000968C1F38811A0FB017001462246002345
:100F10003846FFF7BDF905460EE011480F49091F95
:100F20000968C1F38811A0FB017001462246002325
:100F30003846FFF7ADF905460848001F0068C0F3C2
:100F40000140401C4600B5FBF6F902E0DFF81090C6
:100F500000BF00BF4846BDE8F087000008380240E7
:100F60000024F400001BB700F8B504460CB90120BA
:100F7000F8BD207800F00100002874D0F94800681E
:100F800000F00C0004280DD0F648006800F00C00BA
:100F9000082813D1F348001F006800F48000B0F562
:100FA000800F0BD1EF4808380068C0F3404000289C
:100FB00059D06068002856D10120D9E700BF606889
:100FC000B0F5803F08D1E7480838006840F4803029
:100FD000E449083908601EE06068B0F5A02F0DD123
:100FE000E0480838006840F48020DE49083908608D
:100FF0000846006840F4803008600CE0D9480838A2
:10100000006820F48030D749083908600846006835
:1010100020F48020086000BF606890B1FFF788FD71
:10102000054606E0FFF784FD401B642801D9032034
:101030009EE7CC4808380068C0F340400028F1D053
:1010400011E0FFF775FD054606E0FFF771FD401B57
:10105000642801D903208BE7C24808380068C0F330
:1010600040400028F1D1207800F0020002285FD132
:10107000BC48006800F00C0058B1BA48006800F0A5
:101080000C0008281CD1B748001F006800F480003D
:10109000B0B9B44808380068C0F3400020B1E06837
:1010A000012801D0012063E7AE480838006820F02D
:1010B000F800216940EAC100AA490839086037E010
:1010C000E06800B30120A8490860FFF731FD05463C
:1010D00006E0FFF72DFD401B022801D9032047E75A
:1010E000A04808380068C0F340000028F1D09D48AF
:1010F0000838006820F0F800216940EAC1009949E9
:101100000839086014E0002097490860FFF710FDD7
:10111000054606E0FFF70CFD401B022801D903201D
:1011200026E7904808380068C0F340000028F1D155
:10113000207800F0080008282CD16069A8B10120AF
:101140008A490860FFF7F4FC054606E0FFF7F0FC6B
:10115000401B022801D903200AE782486C3000684E
:10116000C0F340000028F1D014E000207F4908605F
:10117000FFF7DEFC054606E0FFF7DAFC401B02281D
:1011800001D90320F4E677486C300068C0F34000D2
:101190000028F1D1207800F00400042870D1002745
:1011A00070483830006800F0805090B900BF0020CF
:1011B00000906C483830006840F080506949383100
:1011C00008600846006800F08050009000BF00BF33
:1011D00001276748006800F48070B0B9644800686F
:1011E00040F4807062490860FFF7A2FC054606E003
:1011F000FFF79EFC401B022801D90320B8E65C489B
:10120000006800F480700028F2D000BFA0680128B8
:1012100008D154486830006840F0010051496831F5
:1012200008601DE0A06805280DD14E4868300068B0
:1012300040F004004B49683108600846006840F0FF
:10124000010008600CE047486830006820F00100A9
:101250004449683108600846006820F004000860CE
:1012600000BFA068A8B1FFF763FC054609E0FFF7DF
:101270005FFC401B41F28831884202D9032077E6A7
:1012800026E0384868300068C0F340000028EED0FF
:1012900013E0FFF74DFC054608E0FFF749FC401B53
:1012A00041F28831884201D9032061E62D48683037
:1012B0000068C0F340000028EFD1012F07D1294872
:1012C0003830006820F0805026493831086000BF6F
:1012D000A069002845D02348006800F00C000828C9
:1012E0005DD0A069022845D100201F490866FFF79C
:1012F0001FFC054606E0FFF71BFC401B022801D936
:10130000032035E6174808380068C0F3406000281D
:10131000F1D1D4E907010843616A40EA8111012251
:10132000A06AC2EB500041EA00412C20005D41EA76
:1013300000600C49091F086001200B490866FFF78F
:10134000F7FB054606E0FFF7F3FB401B022801D937
:1013500003200DE6034808380068C0F34060002809
:10136000F1D049E00838024000004742800E474271
:1013700000700040002021490866FFF7D9FB0546B0
:1013800006E0FFF7D5FB401B022801D90320EFE55B
:101390001B480068C0F340600028F2D12CE0A0692F
:1013A000012800D1E4E51648001D0668A06901285F
:1013B00020D006F48001E06981421BD106F03F0194
:1013C000206A814216D147F6C0703040616AB0EBA6
:1013D000811F0FD106F440310122A06AC2EB5000F8
:1013E000B1EB004F06D106F070612C20005DB1EB2F
:1013F000006F01D00120BBE50020B9E500004742A5
:101400000038024070B504462546681EB0F1807F62
:1014100001D301200FE0681E4FF0E02148610F2149
:101420004FF0FF3002F08CFF00204FF0E021886188
:1014300007200861002070BD7047704710B5034653
:10144000002200BF93F83C00012801D1022010BD0A
:10145000012083F83C0000BF22F0FF00CC6840EA86
:10146000040222F440708C6840EA040222F4806096
:101470004C6840EA040222F400600C6840EA04026E
:1014800022F480500C6940EA040222F400504C69B6
:1014900040EA040222F48040CC6940EA0402186861
:1014A000426400BF002083F83C0000BF00BFCEE7CD
:1014B00030B502460B4600BF92F83C00012801D12E
:1014C000022030BD012082F83C0000BF022082F8DB
:1014D0003D00106844681068816824F07004186842
:1014E000044310684460184D1068A8421BD010686F
:1014F000B0F1804F17D0154D1068A84213D0144D8D
:101500001068A8420FD0134D1068A8420BD0124D9E
:101510001068A84207D0114D1068A84203D0104DA2
:101520001068A84205D121F0800158680143106875
:101530008160012082F83D0000BF002082F83C005D
:1015400000BF00BFBDE700000000014000040040F4
:1015500000080040000C0040000401400040014031
:101560000018004010B504460CB9012010BD94F8D5
:101570003D0028B9002084F83C00204600F026F801
:10158000022084F83D00211D206801F0FDFC0120AF
:1015900084F8460000BF84F83E0001213F20015539
:1015A000402001554120015500BF00BF012084F8B3
:1015B000420043200155442001554520015500BFFC
:1015C000012084F83D000020D0E7000038B5044633
:1015D0002068B0F1804F0FD100BF0020009040483C
:1015E000006840F001003E4908600846006800F0CD
:1015F0000100009000BF71E03A49206888420FD195
:1016000000BF002000903648006840F004003449D4
:1016100008600846006800F00400009000BF5DE02C
:101620003149206888420FD100BF002000902C482B
:10163000006840F008002A4908600846006800F089
:101640000800009000BF49E028492068884211D175
:1016500000BF002000902248001D006840F00200FA
:101660001F49091D08600846006800F0020000904C
:1016700000BF33E01E492068884211D100BF00201E
:1016800000901748001D006840F480301449091D7F
:1016900008600846006800F48030009000BF1DE03C
:1016A00014492068884219D100BF002000900C48DE
:1016B000001D006840F400300949091D0860084613
:1016C000006800F40030009000BF00BF0022114607
:1016D0001920FFF7B7FA1920FFF7A4FA38BD000068
:1016E0004038024000080040000C00400004014067
:1016F0000040014000440140014691F83D000128AE
:1017000001D001207047022081F83D001A4B086883
:1017100098421BD00868B0F1804F17D0174B08686B
:10172000984213D0164B086898420FD0154B0868A2
:1017300098420BD0144B0868984207D0134B0868A6
:10174000984203D0124B086898420CD10868806810
:1017500000F00702062A0CD00868006840F001007B
:101760000B68186005E00868006840F001000B682D
:1017700018600020C6E7000000000140000400409F
:1017800000080040000C00400004014000400140FF
:1017900000180040014691F83D00012801D00120C9
:1017A0007047022081F83D000868C06840F00100E1
:1017B0000B68D8601A4B086898421BD00868B0F1D3
:1017C000804F17D0174B0868984213D0164B086803
:1017D00098420FD0154B086898420BD0144B0868FC
:1017E000984207D0134B0868984203D0124B086800
:1017F00098420CD10868806800F00702062A0CD0D5
:101800000868006840F001000B68186005E008688F
:10181000006840F001000B6818600020C0E700007D
:10182000000001400004004000080040000C00409F
:101830000004014000400140001800402DE9F04143
:1018400004460D46002700BF94F83C00012802D151
:101850000220BDE8F081012084F83C0000BF022096
:1018600084F83D002068866826F0770626F47F46D7
:10187000206886602868502833D00CDC202850D09F
:1018800004DC00284BD0102851D149E0302849D041
:1018900040284CD139E060282DD0702807D0B0F511
:1018A000805F03D0B0F5005F41D10DE041E0D5E9A4
:1018B00002136A68206801F0E4FB2068866846F03D
:1018C00077062068866034E0D5E902136A682068EC
:1018D00001F0D7FB2068806840F480402168886070
:1018E00027E0EA686968206802F0F1FA5021206870
:1018F00002F0E4FA1DE0EA686968206802F0FAFA8A
:101900006021206802F0DAFA13E0EA68696820686A
:1019100002F0DDFA4021206802F0D0FA09E000BFB1
:1019200000BF00BF2968206802F0C8FA01E0012763
:1019300000BF00BF012084F83D0000BF002084F8F4
:101940003C0000BF384684E7704710B50446206865
:101950000069C0F34000D8B12068C068C0F34000FF
:10196000B0B16FF002002168086101202077206883
:10197000806900F0030018B12046FFF7E5FF05E09D
:10198000204600F0ABF9204600F050FB0020207705
:1019900020680069C0F38000D8B12068C068C0F337
:1019A0008000B0B16FF00400216808610220207748
:1019B0002068806900F4407018B12046FFF7C4FF2A
:1019C00005E0204600F08AF9204600F02FFB0020B9
:1019D000207720680069C0F3C000D8B12068C068D3
:1019E000C0F3C000B0B16FF00800216808610420A6
:1019F00020772068C06900F0030018B12046FFF787
:101A0000A3FF05E0204600F069F9204600F00EFB38
:101A10000020207720680069C0F30010D8B120684A
:101A2000C068C0F30010B0B16FF010002168086109
:101A3000082020772068C06900F4407018B1204663
:101A4000FFF782FF05E0204600F048F9204600F04D
:101A5000EDFA002020772068006900F0010058B1FD
:101A60002068C06800F0010030B16FF0010021680B
:101A70000861204600F062FB20680069C0F3C010D6
:101A800058B12068C068C0F3C01030B16FF080005A
:101A9000216808612046FFF7CFFC20680069C0F389
:101AA000801058B12068C068C0F3801030B16FF06A
:101AB000400021680861204600F060FB2068006952
:101AC000C0F3401058B12068C068C0F3401030B176
:101AD0006FF02000216808612046FFF7AEFC10BDC2
:101AE00010B586B00446142101A8FEF77AFC2068E0
:101AF000B0F1804F1DD100BF002000905248006817
:101B000040F00100504908600846006800F00100FC
:101B1000009000BF00BF032001900220029000202F
:101B2000039004900120059001A94848FEF7F2FEB9
:101B300088E04749206888421ED100BF00200090FD
:101B40004148006840F008003F49086008460068C6
:101B500000F00800009000BF00BF4FF470400190FB
:101B6000022002900020039004900220059001A919
:101B70003848FEF7CFFE65E03749206888421ED11D
:101B800000BF002000903048006840F080002E49DF
:101B900008600846006800F08000009000BF00BFA9
:101BA0004FF44060019002200290002003900490C6
:101BB0000220059001A92948FEF7ACFE42E0284921
:101BC000206888421DD100BF002000901E48006898
:101BD00040F480701C4908600846006800F480707A
:101BE000009000BF00BFE42001900220029000207E
:101BF000039004900320059001A91A48FEF78AFE7D
:101C000020E01949206888421CD100BF00200090C4
:101C10000D48006840F001000B4908600846006864
:101C200000F00100009000BF00BF0C2001900220D6
:101C300002900020039004900320059001A903481E
:101C4000FEF768FE06B010BD3038024000000240CA
:101C500000080040000C0240000C0040001C024044
:101C60000004014000200240004001402DE9F04105
:101C700004460E461546002700BF94F83C00012894
:101C800002D10220BDE8F081012084F83C0000BFB1
:101C900035B1042D09D0082D0CD00C2D14D10EE037
:101CA0003146206802F06CF810E03146206801F0FF
:101CB000F3F90BE03146206802F09AF806E031466D
:101CC000206802F0D1F801E0012700BF00BF00BF8B
:101CD000002084F83C0000BF3846D3E710B5044626
:101CE000044802F01BFCA04202D1024802F088FB2B
:101CF00010BD0000A012002010B504460CB9012050
:101D000010BD94F83D0028B9002084F83C0020461E
:101D100000F025F8022084F83D00211D206801F024
:101D200033F9012084F8460000BF84F83E00012109
:101D30003F200155402001554120015500BF00BF03
:101D4000012084F8420043200155442001554520DC
:101D5000015500BF012084F83D000020D0E7704706
:101D6000F0B504460D46002615B994F83E000BE088
:101D7000042D02D13F20005D06E0082D02D1402055
:101D8000005D01E04120005D012801D00120F0BD8F
:101D90001DB9022084F83E000EE0042D03D102217B
:101DA0003F20015508E0082D03D1022140200155B4
:101DB00002E002214120015535B1042D0BD0082D40
:101DC00010D00C2D1CD114E02068C06840F0020037
:101DD0002168C86016E02068C06840F004002168EF
:101DE000C8600FE02068C06840F008002168C86043
:101DF00008E02068C06840F010002168C86001E079
:101E0000012600BF00BFEEBB01222946206801F079
:101E100027F924492068884203D023492068884252
:101E200001D1012000E0002028B12068406C40F47E
:101E30000040216848641B49206888421BD0206804
:101E4000B0F1804F17D019492068884213D0184943
:101E5000206888420FD01749206888420BD0124969
:101E60002068884207D014492068884203D013496B
:101E7000206888420ED12068806800F00707062F8E
:101E80000ED000E00CE02068006840F001002168FE
:101E9000086005E02068006840F0010021680860E3
:101EA000304674E700000140000401400004004097
:101EB00000080040000C00400040014000180040B5
:101EC0002DE9F04104460D461646002700BF94F860
:101ED0003C00012802D10220BDE8F081012084F8F5
:101EE0003C0000BF36B1042E1BD0082E31D00C2E82
:101EF0005ED145E02946206801F042FF20688069F4
:101F000040F00800216888612068806920F00400A2
:101F1000216888612068806929690843216888618F
:101F200048E02946206801F0B7F82068806940F44D
:101F30000060216888612068806920F480602168E1
:101F4000886120688069296940EA012021688861E8
:101F500030E02946206801F04BFF2068C06940F05E
:101F600008002168C8612068C06920F00400216869
:101F7000C8612068C069296908432168C86119E0FF
:101F80002946206801F070FF2068C06940F40060B5
:101F90002168C8612068C06920F480602168C86138
:101FA0002068C069296940EA01202168C86101E010
:101FB000012700BF00BF00BF002084F83C0000BF25
:101FC000384689E710B504460CB9012010BD94F8D5
:101FD0003D0028B9002084F83C00204600F025F898
:101FE000022084F83D00211D206800F0CDFF012073
:101FF00084F8460000BF84F83E0001213F200155CF
:10200000402001554120015500BF00BF012084F848
:10201000420043200155442001554520015500BF91
:10202000012084F83D000020D0E770477047000091
:1020300070B504460D4615B994F83E000BE0042D2A
:1020400002D13F20005D06E0082D02D14020005D56
:1020500001E04120005D012801D0012070BD1DB9C3
:10206000022084F83E000EE0042D03D102213F201F
:10207000015508E0082D03D102214020015502E05E
:1020800002214120015501222946206800F0E8FF85
:1020900023492068884203D022492068884201D120
:1020A000012000E0002028B12068406C40F400408E
:1020B000216848641A49206888421BD02068B0F122
:1020C000804F17D018492068884213D017492068DC
:1020D00088420FD01649206888420BD011492068E9
:1020E000884207D013492068884203D012492068EB
:1020F00088420CD12068806800F00706062E0CD0BC
:102100002068006840F001002168086005E0206850
:10211000006840F001002168086000209EE7000090
:10212000000001400004014000040040000800409D
:10213000000C0040004001400018004010B504466B
:10214000094884420ED101220849094800F026FBC3
:1021500001220649074800F021FB012203490648F5
:1021600000F01CFB10BD00003814002048000020C7
:102170004C1500200815002080140020704770477F
:10218000704700002DE9F84F044620680568206874
:10219000C668206847694FF00009CA4605F00F0974
:1021A000B9F1000F0AD105F0200038B106F0200087
:1021B00020B1204601F0C8FFBDE8F88FB9F1000F4B
:1021C0007CD007F0010018B906F49070002875D093
:1021D00005F0010030B106F4807018B1206C40F0B9
:1021E0000100206405F0040030B107F0010018B1CF
:1021F000206C40F00200206405F0020030B107F0CE
:10220000010018B1206C40F00400206405F00800C3
:1022100048B106F0200010B907F0010018B1206C99
:1022200040F008002064206C002846D005F0200013
:1022300028B106F0200010B1204601F085FF20688B
:102240004069C0F3801A206C00F0080010B9BAF1A0
:10225000000F2DD0204602F023F82068406900F0DE
:102260004000402820D100BF00BF2168143151E850
:10227000001F21F040002168143141E80002002ACB
:10228000F3D100BFA06B50B17548A16B0865A06B7E
:10229000FEF782F988B1A06B016D88470DE02046FA
:1022A000FFF76EFF09E009E02046FFF769FF04E051
:1022B0002046FFF765FF002020647DE7206B0128A2
:1022C00076D105F01000002872D006F0100000282A
:1022D000FAD000BF002000902068006800902068BD
:1022E0004068009000BF00BF2068406900F04000D7
:1022F00040285ED1A06B006840681FFA80F8B8F1F2
:10230000000F54D0A08D404551DDA4F82E80A06B65
:10231000C069B0F5807F43D000BF00BF21680C3199
:1023200051E8001F21F4807021680C3141E800025F
:10233000002AF3D100BF00BF00BF2168143151E86B
:10234000001F21F001002168143141E80002002A39
:10235000F3D100BF00BF00BF2168143151E8001F56
:1023600021F040002168143141E80002002AF3D135
:1023700000BF202084F83E000020206300BF00BF83
:1023800021680C3151E8001F21F0100021680C3148
:1023900041E80002002AF3D100BFA06BFEF7A6F8C7
:1023A000A08DE28D801A81B22046FFF7E8FE03E798
:1023B00040E0A08DE18D401A1FFA80F8E08DC0B397
:1023C000B8F1000F35D000BF00BF21680C3151E8D3
:1023D000001F21F4907021680C3141E80002002AAE
:1023E000F3D100BF00BF00BF2168143151E8001FC6
:1023F00021F001002168143141E80002002AF3D1E4
:1024000000BF202084F83E000020206300BF00BFF2
:1024100021680C3151E8001F21F0100021680C31B7
:1024200041E80002002AF3D100BF41462046FFF7F1
:10243000A6FEC1E605F0800030B106F0800018B1BC
:10244000204601F0FDFEB7E605F0400030B106F091
:10245000400018B1204601F059FFADE600BFABE6E1
:102460002D43000810B504460CB9012010BDA06929
:1024700000B100E000BF94F83D0028B9002084F8C6
:102480003C00204600F028F8242084F83D00206815
:10249000C06820F400502168C860204601F03EFD6D
:1024A0002068006920F49040216808612068406934
:1024B00020F02A00216848612068C06840F400507C
:1024C0002168C86000202064202084F83D0084F842
:1024D0003E000020CAE7000010B586B00446142173
:1024E00001A8FDF77EFF87492068884256D100BFCA
:1024F000002000908448006840F0804082490860D5
:102500000846006800F08040009000BF00BF00BF98
:10251000002000907C481038006840F010007A4994
:10252000103908600846006800F01000009000BFF5
:1025300000BF4FF4C0700190022002900020039071
:10254000032004900820059001A97048FEF7E2F9E5
:102550006F48704908608005486040216D4881607F
:102560000021C1604FF480610161002141618161FE
:10257000C16101624162FEF743F908B1FDF7B3FFA3
:1025800000BF64486063846300BF0022114652208C
:10259000FEF758FB5220FEF745FBB1E05E4920688C
:1025A000884230D100BF002000905748006840F0BA
:1025B0000040554908600846006800F0004000905F
:1025C00000BF00BF00BF002000904F4810380068D7
:1025D00040F010004C49103908600846006800F0CF
:1025E0001000009000BF00BF032001900220029065
:1025F00000200390032004900820059001A943487F
:10260000FEF788F97CE045492068884239D100BF4F
:10261000002000903C48006840F480203A4908605F
:102620000846006800F48020009000BF00BF00BF93
:102630000020009034481038006840F0080032490B
:10264000103908600846006800F00800009000BFDC
:1026500000BF4FF4407001900220029000200390D0
:10266000032004900720059001A92D48FEF752F998
:10267000002211462720FEF7E5FA2720FEF7D2FABE
:102680003EE02849206888423AD100BF00200090EF
:102690001D48001D006840F020001B49091D08600E
:1026A0000846006800F02000009000BF00BF00BF97
:1026B0000020009014481038006840F04000124993
:1026C000103908600846006800F04000009000BF24
:1026D00000BF4FF48440019002200290002003903C
:1026E000032004900820059001A90F48FEF712F975
:1026F000002211464720FEF7A5FA4720FEF792FA7E
:1027000006B010BD00780040403802400010024082
:102710002860024090150020007C004000480040E6
:10272000000C0240001401400018024070B504463D
:102730000D46164694F83E00202816D105B10EB974
:10274000012070BD00BF94F83C00012801D1022097
:10275000F7E7012084F83C0000BF002020633246E8
:102760002946204600F0DEFCEBE70220E9E7000006
:1027700010B504460648844205D00648844202D07B
:102780000548844202D1204600F004FD10BD00003F
:102790004C150020081500208014002010B50346B9
:1027A00093F83D00202823D101B10AB9012010BDC2
:1027B00000BF93F83C00012801D10220F7E7012077
:1027C00083F83C0000BF19629A84DA840020186400
:1027D000212083F83D0000BF002083F83C0000BFAB
:1027E0001868C06840F080001C68E0600020DEE7E8
:1027F0000220DCE7704700BFFEE7000008B500BF1D
:10280000002000900A48006840F400100849086061
:102810000846006800F40010009000BF00BF0022CE
:1028200011460C20FEF70EFA0C20FEF7FBF908BD4E
:102830003038024000B587B0142102A8FDF7D1FD61
:1028400000BF002001907F48006840F010007D49E3
:1028500008600846006800F01000019000BF00BF4B
:1028600000BF002001900846006840F0400008606A
:102870000846006800F04000019000BF00BF00BFA4
:10288000002001900846006840F0010008600846FA
:10289000006800F00100019000BF00BF00BF0020F1
:1028A00001900846006840F480700860084600689F
:1028B00000F48070019000BF00BF00BF00200190B5
:1028C0000846006840F0200008600846006800F0F4
:1028D0002000019000BF00BF00BF0020019008460B
:1028E000006840F0800008600846006800F0800042
:1028F000019000BF00BF00BF0020019008460068A3
:1029000040F0080008600846006800F008000190E8
:1029100000BF00BF00BF002001900846006840F0E3
:10292000040008600846006800F00400019000BF41
:1029300000BF00BF002001900846006840F0020080
:1029400008600846006800F00200019000BF00BF68
:10295000002241F270013C48FEF7E4F800224FF4F7
:1029600000713A48FEF7DEF8002240F20341384891
:10297000FEF7D8F8002236213648FEF7D3F80022B9
:1029800030213548FEF7CEF8002201213348FEF70A
:10299000C9F841F2700002900120039000200490D9
:1029A000059002A92848FDF7B5FF4FF4007002908A
:1029B0000120039000200490059002A92348FDF710
:1029C000A9FF40F2034002900120039000200490F0
:1029D000059002A91E48FDF79DFF092002900020E6
:1029E0000390049002A91B48FDF794FF3620029043
:1029F0000120039000200490059002A91548FDF7DE
:102A000089FF30200290012003900020049005905F
:102A100002A91148FDF77EFF0220029000200390DA
:102A2000049002A90D48FDF775FF01200290039064
:102A300000200490059002A90848FDF76BFF07B03D
:102A400000BD00003038024000100240002002406B
:102A5000001402400008024000000240000402404E
:102A600010B50A480A49086040F2E7304860002182
:102A70000748816040F2E731C16000210161816156
:102A8000FEF770FD08B1FDF72EFD10BD00440140BA
:102A90003814002000B58DB0002009900A900B90EA
:102AA0000C90079008901C216846FDF79AFC4FF0A7
:102AB000804023490860D12048600021204881607F
:102AC00040F2E731C160002101618161FEF74AFDFA
:102AD00008B1FDF708FD4FF48050099009A9184886
:102AE000FEF7ACFE08B1FDF7FEFC1548FFF76AFAE9
:102AF00008B1FDF7F8FC00200790089007A91048DE
:102B0000FEF7D6FC08B1FDF7EEFC60200090002037
:102B1000019002900490002269460948FFF7D0F91D
:102B200008B1FDF7E0FC042269460548FFF7C8F943
:102B300008B1FDF7D8FC0248FEF7D2FF0DB000BD8A
:102B4000D012002000B58DB0002009900A900B90A3
:102B50000C90079008901C216846FDF742FC2C4819
:102B60002C490860D120486000212A48816040F249
:102B7000E731C160002101618161FEF7F3FC08B11A
:102B8000FDF7B1FC4FF48050099009A92148FEF7E8
:102B900055FE08B1FDF7A7FC1E48FFF713FA08B170
:102BA000FDF7A1FC00200790089007A91948FEF73F
:102BB0007FFC08B1FDF797FC602000900020019099
:102BC00002900490002269461248FFF779F908B193
:102BD000FDF789FC042269460E48FFF771F908B138
:102BE000FDF781FC082269460A48FFF769F908B138
:102BF000FDF779FC0C2269460648FFF761F908B138
:102C0000FDF771FC0348FEF76BFF0DB000BD00003F
:102C1000000800401813002000B58DB00020099076
:102C20000A900B900C90079008901C216846FDF7C5
:102C3000D8FB2448244908605320486000212248DA
:102C4000816040F6B731C160002101618161FEF70A
:102C500089FC08B1FDF747FC4FF48050099009A9A1
:102C60001948FEF7EBFD08B1FDF73DFC1648FFF7EC
:102C7000A9F908B1FDF737FC00200790089007A9D3
:102C80001148FEF715FC08B1FDF72DFC60200090FF
:102C90000020019002900490002269460A48FFF744
:102CA0000FF908B1FDF71FFC042269460648FFF73B
:102CB00007F908B1FDF717FC0348FEF711FF0DB047
:102CC00000BD0000000C00406013002000B595B06E
:102CD000002011901290139014900F9010901C21CE
:102CE00008A8FDF77EFB20216846FDF77AFB3748F0
:102CF00037490860A720486000213548816040F6C8
:102D0000B731C1600021016141618161FEF72AFC98
:102D100008B1FDF7E8FB4FF48050119011A92C4841
:102D2000FEF78CFD08B1FDF7DEFB2948FFF74AF9F5
:102D300008B1FDF7D8FB00200F9010900FA9244890
:102D4000FEF7B6FB08B1FDF7CEFB6020089000202F
:102D500009900A900B900C900D900E90002208A9FB
:102D60001B48FFF7ADF808B1FDF7BDFB042208A929
:102D70001748FFF7A5F808B1FDF7B5FB082208A929
:102D80001348FFF79DF808B1FDF7ADFB0C2208A929
:102D90000F48FFF795F808B1FDF7A5FB002000905C
:102DA00001900290039004904FF400500590002091
:102DB000079069460648FEF741FB08B1FDF793FB13
:102DC0000348FEF78DFE15B000BD00000004014071
:102DD000A813002000B58BB0002007900890099040
:102DE0000A901C216846FDF7FCFA1F481F4908603D
:102DF0005320486000211D488160A721C160002147
:102E000001618161FEF7AEFB08B1FDF76CFB4FF489
:102E10008050079007A91548FEF710FD08B1FDF78F
:102E200062FB1248FEF768FF08B1FDF75CFB30203B
:102E300000900020019002200290002004900022C7
:102E400069460A48FEF712FF08B1FDF74CFB042261
:102E500069460648FEF70AFF08B1FDF744FB034840
:102E6000FEF73EFE0BB000BD00400140F013002015
:102E700010B50B480B4908604FF41650486000210C
:102E800008488160C16001610C21416100218161BC
:102E9000C161FFF7E7FA08B1FDF725FB10BD00009F
:102EA000007800408014002010B50B480B490860E2
:102EB0004FF4E1304860002108488160C160016141
:102EC0000C21416100218161C161FFF7CBFA08B19A
:102ED000FDF709FB10BD0000007C0040C414002079
:102EE00010B50B480B4908604FF41650486000219C
:102EF00008488160C16001610C214161002181614C
:102F0000C161FFF7AFFA08B1FDF7EDFA10BD00009F
:102F1000004800400815002010B50B480B49086018
:102F20004FF416504860002108488160C16001617B
:102F30000C21416100218161C161FFF793FA08B161
:102F4000FDF7D1FA10BD0000001401404C1500201F
:102F500000BFFEE700BFFEE77047704710B5FDF702
:102F6000EDFD10BD0348006840F4700001490860A1
:102F70007047000088ED00E010B50248FEF7E5FC60
:102F800010BD00003814002010B50268294B98428B
:102F90000ED0B0F1804F0BD0274B984208D0274B72
:102FA000984205D0264B984202D0264B984203D136
:102FB00022F070024B681A431E4B984220D0B0F1A9
:102FC000804F1DD01C4B98421AD01C4B984217D0F2
:102FD0001B4B984214D01B4B984211D01A4B98426D
:102FE0000ED01A4B98420BD0194B984208D0194B6F
:102FF000984205D0184B984202D0184B984203D102
:1030000022F44072CB681A4322F080034C6943EAF1
:10301000040202608B68C3620B688362054B9842AE
:1030200002D0084B984201D10B690363012343612D
:1030300010BD0000000001400004004000080040F6
:10304000000C0040000401400040014000440140E9
:103050000048014000180040001C004000200040D3
:1030600030B501F01F05012404FA05F3046A9C43FE
:103070000462046A01F01F0502FA05F52C4304629C
:1030800030BD30B50C46816821F47F4142EA03250A
:1030900025432943816030BD30B5056A25F0100510
:1030A0000562026A4368846924F4E04424F44074AD
:1030B0000D6844EA052422F020028D6842EA0512D8
:1030C000124DA84200D103E0114DA84207D100BF24
:1030D00022F08002CD6842EA051222F040020B4D38
:1030E000A84202D00A4DA84209D123F4806323F4F8
:1030F00000634D6943EA85038D6943EA85034360B4
:1031000084614D688563026230BD000000000140AB
:103110000004014010B50248FFF734F810BD00006C
:103120008014002010B5034699629A85DA85002044
:103130001864222083F83E0000BF002083F83C0082
:1031400000BF186928B11868C06840F480701C6816
:10315000E0601868406940F001001C686061186810
:10316000C06840F020001C68E060002010BD000036
:1031700010B50248FFF706F810BD00000815002042
:1031800010B50248FEF7FEFF10BD00004C150020F0
:1031900000BFFEE710B504460D48844205D1012268
:1031A0000C492046FFF7C2FA10E00B48844205D1D3
:1031B00001220A492046FFF7B9FA07E0084884428D
:1031C00004D1012207492046FFF7B0FA10BD0000E4
:1031D0004C150020040000200815002005000020E8
:1031E000801400200600002000B593B0302107A80D
:1031F000FDF7F7F8142102A8FDF7F3F800BF00204F
:1032000001902448006840F0805022490860084638
:10321000006800F08050019000BF00BF00BF002098
:1032200001901D48006840F440401B490860084672
:10323000006800F44040019000BF00BF01200790EB
:103240000004089002200D9041050E9106210F9177
:10325000A8211091022111910421129107A8FDF7D4
:1032600083FE08B1FDF73FF90F2002900220039082
:10327000002004904FF4A05005904FF48050069029
:10328000052102A8FDF730FD08B1FDF72CF913B0B8
:1032900000BD0000403802400070004080F8581027
:1032A00070470FB42DE9F04704461BAD95E8E003E5
:1032B0003D2209A92046FDF762F89DF8610084F8D7
:1032C0003D009DF8620084F83E009DF863103F20A9
:1032D00001559DF86410402001559DF8651041206E
:1032E00001559DF8660084F842009DF86710432060
:1032F00001559DF86810442001559DF8691045203E
:1033000001559DF86A0084F8460084F84850A4F8F6
:103310004A60E764A4F85080C4F85490294609A88C
:10332000FEF786FEBDE8F0075DF814FB002180F88B
:1033300058109FED050A80ED170A40F2E73101664B
:103340000021416681667047B52208420FB470B50E
:103350000446179D3D2205A92046FDF710F89DF86B
:10336000510084F83D009DF8520084F83E009DF81D
:1033700053103F2001559DF85410402001559DF8F1
:103380005510412001559DF8560084F842009DF8E3
:103390005710432001559DF85810442001559DF8C1
:1033A0005910452001559DF85A0084F8460084F8CC
:1033B0004850294605A8FEF73BFE70BC5DF814FB9B
:1033C00070B504460E4684F8E067002509E005EB79
:1033D000451101EB410104EB8100314600F0ACFBEB
:1033E0006D1C042DF3DB70BD0FB430B5CFB00446B7
:1033F0003D2253A904F5E160FCF7C1FF9DF8891156
:1034000084F845179DF88A1184F846179DF88B11AA
:1034100084F847179DF88C1184F848179DF88D1192
:1034200084F849179DF88E1184F84A179DF88F117A
:1034300084F84B179DF8901184F84C179DF8911162
:1034400084F84D179DF8921184F84E173D2265A916
:1034500004F5F360FCF793FF9DF8D11184F8D517BC
:103460009DF8D21184F8D6179DF8D31184F8D71798
:103470009DF8D41184F8D8179DF8D51184F8D91780
:103480009DF8D61184F8DA179DF8D71184F8DB1768
:103490009DF8D81184F8DC179DF8D91184F8DD1750
:1034A0009DF8DA1184F8DE173D2265A93DA8FCF7E6
:1034B00066FF9DF8D1018DF831019DF8D2018DF89C
:1034C00032019DF8D3118DF833119DF8D4118DF888
:1034D00034119DF8D5118DF835119DF8D6018DF870
:1034E00036019DF8D7118DF837119DF8D8118DF858
:1034F00038119DF8D9118DF839119DF8DA018DF840
:103500003A013D2253A92BA8FCF739FF9DF8890108
:103510008DF8E9009DF88A018DF8EA009DF88B117D
:103520008DF8EB109DF88C118DF8EC109DF88D1135
:103530008DF8ED109DF88E018DF8EE009DF88F113D
:103540008DF8EF109DF890118DF8F0109DF8911105
:103550008DF8F1109DF892018DF8F200DE48C1144B
:103560008023CDE926304822CDE928103DA914A8B2
:10357000FCF705FFD84801210223CDE91030CDE941
:10358000121000203C222EA90F906846FCF7F7FE8F
:1035900020462BA90EC900F0D2FA00212046FFF7E1
:1035A0007DFE3D2265A93DA8FCF7E9FE9DF8D1010D
:1035B0008DF831019DF8D2018DF832019DF8D311BB
:1035C0008DF833119DF8D4118DF834119DF8D51173
:1035D0008DF835119DF8D6018DF836019DF8D7117B
:1035E0008DF837119DF8D8118DF838119DF8D91143
:1035F0008DF839119DF8DA018DF83A013D2253A971
:103600002BA8FCF7BCFE9DF889018DF8E9009DF818
:103610008A018DF8EA009DF88B118DF8EB109DF86A
:103620008C118DF8EC109DF88D118DF8ED109DF832
:103630008E018DF8EE009DF88F118DF8EF109DF83A
:1036400090118DF8F0109DF891118DF8F1109DF802
:1036500092018DF8F200A04881154023CDE9263073
:103660004822CDE928103DA914A8FCF788FE9B4804
:1036700010212023CDE91030CDE9121004203C2286
:103680002EA90F906846FCF77AFE04F5C6702BA9A8
:103690000EC900F054FA002104F5C670FFF7FEFDD4
:1036A0003D2265A93DA8FCF76AFE9DF8D1018DF881
:1036B00031019DF8D2018DF832019DF8D3118DF8BA
:1036C00033119DF8D4118DF834119DF8D5118DF872
:1036D00035119DF8D6018DF836019DF8D7118DF87A
:1036E00037119DF8D8118DF838119DF8D9118DF842
:1036F00039119DF8DA018DF83A013D2253A92BA822
:10370000FCF73DFE9DF889018DF8E9009DF88A01DE
:103710008DF8EA009DF88B118DF8EB109DF88C1157
:103720008DF8EC109DF88D118DF8ED109DF88E013F
:103730008DF8EE009DF88F118DF8EF109DF8901127
:103740008DF8F0109DF891118DF8F1109DF892010F
:103750008DF8F200624881150315CDE92630482224
:10376000CDE928103DA914A8FCF709FE5B48811497
:103770004023CDE91030CDE9121008203C222EA9BB
:103780000F906846FCF7FBFD04F546702BA90EC9A7
:1037900000F0D5F9002104F54670FFF77FFD3D22CA
:1037A00065A93DA8FCF7EBFD9DF8D1018DF831012D
:1037B0009DF8D2018DF832019DF8D3118DF83311A7
:1037C0009DF8D4118DF834119DF8D5118DF835116F
:1037D0009DF8D6018DF836019DF8D7118DF8371177
:1037E0009DF8D8118DF838119DF8D9118DF839113F
:1037F0009DF8DA018DF83A013D2253A92BA8FCF778
:10380000BEFD9DF889018DF8E9009DF88A018DF8CB
:10381000EA009DF88B118DF8EB109DF88C118DF856
:10382000EC109DF88D118DF8ED109DF88E018DF83E
:10383000EE009DF88F118DF8EF109DF890118DF826
:10384000F0109DF891118DF8F1109DF892018DF80E
:10385000F200224880210B02CDE926304822CDE932
:1038600028103DA914A8FCF78AFD1E4801211E4A14
:103870000423CDE91032CDE912100C203C222EA9F0
:103880000F906846FCF77BFD04F2A4402BA90EC9FB
:1038900000F055F9002104F2A440FFF7FFFC0025D9
:1038A00014E005EB451101EB410104EB810101F14D
:1038B0006C009FED0E2ADFED0D1AB3EE091ADFED55
:1038C0000C0A9FED0C0A00F057FD6D1C042DE8DB7F
:1038D0004FB030BC5DF814FB0014024000100240F1
:1038E000000C024000040240000802400000804F2B
:1038F00000803B450000FA440FB410B5A6B0044662
:103900003D2229A904F5EA60FCF739FD9DF8E11094
:1039100084F88D179DF8E21084F88E179DF8E31057
:1039200084F88F179DF8E41084F890179DF8E5103F
:1039300084F891179DF8E61084F892179DF8E71027
:1039400084F893179DF8E81084F894179DF8E9100F
:1039500084F895179DF8EA1084F896173D223BA944
:1039600004F5F360FCF70BFD9DF8291184F8D517D9
:103970009DF82A1184F8D6179DF82B1184F8D717D3
:103980009DF82C1184F8D8179DF82D1184F8D917BB
:103990009DF82E1184F8DA179DF82F1184F8DB17A3
:1039A0009DF8301184F8DC179DF8311184F8DD178B
:1039B0009DF8321184F8DE173D2229A914A8FCF7DE
:1039C000DEFC9DF8E1008DF88D009DF8E2008DF899
:1039D0008E009DF8E3108DF88F109DF8E4108DF89F
:1039E00090109DF8E5108DF891109DF8E6008DF887
:1039F00092009DF8E7108DF893109DF8E8108DF86F
:103A000094109DF8E9108DF895109DF8EA008DF856
:103A10009600314802212023CDE91030CDE9121063
:103A200000203C2217A90F906846FCF7A8FC04F57B
:103A3000C66014A90EC9FFF734FC002104F5C66066
:103A4000FFF72CFC3D2229A914A8FCF798FC9DF84F
:103A5000E1008DF88D009DF8E2008DF88E009DF854
:103A6000E3108DF88F109DF8E4108DF890109DF8FC
:103A7000E5108DF891109DF8E6008DF892009DF804
:103A8000E7108DF893109DF8E8108DF894109DF8CC
:103A9000E9108DF895109DF8EA008DF896000F4812
:103AA00010212023CDE91030CDE9121004203C2252
:103AB00017A90F906846FCF762FC04F29C6014A9F9
:103AC0000EC9FFF7EEFB012104F29C60FFF7E6FB55
:103AD00026B010BC5DF814FB000802400000024054
:103AE00010B5044604234FF4C6720F49204600F077
:103AF00018FD044602236C220C4900F5C66000F054
:103B000010FDA0F5C664012084F8E00704F5F0601C
:103B1000074B0ECB9FED070A64300EC004F58060A2
:103B200080EDFC0A204610BD3D3C00082D33000806
:103B3000204B00080000000080F86C1170470FB4A3
:103B40002DE9F05F0446DDE934AB1DAD95E8E003F7
:103B50003D220BA92046FCF712FC9DF8690084F871
:103B60003D009DF86A0084F83E009DF86B103F20F0
:103B700001559DF86C10402001559DF86D104120B5
:103B800001559DF86E0084F842009DF86F104320A7
:103B900001559DF87010442001559DF87110452085
:103BA00001559DF8720084F8460084F84850A4F846
:103BB0004A60E764A4F85080C4F854903D2222A9DA
:103BC00004F58A70FCF7DBFB9DF8C51084F85111F1
:103BD0009DF8C61084F852119DF8C71084F853114F
:103BE0009DF8C81084F854119DF8C91084F8551137
:103BF0009DF8CA1084F856119DF8CB1084F857111F
:103C00009DF8CC1084F858119DF8CD1084F8591106
:103C10009DF8CE1084F85A11A4F85CA1C4F860B1E4
:103C20003698A4F864013798C4F8680129460BA8AF
:103C3000FEF7FEF9BDE8F01F5DF814FB10B5044671
:103C40002046FFF773FB04466C3000F0A1FBA0F1A7
:103C50006C04543000F09CFBA0F1C004012084F8F7
:103C60006C010020C4F870019FED0B0AC4F87401C8
:103C700084ED5E0A9FED090A84ED5F0A9FED070A55
:103C800084ED600A9FED050A84ED610A9FED030A49
:103C900084ED620A204610BD27745F4200000000D8
:103CA000014600208A6A8B69CBB932B1012A0DD056
:103CB000022A03D0032A10D10EE000BFCB6A03F022
:103CC0008073B3F1807F00D1012007E0CB6AB3F1AC
:103CD000C07F00D1012001E000E000BF34E08B692B
:103CE000B3F5005F1AD132B1012A07D0022A03D0FE
:103CF000032A11D10AE000BF01200EE0CB6A03F0D5
:103D00008073B3F1807F00D1012006E0CB6AB3F16C
:103D1000C07F00D1012000E000BF15E032B1012AD0
:103D200005D0022A04D0032A0CD103E000BF00BF53
:103D3000012008E0CB6A03F08073B3F1807F00D1EB
:103D4000012000E000BF00BF704700000146087876
:103D500010381823B0FBF3F20848805CC865032ACA
:103D600005D908686FF30900001D886503E008683D
:103D70006FF309008865886D704700002C4B0008C0
:103D800030B5056A25F001050562026A4368846959
:103D900024F0700424F003040D682C4322F0020286
:103DA0008D682A43104DA84200D103E00F4DA84270
:103DB00006D100BF22F00802CD682A4322F0040297
:103DC000094DA84202D0094DA84207D123F48073BF
:103DD00023F400734D692B438D692B434360846149
:103DE0004D684563026230BD00000140000401409F
:103DF00030B5056A25F480750562026A4368C469B6
:103E000024F0700424F003040D682C4322F40072A3
:103E10008D6842EA0522124DA84200D103E0114DFF
:103E2000A84207D100BF22F40062CD6842EA052211
:103E300022F480620A4DA84202D00A4DA84209D15C
:103E400023F4805323F400534D6943EA05138D692D
:103E500043EA05134360C4614D68C563026230BD27
:103E6000000001400004014030B5056A25F480558A
:103E70000562036A4468C26922F4E04222F4407297
:103E80000D6842EA052223F400538D6843EA0533A6
:103E9000084DA84202D0084DA84204D124F4804421
:103EA0004D6944EA85144460C2614D68056403624B
:103EB00030BD000000000140000401400A46816856
:103EC00021F0700142F0070319438160704730B55B
:103ED0000B461446026A056A25F0010505628169F0
:103EE00021F0F00141EA041122F00A021A43816133
:103EF000026230BD30B50B461446056A25F0100548
:103F000005628169026A21F4704141EA043122F0BC
:103F1000A00242EA03128161026230BD2DE9F84F2E
:103F200004462068006920F44050E1680843216895
:103F300008612169A068084361690843E169084391
:103F400000902068C06849F20C61884300990843DA
:103F50002168C8602068406920F44070A169084366
:103F60002168486176492068884203D075492068F5
:103F7000884203D1FCF790FF814602E0FCF77CFF0A
:103F80008146E069B0F5004F6CD102206168A0FB6A
:103F9000015003461920A9FB007001462A46384605
:103FA000FCF776F96421B0FBF1F04FEA001A022029
:103FB0006168A0FB01510B461920A9FB00712A463C
:103FC0003846FCF765F9834602206168A0FB015082
:103FD00003461920A9FB00712A463846FCF758F918
:103FE0006421B0FBF1F000EBC00101EB0010ABEB82
:103FF0008000322101EBC0006421B0FBF1F000F041
:10400000F8000AEB400A02206168A0FB0150034659
:104010001920A9FB007001462A463846FCF738F9FA
:10402000834602206168A0FB015003461920A9FBCA
:1040300000712A463846FCF72BF96421B0FBF1F0F9
:1040400000EBC00101EB0010ABEB8000322101EB73
:10405000C0006421B0FBF1F000F00700504421687B
:1040600088606AE004206168A0FB015003461920C3
:10407000A9FB007001462A463846FCF709F982463A
:1040800004206168A0FB015003461920A9FB0070C1
:1040900001462A463846FCF7FBF86421B0FBF1F0F4
:1040A00000EBC00101EB0010AAEB8000322101EB14
:1040B00000106421B0FBF1F000F0F00A0420616808
:1040C000A0FB017003461920A9FB00513A4628467F
:1040D000FCF7DEF86421B0FBF1F00AEB001A0420D3
:1040E0006168A0FB01510B461920A9FB00712A460B
:1040F0003846FCF7CDF8834604206168A0FB0150E8
:1041000003461920A9FB007001462A463846FCF7F1
:10411000BFF86421B0FBF1F000EBC00101EB00102F
:10412000ABEB8000322101EB00106421B0FBF1F019
:1041300000F00F00504421688860BDE8F88F00004F
:104140000010014000140140F8B5044694F83E0008
:10415000222873D1A068B0F5805F0CD1206950B9D6
:104160000025A66A20684068C0F308003080A06A75
:10417000801CA06215E0A56A0026A068B0F5805FEB
:1041800003D0A06828B9206918B920684068287051
:1041900004E02068406800F07F002870A06A401C9E
:1041A000A062E08D401E80B2E085002844D12068E6
:1041B000C06820F020002168C8602068C06820F432
:1041C00080702168C8602068406920F00100216883
:1041D0004861202084F83E00206B012826D1002071
:1041E000206300BF00BF21680C3151E8001F21F09F
:1041F000100021680C3141E80002002AF3D100BF11
:104200002068006800F0100010280AD100BF0020CC
:10421000009020680068009020684068009000BF0F
:1042200000BFA18D2046FDF7AAFF02E02046FEF761
:104230009FFA0020F8BD01E00020FBE70220F9E72B
:10424000014691F83D00212828D18868B0F5805FAB
:104250000BD1086948B90A6A1088C0F308000B68D6
:104260005860086A801C086205E00B6A581C0862E6
:1042700018780B685860C88C401E80B2C88458B942
:104280000868C06820F080000B68D8600868C068C3
:1042900040F040000B68D860002070470220FCE727
:1042A00000BF00BF02680C3252E8002F22F4907168
:1042B00002680C3242E80013002BF3D100BF00BFAC
:1042C00000BF0268143252E8002F22F00101026898
:1042D000143242E80013002BF3D100BF016B012917
:1042E0000ED100BF00BF02680C3252E8002F22F04E
:1042F000100102680C3242E80013002BF3D100BF1A
:10430000202180F83E1000210163704710B504465B
:104310002068C06820F040002168C860202084F830
:104320003D002046FEF766FA002010BD70B5054638
:10433000AC6B0020E085E0842046FDF721FF70BDD6
:1043400010B5002804DB0A07130E054A135406E0D3
:104350000A07140E034A00F00F031B1FD45410BDAC
:1043600000E400E018ED00E002480068C0F302201D
:10437000704700000CED00E080ED010AC0ED020A7C
:1043800080ED031AC0ED041A80ED052A7047000085
:104390009FED190A80ED000A9FED180A80ED060ACC
:1043A0009FED160A80ED070A9FED140A80ED080ABA
:1043B0009FED120A80ED090A9FED100A80ED0D0AAB
:1043C0009FED0E0A80ED0E0A9FED0C0A80ED0F0A9C
:1043D0009FED0A0A80ED100A9FED080A80ED110A90
:1043E0009FED060A80ED120A9FED040A80ED130A84
:1043F000002180F850107047CDCCCC3D000000006B
:1044000070B50446A06820B9218B01226069FCF7D1
:1044100089FB20680068456A606828B9E06828441C
:1044200021680968486316E06068042805D1E068DF
:1044300028442168096888630DE06068082805D170
:10444000E068284421680968C86304E0E0682844FB
:10445000216809680864A068401EA06070BD10B59E
:10446000530083604C000369B3FBF4F3C36010BDD9
:1044700070B504460D4616462EB1218C0022E06927
:10448000FCF750FB04E0218C0122E069FCF74AFBB9
:104490002DB1218B00226069FCF744FB04E0218BE5
:1044A00001226069FCF73EFB70BD2DE9F05F044618
:1044B0000D4616461F46DDE90CABDDE90A8925608D
:1044C00066602761606820B96420216809684863D4
:1044D00013E06068042804D16420216809688863B7
:1044E0000BE06068082804D1642021680968C8636B
:1044F00003E064202168096808642068FDF7FCF87F
:10450000D4E90001FDF72CFCC4F81480C4F81CA009
:10451000A4F81890A4F820B0BDE8F09F0146086800
:1045200070472DE9F0411C4617460E00804607D023
:10453000054602E02846B0473D442046641EF9D2B5
:104540004046BDE8F081000010B50348FFF7C8FA07
:104550000248FFF7C5FA10BDD8000020CC080020A3
:10456000C6B0FCF7F7FAFEF73FFEFEF763F9FEF779
:1045700045F9FEF7E7FAFEF74FFBFEF7A7FBFEF75C
:1045800089FAFEF727FCFEF7C7FCFEF771FCFEF781
:104590008BFCFEF7A5FCFEF763FAFE48FDF7FAF880
:1045A0003D22FD4934A8FBF7EAFEFB4890F83D00A8
:1045B0008DF80D01F84890F83E008DF80E01F64890
:1045C00090F83F108DF80F1190F840108DF81011F1
:1045D00090F841108DF8111190F842008DF81201F9
:1045E000ED4890F843108DF8131190F844108DF8B1
:1045F000141190F845108DF8151190F846008DF8BB
:1046000016013D22E44922A8FBF7B9FEE24890F8E2
:104610003D008DF8C500E04890F83E008DF8C600DA
:10462000DD4890F83F108DF8C71090F840108DF8D5
:10463000C81090F841108DF8C91090F842008DF81C
:10464000CA00D54890F843108DF8CB1090F844106C
:104650008DF8CC1090F845108DF8CD1090F84600EC
:104660008DF8CE00482234A90FA8FBF788FE3C2223
:1046700025A96846FBF783FEC84822A90EC9FEF7A4
:10468000B3FE0021C548FEF79BFE3D22C24934A877
:10469000FBF775FEC04890F83D008DF80D01BE484F
:1046A00090F83E008DF80E01BB4890F83F108DF851
:1046B0000F1190F840108DF8101190F841108DF8FE
:1046C000111190F842008DF81201B34890F8431090
:1046D0008DF8131190F844108DF8141190F84510CE
:1046E0008DF8151190F846008DF816013D22AC4961
:1046F00022A8FBF744FEAA4890F83D008DF8C500BB
:10470000A74890F83E008DF8C600A54890F83F10E5
:104710008DF8C71090F840108DF8C81090F841102F
:104720008DF8C91090F842008DF8CA009C4890F8A6
:1047300043108DF8CB1090F844108DF8CC1090F801
:1047400045108DF8CD1090F846008DF8CE00482227
:1047500034A90FA8FBF713FE3C2225A96846FBF7F6
:104760000EFE904822A90EC9FFF7C6F83D228E49D9
:1047700034A8FBF704FE8C4890F83D008DF80D013D
:10478000894890F83E008DF80E01874890F83F1058
:104790008DF80F1190F840108DF8101190F841101D
:1047A0008DF8111190F842008DF812017E4890F8B2
:1047B00043108DF8131190F844108DF8141190F8EF
:1047C00045108DF8151190F846008DF8160100205F
:1047D0003C2237A90F906846FBF7D1FD734834A9F6
:1047E0000EC9FEF7B3FD3D22714934A8FBF7C7FDA2
:1047F0006F4890F83D008DF80D016D4890F83E002F
:104800008DF80E016A4890F83F108DF80F1190F85E
:1048100040108DF8101190F841108DF8111190F89A
:1048200042008DF81201624890F843108DF8131180
:1048300090F844108DF8141190F845108DF815116A
:1048400090F846008DF816010C203C2237A90F90F5
:104850006846FBF794FD5548503034A90EC9FEF761
:1048600075FD3D22524934A8FBF789FD504890F868
:104870003D008DF80D014E4890F83E008DF80E0178
:104880004B4890F83F108DF80F1190F840108DF8BC
:10489000101190F841108DF8111190F842008DF828
:1048A0001201434890F843108DF8131190F844100A
:1048B0008DF8141190F845108DF8151190F84600F8
:1048C0008DF8160108203C2237A90F906846FBF7A7
:1048D00056FD3648A03034A90EC9FEF737FD3D22FB
:1048E000334934A8FBF74BFD314890F83D008DF873
:1048F0000D012F4890F83E008DF80E012C4890F8DD
:104900003F108DF80F1190F840108DF8101190F8AD
:1049100041108DF8111190F842008DF812012448D1
:1049200090F843108DF8131190F844108DF814117D
:1049300090F845108DF8151190F846008DF8160185
:1049400004203C2237A90F906846FBF718FD174852
:10495000F03034A90EC9FEF7F9FC3D22144934A801
:10496000FBF70DFD124890F83D008DF80D01104841
:1049700090F83E008DF80E010D4890F83F108DF82C
:104980000F1190F840108DF8101190F841108DF82B
:1049900011110FE03814002018130020D800002057
:1049A000D0120020CC08002060130020C01000208E
:1049B000A813002090F842008DF81201484890F8A2
:1049C00043108DF8131190F844108DF8141190F8DD
:1049D00045108DF8151190F846008DF8160100204D
:1049E0003C2237A90F906846FBF7C9FC3D4834A923
:1049F0000EC9FEF7ABFC3D223B4934A8FBF7BFFCD8
:104A0000394890F83D008DF80D01374890F83E0088
:104A10008DF80E01344890F83F108DF80F1190F882
:104A200040108DF8101190F841108DF8111190F888
:104A300042008DF812012C4890F843108DF81311A4
:104A400090F844108DF8141190F845108DF8151158
:104A500090F846008DF8160104203C2237A90F90EB
:104A60006846FBF78CFC214834A90EC9FEF76EFCA2
:104A70004FF400701E4942001E4BCDE90032CDE9D3
:104A800002101D4B00221D491D48FFF70EFD4FF47B
:104A9000C85211461A48FFF7E2FC1848FDF71EF904
:104AA000002211461648FFF7E3FC1648FCF772FE99
:104AB0001548FEF76FFB1548FEF76CFB1448FEF730
:104AC00069FB0CE04FF4FA60FBF710FF00220121B4
:104AD0000B48FFF7CDFC43F2B060FBF707FFF1E7AF
:104AE000A8130020001200206013002050120020A4
:104AF000002002400014024040420F00F01300204A
:104B0000A0120020181300204C15002008150020CA
:104B1000801400204FF04070E1EE100A7047000052
:104B20000000000000000000000000000006101659
:104B3000000610160000000000000000010203043F
:104B4000060708090000000001020304704B00087A
:104B500000000020D8000000E8010008484C0008D0
:104B6000D8000020781B000004020008DDF9FFFFD8
:104B7000000000000000000000000000CDCCCC3E92
:104B800000000000000000009A99193F000000009A
:104B900000000000CDCC4C3F000000009A99193F66
:104BA0000000000000000000CDCC4CBECDCCCC3DC0
:104BB000000080BF00000000570102030000000059
:104BC00000000000CDCCCC3E000000000000000042
:104BD000CDCCCCBE000000009A9919BF00000000A7
:104BE000000000009A99193F00000000000000003A
:104BF00000000000000000000000803F00000000F6
:104C000000000000000080BF9A99193F00000000DA
:104C10009A9999BE9A99193F000000009A99993E75
:104C20009A99193FCDCC4C3E000000009A99193F4B
:104C3000CDCC4CBE000000000000000010000000C1
:084C4000010000000024F40053
:04000005080001AD41
:00000001FF
