:020000040800F2
:10000000801C0020510200080D30000877280008ED
:1000100009300008CF040008593200080000000031
:100020000000000000000000000000001330000885
:10003000E504000800000000113000081530000839
:100040006B0200086B0200086B0200086B020008DC
:100050006B0200086B0200086B0200086B020008CC
:100060006B0200086B0200086B0200086B020008BC
:10007000D50400086B0200086B0200086B02000840
:100080006B0200086B0200086B0200086B0200089C
:100090006B0200086B0200086B0200086B0200088C
:1000A0006B020008313000086B0200086B02000888
:1000B0006B0200086B0200086B0200086B0200086C
:1000C0006B0200086B0200086B0200086B0200085C
:1000D0006B0200086B020008293200083932000860
:1000E0006B0200086B0200086B0200086B0200083C
:1000F0006B0200086B0200086B0200086B0200082C
:100100006B0200086B0200086B0200086B0200081B
:100110006B0200086B0200086B0200086B0200080B
:100120006B0200086B0200086B0200086B020008FB
:100130006B0200086B0200086B0200086B020008EB
:100140006B0200086B0200086B0200086B020008DB
:100150006B0200086B0200086B02000849320008BD
:100160006B0200086B0200086B0200086B020008BB
:100170006B0200086B0200086B0200080000000020
:100180006B0200086B020008CD3100086B0200080A
:100190006B0200086B0200086B0200086B0200088B
:1001A00000000000000000006B02000800F002F8F0
:1001B00000F03EF80AA090E8000C82448344AAF1C3
:1001C0000107DA4501D100F033F8AFF2090EBAE8C1
:1001D0000F0013F0010F18BFFB1A43F0010318477B
:1001E000FC5500001C560000103A24BF78C878C1A6
:1001F000FAD8520724BF30C830C144BF04680C602D
:10020000704700000023002400250026103A28BF74
:1002100078C1FBD8520728BF30C148BF0B60704778
:100220001FB505F0BFFA00F007F91FBD10B510BDEE
:1002300000F014F91146FFF7F3FF04F0F5FF00F0AA
:1002400032F903B4FFF7F2FF03BC00F039F9000004
:100250000948804709480047FEE7FEE7FEE7FEE75A
:10026000FEE7FEE7FEE7FEE7FEE7FEE70448054996
:10027000054A064B704700001D300008AD0100081C
:1002800080160020801C002080180020801800208C
:1002900053EA020C00F069802DE9F04B4FF00006A4
:1002A000002B1FBFB3FA83F503FA05F424FA05F611
:1002B0005E4012BF1643B2FA82F502FA05F4C5F1A8
:1002C00020051EBF22FA05FC44EA0C04203556EA3C
:1002D000044C4FEA144418BF641C4FF000084FF060
:1002E0000009904271EB030C39D3002919BFB1FA10
:1002F00081F701FA07F6B0FA80F700FA07F6C7F1BE
:1003000020071EBF20FA07FC46EA0C062037B6FB82
:10031000F4FCA7EB0507103F07F01F0BCBF12006FD
:100320000CFA0BFB2CFA06F644BFB3460026202F2E
:10033000A4BF5E464FF0000B5BEA060C08BF4FF00F
:10034000010B19EB0B09ABFB027C48EB0608C01B49
:1003500006FB02CC0BFB03CC71EB0C01C1E70B4697
:10036000024641464846BDE8F08B13B54FF0000009
:100370004FF00001AFF30080BDE81C40704710B59E
:10038000203AC0F00B80B1E81850203AA0E818508D
:10039000B1E81850A0E81850BFF4F5AF5FEA027C4E
:1003A00024BFB1E81850A0E8185044BF18C918C0BD
:1003B000BDE810405FEA827C24BF51F8043B40F85E
:1003C000043B08BF7047D20728BF31F8023B48BF43
:1003D00011F8012B28BF20F8023B48BF00F8012B81
:1003E00070474FF0000200B51346944696462039F8
:1003F00022BFA0E80C50A0E80C50B1F12001BFF4DE
:10040000F7AF090728BFA0E80C5048BF0CC05DF843
:1004100004EB890028BF40F8042B08BF704748BF91
:1004200020F8022B11F0804F18BF00F8012B704705
:10043000704770477047000070B5064C7C44064D0D
:100440007D4403E0206820448047241DAC42F9D15C
:1004500070BD0000BC530000BC530000754600F0A6
:100460002BF8AE4605006946534620F00700854646
:1004700018B020B5FFF7FAFEBDE820404FF00006A7
:100480004FF000074FF000084FF0000B21F007017C
:10049000AC46ACE8C009ACE8C009ACE8C009ACE8BF
:1004A000C0098D46704710B50446AFF30080204662
:1004B000BDE81040FFF7C5BE004870472016002079
:1004C00001491820ABBEFEE726000200704700BFBE
:1004D000FEE7000010B5024800F072F810BD000001
:1004E000C0150020704772B600BFFEE770B5044625
:1004F000A56D00F01DFB064694F83500022808D0D3
:100500008020606500BF002084F8340000BF012017
:1005100070BD2068006820F016002168086020681F
:10052000406920F0800021684861206C08B9A06C07
:1005300028B12068006820F0080021680860206861
:10054000006820F001002168086010E000F0F0FA77
:10055000801B05280BD920206065032084F8350016
:1005600000BF002084F8340000BF0320D0E72068DB
:10057000006800F001000028E8D194F85C103F20EA
:100580008840A860012084F8350000BF002084F86E
:10059000340000BF00BFBBE7014691F835000228D8
:1005A00003D08020486501207047052081F8350080
:1005B0000868006820F001000A6810600020F3E776
:1005C000F8B50446002000908C4800684FF416519E
:1005D000B0FBF1F7A56D2E6894F85C1008208840F8
:1005E000304098B12068006800F0040070B12068C5
:1005F000006820F004002168086094F85C1008206E
:100600008840A860606D40F00100606594F85C105F
:1006100001208840304068B12068406900F08000C7
:1006200040B194F85C1001208840A860606D40F0F3
:100630000200606594F85C1004208840304068B186
:100640002068006800F0020040B194F85C100420BB
:100650008840A860606D40F00400606594F85C100C
:1006600010208840304078B32068006800F008000F
:1006700050B394F85C1010208840A860206800688F
:1006800000F4802080B12068006800F4002028B9C0
:10069000206CC8B12046216C884715E0A06C98B149
:1006A0002046A16C88470FE02068006800F4807045
:1006B00028B92068006820F0080021680860206CD4
:1006C00010B12046216C884794F85C1020208840A7
:1006D0003040002865D02068006800F01000002835
:1006E0005FD094F85C1020208840A86094F8350012
:1006F000052828D12068006820F0160021680860CD
:100700002068406920F0800021684861206C08B9A9
:10071000A06C28B12068006820F0080021680860FB
:1007200094F85C103F208840A860012084F83500D0
:1007300000BF002084F8340000BF206D10B12046B7
:10074000216D8847F8BD2068006800F4802080B1E2
:100750002068006800F4002028B9606C10B12046C1
:10076000616C88471DE0E06BD8B12046E16B88479B
:1007700017E02068006800F4807068B9206800689D
:1007800020F0100021680860012084F8350000BFC7
:10079000002084F8340000BFE06B10B12046E16B0C
:1007A0008847606D38B3606D00F00100F0B105203E
:1007B00084F835002068006820F001002168086096
:1007C00000BF0098401C0090B84200D905E02068A6
:1007D000006800F001000028F3D100BF012084F878
:1007E000350000BF002084F8340000BFE06C10B179
:1007F0002046E16C884700BFA4E7000018000020F5
:100800002DE9F0410446002500F092F9074614B99D
:100810000120BDE8F081606A00B100BF022084F8C9
:10082000350000BF002084F8340000BF2068006855
:1008300020F00100216808600AE000F079F9C01B8F
:10084000052805D920206065032084F83500E0E7FD
:100850002068006800F001000028EED120680568DB
:1008600021480540D4E901010843E16808432169B2
:10087000084361690843A1690843E1690843216AA3
:1008800008430543606A042803D1D4E90B010843F7
:100890000543206805602068456925F00705606A02
:1008A0000543606A04280DD1A06A0543E06A48B197
:1008B000204603F03FFD28B140206065012084F808
:1008C0003500A6E720684561204603F089FD06460D
:1008D00094F85C103F208840B060002060650120E3
:1008E00084F83500002094E73F8010F070B504468E
:1008F00000F01EF906462546681C10B10448007831
:10090000054400BF00F014F9801BA842FAD370BD63
:1009100014000020F8B502460B46002500240020F4
:100920000021E0E0012606FA01F51E6806EA05044A
:10093000AC4274D11E7906F00306012E04D01E7954
:1009400006F00306022E13D190684F000326BE4026
:10095000B0434F00DE68BE403043906050680126CF
:100960008E40B0431E79C6F300168E40304350606F
:100970001E7906F00306032E09D0D0684F00032627
:10098000BE40B0434F009E68BE403043D0601E79E9
:1009900006F00306022E13D1CF0802F1200656F806
:1009A00027004E07F70E0F26BE40B0434F07FF0E3D
:1009B0001E69BE403043CF0802F1200646F82700EA
:1009C00010684F000326BE40B0431E7906F00306B0
:1009D0004F00BE40304310605E6806F44036002E83
:1009E0001DD000BF00260096414E366846F4804672
:1009F0003F4F3E603E46366806F48046009600BF94
:100A000000BF3C4E8F0856F827008E07370F0F2681
:100A1000BE40B043384EB24202D100262EE061E023
:100A2000364EB24201D1012628E0354EB24201D104
:100A3000022623E0334EB24201D103261EE0324E9D
:100A4000B24201D1042619E0304EB24201D105264E
:100A500014E02F4EB24201D106260FE02D4EB242D5
:100A600001D107260AE02C4EB24201D1082605E04A
:100A70002A4EB24201D1092600E00A268F073F0F15
:100A8000BE4030431B4E8F0846F82700244E306886
:100A9000A0435E6806F4801606B12043204E306005
:100AA000361D3068A0435E6806F4001606B1204388
:100AB0001B4E361D30601A4E361F3068A0435E68EC
:100AC00006F4003606B12043154E361F3060361F3F
:100AD0003068A0435E6806F4803606B12043104EAD
:100AE000083E3060491C1029FFF41CAFF8BD00001F
:100AF000443802400838014000000240000402402F
:100B000000080240000C02400010024000140240A5
:100B100000180240001C0240002002400024024055
:100B2000083C01400AB1816101E00B048361704718
:100B300001480068704700000C000020034800686E
:100B40000349097808440149086070470C000020F7
:100B50001400002010B50D48006840F400700B49E7
:100B600008600846006840F4806008600846006835
:100B700040F480700860032000F0A2F80F2000F01D
:100B800007F800F02BF8002010BD0000003C0240E8
:100B900070B504460E4800784FF47A71B1FBF0F05E
:100BA0000C490968B1FBF0F5284600F02BFC08B1B0
:100BB000012070BD102C07D200222146501E00F0EB
:100BC00041F80548046001E00120F2E70020F0E769
:100BD00014000020180000201000002008B500BFFD
:100BE000002000900E48006840F480400C490860E6
:100BF0000846006800F48040009000BF00BF00BFBE
:100C000000200090081F006840F08050091F086015
:100C10000846006800F08050009000BF00BF08BD8B
:100C20004438024001460846002809DB00F01F0353
:100C300001229A4043099B0003F1E023C3F80021FD
:100C400000BF70472DE9F05F80460D46164600272D
:100C500003F0D4FE074639462A46334601F0070022
:100C6000C0F1070ABAF1040F02D94FF0040A01E0FB
:100C7000C0F1070AD14600F1040ABAF1070F02D207
:100C80004FF0000A01E0A0F1030AD4464FF0010A38
:100C90000AFA09FAAAF1010A0AEA020A0AFA0CFA9D
:100CA0004FF0010B0BFA0CFBABF1010B0BEA030B42
:100CB0004AEA0B042146404603F08CFEBDE8F09F53
:100CC00000BF00F00702064B19684FF6FF031940FA
:100CD000044B0B4343EA0221014B196000BF7047EC
:100CE0000CED00E00000FA0570B504460D460CB9A5
:100CF000012070BD5848006800F00F00A84209D2DA
:100D000055490D700846006800F00F00A84201D058
:100D10000120EEE7207800F0020002281DD12078A3
:100D200000F00400042805D14C48006840F4E0506D
:100D30004A490860207800F00800082805D1474893
:100D4000006840F46040454908604448006820F06D
:100D5000F000A168084341490860207800F00100D4
:100D6000A8B36068012807D13C4808380068C0F380
:100D70004040B8B90120BCE76068022802D0606832
:100D8000032807D1354808380068C0F3406048B9E7
:100D90000120AEE7314808380068C0F3400008B9C8
:100DA0000120A6E72D48006820F003006168084391
:100DB0002A490860FFF7BCFE064609E0FFF7B8FEC7
:100DC000801B41F28831884202D9032091E707E075
:100DD0002248006800F00C006168B0EB810FEDD193
:100DE0001D48006800F00F00A84209D91A490D708B
:100DF0000846006800F00F00A84201D0012078E703
:100E0000207800F00400042807D11448006820F47A
:100E1000E050E168084311490860207800F00800BC
:100E2000082808D10D48006820F46040216940EA94
:100E3000C1000A49086000F03FF808490968C1F399
:100E40000311074A515CC84006490860064800681B
:100E5000FFF79EFE00204CE7003C024008380240AD
:100E6000C457000818000020100000200148006846
:100E7000704700001800002000B5FFF7F7FF044995
:100E80000968C1F38221034A515CC84000BD0000DB
:100E900008380240D457000800B5FFF7E7FF0449BF
:100EA0000968C1F34231034A515CC84000BD0000EB
:100EB00008380240D45700082DE9F04700240025E7
:100EC0000026A1462548006800F00C0020B1042847
:100ED00005D008283AD105E0DFF8849039E0DFF842
:100EE000849036E01D48001F006800F03F041B4856
:100EF000001F006800F4800078B11A481749091FE4
:100F00000968C1F38811A0FB017001462246002345
:100F10003846FFF7BDF905460EE011480F49091F95
:100F20000968C1F38811A0FB017001462246002325
:100F30003846FFF7ADF905460848001F0068C0F3C2
:100F40000140401C4600B5FBF6F902E0DFF81090C6
:100F500000BF00BF4846BDE8F087000008380240E7
:100F60000024F400001BB700F8B504460CB90120BA
:100F7000F8BD207800F00100002874D0F94800681E
:100F800000F00C0004280DD0F648006800F00C00BA
:100F9000082813D1F348001F006800F48000B0F562
:100FA000800F0BD1EF4808380068C0F3404000289C
:100FB00059D06068002856D10120D9E700BF606889
:100FC000B0F5803F08D1E7480838006840F4803029
:100FD000E449083908601EE06068B0F5A02F0DD123
:100FE000E0480838006840F48020DE49083908608D
:100FF0000846006840F4803008600CE0D9480838A2
:10100000006820F48030D749083908600846006835
:1010100020F48020086000BF606890B1FFF788FD71
:10102000054606E0FFF784FD401B642801D9032034
:101030009EE7CC4808380068C0F340400028F1D053
:1010400011E0FFF775FD054606E0FFF771FD401B57
:10105000642801D903208BE7C24808380068C0F330
:1010600040400028F1D1207800F0020002285FD132
:10107000BC48006800F00C0058B1BA48006800F0A5
:101080000C0008281CD1B748001F006800F480003D
:10109000B0B9B44808380068C0F3400020B1E06837
:1010A000012801D0012063E7AE480838006820F02D
:1010B000F800216940EAC100AA490839086037E010
:1010C000E06800B30120A8490860FFF731FD05463C
:1010D00006E0FFF72DFD401B022801D9032047E75A
:1010E000A04808380068C0F340000028F1D09D48AF
:1010F0000838006820F0F800216940EAC1009949E9
:101100000839086014E0002097490860FFF710FDD7
:10111000054606E0FFF70CFD401B022801D903201D
:1011200026E7904808380068C0F340000028F1D155
:10113000207800F0080008282CD16069A8B10120AF
:101140008A490860FFF7F4FC054606E0FFF7F0FC6B
:10115000401B022801D903200AE782486C3000684E
:10116000C0F340000028F1D014E000207F4908605F
:10117000FFF7DEFC054606E0FFF7DAFC401B02281D
:1011800001D90320F4E677486C300068C0F34000D2
:101190000028F1D1207800F00400042870D1002745
:1011A00070483830006800F0805090B900BF0020CF
:1011B00000906C483830006840F080506949383100
:1011C00008600846006800F08050009000BF00BF33
:1011D00001276748006800F48070B0B9644800686F
:1011E00040F4807062490860FFF7A2FC054606E003
:1011F000FFF79EFC401B022801D90320B8E65C489B
:10120000006800F480700028F2D000BFA0680128B8
:1012100008D154486830006840F0010051496831F5
:1012200008601DE0A06805280DD14E4868300068B0
:1012300040F004004B49683108600846006840F0FF
:10124000010008600CE047486830006820F00100A9
:101250004449683108600846006820F004000860CE
:1012600000BFA068A8B1FFF763FC054609E0FFF7DF
:101270005FFC401B41F28831884202D9032077E6A7
:1012800026E0384868300068C0F340000028EED0FF
:1012900013E0FFF74DFC054608E0FFF749FC401B53
:1012A00041F28831884201D9032061E62D48683037
:1012B0000068C0F340000028EFD1012F07D1294872
:1012C0003830006820F0805026493831086000BF6F
:1012D000A069002845D02348006800F00C000828C9
:1012E0005DD0A069022845D100201F490866FFF79C
:1012F0001FFC054606E0FFF71BFC401B022801D936
:10130000032035E6174808380068C0F3406000281D
:10131000F1D1D4E907010843616A40EA8111012251
:10132000A06AC2EB500041EA00412C20005D41EA76
:1013300000600C49091F086001200B490866FFF78F
:10134000F7FB054606E0FFF7F3FB401B022801D937
:1013500003200DE6034808380068C0F34060002809
:10136000F1D049E00838024000004742800E474271
:1013700000700040002021490866FFF7D9FB0546B0
:1013800006E0FFF7D5FB401B022801D90320EFE55B
:101390001B480068C0F340600028F2D12CE0A0692F
:1013A000012800D1E4E51648001D0668A06901285F
:1013B00020D006F48001E06981421BD106F03F0194
:1013C000206A814216D147F6C0703040616AB0EBA6
:1013D000811F0FD106F440310122A06AC2EB5000F8
:1013E000B1EB004F06D106F070612C20005DB1EB2F
:1013F000006F01D00120BBE50020B9E500004742A5
:101400000038024070B504462546681EB0F1807F62
:1014100001D301200FE0681E4FF0E02148610F2149
:101420004FF0FF3003F0D6FA00204FF0E021886142
:1014300007200861002070BD7047704710B5034653
:10144000002200BF93F83C00012801D1022010BD0A
:10145000012083F83C0000BF22F0FF00CC6840EA86
:10146000040222F440708C6840EA040222F4806096
:101470004C6840EA040222F400600C6840EA04026E
:1014800022F480500C6940EA040222F400504C69B6
:1014900040EA040222F48040CC6940EA0402186861
:1014A000426400BF002083F83C0000BF00BFCEE7CD
:1014B00030B502460B4600BF92F83C00012801D12E
:1014C000022030BD012082F83C0000BF022082F8DB
:1014D0003D00106844681068816824F07004186842
:1014E000044310684460184D1068A8421BD010686F
:1014F000B0F1804F17D0154D1068A84213D0144D8D
:101500001068A8420FD0134D1068A8420BD0124D9E
:101510001068A84207D0114D1068A84203D0104DA2
:101520001068A84205D121F0800158680143106875
:101530008160012082F83D0000BF002082F83C005D
:1015400000BF00BFBDE700000000014000040040F4
:1015500000080040000C0040000401400040014031
:101560000018004010B504460CB9012010BD94F8D5
:101570003D0028B9002084F83C00204600F026F801
:10158000022084F83D00211D206801F059FD012052
:1015900084F8460000BF84F83E0001213F20015539
:1015A000402001554120015500BF00BF012084F8B3
:1015B000420043200155442001554520015500BFFC
:1015C000012084F83D000020D0E7000038B5044633
:1015D0002068B0F1804F0FD100BF0020009040483C
:1015E000006840F001003E4908600846006800F0CD
:1015F0000100009000BF71E03A49206888420FD195
:1016000000BF002000903648006840F004003449D4
:1016100008600846006800F00400009000BF5DE02C
:101620003149206888420FD100BF002000902C482B
:10163000006840F008002A4908600846006800F089
:101640000800009000BF49E028492068884211D175
:1016500000BF002000902248001D006840F00200FA
:101660001F49091D08600846006800F0020000904C
:1016700000BF33E01E492068884211D100BF00201E
:1016800000901748001D006840F480301449091D7F
:1016900008600846006800F48030009000BF1DE03C
:1016A00014492068884219D100BF002000900C48DE
:1016B000001D006840F400300949091D0860084613
:1016C000006800F40030009000BF00BF0022114607
:1016D0001920FFF7B7FA1920FFF7A4FA38BD000068
:1016E0004038024000080040000C00400004014067
:1016F0000040014000440140014691F83D000128AE
:1017000001D001207047022081F83D001A4B086883
:1017100098421BD00868B0F1804F17D0174B08686B
:10172000984213D0164B086898420FD0154B0868A2
:1017300098420BD0144B0868984207D0134B0868A6
:10174000984203D0124B086898420CD10868806810
:1017500000F00702062A0CD00868006840F001007B
:101760000B68186005E00868006840F001000B682D
:1017700018600020C6E7000000000140000400409F
:1017800000080040000C00400004014000400140FF
:1017900000180040014691F83D00012801D00120C9
:1017A0007047022081F83D000868C06840F00100E1
:1017B0000B68D8601A4B086898421BD00868B0F1D3
:1017C000804F17D0174B0868984213D0164B086803
:1017D00098420FD0154B086898420BD0144B0868FC
:1017E000984207D0134B0868984203D0124B086800
:1017F00098420CD10868806800F00702062A0CD0D5
:101800000868006840F001000B68186005E008688F
:10181000006840F001000B6818600020C0E700007D
:10182000000001400004004000080040000C00409F
:101830000004014000400140001800402DE9F04143
:1018400004460D46002700BF94F83C00012802D151
:101850000220BDE8F081012084F83C0000BF022096
:1018600084F83D002068866826F0770626F47F46D7
:10187000206886602868502833D00CDC202850D09F
:1018800004DC00284BD0102851D149E0302849D041
:1018900040284CD139E060282DD0702807D0B0F511
:1018A000805F03D0B0F5005F41D10DE041E0D5E9A4
:1018B00002136A68206801F040FC2068866846F0E0
:1018C00077062068866034E0D5E902136A682068EC
:1018D00001F033FC2068806840F480402168886013
:1018E00027E0EA686968206802F03BFE5021206822
:1018F00002F02EFE1DE0EA686968206802F044FEEE
:101900006021206802F024FE13E0EA68696820681C
:1019100002F027FE4021206802F01AFE09E000BF15
:1019200000BF00BF2968206802F012FE01E0012715
:1019300000BF00BF012084F83D0000BF002084F8F4
:101940003C0000BF384684E7704710B50446206865
:101950000069C0F34000D8B12068C068C0F34000FF
:10196000B0B16FF002002168086101202077206883
:10197000806900F0030018B12046FFF7E5FF05E09D
:10198000204600F0ABF9204600F050FB0020207705
:1019900020680069C0F38000D8B12068C068C0F337
:1019A0008000B0B16FF00400216808610220207748
:1019B0002068806900F4407018B12046FFF7C4FF2A
:1019C00005E0204600F08AF9204600F02FFB0020B9
:1019D000207720680069C0F3C000D8B12068C068D3
:1019E000C0F3C000B0B16FF00800216808610420A6
:1019F00020772068C06900F0030018B12046FFF787
:101A0000A3FF05E0204600F069F9204600F00EFB38
:101A10000020207720680069C0F30010D8B120684A
:101A2000C068C0F30010B0B16FF010002168086109
:101A3000082020772068C06900F4407018B1204663
:101A4000FFF782FF05E0204600F048F9204600F04D
:101A5000EDFA002020772068006900F0010058B1FD
:101A60002068C06800F0010030B16FF0010021680B
:101A70000861204600F062FB20680069C0F3C010D6
:101A800058B12068C068C0F3C01030B16FF080005A
:101A9000216808612046FFF7CFFC20680069C0F389
:101AA000801058B12068C068C0F3801030B16FF06A
:101AB000400021680861204600F060FB2068006952
:101AC000C0F3401058B12068C068C0F3401030B176
:101AD0006FF02000216808612046FFF7AEFC10BDC2
:101AE00010B586B00446142101A8FEF77AFC2068E0
:101AF000B0F1804F1DD100BF002000905248006817
:101B000040F00100504908600846006800F00100FC
:101B1000009000BF00BF032001900220029000202F
:101B2000039004900120059001A94848FEF7F2FEB9
:101B300088E04749206888421ED100BF00200090FD
:101B40004148006840F008003F49086008460068C6
:101B500000F00800009000BF00BF4FF470400190FB
:101B6000022002900020039004900220059001A919
:101B70003848FEF7CFFE65E03749206888421ED11D
:101B800000BF002000903048006840F080002E49DF
:101B900008600846006800F08000009000BF00BFA9
:101BA0004FF44060019002200290002003900490C6
:101BB0000220059001A92948FEF7ACFE42E0284921
:101BC000206888421DD100BF002000901E48006898
:101BD00040F480701C4908600846006800F480707A
:101BE000009000BF00BFE42001900220029000207E
:101BF000039004900320059001A91A48FEF78AFE7D
:101C000020E01949206888421CD100BF00200090C4
:101C10000D48006840F001000B4908600846006864
:101C200000F00100009000BF00BF0C2001900220D6
:101C300002900020039004900320059001A903481E
:101C4000FEF768FE06B010BD3038024000000240CA
:101C500000080040000C0240000C0040001C024044
:101C60000004014000200240004001402DE9F04105
:101C700004460E461546002700BF94F83C00012894
:101C800002D10220BDE8F081012084F83C0000BFB1
:101C900035B1042D09D0082D0CD00C2D14D10EE037
:101CA0003146206802F0B6FB10E03146206801F0B2
:101CB0004FFA0BE03146206802F0E4FB06E03146C3
:101CC000206802F01BFC01E0012700BF00BF00BF3D
:101CD000002084F83C0000BF3846D3E710B5044626
:101CE000044803F07FFAA04202D1024803F0ECF965
:101CF00010BD00008812002010B504460CB9012068
:101D000010BD94F83D0028B9002084F83C0020461E
:101D100000F025F8022084F83D00211D206801F024
:101D20008FF9012084F8460000BF84F83E000121AD
:101D30003F200155402001554120015500BF00BF03
:101D4000012084F8420043200155442001554520DC
:101D5000015500BF012084F83D000020D0E7704706
:101D6000F0B504460D46002615B994F83E000BE088
:101D7000042D02D13F20005D06E0082D02D1402055
:101D8000005D01E04120005D012801D00120F0BD8F
:101D90001DB9022084F83E000EE0042D03D102217B
:101DA0003F20015508E0082D03D1022140200155B4
:101DB00002E002214120015535B1042D0BD0082D40
:101DC00010D00C2D1CD114E02068C06840F0020037
:101DD0002168C86016E02068C06840F004002168EF
:101DE000C8600FE02068C06840F008002168C86043
:101DF00008E02068C06840F010002168C86001E079
:101E0000012600BF00BFEEBB01222946206801F079
:101E100083F924492068884203D0234920688842F6
:101E200001D1012000E0002028B12068406C40F47E
:101E30000040216848641B49206888421BD0206804
:101E4000B0F1804F17D019492068884213D0184943
:101E5000206888420FD01749206888420BD0124969
:101E60002068884207D014492068884203D013496B
:101E7000206888420ED12068806800F00707062F8E
:101E80000ED000E00CE02068006840F001002168FE
:101E9000086005E02068006840F0010021680860E3
:101EA000304674E700000140000401400004004097
:101EB00000080040000C00400040014000180040B5
:101EC0002DE9F04104460D461646002700BF94F860
:101ED0003C00012802D10220BDE8F081012084F8F5
:101EE0003C0000BF36B1042E1BD0082E31D00C2E82
:101EF0005ED145E02946206802F08CFA20688069AE
:101F000040F00800216888612068806920F00400A2
:101F1000216888612068806929690843216888618F
:101F200048E02946206801F013F92068806940F4F0
:101F30000060216888612068806920F480602168E1
:101F4000886120688069296940EA012021688861E8
:101F500030E02946206802F095FA2068C06940F018
:101F600008002168C8612068C06920F00400216869
:101F7000C8612068C069296908432168C86119E0FF
:101F80002946206802F0BAFA2068C06940F400606F
:101F90002168C8612068C06920F480602168C86138
:101FA0002068C069296940EA01202168C86101E010
:101FB000012700BF00BF00BF002084F83C0000BF25
:101FC000384689E710B504460CB9012010BD94F8D5
:101FD0003D0028B9002084F83C00204600F025F898
:101FE000022084F83D00211D206801F029F801201D
:101FF00084F8460000BF84F83E0001213F200155CF
:10200000402001554120015500BF00BF012084F848
:10201000420043200155442001554520015500BF91
:10202000012084F83D000020D0E770477047000091
:1020300070B504460D4615B994F83E000BE0042D2A
:1020400002D13F20005D06E0082D02D14020005D56
:1020500001E04120005D012801D0012070BD1DB9C3
:10206000022084F83E000EE0042D03D102213F201F
:10207000015508E0082D03D102214020015502E05E
:1020800002214120015501222946206801F044F82F
:1020900023492068884203D022492068884201D120
:1020A000012000E0002028B12068406C40F400408E
:1020B000216848641A49206888421BD02068B0F122
:1020C000804F17D018492068884213D017492068DC
:1020D00088420FD01649206888420BD011492068E9
:1020E000884207D013492068884203D012492068EB
:1020F00088420CD12068806800F00706062E0CD0BC
:102100002068006840F001002168086005E0206850
:10211000006840F001002168086000209EE7000090
:10212000000001400004014000040040000800409D
:10213000000C0040004001400018004010B504466B
:10214000094884420ED101220849094800F066FB83
:1021500001220649074800F061FB012203490648B5
:1021600000F05CFB10BD00002414002009000020DA
:102170007C150020381500206C1400207047704733
:10218000704700002DE9F84F044620680568206874
:10219000C668206847694FF00009CA4605F00F0974
:1021A000B9F1000F0AD105F0200038B106F0200087
:1021B00020B1204602F012FBBDE8F88FB9F1000F04
:1021C0007CD007F0010018B906F49070002875D093
:1021D00005F0010030B106F4807018B1206C40F0B9
:1021E0000100206405F0040030B107F0010018B1CF
:1021F000206C40F00200206405F0020030B107F0CE
:10220000010018B1206C40F00400206405F00800C3
:1022100048B106F0200010B907F0010018B1206C99
:1022200040F008002064206C002846D005F0200013
:1022300028B106F0200010B1204602F0CFFA206845
:102240004069C0F3801A206C00F0080010B9BAF1A0
:10225000000F2DD0204602F06DFB2068406900F091
:102260004000402820D100BF00BF2168143151E850
:10227000001F21F040002168143141E80002002ACB
:10228000F3D100BFA06B50B17548A16B0865A06B7E
:10229000FEF782F988B1A06B016D88470DE02046FA
:1022A000FFF76EFF09E009E02046FFF769FF04E051
:1022B0002046FFF765FF002020647DE7206B0128A2
:1022C00076D105F01000002872D006F0100000282A
:1022D000FAD000BF002000902068006800902068BD
:1022E0004068009000BF00BF2068406900F04000D7
:1022F00040285ED1A06B006840681FFA80F8B8F1F2
:10230000000F54D0A08D404551DDA4F82E80A06B65
:10231000C069B0F5807F43D000BF00BF21680C3199
:1023200051E8001F21F4807021680C3141E800025F
:10233000002AF3D100BF00BF00BF2168143151E86B
:10234000001F21F001002168143141E80002002A39
:10235000F3D100BF00BF00BF2168143151E8001F56
:1023600021F040002168143141E80002002AF3D135
:1023700000BF202084F83E000020206300BF00BF83
:1023800021680C3151E8001F21F0100021680C3148
:1023900041E80002002AF3D100BFA06BFEF7A6F8C7
:1023A000A08DE28D801A81B22046FFF7E8FE03E798
:1023B00040E0A08DE18D401A1FFA80F8E08DC0B397
:1023C000B8F1000F35D000BF00BF21680C3151E8D3
:1023D000001F21F4907021680C3141E80002002AAE
:1023E000F3D100BF00BF00BF2168143151E8001FC6
:1023F00021F001002168143141E80002002AF3D1E4
:1024000000BF202084F83E000020206300BF00BFF2
:1024100021680C3151E8001F21F0100021680C31B7
:1024200041E80002002AF3D100BF41462046FFF7F1
:10243000A6FEC1E605F0800030B106F0800018B1BC
:10244000204602F047FAB7E605F0400030B106F04A
:10245000400018B1204602F0A3FAADE600BFABE69B
:10246000C149000810B504460CB9012010BDA0698F
:1024700000B100E000BF94F83D0028B9002084F8C6
:102480003C00204600F028F8242084F83D00206815
:10249000C06820F400502168C860204602F088F827
:1024A0002068006920F49040216808612068406934
:1024B00020F02A00216848612068C06840F400507C
:1024C0002168C86000202064202084F83D0084F842
:1024D0003E000020CAE7000010B586B00446142173
:1024E00001A8FDF77EFFA6492068884256D100BFAB
:1024F00000200090A348006840F08040A149086097
:102500000846006800F08040009000BF00BF00BF98
:10251000002000909B481038006840F01000994956
:10252000103908600846006800F01000009000BFF5
:1025300000BF4FF4C0700190022002900020039071
:10254000032004900820059001A98F48FEF7E2F9C6
:102550008E488F4908608005486040218C48816022
:102560000021C1604FF480610161002141618161FE
:10257000C16101624162FEF743F908B1FDF7B3FFA3
:1025800000BF83486063846300BF0022114652206D
:10259000FEF758FB5220FEF745FBEEE07D49206830
:1025A000884230D100BF002000907648006840F09B
:1025B0000040744908600846006800F00040009040
:1025C00000BF00BF00BF002000906E4810380068B8
:1025D00040F010006B49103908600846006800F0B0
:1025E0001000009000BF00BF032001900220029065
:1025F00000200390032004900820059001A9624860
:10260000FEF788F9B9E064492068884238D100BFF4
:10261000002000905B48006840F400305949086091
:102620000846006800F40030009000BF00BF00BF03
:102630000020009053481038006840F008005149CD
:10264000103908600846006800F00800009000BFDC
:1026500000BF602001900220029000200390032020
:1026600004900720059001A94C48FEF753F9002279
:1026700011462620FEF7E6FA2620FEF7D3FA7CE084
:1026800047492068884239D100BF002000903D486A
:10269000006840F480203B4908600846006800F468
:1026A0008020009000BF00BF00BF00200090354890
:1026B0001038006840F008003249103908600846B8
:1026C000006800F00800009000BF00BF4FF44070A9
:1026D0000190022002900020039003200490072024
:1026E000059001A92D48FEF715F900221146272073
:1026F000FEF7A8FA2720FEF795FA3EE02949206860
:1027000088423AD100BF002000901E48001D00689A
:1027100040F020001B49091D08600846006800F0D1
:102720002000009000BF00BF00BF002000901548AF
:102730001038006840F0400012491039086008461F
:10274000006800F04000009000BF00BF4FF48440DC
:1027500001900220029000200390032004900820A2
:10276000059001A91048FEF7D5F800221146472030
:10277000FEF768FA4720FEF755FA06B010BD0000D4
:1027800000780040403802400010024028600240BB
:10279000C0150020007C004000440040000C0240B6
:1027A00000480040001401400018024070B5044683
:1027B0000D46164694F83E00202816D105B10EB9F4
:1027C000012070BD00BF94F83C00012801D1022017
:1027D000F7E7012084F83C0000BF00202063324668
:1027E0002946204600F0FAFCEBE70220E9E700006A
:1027F00010B504460648844205D00648844202D0FB
:102800000548844202D1204600F028FD10BD00009A
:102810007C150020381500206C14002010B50346EC
:1028200093F83D00202823D101B10AB9012010BD41
:1028300000BF93F83C00012801D10220F7E70120F6
:1028400083F83C0000BF19629A84DA84002018647F
:10285000212083F83D0000BF002083F83C0000BF2A
:102860001868C06840F080001C68E0600020DEE767
:102870000220DCE7704700BFFEE7000008B500BF9C
:10288000002000900A48006840F4001008490860E1
:102890000846006800F40010009000BF00BF00224E
:1028A00011460C20FEF7CEF90C20FEF7BBF908BD4F
:1028B0003038024000B587B0142102A8FDF791FD21
:1028C00000BF002001907F48006840F010007D4963
:1028D00008600846006800F01000019000BF00BFCB
:1028E00000BF002001900846006840F040000860EA
:1028F0000846006800F04000019000BF00BF00BF24
:10290000002001900846006840F001000860084679
:10291000006800F00100019000BF00BF00BF002070
:1029200001900846006840F008000860084600680A
:1029300000F00800019000BF00BF00BF0020019020
:102940000846006840F4807008600846006800F49B
:102950008070019000BF00BF00BF002001900846BA
:10296000006840F0200008600846006800F0200081
:10297000019000BF00BF00BF002001900846006822
:1029800040F0800008600846006800F08000019078
:1029900000BF00BF00BF002001900846006840F063
:1029A000040008600846006800F00400019000BFC1
:1029B00000BF00BF002001900846006840F0020000
:1029C00008600846006800F00200019000BF00BFE8
:1029D000002241F270013C48FEF7A4F800224FF4B7
:1029E00000713A48FEF79EF8002240F20341384851
:1029F000FEF798F800223E213648FEF793F80022B1
:102A000030213548FEF78EF8002201213348FEF7C9
:102A100089F841F270000290012003900020049098
:102A2000059002A92848FDF775FF4FF40070029049
:102A30000120039000200490059002A92348FDF78F
:102A400069FF40F2034002900120039000200490AF
:102A5000059002A91E48FDF75DFF012002900020AD
:102A60000390049002A91B48FDF754FF3E200290FA
:102A70000120039000200490059002A91548FDF75D
:102A800049FF30200290012003900020049005901F
:102A900002A91148FDF73EFF02200290002003909A
:102AA000049002A90D48FDF735FF01200290039024
:102AB00000200490059002A90848FDF72BFF07B0FD
:102AC00000BD0000303802400010024000200240EB
:102AD00000140240000802400000024000040240CE
:102AE00010B50A480A49086040F2E7304860002102
:102AF0000748816040F2E731C160002101618161D6
:102B0000FEF730FD08B1FDF7EEFC10BD00440140BA
:102B10002414002000B58DB0002009900A900B907D
:102B20000C90079008901C216846FDF75AFC4FF066
:102B3000804023490860D1204860002120488160FE
:102B400040F2E731C160002101618161FEF70AFDB9
:102B500008B1FDF7C8FC4FF48050099009A9184846
:102B6000FEF76CFE08B1FDF7BEFC1548FFF72AFA28
:102B700008B1FDF7B8FC00200790089007A910489D
:102B8000FEF796FC08B1FDF7AEFC60200090002037
:102B9000019002900490002269460948FFF790F9DD
:102BA00008B1FDF7A0FC042269460548FFF788F943
:102BB00008B1FDF798FC0248FEF792FF0DB000BD8A
:102BC000BC12002000B58DB0002009900A900B9037
:102BD0000C90079008901C216846FDF702FC2C48D9
:102BE0002C490860D120486000212A48816040F2C9
:102BF000E731C160002101618161FEF7B3FC08B1DA
:102C0000FDF771FC4FF48050099009A92148FEF7A7
:102C100015FE08B1FDF767FC1E48FFF7D3F908B1B0
:102C2000FDF761FC00200790089007A91948FEF7FE
:102C30003FFC08B1FDF757FC602000900020019098
:102C400002900490002269461248FFF739F908B152
:102C5000FDF749FC042269460E48FFF731F908B137
:102C6000FDF741FC082269460A48FFF729F908B137
:102C7000FDF739FC0C2269460648FFF721F908B137
:102C8000FDF731FC0348FEF72BFF0DB000BD00003F
:102C9000000800400413002000B58DB0002009900A
:102CA0000A900B900C90079008901C216846FDF745
:102CB00098FB24482449086053204860002122489A
:102CC000816040F6B731C160002101618161FEF78A
:102CD00049FC08B1FDF707FC4FF48050099009A9A1
:102CE0001948FEF7ABFD08B1FDF7FDFB1648FFF7ED
:102CF00069F908B1FDF7F7FB00200790089007A9D4
:102D00001148FEF7D5FB08B1FDF7EDFB6020009000
:102D10000020019002900490002269460A48FFF7C3
:102D2000CFF808B1FDF7DFFB042269460648FFF73C
:102D3000C7F808B1FDF7D7FB0348FEF7D1FE0DB089
:102D400000BD0000000C00404C13002000B595B001
:102D5000002011901290139014900F9010901C214D
:102D600008A8FDF73EFB20216846FDF73AFB3748EF
:102D700037490860A720486000213548816040F647
:102D8000B731C1600021016141618161FEF7EAFB59
:102D900008B1FDF7A8FB4FF48050119011A92C4801
:102DA000FEF74CFD08B1FDF79EFB2948FFF70AF935
:102DB00008B1FDF798FB00200F9010900FA9244850
:102DC000FEF776FB08B1FDF78EFB6020089000202F
:102DD00009900A900B900C900D900E90002208A97B
:102DE0001B48FFF76DF808B1FDF77DFB042208A929
:102DF0001748FFF765F808B1FDF775FB082208A929
:102E00001348FFF75DF808B1FDF76DFB0C2208A928
:102E10000F48FFF755F808B1FDF765FB002000905B
:102E200001900290039004904FF400500590002010
:102E3000079069460648FEF701FB08B1FDF753FB12
:102E40000348FEF74DFE15B000BD00000004014030
:102E50009413002000B58BB00020079008900990D3
:102E60000A901C216846FDF7BCFA1F481F490860FC
:102E70005320486000211D488160A721C1600021C6
:102E800001618161FEF76EFB08B1FDF72CFB4FF489
:102E90008050079007A91548FEF7D0FC08B1FDF750
:102EA00022FB1248FEF728FF08B1FDF71CFB30207B
:102EB0000090002001900220029000200490002247
:102EC00069460A48FEF7D2FE08B1FDF70CFB042262
:102ED00069460648FEF7CAFE08B1FDF704FB034841
:102EE000FEF7FEFD0BB000BD00400140DC130020EA
:102EF00010B50B480B4908604FF41650486000218C
:102F000008488160C16001610C214161002181613B
:102F1000C161FFF7A7FA08B1FDF7E5FA10BD00009F
:102F2000007800406C14002010B50B480B49086075
:102F30004FF4E1304860002108488160C1600161C0
:102F40000C21416100218161C161FFF78BFA08B159
:102F5000FDF7C9FA10BD0000007C0040B01400204D
:102F600010B50B480B4908604FF4E1304860002170
:102F700008488160C16001610C21416100218161CB
:102F8000C161FFF76FFA08B1FDF7ADFA10BD00009F
:102F900000440040F414002010B50B480B490860B1
:102FA0004FF416504860002108488160C1600161FB
:102FB0000C21416100218161C161FFF753FA08B121
:102FC000FDF791FA10BD00000048004038150020C0
:102FD00010B50B480B4908604FF4165048600021AB
:102FE00008488160C16001610C214161002181615B
:102FF000C161FFF737FA08B1FDF775FA10BD00009F
:10300000001401407C15002000BFFEE700BFFEE772
:103010007047704710B5FDF791FD10BD034800687B
:1030200040F47000014908607047000088ED00E03E
:1030300010B50248FEF789FC10BD000024140020E2
:1030400010B50268294B98420ED0B0F1804F0BD0DA
:10305000274B984208D0274B984205D0264B9842E0
:1030600002D0264B984203D122F070024B681A43DB
:103070001E4B984220D0B0F1804F1DD01C4B98427F
:103080001AD01C4B984217D01B4B984214D01B4BA4
:10309000984211D01A4B98420ED01A4B98420BD03E
:1030A000194B984208D0194B984205D0184B9842BA
:1030B00002D0184B984203D122F44072CB681A43D5
:1030C00022F080034C6943EA040202608B68C36209
:1030D0000B688362054B984202D0084B984201D19D
:1030E0000B6903630123436110BD00000000014030
:1030F0000004004000080040000C004000040140B3
:1031000000400140004401400048014000180040D8
:10311000001C00400020004030B501F01F050124D4
:1031200004FA05F3046A9C430462046A01F01F0573
:1031300002FA05F52C43046230BD30B50C468168B7
:1031400021F47F4142EA032525432943816030BDB4
:1031500030B5056A25F010050562026A4368846986
:1031600024F4E04424F440740D6844EA052422F079
:1031700020028D6842EA0512124DA84200D103E0F8
:10318000114DA84207D100BF22F08002CD6842EA6B
:10319000051222F040020B4DA84202D00A4DA8426F
:1031A00009D123F4806323F400634D6943EA850366
:1031B0008D6943EA8503436084614D6885630262DB
:1031C00030BD0000000001400004014010B502487D
:1031D000FEF7D8FF10BD00006C14002010B50346A8
:1031E00099629A85DA8500201864222083F83E00CF
:1031F00000BF002083F83C0000BF186928B11868A0
:10320000C06840F480701C68E0601868406940F055
:1032100001001C6860611868C06840F020001C68EC
:10322000E060002010BD000010B50248FEF7AAFFC4
:1032300010BD0000F414002010B50248FEF7A2FFF4
:1032400010BD00003815002010B50248FEF79AFFA7
:1032500010BD00007C15002000BFFEE710B504463D
:103260000D48844205D101220C492046FFF79EFA01
:1032700010E00B48844205D101220A492046FFF79D
:1032800095FA07E00848844204D101220749204604
:10329000FFF78CFA10BD00007C1500200400002010
:1032A00038150020050000206C14002006000020C6
:1032B00000B593B0302107A8FDF793F8142102A8B8
:1032C000FDF78FF800BF002001902448006840F00F
:1032D0008050224908600846006800F08050019044
:1032E00000BF00BF00BF002001901D48006840F4EF
:1032F00040401B4908600846006800F440400190C7
:1033000000BF00BF012007900004089002200D902C
:1033100041050E9106210F91A821109102211191D2
:103320000421129107A8FDF71FFE08B1FDF7DBF895
:103330000F20029002200390002004904FF4A05030
:1033400005904FF480500690052102A8FDF7CCFCB3
:1033500008B1FDF7C8F813B000BD000040380240C6
:103360000070004010B52DED048B002461E09FED4E
:103370003E9A9FED3D0AB0EE408A9FED3B0AF0EE8B
:10338000408A3A48007800F07A0038280CDA9FED3D
:10339000380A38EE000AB0EE408A9FED360A38EE61
:1033A000C00AF0EE408A11E03048007800F07A0060
:1033B00038280BDD9FED2E0A38EE400AB0EE408A29
:1033C0009FED2C0A38EE800AF0EE408A2A480078F9
:1033D00000F07A0038280CDA9FED250A38EE000A52
:1033E000B0EE408A9FED230A38EE800AF0EE408A64
:1033F00011E02148007800F07A0038280BDD9FEDBD
:103400001C0A38EE400AB0EE408A9FED1A0A38EEE8
:10341000C00AF0EE408AB0EE681AF0EE480AB0EE4C
:10342000490A164800F072F91920FDF75FFA601C8E
:1034300084B20E48007800F07A00382805D10E4892
:10344000007800F07A00382801D0282C8FDB9FED1F
:10345000061ADFED050A9FED040A084800F056F948
:10346000BDEC048B10BD0000000000000400002033
:10347000CDCC4C3ECDCCCC3E050000201C00002025
:10348000014691F85800704780F8581070470FB403
:103490002DE9F04704461BAD95E8E0033D2209A95C
:1034A0002046FCF76CFF9DF8610084F83D009DF814
:1034B000620084F83E009DF863103F2001559DF89E
:1034C0006410402001559DF86510412001559DF87C
:1034D000660084F842009DF86710432001559DF86E
:1034E0006810442001559DF86910452001559DF84C
:1034F0006A0084F8460084F84850A4F84A60E764FB
:10350000A4F85080C4F85490294609A8FEF790FD0D
:10351000BDE8F0075DF814FB10B50446606E60B9B5
:10352000B4F84A100022E06CFDF7FCFAB4F8501031
:103530000022606DFDF7F6FA1EE0606E00280CDDDB
:10354000B4F84A100122E06CFDF7ECFAB4F8501020
:103550000022606DFDF7E6FA0EE0606E00280BDADF
:10356000B4F84A100022E06CFDF7DCFAB4F8501011
:103570000122606DFDF7D6FA94F8480028B9606E14
:1035800002F009F92168486318E094F8480004281B
:1035900005D1606E02F0FFF8216888630EE094F8B0
:1035A0004800082805D1606E02F0F5F82168C8636C
:1035B00004E0606E02F0EFF82168086410BD0000BE
:1035C000002180F858109FED050A80ED170A40F29F
:1035D000E73101660021416681667047B5220842E5
:1035E0000FB470B50446179D3D2205A92046FCF78F
:1035F000C6FE9DF8510084F83D009DF8520084F805
:103600003E009DF853103F2001559DF85410402076
:1036100001559DF85510412001559DF8560084F83C
:1036200042009DF85710432001559DF85810442042
:1036300001559DF85910452001559DF85A0084F810
:10364000460084F84850294605A8FEF7F1FC70BCF6
:103650005DF814FB10B5044640F6C31240F2F311B6
:1036600004F14C0002F080F894F8480018B9216881
:10367000E06C486312E094F84800042803D1216804
:10368000E06C88630AE094F84800082803D12168B8
:10369000E06CC86302E02168E06C086410BD0000C3
:1036A000B0EE002AC0EE821A80EE212ADFED0A2A4F
:1036B000DFED0A1A42EE221AB0EE611A9FED082AD7
:1036C000C1EE021A9FED072A61EE821AFDEEE11AA1
:1036D000C0ED131A704700006F12833AA69BC43ADC
:1036E000A69B443B00703B4510B5029C01804260A4
:1036F0000381C46010BD11B52DED040B00F5F06120
:103700009DE81C0064311CC105B010BD10B52DED45
:10371000048B84B00446B0EE408AF0EE608AB0EECE
:10372000419A8DED018ACDED028A8DED039A9DEDD2
:10373000031ADDED020A9DED010A0548FFF7DBFFE4
:10374000034800F01BF804B0BDEC048B10BD000072
:103750001C00002070B504460E4684F8E067002582
:1037600009E005EB451101EB410104EB8100314615
:1037700000F08BFC6D1C042DF3DB70BD70B52DEDDE
:10378000028B0446F7EE000ABFEE000A04F2E47072
:1037900001F0D6FFF7EE000ABFEE000A04F5FD6067
:1037A00001F0CEFFF0EE000AB8EE000A04F2EC7071
:1037B00001F0C6FF04F2E47090ED010AD0ED020AB8
:1037C0009FED561A01EE200A04F58060D0EDF90A4B
:1037D00030EE600ADFED520AC0EE208A2046FFF785
:1037E0004FFE08B9012001E04FF0FF3000EE100A53
:1037F000B8EEC00A28EE808AB0EE480A204600F0F3
:1038000041FC04F2E47090ED010AD0ED020A9FED54
:10381000451A01EE200A04F58060D0EDF90A30EE79
:10382000200ADFED3F0AC0EE208A04F5C670FFF7DC
:1038300027FE08B9012001E04FF0FF3000EE100A2A
:10384000B8EEC00A28EE808AB0EE480A04F5C670C9
:1038500000F018FC04F2E47090ED010AD0ED020AC9
:103860009FED311A01EE200A04F58060D0EDF90ACF
:103870009FED2E1A01EE200ADFED290AC0EE208A04
:10388000E838FFF7FDFD08B9012001E04FF0FF30F7
:1038900000EE100AB8EEC00A28EE808AB0EE480AA0
:1038A00004F5467000F0EEFB04F2E47090ED010ABE
:1038B000D0ED020A9FED1E1A01EE200A04F5806089
:1038C000D0EDF90A9FED191A01EE600ADFED140A36
:1038D000C0EE208AA430FFF7D3FD08B9012001E033
:1038E0004FF0FF3000EE100AB8EEC00A28EE808AD2
:1038F000B0EE480A04F2A44000F0C4FB002508E042
:1039000005EB451101EB410104EB810000F0C0FB28
:103910006D1C042DF4DBBDEC028B70BD091B9EBE3B
:103920004A0C823D091B9E3EA8570ABF6666A63F09
:10393000091B1E3F0FB430B5CFB004463D2253A93A
:1039400004F5E160FCF71BFD9DF8891184F845172B
:103950009DF88A1184F846179DF88B1184F8471753
:103960009DF88C1184F848179DF88D1184F849173B
:103970009DF88E1184F84A179DF88F1184F84B1723
:103980009DF8901184F84C179DF8911184F84D170B
:103990009DF8921184F84E173D2265A904F5F36055
:1039A000FCF7EDFC9DF8D11184F8D5179DF8D211E4
:1039B00084F8D6179DF8D31184F8D7179DF8D41141
:1039C00084F8D8179DF8D51184F8D9179DF8D61129
:1039D00084F8DA179DF8D71184F8DB179DF8D81111
:1039E00084F8DC179DF8D91184F8DD179DF8DA11F9
:1039F00084F8DE173D2265A93DA8FCF7C0FC9DF8C0
:103A0000D1018DF831019DF8D2018DF832019DF878
:103A1000D3118DF833119DF8D4118DF834119DF820
:103A2000D5118DF835119DF8D6018DF836019DF828
:103A3000D7118DF837119DF8D8118DF838119DF8F0
:103A4000D9118DF839119DF8DA018DF83A013D222E
:103A500053A92BA8FCF793FC9DF889018DF8E90088
:103A60009DF88A018DF8EA009DF88B118DF8EB1016
:103A70009DF88C118DF8EC109DF88D118DF8ED10DE
:103A80009DF88E018DF8EE009DF88F118DF8EF10E6
:103A90009DF890118DF8F0109DF891118DF8F110AE
:103AA0009DF892018DF8F200DE48C1148023CDE923
:103AB00026304822CDE928103DA914A8FCF75FFC68
:103AC000D84801210223CDE91030CDE912100020A1
:103AD0003C222EA90F906846FCF751FC20462BA9EA
:103AE0000EC900F075FB00212046FFF7CDFC3D22FA
:103AF00065A93DA8FCF743FC9DF8D1018DF8310183
:103B00009DF8D2018DF832019DF8D3118DF8331153
:103B10009DF8D4118DF834119DF8D5118DF835111B
:103B20009DF8D6018DF836019DF8D7118DF8371123
:103B30009DF8D8118DF838119DF8D9118DF83911EB
:103B40009DF8DA018DF83A013D2253A92BA8FCF724
:103B500016FC9DF889018DF8E9009DF88A018DF821
:103B6000EA009DF88B118DF8EB109DF88C118DF803
:103B7000EC109DF88D118DF8ED109DF88E018DF8EB
:103B8000EE009DF88F118DF8EF109DF890118DF8D3
:103B9000F0109DF891118DF8F1109DF892018DF8BB
:103BA000F200A04881154023CDE926304822CDE916
:103BB00028103DA914A8FCF7E2FB9B481021202304
:103BC000CDE91030CDE9121004203C222EA90F902F
:103BD0006846FCF7D4FB04F5C6702BA90EC900F0AB
:103BE000F7FA002104F5C670FFF74EFC3D2265A9E7
:103BF0003DA8FCF7C4FB9DF8D1018DF831019DF87B
:103C0000D2018DF832019DF8D3118DF833119DF852
:103C1000D4118DF834119DF8D5118DF835119DF81A
:103C2000D6018DF836019DF8D7118DF837119DF822
:103C3000D8118DF838119DF8D9118DF839119DF8EA
:103C4000DA018DF83A013D2253A92BA8FCF797FB26
:103C50009DF889018DF8E9009DF88A018DF8EA0048
:103C60009DF88B118DF8EB109DF88C118DF8EC10F0
:103C70009DF88D118DF8ED109DF88E018DF8EE00F8
:103C80009DF88F118DF8EF109DF890118DF8F010C0
:103C90009DF891118DF8F1109DF892018DF8F200C8
:103CA000624881150315CDE926304822CDE9281058
:103CB0003DA914A8FCF763FB5B4881144023CDE9C0
:103CC0001030CDE9121008203C222EA90F90684632
:103CD000FCF755FB04F546702BA90EC900F078FAE5
:103CE000002104F54670FFF7CFFB3D2265A93DA8F2
:103CF000FCF745FB9DF8D1018DF831019DF8D2010B
:103D00008DF832019DF8D3118DF833119DF8D4113F
:103D10008DF834119DF8D5118DF835119DF8D60127
:103D20008DF836019DF8D7118DF837119DF8D8110F
:103D30008DF838119DF8D9118DF839119DF8DA01F7
:103D40008DF83A013D2253A92BA8FCF718FB9DF8EA
:103D500089018DF8E9009DF88A018DF8EA009DF847
:103D60008B118DF8EB109DF88C118DF8EC109DF8EF
:103D70008D118DF8ED109DF88E018DF8EE009DF8F7
:103D80008F118DF8EF109DF890118DF8F0109DF8BF
:103D900091118DF8F1109DF892018DF8F2002248F2
:103DA00080210B02CDE926304822CDE928103DA91B
:103DB00014A8FCF7E4FA1E4801211E4A0423CDE9A9
:103DC0001032CDE912100C203C222EA90F9068462B
:103DD000FCF7D5FA04F2A4402BA90EC900F0F8F9BB
:103DE000002104F2A440FFF74FFB002514E005EB8F
:103DF000451101EB410104EB810101F16C009FEDE4
:103E00000E2ADFED0D1AB3EE091ADFED0C0A9FED55
:103E10000C0A01F00FF96D1C042DE8DB4FB030BC2B
:103E20005DF814FB0014024000100240000C024038
:103E300000040240000802400000804F00803B4523
:103E40000000FA440FB410B5A6B004463D2229A9DB
:103E500004F5EA60FCF793FA9DF8E11084F88D17F9
:103E60009DF8E21084F88E179DF8E31084F88F1700
:103E70009DF8E41084F890179DF8E51084F89117E8
:103E80009DF8E61084F892179DF8E71084F89317D0
:103E90009DF8E81084F894179DF8E91084F89517B8
:103EA0009DF8EA1084F896173D223BA904F5F360CB
:103EB000FCF765FA9DF8291184F8D5179DF82A11A9
:103EC00084F8D6179DF82B1184F8D7179DF82C117C
:103ED00084F8D8179DF82D1184F8D9179DF82E1164
:103EE00084F8DA179DF82F1184F8DB179DF830114C
:103EF00084F8DC179DF8311184F8DD179DF8321134
:103F000084F8DE173D2229A914A8FCF738FA9DF899
:103F1000E1008DF88D009DF8E2008DF88E009DF88F
:103F2000E3108DF88F109DF8E4108DF890109DF837
:103F3000E5108DF891109DF8E6008DF892009DF83F
:103F4000E7108DF893109DF8E8108DF894109DF807
:103F5000E9108DF895109DF8EA008DF8960031482B
:103F600002212023CDE91030CDE9121000203C229F
:103F700017A90F906846FCF702FA04F5C66014A969
:103F80000EC9FFF784FA002104F5C660FFF77CFA3A
:103F90003D2229A914A8FCF7F2F99DF8E1008DF85B
:103FA0008D009DF8E2008DF88E009DF8E3108DF8ED
:103FB0008F109DF8E4108DF890109DF8E5108DF8A5
:103FC00091109DF8E6008DF892009DF8E7108DF8AD
:103FD00093109DF8E8108DF894109DF8E9108DF875
:103FE00095109DF8EA008DF896000F4810212023C7
:103FF000CDE91030CDE9121004203C2217A90F9012
:104000006846FCF7BCF904F29C6014A90EC9FFF7DE
:104010003EFA012104F29C60FFF736FA26B010BC8C
:104020005DF814FB000802400000024010B5044691
:1040300004234FF4C6720F49204601F0D6F8044617
:1040400002236C220C4900F5C66001F0CEF8A0F501
:10405000C664012084F8E00704F5F060074B0ECB3E
:104060009FED070A64300EC004F5806080EDFC0A05
:10407000204610BDD1420008C1350008B0570008E5
:104080000000000080ED600A704780F86C117047F6
:1040900010B52DED028B044604F5B674D4E9010188
:1040A000401A08EE100A94ED030AF8EEC80A80EEF2
:1040B000801A94ED060A31EE000A84ED060A94EDAA
:1040C000030AB8EEC81AC1EE000A9FED400A80EE5E
:1040D000801A84ED041A6068A0602078A4F5B67494
:1040E00080B9D4ED600A94ED180AB8EEC00A20EE4B
:1040F000800AD4ED170A80EE201ABDEEC10A84EDC5
:10410000190A56E094F86C0101281CD1D4ED5F0A1D
:10411000B0EE600A04F16C0000F09AFFD4ED600A82
:10412000B0EE600A04F16C0000F070FE04F16C0067
:1041300000F070FE04F16C0000F087FFBDEEC00AD5
:1041400084ED190A35E094F86C01022831D1D4EDE0
:10415000620AB0EE600A04F1C00000F057FED4ED30
:10416000610AB0EE600A04F1C00000F071FF04F1D2
:10417000C00000F04FFE04F1C00000F066FFF0EE5A
:10418000408A04F16C0000F041FED4ED5F0AB0EE0D
:10419000600A04F16C0000F05BFF04F16C0000F0B9
:1041A00039FE04F16C0000F050FFBDEEC00A84ED52
:1041B000190A40F2E732514204F1640001F0D4FAE6
:1041C0002046FFF7A9F9BDEC028B10BDCDCC4C3DCC
:1041D0000FB42DE9F05F0446DDE934AB1DAD95E881
:1041E000E0033D220BA92046FCF7C9F89DF86900C1
:1041F00084F83D009DF86A0084F83E009DF86B103D
:104200003F2001559DF86C10402001559DF86D1020
:10421000412001559DF86E0084F842009DF86F1012
:10422000432001559DF87010442001559DF87110F0
:10423000452001559DF8720084F8460084F84850E6
:10424000A4F84A60E764A4F85080C4F854903D2272
:1042500022A904F58A70FCF792F89DF8C51084F83D
:1042600051119DF8C61084F852119DF8C71084F8BA
:1042700053119DF8C81084F854119DF8C91084F8A2
:1042800055119DF8CA1084F856119DF8CB1084F88A
:1042900057119DF8CC1084F858119DF8CD1084F872
:1042A00059119DF8CE1084F85A11A4F85CA1C4F8F5
:1042B00060B13698A4F864013798C4F868012946BB
:1042C0000BA8FDF7B5FEBDE8F01F5DF814FB00007C
:1042D00010B504462046FFF773F904466C3000F031
:1042E000BBFEA0F16C04543000F0B6FEA0F1C00497
:1042F000012084F86C010020C4F870019FED0B0AC6
:10430000C4F8740184ED5E0A9FED090A84ED5F0A2A
:104310009FED070A84ED600A9FED050A84ED610AAE
:104320009FED030A84ED620A204610BD27745F42A8
:1043300000000000014600208A6A8B69CBB932B1C7
:10434000012A0DD0022A03D0032A10D10EE000BFAB
:10435000CB6A03F08073B3F1807F00D1012007E0C6
:10436000CB6AB3F1C07F00D1012001E000E000BFC3
:1043700034E08B69B3F5005F1AD132B1012A07D05E
:10438000022A03D0032A11D10AE000BF01200EE067
:10439000CB6A03F08073B3F1807F00D1012006E087
:1043A000CB6AB3F1C07F00D1012000E000BF15E06F
:1043B00032B1012A05D0022A04D0032A0CD103E02D
:1043C00000BF00BF012008E0CB6A03F08073B3F1A7
:1043D000807F00D1012000E000BF00BF70470000D7
:1043E0000146087810381823B0FBF3F20848805CC7
:1043F000C865032A05D908686FF30900001D8865A0
:1044000003E008686FF309008865886D7047000055
:10441000BC57000830B5056A25F001050562026A3F
:104420004368846924F0700424F003040D682C436D
:1044300022F002028D682A43104DA84200D103E009
:104440000F4DA84206D100BF22F00802CD682A43D2
:1044500022F00402094DA84202D0094DA84207D11A
:1044600023F4807323F400734D692B438D692B4330
:10447000436084614D684563026230BD00000140C5
:104480000004014030B5056A25F480750562026AB2
:104490004368C46924F0700424F003040D682C43BD
:1044A00022F400728D6842EA0522124DA84200D122
:1044B00003E0114DA84207D100BF22F40062CD688D
:1044C00042EA052222F480620A4DA84202D00A4D37
:1044D000A84209D123F4805323F400534D6943EAE1
:1044E00005138D6943EA05134360C4614D68C563D4
:1044F000026230BD000001400004014030B5056A91
:1045000025F480550562036A4468C26922F4E042DA
:1045100022F440720D6842EA052223F400538D68AC
:1045200043EA0533084DA84202D0084DA84204D101
:1045300024F480444D6944EA85144460C2614D68A6
:104540000564036230BD000000000140000401402A
:104550000A46816821F0700142F007031943816027
:10456000704730B50B461446026A056A25F001050E
:104570000562816921F0F00141EA041122F00A028A
:104580001A438161026230BD30B50B461446056A9C
:1045900025F0100505628169026A21F4704141EA43
:1045A000043122F0A00242EA03128161026230BDAE
:1045B0002DE9F84F04462068006920F44050E16876
:1045C0000843216808612169A068084361690843BC
:1045D000E169084300902068C06849F20C61884393
:1045E000009908432168C8602068406920F4407041
:1045F000A16908432168486176492068884203D050
:1046000075492068884203D1FCF746FC814602E0E8
:10461000FCF732FC8146E069B0F5004F6CD1022016
:104620006168A0FB015003461920A9FB00700146F8
:104630002A463846FBF72CFE6421B0FBF1F04FEA26
:10464000001A02206168A0FB01510B461920A9FB4A
:1046500000712A463846FBF71BFE8346022061683C
:10466000A0FB015003461920A9FB00712A463846D9
:10467000FBF70EFE6421B0FBF1F000EBC00101EB93
:104680000010ABEB8000322101EBC0006421B0FBD5
:10469000F1F000F0F8000AEB400A02206168A0FB8C
:1046A000015003461920A9FB007001462A463846EE
:1046B000FBF7EEFD834602206168A0FB0150034634
:1046C0001920A9FB00712A463846FBF7E1FD642159
:1046D000B0FBF1F000EBC00101EB0010ABEB800090
:1046E000322101EBC0006421B0FBF1F000F00700C3
:1046F0005044216888606AE004206168A0FB015092
:1047000003461920A9FB007001462A463846FBF7EC
:10471000BFFD824604206168A0FB015003461920BA
:10472000A9FB007001462A463846FBF7B1FD64211B
:10473000B0FBF1F000EBC00101EB0010AAEB800030
:10474000322101EB00106421B0FBF1F000F0F00A1F
:1047500004206168A0FB017003461920A9FB0051E9
:104760003A462846FBF794FD6421B0FBF1F00AEBD2
:10477000001A04206168A0FB01510B461920A9FB17
:1047800000712A463846FBF783FD834604206168A2
:10479000A0FB015003461920A9FB007001462A46E0
:1047A0003846FBF775FD6421B0FBF1F000EBC0016A
:1047B00001EB0010ABEB8000322101EB0010642113
:1047C000B0FBF1F000F00F00504421688860BDE8B4
:1047D000F88F00000010014000140140F8B50446B5
:1047E00094F83E00222873D1A068B0F5805F0CD108
:1047F000206950B90025A66A20684068C0F3080007
:104800003080A06A801CA06215E0A56A0026A0681E
:10481000B0F5805F03D0A06828B9206918B9206876
:104820004068287004E02068406800F07F0028702D
:10483000A06A401CA062E08D401E80B2E085002886
:1048400044D12068C06820F020002168C86020683A
:10485000C06820F480702168C8602068406920F03A
:10486000010021684861202084F83E00206B012867
:1048700026D10020206300BF00BF21680C3151E821
:10488000001F21F0100021680C3141E80002002ACD
:10489000F3D100BF2068006800F0100010280AD192
:1048A00000BF0020009020680068009020684068E9
:1048B000009000BF00BFA18D2046FDF760FC02E024
:1048C0002046FDF795FF0020F8BD01E00020FBE742
:1048D0000220F9E7014691F83D00212828D1886897
:1048E000B0F5805F0BD1086948B90A6A1088C0F337
:1048F00008000B685860086A801C086205E00B6AB3
:10490000581C086218780B685860C88C401E80B22A
:10491000C88458B90868C06820F080000B68D86067
:104920000868C06840F040000B68D86000207047FD
:104930000220FCE700BF00BF02680C3252E8002FE3
:1049400022F4907102680C3242E80013002BF3D17C
:1049500000BF00BF00BF0268143252E8002F22F0EF
:1049600001010268143242E80013002BF3D100BFAA
:10497000016B01290ED100BF00BF02680C3252E862
:10498000002F22F0100102680C3242E80013002BC5
:10499000F3D100BF202180F83E1000210163704751
:1049A00010B504462068C06820F040002168C86047
:1049B000202084F83D002046FDF75CFF002010BD5C
:1049C00070B50546AC6B0020E085E0842046FDF71D
:1049D000D7FB70BD10B5002804DB0A07130E054A8B
:1049E000135406E00A07140E034A00F00F031B1FBE
:1049F000D45410BD00E400E018ED00E00248006867
:104A0000C0F30220704700000CED00E010B52DED62
:104A1000028B0446B0EE408ADFED070AB0EE480A8A
:104A200004F15400FEF73CFE04F15400FEF712FEC0
:104A3000BDEC028B10BD00000000AF430FB430B5D9
:104A4000A3B004460D4625603D2228A9201DFBF792
:104A500096FC9DF8DD1084F841109DF8DE1084F876
:104A600042109DF8DF1084F843109DF8E01084F8A0
:104A700044109DF8E11084F845109DF8E21084F888
:104A800046109DF8E31084F847109DF8E41084F870
:104A900048109DF8E51084F849109DF8E61084F858
:104AA0004A103A993B9AC4E913123D223CA904F1F9
:104AB0005400FBF764FC9DF82D1184F891109DF8CB
:104AC0002E1184F892109DF82F1184F893109DF800
:104AD000301184F894109DF8311184F895109DF8E8
:104AE000321184F896109DF8331184F897109DF8D0
:104AF000341184F898109DF8351184F899109DF8B8
:104B0000361184F89A1004F154004E994F9AC0E976
:104B100012123D22BB4911A8FBF731FCB94890F8AD
:104B20003D008DF88100B74890F83E008DF8820076
:104B3000B44890F83F108DF8831090F840108DF82D
:104B4000841090F841108DF8851090F842008DF88F
:104B50008600AC4890F843108DF8871090F8441008
:104B60008DF8881090F845108DF8891090F846005F
:104B70008DF88A0000203C2214A90F906846FBF7AC
:104B8000FEFB206811A90EC9FEF72AFD3D229E49B1
:104B900011A8FBF7F4FB9C4890F83D008DF88100CC
:104BA000994890F83E008DF88200974890F83F10A1
:104BB0008DF8831090F840108DF8841090F8411013
:104BC0008DF8851090F842008DF886008E4890F898
:104BD00043108DF8871090F844108DF8881090F8E5
:104BE00045108DF8891090F846008DF88A000C2049
:104BF0003C2214A90F906846FBF7C1FB216801F124
:104C0000500011A90EC9FEF7EBFC3D227E4911A808
:104C1000FBF7B5FB7C4890F83D008DF881007A48A1
:104C200090F83E008DF88200774890F83F108DF89C
:104C3000831090F840108DF8841090F841108DF892
:104C4000851090F842008DF886006F4890F8431068
:104C50008DF8871090F844108DF8881090F8451062
:104C60008DF8891090F846008DF88A0008203C22C3
:104C700014A90F906846FBF782FB216801F1A000A0
:104C800011A90EC9FEF7ACFC3D225F4911A8FBF744
:104C900076FB5D4890F83D008DF881005A4890F809
:104CA0003E008DF88200584890F83F108DF8831030
:104CB00090F840108DF8841090F841108DF8851010
:104CC00090F842008DF886004F4890F843108DF818
:104CD000871090F844108DF8881090F845108DF8E2
:104CE000891090F846008DF88A0004203C2214A90F
:104CF0000F906846FBF743FB216801F1F00011A912
:104D00000EC9FEF76DFC3D223F4911A8FBF737FBAA
:104D10003D4890F83D008DF881003B4890F83E00FA
:104D20008DF88200384890F83F108DF8831090F885
:104D300040108DF8841090F841108DF8851090F88F
:104D400042008DF88600304890F843108DF88710A7
:104D500090F844108DF8881090F845108DF889105F
:104D600090F846008DF88A0000203C2214A90F908C
:104D70006846FBF704FB201D11A90EC9FEF730FCA5
:104D80003D22204911A8FBF7FAFA1E4890F83D0091
:104D90008DF881001B4890F83E008DF8820019487C
:104DA00090F83F108DF8831090F840108DF8841023
:104DB00090F841108DF8851090F842008DF886002B
:104DC000104890F843108DF8871090F844108DF833
:104DD000881090F845108DF8891090F846008DF8ED
:104DE0008A0004203C2214A90F906846FBF7C7FAFA
:104DF00004F1540011A90EC9FEF7F2FB23B030BC38
:104E00005DF814FB4C1300209413002080ED060A7B
:104E10007047000010B52DED048B044694ED060A92
:104E2000D4ED070A30EE600A84ED080AD4ED080AD2
:104E3000B0EE600A00F0A2FCB0EE408A94ED100AD9
:104E4000B4EEC80AF1EE10FA06DD9FED790A84EDA2
:104E5000090ABDEC048B10BD94ED010AD4ED080ADB
:104E600020EE200A84ED0D0A94ED110AB5EEC00A79
:104E7000F1EE10FA09D194ED110AB5EEC00AF1EE87
:104E800010FA02D1F7EE008A39E094ED120AB4EE7E
:104E9000C80AF1EE10FA02DDF7EE008A24E094ED84
:104EA000110AD4ED120A70EE200A94ED120AB4EE43
:104EB000C80AF1EE10FA01D8012000E0002000EE4F
:104EC000100AB8EEC00AF4EEC00AF1EE10FA0BDDDB
:104ED00094ED110AD4ED120A30EE200A30EE480AA1
:104EE000D4ED110AC0EE208A94ED120AB4EEC80A7D
:104EF000F1EE10FA03D89FED4E0AF0EE408A94EDE1
:104F00000B0AD4ED000A60EEA80A94ED081A00EE30
:104F1000810A84ED0B0A94ED040AB5EEC00AF1EEA5
:104F200010FA19D094ED040AD4ED020A80EE201A8A
:104F3000B0EE419A94ED040AB1EE400AD4ED020AB3
:104F400080EE201AF0EE419AF0EE490AB0EE690ABE
:104F500004F12C0000F0F4FB94ED130AB5EEC00A46
:104F6000F1EE10FA08D194ED020AD4ED0B0A20EE0E
:104F7000200A84ED0E0A13E094ED130AB4EEC80A79
:104F8000F1EE10FA08DD94ED020AD4ED0B0A20EEE2
:104F9000200A84ED0E0A03E09FED250A84ED0E0A37
:104FA00094F8500001280CD194ED070AD4ED0A0AB8
:104FB00030EE600AD4ED030A20EE200A84ED0F0AD9
:104FC0000BE094ED080AD4ED0C0A30EE600AD4ED43
:104FD000030A20EE200A84ED0F0A94ED080A84EDFE
:104FE0000C0A94ED070A84ED0A0A94ED0D0AD4ED3B
:104FF0000E0A30EE200AD4ED0F0A30EE200A84EDBE
:10500000090A94ED050AB5EEC00AF1EE10FA0DD0CA
:1050100094ED051AF0EE410A94ED051AB1EE411A2D
:10502000B0EE410A04F1240000F08AFB00BF10E753
:105030000000000080ED010AC0ED020A80ED031AB5
:10504000C0ED041A80ED052A704790ED090A7047FB
:1050500080ED070A704700009FED190A80ED000AF5
:105060009FED180A80ED060A9FED160A80ED070AEB
:105070009FED140A80ED080A9FED120A80ED090ADF
:105080009FED100A80ED0D0A9FED0E0A80ED0E0ACD
:105090009FED0C0A80ED0F0A9FED0A0A80ED100AC1
:1050A0009FED080A80ED110A9FED060A80ED120AB5
:1050B0009FED040A80ED130A002180F8501070471C
:1050C000CDCCCC3D0000000070B50446A06820B9EE
:1050D000218B01226069FBF725FD20680068456A85
:1050E000606828B9E068284421680968486316E0C8
:1050F0006068042805D1E06828442168096888634D
:105100000DE06068082805D1E06828442168096836
:10511000C86304E0E0682844216809680864A0685E
:10512000401EA06070BD10B5530083604C00036941
:10513000B3FBF4F3C36010BD70B504460D461646CC
:105140002EB1218C0022E069FBF7ECFC04E0218CFD
:105150000122E069FBF7E6FC2DB1218B002260699A
:10516000FBF7E0FC04E0218B01226069FBF7DAFC2D
:1051700070BD2DE9F05F04460D4616461F46DDE979
:105180000CABDDE90A89256066602761606820B99B
:10519000642021680968486313E06068042804D12A
:1051A00064202168096888630BE06068082804D1DE
:1051B000642021680968C86303E0642021680968E5
:1051C00008642068FCF798FAD4E90001FCF7C8FDF0
:1051D000C4F81480C4F81CA0A4F81890A4F820B057
:1051E000BDE8F09F0146086870472DE9F0411C4674
:1051F00017460E00804607D0054602E02846B04715
:105200003D442046641EF9D24046BDE8F0810000CE
:1052100010B50348FEF70AFF0248FEF707FF10BD6E
:105220001C00002010080020CEB0FBF793FCFEF716
:105230003FF8FDF73FFBFDF721FBFDF7C3FCFDF752
:105240002BFDFDF783FDFDF765FCFDF703FEFDF784
:10525000BFFEFDF74DFEFDF767FEFDF79DFEFDF776
:105260003FFCFDF77DFEFE48FCF794FAFD48FCF795
:1052700091FA3D22FB493CA8FBF781F8F94890F8E8
:105280003D008DF82D01F74890F83E008DF82E0175
:10529000F44890F83F108DF82F1190F840108DF8D9
:1052A000301190F841108DF8311190F842008DF8CE
:1052B0003201EC4890F843108DF8331190F8441007
:1052C0008DF8341190F845108DF8351190F846009E
:1052D0008DF836013D22E3492AA8FBF750F8E14852
:1052E00090F83D008DF8E500DE4890F83E008DF81E
:1052F000E600DC4890F83F108DF8E71090F8401079
:105300008DF8E81090F841108DF8E91090F84200FF
:105310008DF8EA00D34890F843108DF8EB1090F820
:1053200044108DF8EC1090F845108DF8ED1090F8C1
:1053300046008DF8EE0048223CA90FA8FBF71FF8A5
:105340003C222DA96846FBF71AF8C7482AA90EC9BE
:10535000FEF7F0FA0021C448FEF7FCF93D22C149EE
:105360003CA8FBF70CF8BF4890F83D008DF82D01E4
:10537000BC4890F83E008DF82E01BA4890F83F10D6
:105380008DF82F1190F840108DF8301190F84110E1
:105390008DF8311190F842008DF83201B14890F843
:1053A00043108DF8331190F844108DF8341190F8B3
:1053B00045108DF8351190F846008DF836013D22E4
:1053C000AA492AA8FAF7DBFFA84890F83D008DF813
:1053D000E500A64890F83E008DF8E600A34890F856
:1053E0003F108DF8E71090F840108DF8E81090F815
:1053F00041108DF8E91090F842008DF8EA009B48C2
:1054000090F843108DF8EB1090F844108DF8EC10E4
:1054100090F845108DF8ED1090F846008DF8EE00EC
:1054200048223CA90FA8FAF7AAFF3C222DA96846FA
:10543000FAF7A5FF8E482AA90EC9FEF703FD3D2203
:105440008C493AA8FAF79BFF8A4890F83D008DF8FE
:105450002501884890F83E008DF82601854890F88F
:105460003F108DF8271190F840108DF8281190F812
:1054700041108DF8291190F842008DF82A017D48DD
:1054800090F843108DF82B1190F844108DF82C11E2
:1054900090F845108DF82D1190F846008DF82E01EA
:1054A0007449886CC96C3D224D914C90724926A874
:1054B000FAF765FF704890F83D008DF8D5006E480A
:1054C00090F83E008DF8D6006B4890F83F108DF8AC
:1054D000D71090F840108DF8D81090F841108DF842
:1054E000D91090F842008DF8DA00634890F8431024
:1054F0008DF8DB1090F844108DF8DC1090F8451012
:105500008DF8DD1090F846008DF8DE005A49886C61
:10551000C96C5022CDE938013AA912A8FAF72FFF39
:10552000482228A96846FAF72AFF54495448DDE979
:105530002623FFF783FA4FF4007052494200524B82
:10554000CDE90032CDE90210504B002250495148BC
:10555000FFF70FFE4FF4C85211464E48FFF7E3FD28
:105560004B48FCF7BBFB002211464A48FFF7E4FD1D
:10557000494801230246102100904848FEF7B4F83C
:105580004748FDF76BFE4748FDF768FE4648FDF7C4
:1055900065FE4FF47A70FBF7A9F9C8E09FED431A56
:1055A000DFED430A9FED410A2F48FEF7AFF800BF39
:1055B0004048007800F07F003828F9D19FED3B1A71
:1055C000DFED3A0A9FED390A2748FEF79FF8FDF70D
:1055D000C9FE4FF4FA70FBF789F9BFEE001ADFED50
:1055E000360A9FED360A2048FEF790F840F6340060
:1055F000FBF77CF99FED2D1ADFED310ABEEE000AB4
:105600001948FEF783F84FF47A60FBF76FF99FEDC6
:10561000271ADFED260A9FED250A1348FEF776F8D4
:105620004FF4FA70FBF762F99FED201ADFED230AC1
:105630009FED1E0A0C48FEF769F800BF214800786C
:1056400000F07E007E28F9D19FED181ADFED170AD1
:105650009FED160A0448FEF759F84FF4FA7033E04C
:1056600024140020041300201C000020BC12002081
:105670001008002038120020E8110020A810002097
:1056800004100020002002400014024040420F009D
:10569000DC1300208812002000080240AC12002019
:1056A0007C150020381500206C140020000000003C
:1056B000CDCCCCBE04000020CDCCCC3D9A9999BE77
:1056C0009A99993E06000020FBF710F99FED180A01
:1056D0001848FFF79BF94FF47A70FBF707F91FEDB5
:1056E0000D1A5FED0D0A1FED0F0A1348FEF70EF8B5
:1056F0004FF4FA60FBF7FAF81FED141A5FED150A84
:105700001FED160A0C48FEF701F84FF4FA70FBF78C
:10571000EDF81FED1A0A0748FFF778F94FF4FA7011
:10572000FBF7E4F89FED050A0248FFF76FF935E74C
:105730000000B4C2041000201C0000200000B4428D
:1057400090ED001AB4EEC01AF1EE10FA02D280ED1C
:10575000000A08E090ED001AB4EEE01AF1EE10FA3B
:1057600001DDC0ED000A704703688B4201DA016079
:1057700003E00368934200DD02607047F0EE400AE8
:10578000F5EEC00AF1EE10FA02DDB0EE600A7047E5
:10579000B1EE600AFBE70146002901DD08467047CB
:1057A0004842FCE74FF04070E1EE100A70470000FD
:1057B00000000000000000000000000000061016BD
:1057C00000061016000000000000000001020304A3
:1057D0000607080900000000010203040058000841
:1057E000000000201C000000E80100081C58000810
:1057F0001C000020641C00000402000815FAFFFFD2
:10580000000000000000000000570203000000003C
:0C58100010000000010000000024F40063
:04000005080001AD41
:00000001FF
